:10000000EBEF20F0FFFF570000C01EF001C01DF015
:1000100002C01CF003C01BF004C01AF005C019F0A8
:1000200008C018F009C017F00AC016F00BC015F090
:10003000E1CF27F0E2CF28F0E9CF25F0EACF26F094
:10004000F3CF23F0F4CF24F0F5CF22F0F8CF1FF058
:10005000F7CF20F0F6CF21F072EC1EF0A1A00DD06A
:1000600091CF87F090CF86F097CF83F09770CF6ACB
:10007000CE6A0001CD8FA19021D0A1A208D00001AD
:10008000CD83CE05006E00C0CEF0A19217D0F2A4B1
:1000900015D05D04006E00C05DF0000E5DBEFF0E69
:1000A000006E000E001802E1000E5D1802E18B8266
:1000B000D59E480ED76EE40ED66EF29422C0F5FFA0
:1000C0001FC0F8FF20C0F7FF21C0F6FF23C0F3FFD9
:1000D00024C0F4FF1EC000F01DC001F01CC002F0DF
:1000E0001BC003F01AC004F019C005F018C008F0D6
:1000F00017C009F016C00AF015C00BF025C0E9FFC3
:1001000026C0EAFF27C0E1FF28C0E2FF11001E0E53
:100110006B6E100E0001806F040E816F80C0E1FFD6
:1001200081C0E2FFE69E80C0E1FF81C0E2FFE69C65
:10013000040E8025E16E000E8121E26EE68C180E21
:10014000726F040E736F72C0E1FF73C0E2FFE69E30
:1001500072C0E1FF73C0E2FFE69C040E7225E16EFF
:10016000000E7321E26EE68C020E8025E16E000E19
:100170008121E26E9BC0E6FF9CC0E6FF010E802558
:10018000E16E000E8121E26E400EE66E80C0E9FF56
:1001900081C0EAFFEECF00F080C0E1FF81C0E2FF46
:1001A000400E0014E66E80C0E9FF81C0EAFFEECF8A
:1001B00000F080C0E1FF81C0E2FF880E0010E66E13
:1001C00080C0C2F081C0C3F0040E8019006E00C070
:1001D00080F012000B6A0A6A096A00500402F4CF28
:1001E00009F0F3CF08F001500502F4CF0BF0F3CF84
:1001F0000AF000500502F3500926F4500A22E86A7A
:100200000B2201500402F3500926F4500A22E86A36
:100210000B2208C000F009C001F00AC002F00BC0B8
:1002200003F012000401286B296B4AD000016A8F89
:10023000040128810001C851010A02E10401288358
:1002400054D000016A8F51D000016A8F040124BF8D
:1002500016D024C403F00F0E031603C000F0000EE6
:10026000016E0036009001367E0E0024E96E000E0D
:100270000120EA6EEECF04F0EECF05F015D024C4D5
:1002800003F00F0E031603C000F0000E016E0036DF
:1002900000900136700E0024E96E000E0120EA6E17
:1002A000EECF04F0EECF05F004C0E9FF05C0EAFF91
:1002B000EECF01F001A403D00401010E286F15D088
:1002C00020C401F01F0E01160150000AAFE020C447
:1002D00001F01F0E01160150010AB3E020C401F025
:1002E0001F0E01160150020AAFE000016AAF07D0ED
:1002F000280E676F040E686F6A81020E6B6F120022
:10030000000E00016C5D02E1080E6B5D10E26BC037
:1003100003F06CC004F08251000A03E1010E826F09
:1003200005D08251010A02E1020E826F04D0080E4C
:10033000036E000E046E70C0E1FF71C0E2FFE69232
:1003400070C0E1FF71C0E2FFE69070C0E9FF71C0CC
:10035000EAFFEECF00F070C0E1FF71C0E2FF045091
:100360000010E66E010E7025E16E000E7121E26E46
:1003700003C0E6FF03506B5D006E04506C59016EC4
:1003800000C06BF001C06CF0280EC46F040EC56F86
:100390006AB12FD0035004102BE067C0F6FF68C08D
:1003A000F7FF69C0F8FF0900F5CF00F0C4C0E1FF16
:1003B000C5C0E2FF00C0E6FFC44BC52B010E672598
:1003C000006E000E6821016E000E6921026E00C0F1
:1003D00067F001C068F002C069F0010E035C006EB6
:1003E000000E0458016E00C003F001C004F0D2D723
:1003F00024D00350041021E067C0E9FF68C0EAFF81
:10040000C4C0E1FFC5C0E2FFEECFE6FFC44BC52B81
:10041000010E6725006E000E6821016E00C067F0B6
:1004200001C068F0010E035C006E000E0458016EFE
:1004300000C003F001C004F0DCD712000401225117
:10044000010A13E120C401F01F0E01160150000A39
:100450000CE100016A8F04012151030A04E1010E3D
:100460000001C86F02D00001C86B04012251000ACC
:10047000D8A48DD020C401F01F0E01160150020A2D
:10048000D8A485D024C401F00F0E01160150000A33
:10049000D8B47DD000016A8F040124BF16D024C4D3
:1004A00003F00F0E031603C000F0000E016E0036BD
:1004B000009001367E0E0024E96E000E0120EA6EE7
:1004C000EECF04F0EECF05F015D024C403F00F0EEC
:1004D000031603C000F0000E016E003600900136D6
:1004E000700E0024E96E000E0120EA6EEECF04F0DB
:1004F000EECF05F02151030A07E104C0E1FF05C07A
:10050000E2FF840EE66E43D024C400F00F0E001606
:100510006A0E026E0F0E036E00500226D8B0032A38
:1005200002C0E9FF03C0EAFFFE0EEE14006EEECF3C
:1005300001F0FF0E011602C0E1FF03C0E2FF00C0A0
:10054000E6FF01C0E6FF24AF11D004C0E1FF05C003
:10055000E2FFE66A040E0418006E00C004F004C056
:10056000E1FF05C0E2FF400EE66E11D004C0E1FFDE
:1005700005C0E2FF880EE66E040E0418006E00C08F
:1005800004F004C0E1FF05C0E2FFC80EE66E1200F1
:1005900000016A8F6B6AA16B22C492F09251000A2B
:1005A00003E1100E7D6F03D0200E7D6FB0DD1200D1
:1005B00004012051800AD8A478D0C00E00016A6FCF
:1005C00069D00001BE0E006E430E016E000E026E79
:1005D00000C067F001C068F002C069F0120E6B6FD6
:1005E000000E6C6F62D00001030E006E000E016EF3
:1005F00022C404F0000E056EEDDD640E0024E96EE9
:10060000000E0120EA6EEECF67F0EECF68F0EECF7D
:1006100069F0020E6725F66E000E6821F76E000E77
:100620006921F86E0900F5CF00F00900F5CF01F05F
:1006300000C06BF001C06CF038D004012251000101
:10064000CB5D23E3030E006E000E016E22C404F0A6
:10065000000E056EBFDD740E0024E96E000E012051
:10066000EA6EEECF67F0EECF68F0EECF69F067C0CC
:10067000F6FF68C0F7FF69C0F8FF0900F5CF00F08A
:1006800000C06BF0000E6C6F01D06A6B0ED00001E1
:100690006A6B0BD004012351010A93E02351020A33
:1006A000A2E02351030AC9E0F2D7120020C401F0EE
:1006B0001F0E01160150010A01E094D004012451DB
:1006C000000A01E08FD02151060A42E137D0000133
:1006D0009251010A17E1950E006E430E016E000E55
:1006E000026E120E0026000E0122022200C067F0E8
:1006F00001C068F002C069F0090E6B6F000E6C6FEC
:10070000C00E6A6F25D000019251010A12E1E20E7B
:10071000006E420E016E000E026E00C067F001C056
:1007200068F002C069F0710E6B6F000E6C6FC00E46
:100730006A6F0ED00001800E6A6F0AD00401235147
:10074000210AC5E02351220ADEE02351230AF2E008
:1007500020C401F0600E0116050E006E005004E08A
:100760000132019EFF0FFBD70150010A01E03AD090
:1007700026D038D037D0A00E0001676F000E686F0A
:10078000010E6B6F000E6C6FC10E6A6F2BD00001F3
:10079000800E6A6F23C4A0F025D00001C60E676FDB
:1007A000000E686F010E6B6F000E6C6F810E6A6F2A
:1007B00019D00001800E6A6F22C4C6F013D0040164
:1007C0002151010AD6E02151090AD4E02151020A3F
:1007D000D2E021510A0ADBE02151030ADEE0215177
:1007E0000B0AE7E0120000019F5301E05FDF1200F7
:1007F00020C401F0600E0116050E006E005004E0EA
:100800000132019EFF0FFBD70150000A01E05ED0CC
:100810003AD000016A8F080E7D6F58D0C9DE56D0DD
:10082000B7DE54D00001920E676F000E686F6A81C8
:10083000010E6B6F6A8F4AD0F5DC48D0FFDD46D0E1
:10084000A10E006E000E016E040124510026D8B0E6
:10085000012A00C067F001C068F000016A81010E42
:100860006B6F6A8F33D000016A8FA10EE16E000EAC
:10087000E26E04012451E126D8B0E22A22C4E6FF48
:1008800025D024D023D004012151050AC2E02151F2
:10089000060AC4E02151090AC3E02151080AC2E056
:1008A0002151000AC9E02151010AC8E02151030A7F
:1008B000C5E021510A0AC4E021510B0AD4E02151BC
:1008C000070ADFE021510C0ADDE0DCD7120000014D
:1008D000916B70C0E1FF71C0E2FFE66A040E70190F
:1008E000E16E71C0E2FF000EE21AE66A8AAF01D043
:1008F0008A9F1200609800016ABF49D08AAF28D051
:10090000020E916F010E7025E16E000E7121E26EF4
:10091000E66A70C0E1FF71C0E2FFC80EE66E010E2C
:100920005E24E16E000E5F20E26E080EE66E020E9F
:100930005E24E16E000E5F20E26E280EE66E040E6D
:10094000E66E5EC0E1FF5FC0E2FFC80EE66E1ED03D
:10095000010E5E24E16E000E5F20E26E080EE66E70
:10096000020E5E24E16E000E5F20E26E200EE66E47
:10097000040EE66E5EC0E1FF5FC0E2FF8C0EE66E25
:1009800070C0E1FF71C0E2FF840EE66E82D08ABFC4
:1009900080D0040120AF55D000016C510401275DC7
:1009A00004E100016B510401265D04E226C46BF0F2
:1009B00027C46CF0A5DC010E916F010E5E24E16E80
:1009C000000E5F20E26E080EE66E020E5E24E16EFF
:1009D000000E5F20E26E200EE66E040EE66E5EC034
:1009E000E1FF5FC0E2FF800EE66EC76B010E5B2485
:1009F000E16E000E5C20E26E080EE66E020E5B24D5
:100A0000E16E000E5C20E26E200EE66E040EE66ED5
:100A10005BC0E1FF5CC0E2FF840EE66E010EC76FB3
:100A2000020E7025E16E000E7121E26E280EE66E58
:100A3000040EE66E70C0E1FF71C0E2FFC80EE66E04
:100A400028D00001020E916F010E7025E16E000E9C
:100A50007121E26EE66A70C0E1FF71C0E2FFC80E6C
:100A6000E66E010E5E24E16E000E5F20E26E080E5F
:100A7000E66E020E5E24E16E000E5F20E26E280E2E
:100A8000E66E040EE66E5EC0E1FF5FC0E2FFC80ED8
:100A9000E66E1200160E626E9F0E666E3B0E646E60
:100AA0001200950E0001646F430E656F000E666FB5
:100AB000A40E746F470E756F000E766F850E776FFC
:100AC000450E786F000E796F530E7A6F430E7B6F71
:100AD000000E7C6F1200010E5B24E96E000E5C209C
:100AE000EA6EEECF00F000C002F0000E00018C5D57
:100AF00002E102508B5D03E28BC002F00AD002508B
:100B00008B5D006E000E8C59016E00C08BF001C031
:100B10008CF0036A0250035C1CE2280EE96E040E9E
:100B2000EA6E0350E926D8B0EA2AEECF00F088C07A
:100B3000E1FF89C0E2FF00C0E6FF010E8825006EDC
:100B4000000E8921016E00C088F001C089F0032ADF
:100B5000E1D7000E006E8C51005C02E18B51000861
:100B600028E2010E5E24E16E000E5F20E26E080EA8
:100B7000E66E020E5E24E16E000E5F20E26E280E2D
:100B8000E66E040EE66E5BC0E9FF5CC0EAFFEECFE6
:100B900000F000BC07D05EC0E1FF5FC0E2FFC80EFE
:100BA000E66E06D05EC0E1FF5FC0E2FF880EE66E33
:100BB00019D0010E5E24E16E000E5F20E26E080E79
:100BC000E66E020E5E24E16E000E5F20E26E200EE5
:100BD000E66E040EE66E5EC0E1FF5FC0E2FF840ECB
:100BE000E66E8A9F120070C0E9FF71C0EAFFEECF87
:100BF00000F000AE05D070C0E1FF71C0E2FFE66A10
:100C00000001826B916B6B6B6C6B6A6BF1DDEBDDE2
:100C100071DE12006AA019D05BC0E9FF5CC0EAFF78
:100C2000EECF01F00150800A0FE170C0E9FF71C002
:100C3000EAFFEECF01F00150840A06E15BC0E1FF5C
:100C40005CC0E2FF8C0EE66E6A90DF0E6516120045
:100C5000A4941200560E0C6EB50E0D6E0D2EFED71E
:100C60000C2EFCD7000000001200C70E0D6E0D2EDA
:100C7000FED7000000001200030E0D6E0D2EFED7F1
:100C8000000000001200040E00017019006E00C088
:100C900070F07D51080A0AE122C463FF6350000826
:100CA00003E2100E7D6F02D0040E7D6F9151010A98
:100CB0003BE1020E7025E16E000E7121E26E280EFE
:100CC000E66E040EE66E80EC01F08251020A07E146
:100CD00070C0E1FF71C0E2FF840EE66E24D0040E06
:100CE0007019006E00C070F070C0E9FF71C0EAFFBB
:100CF000EECF00F000BC0CD0040E7019006E00C0E6
:100D000070F070C0E1FF71C0E2FFC80EE66E0BD05C
:100D1000040E7019006E00C070F070C0E1FF71C069
:100D2000E2FF880EE66E01D0D2DD12006484EF0E81
:100D300065166082120000019151020A02E1CBDEC9
:100D40001ED0C5DDC751000A19E1010E5E24E16E17
:100D5000000E5F20E26E080EE66E020E5E24E16E6B
:100D6000000E5F20E26E200EE66E040EE66E5EC0A0
:100D7000E1FF5FC0E2FF8C0EE66E01D0C76B120090
:100D80006092649465A403D0FB0E6516FBD7120035
:100D900088DEC26BC36B956B966B676A656A7ADE99
:100DA000608C636A6B6A609C6E6B6F6B000E6F5D2C
:100DB00002E1080E6E5D17E26EC000F06FC001F038
:100DC000003600900136003600900136000E0024F7
:100DD000E16E040E0120E26EE66AE66AE66AE66A01
:100DE0006E4B6F2BE3D7160E6A6E65A603D0F70E17
:100DF0006516FBD76A6B8A6B8B6B8C6B6098080EE1
:100E0000706F040E716F926B7D6B120000017D514B
:100E1000000A0AE1606A646A3DDE60B602D060865C
:100E2000FCD70001010E7D6F7D51010A08E160BA17
:100E300006D0656A646A64806488020E7D6F65A46A
:100E400005D064A403D0FB0E65169ADF60A202D021
:100E5000FFDED5D065A018D064A016D099DF040EAF
:100E60007D6F200E0401026F040E036F080E016FE8
:100E7000000E0015006E00C000F48C0E0011006E14
:100E800000C000F4FE0E651665A805D064A803D066
:100E90004DDFEF0E651665AC04D064AC02D0BF0E1A
:100EA000651665AA03D064AA01D0B4DE65A202D09B
:100EB00064B2676A040E00017D5D02E2C9DE9FD064
:100EC00064A69CD0ED6B040EED5DD8B097D065A6FE
:100ED00091D061CF5AF0F70E6516780E5A14016E54
:100EE0000150000AD8A485D0FD0E5A14016E026A82
:100EF000FF0E0216000E021802E1000E01186BE14F
:100F00007E0E5A14016E01C003F00332039E03C02B
:100F100000F0000E016E00360090013600360090A1
:100F20000136000E0024026E040E0120036E02C082
:100F30005BF003C05CF002C05EF003C05FF0040E23
:100F40005E18006E00C05EF002C0E9FF03C0EAFF59
:100F5000EECF00F000C001F03C0E01160132019E00
:100F60000132019E01500D0A34E1020E5B24E96E4C
:100F7000000E5C20EA6EEECF01F0EECF02F00250E0
:100F8000040A02E1280E011822E1020E5B24E16E40
:100F9000000E5C20E26E200EE66E040EE66EEC6B38
:100FA000080EEC5D14E2200EE16E040EE26EEC51D0
:100FB000E126D8B0E22A280EE96E040EEA6EEC5162
:100FC000E926D8B0EA2AEECFE6FFEC2BE9D70BDE14
:100FD00001D0B1DE0DD0FD0E5A14016E026AFF0E73
:100FE0000216000E021802E1040E011801E14BDEA8
:100FF00000D001D003D00001ED2B65D729DE12000F
:101000000001ED51000A12E0ECC000F0000E016E8C
:10101000003600900136700E0024E96E000E0120AB
:10102000EA6EEECF04F0EECF05F011D0ECC000F088
:10103000000E016E0036009001367E0E0024E96E2F
:10104000000E0120EA6EEECF04F0EECF05F0020EA6
:101050000424E16E000E0520E26EEEC0E6FFEFC054
:10106000E6FF010E0424E16E000E0520E26EF0C0E2
:10107000E6FF04C0E9FF05C0EAFFEECF00F004C0C0
:10108000E1FF05C0E2FF400E0014E66E04C0E9FF78
:1010900005C0EAFFEECF00F004C0E1FF05C0E2FFAB
:1010A000880E0010E66EED51000A1BE0ECC000F067
:1010B000000E016E003600900136700E0024026EA4
:1010C000000E0120036E02C0E9FF03C0EAFF040E18
:1010D000EE18006E02C0E1FF03C0E2FF00C0E6FFB1
:1010E0001AD0ECC000F0000E016E00360090013600
:1010F0007E0E0024026E000E0120036E02C0E9FF86
:1011000003C0EAFF040EEE18006E02C0E1FF03C048
:10111000E2FF00C0E6FF04C000F005C001F01200CD
:10112000000E0001ED1902E1000EEC1902E1016A66
:1011300009D0ECC0E9FFEDC0EAFFEECF00F0016A94
:1011400000BE012A01C000F01200D08EA584A38445
:10115000F28E12000001EF6BF06BF16B020EEC25CA
:10116000F66E000EED21F76E000EEE21F86E09000E
:10117000F5CF05F0030EEC25F66E000EED21F76EAF
:10118000000EEE21F86E0900F5CF00F000C003F06C
:10119000000E046E03C001F0006A05500024066EC4
:1011A000000E0120076EECC008F0EDC009F0EEC0A3
:1011B0000AF0010E0824F66E000E0920F76E000EEC
:1011C0000A20F86E0900F5CF01F00150020A1BE178
:1011D000060E0824F66E000E0920F76E000E0A2097
:1011E000F86E0900F5CF01F00150EF5D0CE2060E3C
:1011F0000824F66E000E0920F76E000E0A20F86E25
:101200000900F5CFEFF0010E0824F66E000E09205C
:10121000F76E000E0A20F86E0900F5CF01F00150BC
:10122000040A1BE1080E0824F66E000E0920F76E72
:10123000000E0A20F86E0900F5CF01F00150EF5DB5
:101240000CE2080E0824F66E000E0920F76E000E60
:101250000A20F86E0900F5CFEFF008C0F6FF09C0CC
:10126000F7FF0AC0F8FF0900F5CF00F00050F025A5
:10127000016E000EF121026E01C0F0F002C0F1F02B
:101280000750025C02E10650015C01E30FD008C088
:10129000F6FF09C0F7FF0AC0F8FF0900F5CF00F01C
:1012A00000500826000E09220A2283D7EFC000F062
:1012B00012000001ECBF02D0899601D08986ECBDF6
:1012C00002D0899401D08984ECBB02D0899201D0EC
:1012D0008982ECB902D0899001D089806DB102D0A9
:1012E000898801D08998898AC7DC899AECB702D0AD
:1012F000899601D08986ECB502D0899401D0898481
:10130000ECB302D0899201D08982ECB102D08990ED
:1013100001D089806DB102D0898801D08998898AED
:10132000ABDC899A6DA102D095DC01D09EDC120065
:10133000BE0E006E430E016E000E026E0E0E0024F5
:10134000F66E000E0120F76E000E0220F86E090006
:10135000F5CF03F003C004F00F0E0024F66E000E6C
:101360000120F76E000E0220F86E0900F5CF01F0A3
:101370000150035C12E2BE0E006E430E016E000EC1
:10138000026E0F0E0024F66E000E0120F76E000EA6
:101390000220F86E0900F5CF04F0BE0E006E430E79
:1013A000016E000E026E100E0024F66E000E01207B
:1013B000F76E000E0220F86E0900F5CF01F0015023
:1013C000045C12E2BE0E006E430E016E000E026E51
:1013D000100E0024F66E000E0120F76E000E0220A3
:1013E000F86E0900F5CF04F004C000F0120013D32A
:1013F0008F0E006E480E016E000E026EBDEF0EF0F5
:101400008D0E006E480E016E000E026EBDEF0EF0E6
:101410008B0E006E480E016E000E026EBDEF0EF0D8
:10142000950E006E480E016E000E026EBDEF0EF0BE
:10143000930E006E480E016E000E026EBDEF0EF0B0
:10144000910E006E480E016E000E026EBDEF0EF0A2
:10145000890E006E480E016E000E026EBDEF0EF09A
:10146000810E006E480E016E000E026EBDEF0EF092
:101470007F0E006E480E016E000E026EBDEF0EF084
:101480007D0E006E480E016E000E026EBDEF0EF076
:10149000870E006E480E016E000E026EBDEF0EF05C
:1014A000850E006E480E016E000E026EBDEF0EF04E
:1014B000830E006E480E016E000E026EBDEF0EF040
:1014C000A90E006E480E016E000E026EBDEF0EF00A
:1014D000A70E006E480E016E000E026EBDEF0EF0FC
:1014E000A50E006E480E016E000E026EBDEF0EF0EE
:1014F0009B0E006E480E016E000E026EBDEF0EF0E8
:10150000970E006E480E016E000E026EBDEF0EF0DB
:10151000A10E006E480E016E000E026EBDEF0EF0C1
:101520009D0E006E480E016E000E026EBDEF0EF0B5
:10153000990E006E480E016E000E026EBDEF0EF0A9
:10154000D10E006E480E016E000E026EBDEF0EF061
:10155000D30E006E480E016E000E026EBDEF0EF04F
:10156000B90E006E480E016E000E026EBDEF0EF059
:10157000BB0E006E480E016E000E026EFED3490EC9
:10158000006E480E016E000E026EF7D33F0E006E25
:10159000480E016E000E026EF0D31F0E006E480E54
:1015A000016E000E026EE9D3210E006E480E016E30
:1015B000000E026EE2D3670E006E480E016E000E42
:1015C000026EDBD3690E006E480E016E000E026ED5
:1015D000D4D3770E006E480E016E000E026ECDD38E
:1015E000790E006E480E016E000E026EC6D37B0EA1
:1015F000006E480E016E000E026EBFD3750E006EB7
:10160000480E016E000E026EB8D3630E006E480ED7
:10161000016E000E026EB1D3360E006E470E016EE3
:10162000000E026EAAD3EC0E006E470E016E000E85
:10163000026EA3D38F0E006E450E016E000E026E79
:101640009CD3E00E006E470E016E000E026E95D325
:10165000320E006E460E016E000E026E8ED3B70E75
:10166000006E480E016E000E026E87D3DB0E006E18
:10167000480E016E000E026E80D3D90E006E480E29
:10168000016E000E026E79D3D70E006E480E016E09
:10169000000E026E72D3E10E006E480E016E000E57
:1016A000026E6BD3DD0E006E480E016E000E026EF0
:1016B00064D3DF0E006E480E016E000E026E5DD325
:1016C000CF0E006E480E016E000E026E56D3CD0E88
:1016D000006E480E016E000E026E4FD3CB0E006EF0
:1016E000480E016E000E026E48D3D50E006E480EF5
:1016F000016E000E026E41D3D50E006E450E016ED6
:10170000000E026E3AD3000E006E480E016E000EFF
:10171000026E33D3090E006E480E016E000E026E8B
:101720002CD3120E006E480E016E000E026E25D3F1
:101730000F0E006E480E016E000E026E1ED30C0ED0
:10174000006E480E016E000E026E17D3F70E006E8B
:10175000470E016E000E026E10D3F40E006E470E9F
:10176000016E000E026E09D3FD0E006E470E016E73
:10177000000E026E02D3FA0E006E470E016E000ECE
:10178000026EFBD2E40E006E470E016E000E026E7A
:10179000F4D2E80E006E470E016E000E026EEDD21E
:1017A000F00E006E470E016E000E026EE6D28C0E39
:1017B000006E440E016E000E026EDFD2F00E006E5F
:1017C000440E016E000E026ED8D29F0E006E480EBF
:1017D000016E000E026ED1D2050E006E470E016E34
:1017E000000E026ECAD26E0E006E470E016E000E23
:1017F000026EC3D2EF0E006E460E016E000E026E38
:10180000BCD2FE0E006E460E016E000E026EB5D208
:10181000A00E006E470E016E000E026EAED2CB0E11
:10182000006E450E016E000E026EA7D2A30E006E72
:10183000480E016E000E026EA0D2AB0E006E480E76
:10184000016E000E026E99D2AD0E006E480E016E52
:10185000000E026E92D2AF0E006E480E016E000EA8
:10186000026E8BD2290E006E460E016E000E026EC5
:1018700084D2200E006E460E016E000E026E7DD2E6
:101880004D0E006E460E016E000E026E76D2440EB4
:10189000006E460E016E000E026E6FD23B0E006EA1
:1018A000460E016E000E026E68D2580E006E440E97
:1018B000016E000E026E61D20E0E006E460E016EBB
:1018C000000E026E5AD2FC0E006E450E016E000E26
:1018D000026E53D2170E006E460E016E000E026E9F
:1018E0004CD2F30E006E450E016E000E026E45D214
:1018F000050E006E460E016E000E026E3ED2560EB2
:10190000006E460E016E000E026E37D2B00E006EF3
:10191000460E016E000E026E30D2A70E006E460E0D
:10192000016E000E026E29D2C20E006E460E016ECE
:10193000000E026E22D2B90E006E460E016E000E2F
:10194000026E1BD2DD0E006E460E016E000E026EA0
:1019500014D2E60E006E460E016E000E026E0DD21F
:10196000AC0E006E470E016E000E026E06D2900E97
:10197000006E470E016E000E026EFFD18C0E006EDF
:10198000470E016E000E026EF8D1940E006E470EE7
:10199000016E000E026EF1D19C0E006E470E016EBC
:1019A000000E026EEAD1980E006E470E016E000E18
:1019B000026EE3D1B40E006E470E016E000E026E91
:1019C000DCD1D00E006E470E016E000E026ED5D136
:1019D000CC0E006E470E016E000E026ECED1D40EFC
:1019E000006E470E016E000E026EC7D1DC0E006E57
:1019F000470E016E000E026EC0D1D80E006E470E6B
:101A0000016E000E026EB9D1E60E006E480E016E38
:101A1000000E026EB2D10001C951040AD8B4E8D454
:101A2000C951050AD8B4ECD4C951060AD8B4F0D4C7
:101A3000C951070AD8B4F4D4C951080AD8B4F8D4A3
:101A4000C951090AD8B4FCD4C9510A0AD8B400D57E
:101A5000C9510B0AD8B404D5C9510C0AD8B408D559
:101A6000C9510D0AD8B40CD5C9510E0AD8B410D535
:101A7000C9510F0AD8B414D5C951100AD8B418D511
:101A8000C951110AD8B41CD5C951120AD8B420D5ED
:101A9000C951130AD8B424D5C951140AD8B428D5C9
:101AA000C951150AD8B42CD5C951160AD8B430D5A5
:101AB000C951170AD8B434D5C951180AD8B438D581
:101AC000C951190AD8B43CD5C9511A0AD8B440D55D
:101AD000C9511B0AD8B444D5C9511C0AD8B448D539
:101AE000C9511D0AD8B44BD5C9511E0AD8B44ED518
:101AF000C9511F0AD8B451D5C951200AD8B454D5F8
:101B0000C951210AD8B457D5C951220AD8B45AD5D7
:101B1000C951230AD8B45DD5C951240AD8B460D5B7
:101B2000C951250AD8B463D5C951260AD8B466D597
:101B3000C951270AD8B469D5C951280AD8B46CD577
:101B4000C951290AD8B46FD5C9512A0AD8B472D557
:101B5000C9512B0AD8B475D5C9512C0AD8B478D537
:101B6000C9512D0AD8B47BD5C9512E0AD8B47ED517
:101B7000C9512F0AD8B481D5C951300AD8B484D5F7
:101B8000C951310AD8B487D5C951330AD8B48AD5D6
:101B9000C951340AD8B48DD5C951350AD8B490D5B5
:101BA000C951360AD8B493D5C951370AD8B496D595
:101BB000C951380AD8B499D5C951390AD8B49CD575
:101BC000C9513A0AD8B49FD5C9513B0AD8B4A2D555
:101BD000C9513C0AD8B4A5D5C9513D0AD8B4A8D535
:101BE000C9513E0AD8B4ABD5C9513F0AD8B4AED515
:101BF000C951400AD8B4B1D5C951410AD8B4B4D5F5
:101C0000C951420AD8B4B7D5C951430AD8B4BAD5D4
:101C1000C951440AD8B4BDD5C951450AD8B4C0D5B4
:101C2000C951460AD8B4C3D5C951470AD8B4C6D594
:101C3000C951480AD8B4C9D5C951490AD8B4CCD574
:101C4000C9514A0AD8B4CFD5C9514B0AD8B4D2D554
:101C5000C9514C0AD8B4D5D5C9514D0AD8B4D8D534
:101C6000C9514E0AD8B4DBD5C9514F0AD8B4DED514
:101C7000C951500AD8B4E1D5C951510AD8B4E4D5F4
:101C8000C951520AD8B4E7D5C951530AD8B4EAD5D4
:101C9000C951540AD8B4EDD5C951550AD8B4F0D5B4
:101CA000C951560AD8B4F3D5C951570AD8B4F6D594
:101CB000C951580AD8B4F9D5C951590AD8B4FCD574
:101CC000C9515A0AD8B4FFD5C9515B0AD8B402D653
:101CD000C9515C0AD8B405D6C9515D0AD8B408D632
:101CE000C9515E0AD8B40BD6C9515F0AD8B40ED612
:101CF000C951600AD8B411D6C951610AD8B414D6F2
:101D0000C951620AD8B417D6C951630AD8B41AD6D1
:101D1000C951670AD8B41DD6C951680AD8B420D6AB
:101D2000C951690AD8B423D6C9516A0AD8B426D68B
:101D3000C9516B0AD8B429D6C9516C0AD8B42CD66B
:101D4000C9516D0AD8B42FD6C9516E0AD8B432D64B
:101D5000C9516F0AD8B435D6C951700AD8B438D62B
:101D6000C951710AD8B43BD6C951720AD8B43ED60B
:101D7000C951730AD8B441D647D6120096D1B10ED4
:101D8000006E480E016E000E026E75D2B30E006E2C
:101D9000480E016E000E026E6ED2B50E006E480E39
:101DA000016E000E026E67D2BD0E006E480E016E0F
:101DB000000E026E60D2C50E006E480E016E000E5F
:101DC000026E59D2C70E006E480E016E000E026EF2
:101DD00052D2C90E006E480E016E000E026E4BD23A
:101DE000BF0E006E480E016E000E026E44D2C10E90
:101DF000006E480E016E000E026E3DD2C30E006EE4
:101E0000480E016E000E026E36D2310E006E480E84
:101E1000016E000E026E2FD2430E006E480E016E50
:101E2000000E026E28D2390E006E480E016E000EB2
:101E3000026E21D23B0E006E480E016E000E026E45
:101E40001AD23D0E006E480E016E000E026E13D2C5
:101E5000330E006E480E016E000E026E0CD2350E6F
:101E6000006E480E016E000E026E05D2370E006E37
:101E7000480E016E000E026EFED1450E006E480E39
:101E8000016E000E026EF7D1470E006E480E016E15
:101E9000000E026EF0D1410E006E480E016E000E73
:101EA000026EE9D1230E006E480E016E000E026E26
:101EB000E2D1060E006E000E016E000E026EDBD146
:101EC0001B0E006E480E016E000E026ED4D11D0E68
:101ED000006E480E016E000E026ECDD12B0E006E0C
:101EE000480E016E000E026EC6D12D0E006E480E19
:101EF000016E000E026EBFD12F0E006E480E016EF5
:101F0000000E026EB8D1250E006E480E016E000E56
:101F1000026EB1D1270E006E480E016E000E026EE9
:101F2000AAD1290E006E480E016E000E026EA3D1DA
:101F30006B0E006E480E016E000E026E9CD16D0E8F
:101F4000006E480E016E000E026E95D16F0E006E8F
:101F5000480E016E000E026E8ED1650E006E480EA8
:101F6000016E000E026E87D1530E006E480E016E98
:101F7000000E026E80D1550E006E480E016E000EEE
:101F8000026E79D14B0E006E480E016E000E026E8D
:101F900072D14D0E006E480E016E000E026E6BD1B6
:101FA0004F0E006E480E016E000E026E64D15D0E83
:101FB000006E480E016E000E026E5DD15F0E006E67
:101FC000480E016E000E026E56D1610E006E480E74
:101FD000016E000E026E4FD1570E006E480E016E5C
:101FE000000E026E48D1590E006E480E016E000EB2
:101FF000026E41D15B0E006E480E016E000E026E45
:102000003AD1510E006E480E016E000E026E33D1B1
:10201000650E006E450E016E000E026E2CD1080E8C
:10202000006E450E016E000E026E25D1140E006E7C
:10203000450E016E000E026E1ED1200E006E450E82
:10204000016E000E026E17D1990E006E440E016EE5
:10205000000E026E10D1380E006E450E016E000E9D
:10206000026E09D1B70E006E450E016E000E026EB3
:1020700002D1FC0E006E440E016E000E026EFBD00B
:10208000130E006E440E016E000E026EF4D0210E8F
:10209000006E440E016E000E026EEDD0E70E006E73
:1020A000480E016E000E026EE6D00001C951040A0E
:1020B000D8B465D6C951050AD8B468D6C951060A3C
:1020C000D8B46BD6C951070AD8B46ED6C951080A1C
:1020D000D8B471D6C951090AD8B474D6C9510A0AFC
:1020E000D8B477D6C9510B0AD8B47AD6C9510C0ADC
:1020F000D8B47DD6C9510D0AD8B480D6C9510E0ABC
:10210000D8B483D6C9510F0AD8B486D6C951100A9B
:10211000D8B489D6C951110AD8B48CD6C951120A7B
:10212000D8B48FD6C951130AD8B492D6C951140A5B
:10213000D8B495D6C951150AD8B498D6C951160A3B
:10214000D8B49BD6C951170AD8B49ED6C951180A1B
:10215000D8B4A1D6C951190AD8B4A4D6C9511A0AFB
:10216000D8B4A7D6C9511B0AD8B4AAD6C9511C0ADB
:10217000D8B4ADD6C9511D0AD8B4B0D6C9511E0ABB
:10218000D8B4B3D6C9511F0AD8B4B6D6C951200A9B
:10219000D8B4B9D6C951210AD8B4BCD6C951220A7B
:1021A000D8B4BFD6C951230AD8B4C2D6C951240A5B
:1021B000D8B4C5D6C951250AD8B4C8D6C951260A3B
:1021C000D8B4CBD6C951270AD8B4CED6C9512D0A16
:1021D000D8B4D1D6C9512E0AD8B4D4D6C9512F0AF1
:1021E000D8B4D7D6C951300AD8B4DAD6C951310AD1
:1021F000D8B4DDD6C951330AD8B4E0D6C951340AAF
:10220000D8B4E3D6C951350AD8B4E6D6C951360A8E
:10221000D8B4E9D6C951370AD8B4ECD6C951380A6E
:10222000D8B4EFD6C951590AD8B4F2D6C9515A0A0E
:10223000D8B4F5D6C9515B0AD8B4F8D6C9515C0AEE
:10224000D8B4FBD6C9515E0AD8B4FED6C9515F0ACC
:10225000D8B401D7C951600AD8B404D7C951610AAA
:10226000D8B407D7C951620AD8B40AD7C951630A8A
:10227000D8B40DD713D71200200E00017D5D03E303
:1022800060B201D002D0006A3ED095C0ECF096C09A
:10229000EDF090EC08F0005235E1EBC0ECF0010EEF
:1022A000ED6FE8C0EEF0E9C0EFF0EAC0F0F000EC4E
:1022B00008F000C095F001C096F0976B986B996B91
:1022C0009A6B95C0ECF096C0EDF090EC08F00052DF
:1022D00010E0010E016E0150000A02E106EC07F069
:1022E00000019751981199119A1102E0006A0BD0E0
:1022F000E8D7010E9525E96E000E9621EA6EEECF25
:1023000000F001D0006A120000017D51000A0CE1CA
:10231000606A646A4AEC05F0A5EC08F060B602D089
:102320006086FCD7010E7D6F1200606A646A00014E
:102330007D6B120000016D91E8C0ECF059EC09F0E2
:102340006D81120098EC09F000C0E8F0950E0001D4
:10235000EC6F430EED6F000EEE6FAAEC08F000C0BC
:10236000E9F0E851005C03E2E8C000F002D0E9C007
:1023700000F01200086A080E0C6E00340836045093
:10238000085ED8B002D00826D89000360C2EF5D7BB
:102390001200D8DF00C0CBF0010E9F6FE2C09BF0AF
:1023A000E3C09CF0E4C093F0E5C094F0C8EC06F004
:1023B000010E016E0150010A01E1A6DF12000001C9
:1023C000CC51000A01E10ED0CC51FF0A01E10AD044
:1023D0008B92CCC05DF0480ED76EE40ED66EF294B0
:1023E000F28AD58E1200A1DF1200E2C004F0E3C031
:1023F00005F004C0E9FF05C0EAFFEE5203E0044A1D
:10240000052AF7D70001E651E71121E004C002F0E8
:1024100005C003F0044A052AE4C000F0E5C001F05D
:10242000E44BE52B00C0E9FF01C0EAFF02C0E1FF79
:1024300003C0E2FFEECFE6FF02C0E9FF03C0EAFF00
:10244000EE5205E0010EE65F000EE75BDBD7000E03
:10245000E71902E1000EE61905E104C0E1FF05C03D
:10246000E2FFE66AE2C000F0E3C001F01200F00E05
:102470000001E215026E02C000F00032009E003240
:10248000009E0032009E0032009ED00E0024F66EA8
:10249000430EF76E000EF722000EF86E000EF822C3
:1024A0000900F5CF00F0E3C0E1FFE4C0E2FF00C0A7
:1024B000E6FFE34BE42B0F0EE215006ED00E002476
:1024C000F66E430EF76E000EF722000EF86E000E49
:1024D000F8220900F5CF00F0E3C0E1FFE4C0E2FF1D
:1024E00000C0E6FF12000001E56B030EE55D0AE2A5
:1024F000E551E325E16E000EE421E26E200EE66E6A
:10250000E52BF3D7E551E325E16E000EE421E26E01
:10251000E66AE507E551E325E66F000EE421E76F83
:102520000A0E046EE2C000F025DF08C000F0300E95
:102530000026E6C0E1FFE7C0E2FF00C0E6FF0A0EAA
:10254000046EE2C000F016DF00C0E2F00050000AA6
:1025500001E102D0E507DED71200E2C0E8F0E3C0F7
:10256000E9F0E4C0EAF0010E0001EB6F85DE120035
:10257000E2C004F0E3C005F004C0E9FF05C0EAFFD3
:10258000EE5203E0044A052AF7D704C002F005C062
:1025900003F0044A052AE4C000F0E5C001F00001A0
:1025A000E44BE52B00C0E9FF01C0EAFF02C0E1FFF8
:1025B00003C0E2FFEECFE6FF02C0E9FF03C0EAFF7F
:1025C000EE5201E0E2D7E2C000F0E3C001F01200F9
:1025D000A20E056E000E066E05C003F006C004F0E4
:1025E000054A062AE2C000F0E3C001F0E4C002F0B0
:1025F000010E0001E227000EE323E42300C0F6FFF2
:1026000001C0F7FF02C0F8FF0900F5CF00F003C0DA
:10261000E1FF04C0E2FF00C0E6FF03C0E9FF04C021
:10262000EAFFEE5201E0D8D7A20E006E000E016E56
:10263000120010D0800E0001E26F1AD0C00EE26FBF
:1026400017D0940EE26F14D0D40EE26F11D0800E2A
:10265000E26F0ED00001E251010AECE0E251020A01
:10266000EDE0E251030AEDE0E251040AEDE0EFD7BC
:10267000E305006EE251002600C0E2F000C0ECF07D
:1026800059EC09F06D91E66BE651E425E96E000E18
:10269000E521EA6EEE520BE0E651E425E96E000E0C
:1026A000E521EA6EEECFE8F045DEE62BEDD76D8151
:1026B0001200E2C004F0E3C005F004C002F005C05F
:1026C00003F0044A052AE4C000F0E5C001F000016F
:1026D000E44BE52B00C0E9FF01C0EAFF02C0E1FFC7
:1026E00003C0E2FFEECFE6FF02C0E9FF03C0EAFF4E
:1026F000EE5201E0E2D7E2C000F0E3C001F01200C8
:10270000C9C0E2F0CAC0E3F0F00E0001CA15E46FE0
:10271000E7D2F7EC09F000C061F001C062F002C03E
:1027200063F00001CAA321D0BEEC0EF000C057F048
:1027300001C058F002C059F000C0F6FF01C0F7FF19
:1027400002C0F8FF0900F5CF00F0005207E057C0C3
:1027500000F058C001F059C002F0D3D261C000F0BF
:1027600062C001F063C002F0CCD261C000F062C070
:1027700001F063C002F0C5D21CD07B0E006E450E86
:10278000016E000E026EBDD24E0E006E470E016E3F
:10279000000E026EB6D2690E006E470E016E000E7C
:1027A000026EAFD2E30E006E480E016E000E026E96
:1027B000A8D20001E351100A02E1810EE219DDE026
:1027C000E351100A02E1820EE219DEE0E351100A41
:1027D00002E1830EE219DFE0E5D70AD1730E006E45
:1027E000470E016E000E026E8CD2DF0E006E450E9B
:1027F000016E000E026E85D2280E006E470E016E2D
:10280000000E026E7ED2210E006E470E016E000E8B
:10281000026E77D22F0E006E470E016E000E026E12
:1028200070D20C0E006E470E016E000E026E69D261
:10283000C10E006E450E016E000E026E62D2130EC6
:10284000006E470E016E000E026E5BD21A0E006E15
:10285000470E016E000E026E54D2A80E006E470E97
:10286000016E000E026E4DD2B00E006E470E016E6C
:10287000000E026E46D2710E006E480E016E000E02
:10288000026E3FD2730E006E480E016E000E026E95
:1028900038D2BC0E006E470E016E000E026E31D2B1
:1028A000180E006E480E016E000E026E2AD2150E32
:1028B000006E480E016E000E026E23D2B80E006E3E
:1028C000470E016E000E026E1CD2C80E006E470E3F
:1028D000016E000E026E15D2820E006E470E016E62
:1028E000000E026E0ED2420E006E470E016E000EFA
:1028F000026E07D2C40E006E470E016E000E026E0D
:1029000000D2870E006E470E016E000E026EF9D1E6
:10291000780E006E470E016E000E026EF2D17D0E33
:10292000006E470E016E000E026EEBD17F0E006E40
:10293000440E016E000E026EE4D1E40E006E440EF1
:10294000016E000E026EDDD13C0E006E470E016E70
:10295000000E026ED6D1700E006E450E016E000E96
:10296000026ECFD19E0E006E460E016E000E026EFC
:10297000C8D1D80E006E440E016E000E026EC1D199
:102980004F0E006E450E016E000E026EBAD1950E0E
:10299000006E460E016E000E026EB3D1680E006E20
:1029A000460E016E000E026EACD15F0E006E460E3A
:1029B000016E000E026EA5D17A0E006E460E016EFB
:1029C000000E026E9ED1CC0E006E440E016E000E03
:1029D000026E97D13D0E006E440E016E000E026E27
:1029E00090D1E80E006E480E016E000E026E89D185
:1029F000E351200A02E1400EE219D8B4EFD6E351C8
:102A0000200A02E1410EE219D8B4EFD6E351200AC0
:102A100002E1420EE219D8B4EFD6E351200A02E1F6
:102A2000430EE219D8B4EFD6E351200A02E1440E76
:102A3000E219D8B4EFD6E351200A02E1450EE219BB
:102A4000D8B4EFD6E351200A02E1460EE219D8B419
:102A5000EFD6E351200A02E1470EE219D8B4EFD6CF
:102A6000E351200A02E1480EE219D8B4EFD6E3514F
:102A7000200A02E19C0EE219D8B4EFD6E351200AF5
:102A800002E19D0EE219D8B4EFD6E351200A02E12B
:102A9000B00EE219D8B4EFD6E351200A02E1B10E2C
:102AA000E219D8B4EFD6E351200A02E1B20EE219DE
:102AB000D8B4EFD6E351200A02E1B30EE219D8B43C
:102AC000EFD6E351200A02E1B40EE219D8B4EFD6F2
:102AD000E351200A02E1B50EE219D8B4EFD6E35172
:102AE000200A02E1B60EE219D8B4EFD6E351200A6B
:102AF00002E1B70EE219D8B4EFD6E351200A02E1A1
:102B0000B80EE219D8B4EFD6E351200A02E1CD0E97
:102B1000E219D8B4EFD6E351200A02E1E20EE2193D
:102B2000D8B4EFD6E351200A02E1E90EE219D8B495
:102B3000EFD6E351200A02E1EA0EE219D8B4EFD64B
:102B4000E351210A02E1830EE219D8B4EFD6E35132
:102B5000210A02E1850EE219D8B4EFD6E351210A29
:102B600002E18A0EE219D8B4EFD6E351210A02E15C
:102B7000920EE219D8B4EFD6E351210A02E1940E85
:102B8000E219D8B4EFD6E351210A02E1960EE21918
:102B9000D8B4EFD6E351220A02E1210EE219D8B4EB
:102BA000EFD6E351220A02E1230EE219D8B4EFD6A0
:102BB000E351220A02E1240EE219D8B4EFD6E35120
:102BC000220A02E1250EE219D8B4EFD6E351220A17
:102BD00002E1260EE219D8B4EFD6E351220A02E14F
:102BE000270EE219D8B4EFD6E351220A02E12A0EE9
:102BF000E219D8B4EFD6F5D64DD0C00E006E440E13
:102C0000016E000E026E7DD0650E006E440E016EE8
:102C1000000E026E76D0720E006E440E016E000E33
:102C2000026E6FD0710E006E460E016E000E026EC7
:102C300068D0990E006E450E016E000E026E61D0D6
:102C4000D40E006E460E016E000E026E5AD02C0E8F
:102C5000006E450E016E000E026E53D0AD0E006E7A
:102C6000450E016E000E026E4CD0CB0E006E460E6D
:102C7000016E000E026E45D0440E006E450E016ED0
:102C8000000E026E3ED0E40E006E480E016E000E85
:102C9000026E37D0C951000AB0E0C951010AB4E050
:102CA000C951020AB8E0C951030ABCE0C951040A7B
:102CB000C0E0C951050AC4E0C951060AC8E0C951BB
:102CC000080ACCE0C951070AD0E0C9510A0AD4E089
:102CD000DAD7E50E006E480E016E000E026E11D0BE
:102CE000E451000AD8B415D5E451100AD8B444D53B
:102CF000E451200AD8B471D5E451F00AD8B47CD795
:102D0000E8D71200DFEC11F0E10EE26F430EE36F43
:102D1000000EE46F5DDC00C0E4F001C0E5F0020EDF
:102D2000E26F010EE36F85DC4B0E0501086F096B46
:102D30000A6B0B6B0001CD91CDB15AD0000EE26F42
:102D4000050EE36F080EE46F050EE56FC9EC11F098
:102D5000E06BCDB136D0320EE05D33E28B80040EF5
:102D60000B6E0C0E0C6E330E0D6E0D2EFED70C2E50
:102D7000FCD70B2EFAD7000000008B90040E0B6ED0
:102D80000C0E0C6E330E0D6E0D2EFED70C2EFCD7D6
:102D90000B2EFAD700000000080EE26F050EE36F5D
:102DA000040EE46FADEC12F00050000A000ED8A43F
:102DB000010E016E01B002D0CD9101D0CD81E02B8A
:102DC000C8D7CDB114D0DFEC11F0F3EC11F0020E46
:102DD0000A6E310E0B6E620E0C6E450E0D6E0D2ED0
:102DE000FED70C2EFCD70B2EFAD70A2EF8D7A4D775
:102DF000A60EE26F440EE36F000EE46FE8EC12F0F3
:102E000000C0E4F001C0E5F0020EE26F010EE36FD6
:102E100010DC120008D08B82D59E0DD08B92D59EEF
:102E20000AD0D58E08D00001CC51000AF4E0CC5174
:102E3000FF0AF4E0F6D71200F3EC11F0B30EE26FE4
:102E4000440EE36F000EE46FE8EC12F000C0E4F013
:102E500001C0E5F0020EE26F010EE36F19EC13F012
:102E6000CD911200010E0001EC6F59EC09F0CAC0BF
:102E7000E2F02F0EE36F000EE46F37EC12F0200E3D
:102E8000316E326AF00ECA15E16FD1D0CDA913D0E0
:102E9000830EE26F460EE36F000EE46FE8EC12F073
:102EA00000C0E4F001C0E5F02F0EE26F000EE36F0A
:102EB000B8EC12F082D00F0ECA15E06F77D08C0EEE
:102EC000E26F460EE36F000EE46FE8EC12F000C014
:102ED000E4F001C0E5F02F0EE26F000EE36FB8ECF6
:102EE00012F06BD0E90EE26F450EE36F000EE46F57
:102EF000E8EC12F000C0E4F001C0E5F02F0EE26F44
:102F0000000EE36FB8EC12F058D0CAA712D05A0ED8
:102F1000E26F470EE36F000EE46FE8EC12F000C0C2
:102F2000E4F001C0E5F02F0EE26F000EE36FB8ECA5
:102F300012F0CAA112D05F0EE26F470EE36F000ECF
:102F4000E46FE8EC12F000C0E4F001C0E5F02F0EF1
:102F5000E26F000EE36FB8EC12F0CAA512D0640E57
:102F6000E26F470EE36F000EE46FE8EC12F000C072
:102F7000E4F001C0E5F02F0EE26F000EE36FB8EC55
:102F800012F0CAA312D0540EE26F470EE36F000E88
:102F9000E46FE8EC12F000C0E4F001C0E5F02F0EA1
:102FA000E26F000EE36FB8EC12F007D0E051000AB8
:102FB00086E0E0510F0A96E0A8D747D0F70EE26FFF
:102FC000460EE36F000EE46FE8EC12F000C0E4F090
:102FD00001C0E5F02F0EE26F000EE36FB8EC12F0C7
:102FE00034D04B0EE26F440EE36F000EE46FE8EC5A
:102FF00012F000C0E4F001C0E5F02F0EE26F000E09
:10300000E36FB8EC12F021D02F0EE26F440EE36FA5
:10301000000EE46FE8EC12F000C0E4F001C0E5F04F
:103020002F0EE26F000EE36FB8EC12F00ED0E151FC
:10303000000AD8B42BD7E151100AC0E0E151200AB0
:10304000D0E0E151F00AE0E0F1D7CDA913D0030EB2
:10305000E26F440EE36F000EE46FE8EC12F000C084
:10306000E4F001C0E5F0400EE26F000EE36F59ECB2
:1030700013F0ACD0CDA51ED09EC0E2F0400EE36FA1
:10308000000EE46F37EC12F0200E426E436AA30E7E
:10309000E26F450EE36F000EE46FE8EC12F000C043
:1030A000E4F001C0E5F0400EE26F000EE36FB8EC13
:1030B00012F08CD0CDAB67D09DC0E2F0400EE36F34
:1030C000000EE46F37EC12F0200E426E436A030EDE
:1030D000E26F480EE36F000EE46FE8EC12F000C000
:1030E000E4F001C0E5F0400EE26F000EE36FB8ECD3
:1030F00012F041D0C00EE26F470EE36F000EE46F96
:10310000E8EC12F000C0E4F001C0E5F0400EE26F20
:10311000000EE36FB8EC12F035D0060EE26F480EE9
:10312000E36F000EE46FE8EC12F000C0E4F001C0C1
:10313000E5F0400EE26F000EE36FB8EC12F022D023
:103140009DC0E2F0450EE36F000EE46F73EC12F0E9
:10315000480EE26F470EE36F000EE46FE8EC12F0EA
:1031600000C0E4F001C0E5F0400EE26F000EE36F36
:10317000B8EC12F007D09D51000ABCE09D51FF0A47
:10318000CCE0DED723D0C9C0E2F0400EE36F000EE2
:10319000E46F37EC12F0200E426E436A80EC13F0BD
:1031A00000C0E2F001C0E3F002C0E4F0E8EC12F08D
:1031B00000C0E4F001C0E5F0400EE26F000EE36FE6
:1031C0000D0EE66F000EE76FF5EC11F0010EE26FE9
:1031D000010EE36F2F0EE46F000EE56F19EC13F094
:1031E000020EE26F010EE36F400EE46F000EE56F1A
:1031F00019EC13F01200CAC000F00032009E003239
:10320000009E0032009E0032009E0001DF51002629
:103210000F0E0014036E0F0ECA15026E03C000F0ED
:103220000036009000360090003600900036009086
:103230000250001200C0CAF0120081BC02D0D88037
:1032400001D0D890000ED8B0010E006E120081BEE1
:1032500002D0D88001D0D890000ED8B0010E006EF8
:1032600012000001DF519D2712009494BA840C0EC5
:10327000BD1212009484BA94F00EBD161200000123
:10328000DF519E2712000001CDA11FD0530E050172
:10329000086FC9C009F5080E0001E26F050EE36F63
:1032A000020EE46FADEC12F0005201E1F4D705011B
:1032B000096B080E0001E26F050EE36F020EE46F6A
:1032C000ADEC12F0005201E1F4D712000001CDA1E3
:1032D00023D04B0E0501086FCAC009F50A6BC9C09F
:1032E0000BF5080E0001E26F050EE36F040EE46FAC
:1032F000ADEC12F0005201E1F4D70501096B0B6B44
:10330000080E0001E26F050EE36F040EE46FADECF2
:1033100012F0005201E1F4D7120046D0828C100E58
:103320000B6E390E0C6E0D0E0D6E0D2EFED70C2E83
:10333000FCD70B2EFAD700000000829C52D0828E60
:10334000100E0B6E390E0C6E0D0E0D6E0D2EFED77F
:103350000C2EFCD70B2EFAD700000000829E41D025
:10336000808C100E0B6E390E0C6E0D0E0D6E0D2E28
:10337000FED70C2EFCD70B2EFAD700000000809C45
:1033800030D05ADDBFDC2DD0CC6B44DD2AD0FF0E0F
:103390000001CC6F3FDD25D00001CD9D63DD21D044
:1033A000CD8D1FD01ED01DD00001C951010AB6E03D
:1033B000C951020AC4E0C9510A0AD2E0C951030A3C
:1033C000E0E0C951040AE0E0C951050AE0E0C95152
:1033D000080AE2E0C951070AE3E0C951000AE2E045
:1033E000E2D712000001CDA125D0430E0501086FE0
:1033F000C9C009F50F0E0001CA1505010A6F080EB4
:103400000001E26F050EE36F030EE46FADEC12F006
:10341000005201E1F4D70501096B0A6B080E0001A7
:10342000E26F050EE36F030EE46FADEC12F0005295
:1034300001E1F4D71200A6A202D00000FCD7A69C9E
:10344000DDC0A9FFDEC0A8FFA69EA684F2CF00F0D3
:10345000F29E550EA76EAA0EA76EA68200BE02D0DF
:10346000F29E01D0F28EA6941200A69CDDC0A9FFA8
:10347000A69EA680A8CF00F01200516A566A556A2F
:10348000010E00018425006E000E8521016E00C032
:1034900084F001C085F01200F250026EF29E050029
:1034A000FF6A0150FE6E0050FD6E02BEF28E1200E9
:1034B000000E0001C915026ECA51F00B036EFF0E1B
:1034C000C915006ECA510F0B016EDD510026000EAA
:1034D000DDBFFF0E0122FF0E00160F0E0116025077
:1034E00000120350011200C0C9F001C0CAF012005E
:1034F000100E526E270E536E8B80F00E0001CA150F
:10350000DD6F09D0E3DE15D0BEDE13D06BDF11D046
:1035100004DF0FD00ED00001DD51000AF3E0DD51D1
:10352000100AF2E0DD51200AF1E0DD51F00AF0E08E
:10353000F1D712000001DD6B060EDD5D1BE2290EE6
:10354000E96E000EEA6EDD51E926D8B0EA2AEECF28
:10355000E2F0DDC000F0000E016E00360136009092
:103560002F0E0024E36F000E0120E46F37EC12F001
:10357000DD2BE2D785C0E2F03B0EE36F000EE46F77
:1035800037EC12F084C0E2F03D0EE36F000EE46F02
:1035900037EC12F03F6AC9C0E2F0400EE36F000E54
:1035A000E46F37EC12F0200E426E51C0E2F0430E91
:1035B000E36F000EE46F37EC12F056C0E2F0450EF8
:1035C000E36F000EE46F37EC12F0200E456E55C02D
:1035D000E2F0470EE36F000EE46F37EC12F02E0EB0
:1035E000476E200E496E87C0E2F04A0EE36F000E70
:1035F000E46F37EC12F086C0E2F04C0EE36F000E81
:10360000E46F37EC12F0200E4E6E83A103D0010E52
:103610004F6E02D0020E4F6E506A846B856B010EA6
:10362000EC6F59EC09F0010EE26F010EE36F2F0E03
:10363000E46F000EE56F19EC13F0020EE26F010E5D
:10364000E36F400EE46F000EE56F19EC13F012000B
:103650000CDE0A0E0C6E580E0D6E0D2EFED70C2EC3
:10366000FCD7000007DE1200929A929892909292F4
:1036700092949296899A8998899689948992899048
:103680002AEC06F02AEC06F02AEC06F08982898002
:10369000898A3CEC06F0899A2AEC06F0898A3CEC8F
:1036A00006F0899A2AEC06F0898A3CEC06F0899AA1
:1036B0002AEC06F08990898A3CEC06F0899A2AEC7B
:1036C00006F0898A3CEC06F0899A89928986898A73
:1036D0003CEC06F0899A2AEC06F089968980898A62
:1036E0003CEC06F0899A8990898A3CEC06F0899A2C
:1036F0002AEC06F0898A3CEC06F0899A8980898A4E
:103700003CEC06F0899A2AEC06F08990898A3CEC18
:1037100006F0899A8986898489828980898A3CEC25
:1037200006F0899A2AEC06F000016D811200080E5D
:103730000001D56FD55100081BE28ADFD4AF0BD052
:103740001A0E0C6EB50E0D6E0D2EFED70C2EFCD77C
:103750000000000009D00A0E0C6E580E0D6E0D2EE2
:10376000FED70C2EFCD70000D437D491D507E2D772
:103770001200A0901200295000019E1904E0295067
:10378000FF0A01E021D02A502918006E01E11CD067
:103790002C502B18006E01E117D02E502D18006E02
:1037A00001E112D02BC001F0006A2D500012000E72
:1037B000011200C0C9F001C0CAF0CDAD02D0BADE1E
:1037C00002D032EC17F094DE1200010E0001DD6F22
:1037D000CCC0DEF030DE0AEC17F01200D7C0E1FFFB
:1037E000D8C0E2FFD4C0E6FFD5C000F0D6C001F0DB
:1037F00053DE32EC17F0D9C000F0DAC001F04CDE35
:1038000000521DE00001CDA319D0800E006E800E85
:10381000CEBF7F0E005C02E1CE5100080FE3D7C09F
:10382000E1FFD8C0E2FFD4C0E6FFD5C000F0D6C0AB
:1038300001F032DE32EC17F0CD93CE6BDCD7120004
:10384000D4C0DDF035DE32EC17F0050E606FD5C068
:1038500000F0D6C001F020DE005234E00001CDA31C
:1038600030D0800E006E800ECEBF7F0E005C02E175
:10387000CE51000826E360076051000A20E1D4C061
:10388000DDF016DE80EC13F000C0F6FF01C0F7FF9C
:1038900002C0F8FF0900F5CF01F00150000A0BE16A
:1038A0000F0E0001C915016E0150000A04E0D4C0DA
:1038B000DDF0FEDDE7D732EC17F0050E606FCD933B
:1038C000CE6BC5D71200480E0001EC6F59EC09F021
:1038D000E86B9AEC11F0040EE86F9AEC11F00A0E06
:1038E000E86F9AEC11F0150EE86F9AEC11F0040EE7
:1038F000E86F9AEC11F0040EE86F9AEC11F0E86BA7
:103900009AEC11F0E86B9AEC11F0E86B9AEC11F07C
:10391000040EE86F9AEC11F0040EE86F9AEC11F0C7
:10392000150EE86F9AEC11F00A0EE86F9AEC11F0A0
:10393000040EE86F9AEC11F0E86B9AEC11F0E86B6A
:103940009AEC11F0E86B9AEC11F0040EE86F9AEC27
:1039500011F0020EE86F9AEC11F01D0EE86F9AEC70
:1039600011F0020EE86F9AEC11F0040EE86F9AEC79
:1039700011F0E86B9AEC11F0E86B9AEC11F0E86B3F
:103980009AEC11F0040EE86F9AEC11F0080EE86F53
:103990009AEC11F0170EE86F9AEC11F0080EE86F30
:1039A0009AEC11F0040EE86F9AEC11F0E86B9AECC7
:1039B00011F0E86B9AEC11F0E86B9AEC11F0E86BFF
:1039C0009AEC11F0090EE86F9AEC11F0150EE86F01
:1039D0009AEC11F0120EE86F9AEC11F0E86B9AEC89
:1039E00011F0E86B9AEC11F0E86B9AEC11F01B0EF9
:1039F000E86F9AEC11F01B0EE86F9AEC11F01B0EB9
:103A0000E86F9AEC11F01B0EE86F9AEC11F01B0EA8
:103A1000E86F9AEC11F01B0EE86F9AEC11F01B0E98
:103A2000E86F9AEC11F0E86B9AEC11F0E86B9AEC05
:103A300011F0100EE86F9AEC11F0080EE86F9AEC96
:103A400011F0040EE86F9AEC11F0020EE86F9AEC98
:103A500011F0010EE86F9AEC11F0E86B9AEC11F09E
:103A6000E86B9AEC11F0020EEC6F59EC09F01200C1
:103A7000A090A190976A040E976ECF6ACE6AFDDC83
:103A8000A0801200010E0001DD6FEFDC00C0CCF061
:103A90000AEC17F01200552A5550070811E2556A32
:103AA000290EE16E000EE26E5650E126D8B0E22AF1
:103AB00054C0E6FF562A060E565C02E3030E516E12
:103AC0001200BB50010F006E016A000E0122D4C02B
:103AD00004F0000E056EEAEC00F0060E026E00C067
:103AE00004F001C005F0025005E005320432059EE5
:103AF000FF0FFAD7040E016E04C000F0015004E07D
:103B000000360090FF0FFBD7300E0014036E04C088
:103B100000F005C001F001320032019E0132003296
:103B2000019E00C0BEFF0F0EBD160350BD12120055
:103B3000BE6ABD98BD9A120075D000018751040875
:103B400002E186511A08010ED8B0000E016E070E70
:103B5000875D02E19E0E865D010ED8B0000E006EFC
:103B600000500116006A83B1002A0150001603E0DC
:103B7000010E516E01D081DC63D0000183B102D00F
:103B8000028001D002908751010802E18651C208EB
:103B9000010ED8B0000E016E050E875D02E1460EE3
:103BA000865D010ED8B0000E006E00500116006A4E
:103BB00002B0002A0150001603E0020E516E01D03F
:103BC0005CDC3ED0000183A109D08751050802E1E9
:103BD0008651460802E251DC00D01FD087510B0805
:103BE00002E186516D0802E248DC17D087510708D0
:103BF00002E18651E90805E25436549054804BDFC7
:103C00000CD000018751010802E18651C20804E28C
:103C10005436549040DF01D030DC12D0AADDABDD49
:103C200027DF0ED05150000AD8B487D75150010A6F
:103C3000A4E05150020AC6E05150030AEFE0F1D768
:103C400012000001CDA514D0CFC0D4F07E0ED56FE8
:103C5000320ED66FDF0ED76F000ED86FD0C0D9F0FE
:103C6000D1C0DAF0D2C0DBF0D3C0DCF0B7DD39D0A0
:103C70000001CDAB14D0CFC0D4F0620ED56F320EA0
:103C8000D66FDF0ED76F000ED86FD0C0D9F0D1C07D
:103C9000DAF0D2C0DBF0D3C0DCF0A0DD22D000012E
:103CA000CDA914D0CFC0D4F0F60ED56F310ED66F9B
:103CB000DF0ED76F000ED86FD0C0D9F0D1C0DAF0C8
:103CC000D2C0DBF0D3C0DCF089DD0BD0CFC0D4F0A4
:103CD000D0C0D5F0D1C0D6F0D2C0D7F0D3C0D8F084
:103CE000AFDD120000017D51010A07E160BA05D085
:103CF000656A64806488020E7D6F65A406D064A442
:103D000004D0FB0E6516C0EC06F060A203D028ECD0
:103D100006F0DDD065A019D064A017D0C8EC06F07D
:103D2000040E7D6F200E0401026F040E036F080E57
:103D3000016F000E0015006E00C000F48C0E001123
:103D4000006E00C000F4FE0E651665A806D064A8DB
:103D500004D096EC06F0EF0E651665AC04D064ACAA
:103D600002D0BF0E651665AA04D064AA02D00AEC80
:103D700006F065A202D064B2676A040E00017D5DA0
:103D800003E228EC06F0A3D064A69FD0F36B040EE8
:103D9000F35DD8B09AD065A694D061CF5AF0F70EF3
:103DA0006516780E5A14016E0150000AD8A488D006
:103DB000FD0E5A14016E026AFF0E0216000E021862
:103DC00002E1000E01186DE17E0E5A14016E01C071
:103DD00003F00332039E03C000F0000E016E0036B4
:103DE00000900136003600900136000E0024026E6D
:103DF000040E0120036E02C05BF003C05CF002C041
:103E00005EF003C05FF0040E5E18006E00C05EF04E
:103E100002C0E9FF03C0EAFFEECF00F000C001F0EE
:103E20003C0E01160132019E0132019E01500D0A25
:103E300035E1020E5B24E96E000E5C20EA6EEECFE7
:103E400001F0EECF02F00250040A02E1280E011840
:103E500022E1020E5B24E16E000E5C20E26E200E79
:103E6000E66E040EE66EF26B080EF25D14E2200EB2
:103E7000E16E040EE26EF251E126D8B0E22A280E7D
:103E8000E96E040EEA6EF251E926D8B0EA2AEECFC6
:103E9000E6FFF22BE9D7F3EC05F002D09BEC06F03D
:103EA0000ED0FD0E5A14016E026AFF0E0216000EAD
:103EB000021802E1040E011802E143EC06F000D002
:103EC00001D003D00001F32B62D728EC06F01200DA
:103ED0000900F5CFE6FF0006FBE10106F9E112005B
:103EE0000F015B6B5C6B5D6BBF0E926EFF0E936E92
:103EF000380E946E896A8A6A8B6AF19E8B80700E86
:103F0000D36ED3B401D0FDD7D3B601D0FDD7D298AC
:103F10009B8ED288D2BE01D0FDD7B59EB588B58E16
:103F20000001CD6BCF6B060ECF5D0BE2290EE16E6B
:103F3000000EE26ECF51E126D8B0E22AE66ACF2B1E
:103F4000F2D7C96BCA6B62886284070ED56E330ED6
:103F5000CD6E320EB16EF28CF28EBA80BA924E0EE7
:103F6000BB6EE6DD800ED46FACDD34EC1BF0ABDC59
:103F7000010EEC6F59EC09F00C0EEC6F59EC09F0E6
:103F80005A0EE26F450EE36F000EE46FE8EC12F09C
:103F900000C0E4F001C0E5F0010EE26F010EE36F36
:103FA00019EC13F0F70E8114006EF70E001A005290
:103FB0001AE0F20EE26F430EE36F000EE46FE8ECDE
:103FC00012F000C0E4F001C0E5F0020EE26F010E55
:103FD000E36F19EC13F0F70E8114006EF70E001A60
:103FE000005201E0F8D7A082DD6B35EC1AF000C07A
:103FF0009EF048DD3DDD12008B80B9EC1BF09EC0C9
:1040000029F000019E1D006E00C02AF0CAC02BF0EE
:10401000CA1D006E00C02CF0C9C02DF0C91D006E75
:1040200000C02EF035EC19F0100E0C6E940E0D6ED3
:104030000D2EFED70C2EFCD700003AEC19F00A0E1C
:104040000C6E580E0D6E0D2EFED70C2EFCD70000F8
:10405000CF6B060ECF5D0EE2290EE96E000EEA6E02
:10406000CF51E926D8B0EA2AEECFD4F097EC1BF076
:10407000CF2BEFD728EC1BF0070E0B6E170E0C6E34
:104080006A0E0D6E0D2EFED70C2EFCD70B2EFAD716
:104090000000EEDC8B9012000001CA7181B216D0D4
:1040A000CDA313D0800E006E800ECEBF7F0E005CBD
:1040B00002E1CE51000809E3CA71CA7732EC17F069
:1040C00081B201D0FDD7CD93CE6BE8D732EC17F09B
:1040D00012000001CDA905D081BA01D0FDD7CD993C
:1040E00054D0F00ECA15016E0150F00A37E181BAC2
:1040F00001D0FDD724D0CD75CDA501D005D0DD6B85
:104100009EC0DEF01BEC1AF028D00001CD7BCDABB9
:1041100003D0CCC09DF004D09DC0CCF0E5EC1BF0EA
:104120001CD00001CC6BE5EC1BF017D0FF0E00019A
:10413000CC6FE5EC1BF011D078EC1AF00ED000013A
:10414000C951000AD8E0C951060ADFE0C951040A82
:10415000E8E0C951050AEAE0EFD717D078EC1AF089
:1041600081BA13D00001CDA30FD0800E006E800E57
:10417000CEBF7F0E005C02E1CE51000805E378EC73
:104180001AF00001CD93CE6BEBD712000001CA7379
:1041900081B81ED0CDA31BD0800E006E800ECEBF86
:1041A0007F0E005C02E1CE51000811E3CDB90DD0C5
:1041B000000EC915006ECA51F00B016E00C0C9F0A7
:1041C00001C0CAF0CD8932EC17F0CD93CE6BE0D7A9
:1041D00032EC17F0120084DE0001CDAF03D0ACDC6E
:1041E0000001CD9F8BA00BD0010E525E000E535AE2
:1041F000000E531802E1000E5218D8B48B90F70E3F
:104200008114006EF70E001A00524FE0DFEC11F03F
:10421000020E0B6E860E0C6E990E0D6E0D2EFED7D5
:104220000C2EFCD70B2EFAD7100ECE6FB36AB26AE3
:10423000B180CDB916D0CDB514D0CDBB12D081B0E0
:1042400004D0DADE81B001D0FDD781B201D024DF05
:1042500081B404D0CA7581B401D0FDD781B801D032
:1042600095DF81BA01D035DF81BC0CD0010E000191
:10427000CF6F3A0ED06F320ED16F000ED26F000E9C
:10428000D36FDFDC81BE0CD0FF0E0001CF6F4E0E6E
:10429000D06F320ED16F000ED26F000ED36FD1DC13
:1042A000B1900001CD9332EC17F0CDB706D084B6B3
:1042B00002D0D89007D0D88005D084B602D0D8805C
:1042C00001D0D8900CE384A603D082EC16F002D083
:1042D0001CEC17F084B602D0CD9701D0CD877CD7E7
:1042E000FFD705010906A101854B050719E029E75C
:1042F0001500250175019508810275089501810356
:10430000950126FF0019002AFF0081007501950321
:1043100005081901290325019102750595019103ED
:10432000C005010980A101855319002AFF0015006D
:1043300026FF00750895018100C0050C0901A10147
:10434000854319002A3C021500263C027510950190
:104350008100C03603520065006D006F0074006577
:1043600000200043006F006E00740072006F006C4C
:10437000006C006500640020004B0065007900625D
:10438000006F006100720064000000000000000087
:104390000000000000090229000101018032090427
:1043A0000000020300000209210101000122710046
:1043B0000705810308000A0705010308000C120124
:1043C00010010000000849524B21030001020001C6
:1043D000303132333435363738394142434445463B
:1043E00000456E61626C696E672055534220202043
:1043F000200052656C6561736520627574746F6E20
:1044000073210001012053656C656374205573614D
:104410006765004B657970616420496E73657274DD
:10442000004B65797061642044656C657465004972
:10443000524B212046756E6374696F6E005765623A
:1044400020426F6F6B6D61726B7300436F6E73759B
:104450006D657220446576004B6579706164204516
:104460006E74657200506F7765722053776974635C
:104470006800526573657420537769746368004DF2
:104480006564696120506C61796572005072696E73
:10449000742053637265656E004B657970616420AA
:1044A00052696768740055534220526561647920EF
:1044B0002020005553422044697361626C6564009A
:1044C000536574204164647265737300576562209C
:1044D00052656672657368005765622042726F7735
:1044E000736572005465787420456469746F720056
:1044F0005363726F6C6C204C6F636B004B6579700B
:1045000061642050675570004B6579706164204488
:104510006F776E004B6579706164205067446E0060
:104520004B6579706164204C656674004C696768FE
:10453000742044656C6179004B6579706164204832
:104540006F6D650041757820537769746368005713
:104550006562205365617263680049524B21207681
:10456000332E3032004B657970616420456E6400F3
:1045700043616C63756C61746F7200506F77657224
:10458000206F6666000A03490052004B002100427A
:1045900061636B7370616365004C69676874204F79
:1045A000666600042041646472657373004465624A
:1045B0007567204F6666004B6579706164205570A1
:1045C000004D656E752045786974005061676520FF
:1045D000446F776E0043617073204C6F636B004DC6
:1045E000656E75205069636B00475549202B20414B
:1045F0004C4C004B65797061642034004B657970D8
:1046000061642032004B65797061642035004B6530
:10461000797061642031004B6579706164203300EA
:104620004B6579706164202F004E756D204C6F636F
:104630006B005370616365626172004B65797061F4
:1046400064202B004B6579706164202D004B6579E7
:10465000706164202A004B657970616420360057D0
:104660006562204E657874005765622050726576E9
:1046700000496E6974205553420057656220537497
:104680006F70004B6579626F617264004B6579628F
:104690006F6172640057656220486F6D6500436FFB
:1046A0006D7075746572004B6579706164203800B7
:1046B0004B65797061642037004B657970616420C7
:1046C00030004B657970616420390044656275671C
:1046D000204F6E004C69676874204F6E004B6579FF
:1046E000706164202E004B6579706164203D00503C
:1046F0006167652055700053797374656D0044657A
:104700006C65746500496E73657274004D656E75F5
:104710002003004D656E75202B004D656E75202DB4
:10472000004D656E752002004D656E752001004DCF
:10473000656E75200400456E74657200456D616993
:104740006C00456A65637400207365637300536C85
:104750006565700053484946540047554920004359
:10476000544C2000414C54200057616B6500486F49
:104770006D65004D656E7500566F6C2B00566F6C45
:104780002D0053746F70004D75746500463135000F
:104790004631340046313600463138004631370064
:1047A000456E64000403090443682B00463133005E
:1047B00043682D00463139003E3E7C00526563005F
:1047C0004F6666003E2F06007C3C3C0046323100BE
:1047D0004632300046323200463234004632330030
:1047E0005461620046313000463131004573630048
:1047F000463132004637004636004639004638001A
:104800004631000420004F6E004632004635004617
:1048100034004633003C3C003E3E00580059003214
:1048200000330056002300240025005A00210040D8
:10483000004B005000510052004D004E004F00311F
:104840000055004C00530054007A002B007B007D83
:10485000003F0029005F0005003C003E007C003A5C
:1048600000220030002800340035005E0026002AB7
:10487000003E00060039003600370038006A006943
:104880000068006D006C006B0067006300620061EF
:104890000066006500640072007500710074000617
:1048A000007300030070006F006E0004000200013E
:1048B000004100420043002D007800790044004888
:1048C0000049004A004500460047002E002C0060C9
:1048D00000760077002F005D005B003D003B002765
:1048E000000700000000000000FFFFFFFFFFFFFFC8
:020000040030CA
:0E00000023285F3CFF5081FF0FC00FE00F4030
:00000001FF
