:10000000BEEF20F0FFFF570000C01EF001C01DF042
:1000100002C01CF003C01BF004C01AF005C019F0A8
:1000200008C018F009C017F00AC016F00BC015F090
:10003000E1CF27F0E2CF28F0E9CF25F0EACF26F094
:10004000F3CF23F0F4CF24F0F5CF22F0F8CF1FF058
:10005000F7CF20F0F6CF21F04CEC1EF0A1A00DD090
:1000600091CF3EF090CF3DF097CF41F097709770D1
:10007000CF6ACE6A438EA19020D0A1A207D043823E
:100080004404006E00C044F0A19217D0F2A415D031
:100090004204006E00C042F0000E42BEFF0E006E31
:1000A000000E001802E1000E421802E18B82D59E7C
:1000B000480ED76EE40ED66EF29422C0F5FF1FC034
:1000C000F8FF20C0F7FF21C0F6FF23C0F3FF24C0D4
:1000D000F4FF1EC000F01DC001F01CC002F01BC0E8
:1000E00003F01AC004F019C005F018C008F017C0DA
:1000F00009F016C00AF015C00BF025C0E9FF26C0B4
:10010000EAFF27C0E1FF28C0E2FF11001E0E6B6E60
:10011000100E486E040E496E48C0E1FF49C0E2FF70
:10012000E69E48C0E1FF49C0E2FFE69C040E482479
:10013000E16E000E4920E26EE68C180E0001C16FE0
:10014000040EC26FC1C0E1FFC2C0E2FFE69EC1C0A3
:10015000E1FFC2C0E2FFE69C040EC125E16E000E85
:10016000C221E26EE68C020E4824E16E000E4920A8
:10017000E26E89C0E6FF8AC0E6FF010E4824E16E08
:10018000000E4920E26E400EE66E48C0E9FF49C00D
:10019000EAFFEECF00F048C0E1FF49C0E2FF400EA9
:1001A0000014E66E48C0E9FF49C0EAFFEECF00F058
:1001B00048C0E1FF49C0E2FF880E0010E66E48C06B
:1001C0003FF049C040F0040E4818006E00C048F0EF
:1001D00012000B6A0A6A096A00500402F4CF09F09F
:1001E000F3CF08F001500502F4CF0BF0F3CF0AF083
:1001F00000500502F3500926F4500A22E86A0B2247
:1002000001500402F3500926F4500A22E86A0B2236
:1002100008C000F009C001F00AC002F00BC003F0F2
:1002200012000401286B296B47D00401358E288108
:100230000001B851010A02E10401288352D0358E31
:1002400050D00401358E24BF16D024C403F00F0E05
:10025000031603C000F0000E016E00360090013658
:10026000460E0024E96E000E0120EA6EEECF04F087
:10027000EECF05F015D024C403F00F0E031603C013
:1002800000F0000E016E003600900136BF0E002413
:10029000E96E000E0120EA6EEECF04F0EECF05F01D
:1002A00004C0E9FF05C0EAFFEECF01F001A403D0CE
:1002B0000401010E286F15D020C401F01F0E011695
:1002C0000150000AB2E020C401F01F0E01160150D7
:1002D000010AB5E020C401F01F0E01160150020A08
:1002E000B0E035AE07D0280E326E040E336E358086
:1002F000020E366E1200000E375C02E1080E365C0C
:1003000011E236C003F037C004F00001BB51000A0F
:1003100003E1010EBB6F05D0BB51010A02E1020EE1
:10032000BB6F04D0080E036E000E046E0001BFC048
:10033000E1FFC0C0E2FFE692BFC0E1FFC0C0E2FF44
:10034000E690BFC0E9FFC0C0EAFFEECF00F0BFC03B
:10035000E1FFC0C0E2FF04500010E66E010EBF25B1
:10036000E16E000EC021E26E03C0E6FF0350365C72
:10037000006E04503758016E00C036F001C037F0EF
:10038000280E946F040E956F35B02FD003500410D3
:100390002BE032C0F6FF33C0F7FF34C0F8FF09008E
:1003A000F5CF00F094C0E1FF95C0E2FF00C0E6FF8A
:1003B000944B952B010E3224006E000E3320016EFB
:1003C000000E3420026E00C032F001C033F002C0D3
:1003D00034F0010E035C006E000E0458016E00C084
:1003E00003F001C004F0D2D724D00350041021E060
:1003F00032C0E9FF33C0EAFF94C0E1FF95C0E2FFDD
:10040000EECFE6FF944B952B010E3224006E000ECA
:100410003320016E00C032F001C033F0010E035CE6
:10042000006E000E0458016E00C003F001C004F01D
:10043000DCD7120004012251010A11E120C401F0AD
:100440001F0E01160150000A0AE1358E2151030AE0
:1004500004E1010E0001B86F02D00001B86B040185
:100460002251000AD8A48BD020C401F01F0E01161F
:100470000150020AD8A483D024C401F00F0E011643
:100480000150000AD8B47BD0358E24BF16D024C4C6
:1004900003F00F0E031603C000F0000E016E0036CD
:1004A00000900136460E0024E96E000E0120EA6E2F
:1004B000EECF04F0EECF05F015D024C403F00F0EFC
:1004C000031603C000F0000E016E003600900136E6
:1004D000BF0E0024E96E000E0120EA6EEECF04F09C
:1004E000EECF05F02151030A07E104C0E1FF05C08A
:1004F000E2FF840EE66E43D024C400F00F0E001617
:100500006A0E026E0F0E036E00500226D8B0032A48
:1005100002C0E9FF03C0EAFFFE0EEE14006EEECF4C
:1005200001F0FF0E011602C0E1FF03C0E2FF00C0B0
:10053000E6FF01C0E6FF24AF11D004C0E1FF05C013
:10054000E2FFE66A040E0418006E00C004F004C066
:10055000E1FF05C0E2FF400EE66E11D004C0E1FFEE
:1005600005C0E2FF880EE66E040E0418006E00C09F
:1005700004F004C0E1FF05C0E2FFC80EE66E120001
:10058000358E6B6A0001936B22C438F03850000A34
:1005900003E1100EBE6F03D0200EBE6FB7DD120058
:1005A00004012051800AD8A473D0C00E356E65D0E6
:1005B000600E006E430E016E000E026E00C032F03F
:1005C00001C033F002C034F0120E366E000E376EEA
:1005D0005FD0030E006E000E016E22C404F0000E08
:1005E000056EF7DDC30E0024E96E000E0120EA6EF1
:1005F000EECF32F0EECF33F0EECF34F0020E3224F5
:10060000F66E000E3320F76E000E3420F86E0900EF
:10061000F5CF00F00900F5CF01F000C036F001C0C1
:1006200037F036D022510001905D23E3030E006EB7
:10063000000E016E22C404F0000E056ECADDC60E67
:100640000024E96E000E0120EA6EEECF32F0EECF0C
:1006500033F0EECF34F032C0F6FF33C0F7FF34C0D2
:10066000F8FF0900F5CF00F000C036F0000E376E3D
:1006700001D0356A0DD0356A0BD004012351010A2F
:1006800097E02351020AA5E02351030ACBE0F3D7F8
:10069000120020C401F01F0E01160150010A01E0F2
:1006A0008DD004012451000A01E088D02151060AAE
:1006B0003FE134D03850010A17E1370E006E430E87
:1006C000016E000E026E120E0026000E01220222A2
:1006D00000C032F001C033F002C034F0090E366EB3
:1006E000000E376EC00E356E23D03850010A12E16D
:1006F000840E006E420E016E000E026E00C032F0DB
:1007000001C033F002C034F0710E366E000E376E49
:10071000C00E356E0DD0800E356E0AD00401235107
:10072000210AC8E02351220AE0E02351230AF3E022
:1007300020C401F0600E0116050E006E005004E0AA
:100740000132019EFF0FFBD70150010A01E036D0B4
:1007500022D034D033D0B70E326E000E336E010E7D
:10076000366E000E376EC10E356E28D0800E356E97
:1007700023C4B7F023D0B60E326E000E336E010ED6
:10078000366E000E376E810E356E18D0800E356EC7
:1007900022C4B6F013D004012151010ADAE021513C
:1007A000090AD8E02151020AD6E021510A0ADEE006
:1007B0002151030AE0E021510B0AE8E01200000198
:1007C0008B5301E066DF120020C401F0600E0116B9
:1007D000050E006E005004E00132019EFF0FFBD7B2
:1007E0000150000A01E05AD036D0358E080E0001C3
:1007F000BE6F54D0D5DE52D0C3DE50D0380E326E2C
:10080000000E336E3580010E366E358E47D009DD11
:1008100045D010DE43D0930E006E000E016E040131
:1008200024510026D8B0012A00C032F001C033F0B4
:100830003580010E366E358E31D0358E930EE16ED9
:10084000000EE26E2451E126D8B0E22A22C4E6FF6F
:1008500025D024D023D004012151050AC6E021511E
:10086000060AC8E02151090AC7E02151080AC6E07A
:100870002151000ACCE02151010ACBE02151030AA9
:10088000C8E021510A0AC7E021510B0AD6E02151E4
:10089000070ADFE021510C0ADDE0DCD7120000017D
:1008A000BD6BBFC0E1FFC0C0E2FFE66A040EBF1926
:1008B000E16EC0C0E2FF000EE21AE66A2BBE2B9E7C
:1008C0001200609835BE4BD02BAE29D0020E00012D
:1008D000BD6F010EBF25E16E000EC021E26EE66A1B
:1008E000BFC0E1FFC0C0E2FFC80EE66E010E912559
:1008F000E16E000E9221E26E080EE66E020E912568
:10090000E16E000E9221E26E280EE66E040EE66E97
:1009100091C0E1FF92C0E2FFC80EE66E1FD0000159
:10092000010E9125E16E000E9221E26E080EE66E38
:10093000020E9125E16E000E9221E26E200EE66E0F
:10094000040EE66E91C0E1FF92C0E2FF8C0EE66EEF
:10095000BFC0E1FFC0C0E2FF840EE66E7FD02BBEB9
:100960007DD0040120AF52D03750275D02E13650D0
:10097000265D04E226C436F027C437F0BCDC010E45
:100980000001BD6F010E9125E16E000E9221E26E15
:10099000080EE66E020E9125E16E000E9221E26EC7
:1009A000200EE66E040EE66E91C0E1FF92C0E2FFFB
:1009B000800EE66EB96B010E8E25E16E000E8F2162
:1009C000E26E080EE66E020E8E25E16E000E8F219D
:1009D000E26E200EE66E040EE66E8EC0E1FF8FC062
:1009E000E2FF840EE66E010EB96F020EBF25E16EC6
:1009F000000EC021E26E280EE66E040EE66EBFC049
:100A0000E1FFC0C0E2FFC80EE66E28D00001020E72
:100A1000BD6F010EBF25E16E000EC021E26EE66AD9
:100A2000BFC0E1FFC0C0E2FFC80EE66E010E912517
:100A3000E16E000E9221E26E080EE66E020E912526
:100A4000E16E000E9221E26E280EE66E040EE66E56
:100A500091C0E1FF92C0E2FFC80EE66E1200160ED2
:100A6000626E9F0E666E3B0E646E1200370E0001C2
:100A7000C36F430EC46F000EC56F460EC66F470EA0
:100A8000C76F000EC86F270EC96F450ECA6F000EE4
:100A9000CB6FF50ECC6F420ECD6F000ECE6F1200F5
:100AA000010E00018E25E96E000E8F21EA6EEECF59
:100AB00000F000C002F0000E2D5C02E102502C5C40
:100AC00003E22CC002F00AD002502C5C006E000E33
:100AD0002D58016E00C02CF001C02DF0036A0250A9
:100AE000035C1CE2280EE96E040EEA6E0350E92650
:100AF000D8B0EA2AEECF00F029C0E1FF2AC0E2FF19
:100B000000C0E6FF010E2924006E000E2A20016EAF
:100B100000C029F001C02AF0032AE1D7000E006EC0
:100B20002D50005C02E12C50000828E2010E9125B6
:100B3000E16E000E9221E26E080EE66E020E912525
:100B4000E16E000E9221E26E280EE66E040EE66E55
:100B50008EC0E9FF8FC0EAFFEECF00F000BC07D0E7
:100B600091C0E1FF92C0E2FFC80EE66E06D091C0D0
:100B7000E1FF92C0E2FF880EE66E19D0010E9125CA
:100B8000E16E000E9221E26E080EE66E020E9125D5
:100B9000E16E000E9221E26E200EE66E040EE66E0D
:100BA00091C0E1FF92C0E2FF840EE66E2B9E120020
:100BB000BFC0E9FFC0C0EAFFEECF00F000AE05D035
:100BC000BFC0E1FFC0C0E2FFE66A0001BB6BBD6BC6
:100BD000366A376A356AF8DDF2DD73DE12006AA024
:100BE00019D08EC0E9FF8FC0EAFFEECF01F00150AF
:100BF000800A0FE1BFC0E9FFC0C0EAFFEECF01F0FD
:100C00000150840A06E18EC0E1FF8FC0E2FF8C0E26
:100C1000E66E6A90DF0E65161200A4941200560E5E
:100C20000C6EB50E0D6E0D2EFED70C2EFCD70000EF
:100C300000001200C70E0D6E0D2EFED70000000042
:100C40001200030E0D6E0D2EFED7000000001200E4
:100C5000040E0001BF19006E00C0BFF0BE51080AAB
:100C60000AE122C463FF6350000803E2100EBE6F66
:100C700002D0040EBE6FBD51010A3CE1020EBF2539
:100C8000E16E000EC021E26E280EE66E040EE66EE6
:100C90007BEC01F00001BB51020A07E1BFC0E1FF9C
:100CA000C0C0E2FF840EE66E24D0040EBF19006EB1
:100CB00000C0BFF0BFC0E9FFC0C0EAFFEECF00F048
:100CC00000BC0CD0040EBF19006E00C0BFF0BFC046
:100CD000E1FFC0C0E2FFC80EE66E0BD0040EBF19E4
:100CE000006E00C0BFF0BFC0E1FFC0C0E2FF880ED1
:100CF000E66E01D0D4DD12006484EF0E65166082CA
:100D000012000001BD51020A02E1CADE1ED0C7DD99
:100D1000B951000A19E1010E9125E16E000E9221F0
:100D2000E26E080EE66E020E9125E16E000E922133
:100D3000E26E200EE66E040EE66E91C0E1FF92C0F8
:100D4000E2FF8C0EE66E01D0B96B120060926494E3
:100D500065A403D0FB0E6516FBD7120087DE3F6A41
:100D6000406A4A6A4B6A676A656A79DE608C636AC0
:100D70006B6A609C656B666B000E665D02E1080E37
:100D8000655D17E265C000F066C001F000360090B6
:100D90000136003600900136000E0024E16E040E8C
:100DA0000120E26EE66AE66AE66AE66A654B662B51
:100DB000E3D7160E6A6E65A603D0F70E6516FBD74D
:100DC000356A2B6A2C6A2D6A6098080EBF6F040E74
:100DD000C06F386ABE6B12000001BE51000A0AE102
:100DE000606A646A3CDE60B602D06086FCD70001AF
:100DF000010EBE6FBE51010A08E160BA06D0656AF5
:100E0000646A64806488020EBE6F65A405D064A421
:100E100003D0FB0E65169ADF60A202D0FEDED6D0AC
:100E200065A018D064A016D099DF040EBE6F200E06
:100E30000401026F040E036F080E016F000E00150F
:100E4000006E00C000F48C0E0011006E00C000F4B3
:100E5000FE0E651665A805D064A803D04DDFEF0E21
:100E6000651665AC04D064AC02D0BF0E651665AAE9
:100E700003D064AA01D0B3DE65A202D064B2676A6F
:100E8000040E0001BE5D02E2C8DEA0D064A69DD0C3
:100E9000ED6B040EED5DD8B098D065A692D061CF11
:100EA000BAF0F70E6516780EBA15016E0150000AF9
:100EB000D8A486D0FD0EBA15016E026AFF0E021686
:100EC000000E021802E1000E01186BE17E0EBA1549
:100ED000016E01C003F00332039E03C000F0000E58
:100EE000016E003600900136003600900136000E8B
:100EF0000024026E040E0120036E02C08EF003C0B7
:100F00008FF002C091F003C092F0040E9119006EB0
:100F100000C091F002C0E9FF03C0EAFFEECF00F08D
:100F200000C001F03C0E01160132019E0132019E0B
:100F300001500D0A34E1020E8E25E96E000E8F215C
:100F4000EA6EEECF01F0EECF02F00250040A02E1A9
:100F5000280E011822E1020E8E25E16E000E8F216F
:100F6000E26E200EE66E040EE66EEC6B080EEC5D93
:100F700014E2200EE16E040EE26EEC51E126D8B0D0
:100F8000E22A280EE96E040EEA6EEC51E926D8B08A
:100F9000EA2AEECFE6FFEC2BE9D70ADE01D0B1DE7C
:100FA0000ED00001FD0EBA15016E026AFF0E021688
:100FB000000E021802E1040E011801E149DE00D022
:100FC00001D003D00001ED2B64D727DE1200000111
:100FD000ED51000A12E0ECC000F0000E016E003688
:100FE00000900136BF0E0024E96E000E0120EA6E6B
:100FF000EECF04F0EECF05F011D0ECC000F0000E03
:10100000016E003600900136460E0024E96E000E97
:101010000120EA6EEECF04F0EECF05F0020E0424BC
:10102000E16E000E0520E26EEEC0E6FFEFC0E6FFC7
:10103000010E0424E16E000E0520E26EF0C0E6FF12
:1010400004C0E9FF05C0EAFFEECF00F004C0E1FFF5
:1010500005C0E2FF400E0014E66E04C0E9FF05C0C3
:10106000EAFFEECF00F004C0E1FF05C0E2FF880E0A
:101070000010E66EED51000A1BE0ECC000F0000E1F
:10108000016E003600900136BF0E0024026E000E85
:101090000120036E02C0E9FF03C0EAFF040EEE1850
:1010A000006E02C0E1FF03C0E2FF00C0E6FF1AD0FD
:1010B000ECC000F0000E016E003600900136460EC6
:1010C0000024026E000E0120036E02C0E9FF03C07F
:1010D000EAFF040EEE18006E02C0E1FF03C0E2FF5B
:1010E00000C0E6FF04C000F005C001F01200000ED1
:1010F0000001ED1902E1000EEC1902E1016A09D0CC
:10110000ECC0E9FFEDC0EAFFEECF00F0016A00BEDF
:10111000012A01C000F01200D08EA584A384F28EB3
:1011200012000001EF6BF06BF16B020EEC25F66E16
:10113000000EED21F76E000EEE21F86E0900F5CFDE
:1011400005F0030EEC25F66E000EED21F76E000E95
:10115000EE21F86E0900F5CF00F000C003F0000E9C
:10116000046E03C001F0006A05500024066E000EF4
:101170000120076EECC008F0EDC009F0EEC00AF0E7
:10118000010E0824F66E000E0920F76E000E0A20EC
:10119000F86E0900F5CF01F00150020A1BE1060EBE
:1011A0000824F66E000E0920F76E000E0A20F86E75
:1011B0000900F5CF01F00150EF5D0CE2060E0824A6
:1011C000F66E000E0920F76E000E0A20F86E090078
:1011D000F5CFEFF0010E0824F66E000E0920F76E31
:1011E000000E0A20F86E0900F5CF01F00150040A44
:1011F0001BE1080E0824F66E000E0920F76E000EA3
:101200000A20F86E0900F5CF01F00150EF5D0CE205
:10121000080E0824F66E000E0920F76E000E0A2054
:10122000F86E0900F5CFEFF008C0F6FF09C0F7FF30
:101230000AC0F8FF0900F5CF00F00050F025016E5C
:10124000000EF121026E01C0F0F002C0F1F0075073
:10125000025C02E10650015C01E30FD008C0F6FF1A
:1012600009C0F7FF0AC0F8FF0900F5CF00F00050F1
:101270000826000E09220A2283D7EFC000F01200D0
:101280000001ECBF02D0899601D08986ECBD02D066
:10129000899401D08984ECBB02D0899201D08982E3
:1012A000ECB902D0899001D08980BCB102D0898884
:1012B00001D08998898AC5DC899AECB702D08996D1
:1012C00001D08986ECB502D0899401D08984ECB331
:1012D00002D0899201D08982ECB102D0899001D0EC
:1012E0008980BCB102D0898801D08998898AA9DC1B
:1012F000899ABCA102D093DC01D09CDC1200600E64
:10130000006E430E016E000E026E0E0E0024F66E8D
:10131000000E0120F76E000E0220F86E0900F5CFD6
:1013200003F003C004F00F0E0024F66E000E01203F
:10133000F76E000E0220F86E0900F5CF01F00150A3
:10134000035C12E2600E006E430E016E000E026E30
:101350000F0E0024F66E000E0120F76E000E022024
:10136000F86E0900F5CF04F0600E006E430E016EBA
:10137000000E026E100E0024F66E000E0120F76EB5
:10138000000E0220F86E0900F5CF01F00150045C58
:1013900012E2600E006E430E016E000E026E100E21
:1013A0000024F66E000E0120F76E000E0220F86E8B
:1013B0000900F5CF04F004C000F0120013D3310E81
:1013C000006E480E016E000E026EA3EF0EF02F0E9F
:1013D000006E480E016E000E026EA3EF0EF02D0E91
:1013E000006E480E016E000E026EA3EF0EF0370E77
:1013F000006E480E016E000E026EA3EF0EF0350E69
:10140000006E480E016E000E026EA3EF0EF0330E5A
:10141000006E480E016E000E026EA3EF0EF02B0E52
:10142000006E480E016E000E026EA3EF0EF0230E4A
:10143000006E480E016E000E026EA3EF0EF0210E3C
:10144000006E480E016E000E026EA3EF0EF01F0E2E
:10145000006E480E016E000E026EA3EF0EF0290E14
:10146000006E480E016E000E026EA3EF0EF0270E06
:10147000006E480E016E000E026EA3EF0EF0250EF8
:10148000006E480E016E000E026EA3EF0EF04B0EC2
:10149000006E480E016E000E026EA3EF0EF0490EB4
:1014A000006E480E016E000E026EA3EF0EF0470EA6
:1014B000006E480E016E000E026EA3EF0EF03D0EA0
:1014C000006E480E016E000E026EA3EF0EF0390E94
:1014D000006E480E016E000E026EA3EF0EF0430E7A
:1014E000006E480E016E000E026EA3EF0EF03F0E6E
:1014F000006E480E016E000E026EA3EF0EF03B0E62
:10150000006E480E016E000E026EA3EF0EF0730E19
:10151000006E480E016E000E026EA3EF0EF0750E07
:10152000006E480E016E000E026EA3EF0EF05B0E11
:10153000006E480E016E000E026EA3EF0EF05D0EFF
:10154000006E480E016E000E026EFDD3EB0E006EB3
:10155000470E016E000E026EF6D3E10E006E470ECE
:10156000016E000E026EEFD3C10E006E470E016ECB
:10157000000E026EE8D3C30E006E470E016E000E21
:10158000026EE1D3090E006E480E016E000E026E6F
:10159000DAD30B0E006E480E016E000E026ED3D32E
:1015A000190E006E480E016E000E026ECCD31B0E9B
:1015B000006E480E016E000E026EC5D31D0E006E49
:1015C000480E016E000E026EBED3170E006E480E5E
:1015D000016E000E026EB7D3050E006E480E016E4E
:1015E000000E026EB0D3D80E006E460E016E000ED5
:1015F000026EA9D38E0E006E470E016E000E026EB3
:10160000A2D3310E006E450E016E000E026E9BD30A
:10161000820E006E470E016E000E026E94D3D40E41
:10162000006E450E016E000E026E8DD3590E006ED7
:10163000480E016E000E026E86D37D0E006E480EBF
:10164000016E000E026E7FD37B0E006E480E016E9F
:10165000000E026E78D3790E006E480E016E000EF9
:10166000026E71D3830E006E480E016E000E026E84
:101670006AD37F0E006E480E016E000E026E63D3B9
:10168000810E006E480E016E000E026E5CD3710E6C
:10169000006E480E016E000E026E55D36F0E006E86
:1016A000480E016E000E026E4ED36D0E006E480E97
:1016B000016E000E026E47D3770E006E480E016E6B
:1016C000000E026E40D3770E006E450E016E000EC6
:1016D000026E39D3A20E006E470E016E000E026E2E
:1016E00032D3AB0E006E470E016E000E026E2BD38E
:1016F000B40E006E470E016E000E026E24D3B10EC2
:10170000006E470E016E000E026E1DD3AE0E006E0F
:10171000470E016E000E026E16D3990E006E470E34
:10172000016E000E026E0FD3960E006E470E016E14
:10173000000E026E08D39F0E006E470E016E000E63
:10174000026E01D39C0E006E470E016E000E026EFB
:10175000FAD2860E006E470E016E000E026EF3D2B4
:101760008A0E006E470E016E000E026EECD2920ED3
:10177000006E470E016E000E026EE5D22E0E006E58
:10178000440E016E000E026EDED2920E006E440E0A
:10179000016E000E026ED7D2410E006E480E016E31
:1017A000000E026ED0D2A70E006E460E016E000E25
:1017B000026EC9D2100E006E470E016E000E026E50
:1017C000C2D2910E006E460E016E000E026EBBD2AA
:1017D000A00E006E460E016E000E026EB4D2420ED6
:1017E000006E470E016E000E026EADD26D0E006EE1
:1017F000450E016E000E026EA6D2450E006E480E1A
:10180000016E000E026E9FD24D0E006E480E016EEC
:10181000000E026E98D24F0E006E480E016E000E42
:10182000026E91D2510E006E480E016E000E026ED5
:101830008AD2CB0E006E450E016E000E026E83D270
:10184000C20E006E450E016E000E026E7CD2EF0ECF
:10185000006E450E016E000E026E75D2E60E006E31
:10186000450E016E000E026E6ED2DD0E006E450E4C
:10187000016E000E026E67D2FA0E006E430E016E0C
:10188000000E026E60D2B00E006E450E016E000EAC
:10189000026E59D29E0E006E450E016E000E026E53
:1018A00052D2B90E006E450E016E000E026E4BD282
:1018B000950E006E450E016E000E026E44D2A70E0C
:1018C000006E450E016E000E026E3DD2F80E006EE7
:1018D000450E016E000E026E36D2520E006E460E9E
:1018E000016E000E026E2FD2490E006E460E016E82
:1018F000000E026E28D2640E006E460E016E000EBF
:10190000026E21D25B0E006E460E016E000E026E5C
:101910001AD27F0E006E460E016E000E026E13D2BA
:10192000880E006E460E016E000E026E0CD24E0E38
:10193000006E470E016E000E026E05D2320E006E72
:10194000470E016E000E026EFED12E0E006E470E87
:10195000016E000E026EF7D1360E006E470E016E5C
:10196000000E026EF0D13E0E006E470E016E000EAC
:10197000026EE9D13A0E006E470E016E000E026E45
:10198000E2D1560E006E470E016E000E026EDBD1E4
:10199000720E006E470E016E000E026ED4D16E0EF6
:1019A000006E470E016E000E026ECDD1760E006EF7
:1019B000470E016E000E026EC6D17E0E006E470EFF
:1019C000016E000E026EBFD17A0E006E470E016EE0
:1019D000000E026EB8D1880E006E480E016E000E29
:1019E000026EB1D14D50040AD8B4E9D44D50050A65
:1019F000D8B4EDD44D50060AD8B4F1D44D50070AEE
:101A0000D8B4F5D44D50080AD8B4F9D44D50090AC9
:101A1000D8B4FDD44D500A0AD8B401D54D500B0AA4
:101A2000D8B405D54D500C0AD8B409D54D500D0A7F
:101A3000D8B40DD54D500E0AD8B411D54D500F0A5B
:101A4000D8B415D54D50100AD8B419D54D50110A37
:101A5000D8B41DD54D50120AD8B421D54D50130A13
:101A6000D8B425D54D50140AD8B429D54D50150AEF
:101A7000D8B42DD54D50160AD8B431D54D50170ACB
:101A8000D8B435D54D50180AD8B439D54D50190AA7
:101A9000D8B43DD54D501A0AD8B441D54D501B0A83
:101AA000D8B445D54D501C0AD8B449D54D501D0A5F
:101AB000D8B44CD54D501E0AD8B44FD54D501F0A3E
:101AC000D8B452D54D50200AD8B455D54D50210A1E
:101AD000D8B458D54D50220AD8B45BD54D50230AFE
:101AE000D8B45ED54D50240AD8B461D54D50250ADE
:101AF000D8B464D54D50260AD8B467D54D50270ABE
:101B0000D8B46AD54D50280AD8B46DD54D50290A9D
:101B1000D8B470D54D502A0AD8B473D54D502B0A7D
:101B2000D8B476D54D502C0AD8B479D54D502D0A5D
:101B3000D8B47CD54D502E0AD8B47FD54D502F0A3D
:101B4000D8B482D54D50300AD8B485D54D50310A1D
:101B5000D8B488D54D50330AD8B48BD54D50340AFB
:101B6000D8B48ED54D50350AD8B491D54D50360ADB
:101B7000D8B494D54D50370AD8B497D54D50380ABB
:101B8000D8B49AD54D50390AD8B49DD54D503A0A9B
:101B9000D8B4A0D54D503B0AD8B4A3D54D503C0A7B
:101BA000D8B4A6D54D503D0AD8B4A9D54D503E0A5B
:101BB000D8B4ACD54D503F0AD8B4AFD54D50400A3B
:101BC000D8B4B2D54D50410AD8B4B5D54D50420A1B
:101BD000D8B4B8D54D50430AD8B4BBD54D50440AFB
:101BE000D8B4BED54D50450AD8B4C1D54D50460ADB
:101BF000D8B4C4D54D50470AD8B4C7D54D50480ABB
:101C0000D8B4CAD54D50490AD8B4CDD54D504A0A9A
:101C1000D8B4D0D54D504B0AD8B4D3D54D504C0A7A
:101C2000D8B4D6D54D504D0AD8B4D9D54D504E0A5A
:101C3000D8B4DCD54D504F0AD8B4DFD54D50500A3A
:101C4000D8B4E2D54D50510AD8B4E5D54D50520A1A
:101C5000D8B4E8D54D50530AD8B4EBD54D50540AFA
:101C6000D8B4EED54D50550AD8B4F1D54D50560ADA
:101C7000D8B4F4D54D50570AD8B4F7D54D50580ABA
:101C8000D8B4FAD54D50590AD8B4FDD54D505A0A9A
:101C9000D8B400D64D505B0AD8B403D64D505C0A78
:101CA000D8B406D64D505D0AD8B409D64D505E0A58
:101CB000D8B40CD64D505F0AD8B40FD64D50600A38
:101CC000D8B412D64D50610AD8B415D64D50620A18
:101CD000D8B418D64D50630AD8B41BD64D50670AF5
:101CE000D8B41ED64D50680AD8B421D64D50690AD2
:101CF000D8B424D64D506A0AD8B427D64D506B0AB2
:101D0000D8B42AD64D506C0AD8B42DD64D506D0A91
:101D1000D8B430D64D506E0AD8B433D64D506F0A71
:101D2000D8B436D64D50700AD8B439D64D50710A51
:101D3000D8B43CD64D50720AD8B43FD64D50730A31
:101D4000D8B442D648D6120096D1530E006E480E33
:101D5000016E000E026E74D2550E006E480E016EBA
:101D6000000E026E6DD2570E006E480E016E000E10
:101D7000026E66D25F0E006E480E016E000E026E9D
:101D80005FD2670E006E480E016E000E026E58D2D2
:101D9000690E006E480E016E000E026E51D26B0E7F
:101DA000006E480E016E000E026E4AD2610E006E89
:101DB000480E016E000E026E43D2630E006E480E96
:101DC000016E000E026E3CD2650E006E480E016E72
:101DD000000E026E35D2D30E006E470E016E000E5D
:101DE000026E2ED2E50E006E470E016E000E026EE0
:101DF00027D2DB0E006E470E016E000E026E20D25F
:101E0000DD0E006E470E016E000E026E19D2DF0E5F
:101E1000006E470E016E000E026E12D2D50E006EDD
:101E2000470E016E000E026E0BD2D70E006E470EEB
:101E3000016E000E026E04D2D90E006E470E016EC6
:101E4000000E026EFDD1E70E006E470E016E000E11
:101E5000026EF6D1E90E006E470E016E000E026EA4
:101E6000EFD1E30E006E470E016E000E026EE8D158
:101E7000C50E006E470E016E000E026EE1D1060E19
:101E8000006E000E016E000E026EDAD1BD0E006E05
:101E9000470E016E000E026ED3D1BF0E006E470ECC
:101EA000016E000E026ECCD1CD0E006E470E016E9B
:101EB000000E026EC5D1CF0E006E470E016E000EF1
:101EC000026EBED1D10E006E470E016E000E026E84
:101ED000B7D1C70E006E470E016E000E026EB0D174
:101EE000C90E006E470E016E000E026EA9D1CB0E18
:101EF000006E470E016E000E026EA2D10D0E006E36
:101F0000480E016E000E026E9BD10F0E006E480E41
:101F1000016E000E026E94D1110E006E480E016E1D
:101F2000000E026E8DD1070E006E480E016E000E7F
:101F3000026E86D1F50E006E470E016E000E026E27
:101F40007FD1F70E006E470E016E000E026E78D143
:101F5000ED0E006E470E016E000E026E71D1EF0E97
:101F6000006E470E016E000E026E6AD1F10E006E19
:101F7000470E016E000E026E63D1FF0E006E470E1B
:101F8000016E000E026E5CD1010E006E480E016EF5
:101F9000000E026E55D1030E006E480E016E000E4B
:101FA000026E4ED1F90E006E470E016E000E026EEB
:101FB00047D1FB0E006E470E016E000E026E40D13F
:101FC000FD0E006E470E016E000E026E39D1F30E4B
:101FD000006E470E016E000E026E32D1070E006ECB
:101FE000450E016E000E026E2BD1AA0E006E440E3D
:101FF000016E000E026E24D1B60E006E440E016E0C
:10200000000E026E1DD1C20E006E440E016E000E57
:10201000026E16D13B0E006E440E016E000E026E73
:102020000FD1DA0E006E440E016E000E026E08D162
:10203000590E006E450E016E000E026E01D19E0E0D
:10204000006E440E016E000E026EFAD0B50E006EE8
:10205000430E016E000E026EF3D0C30E006E430EEF
:10206000016E000E026EECD0890E006E480E016EFD
:10207000000E026EE5D04D50040AD8B466D64D501D
:10208000050AD8B469D64D50060AD8B46CD64D505E
:10209000070AD8B46FD64D50080AD8B472D64D503E
:1020A000090AD8B475D64D500A0AD8B478D64D501E
:1020B0000B0AD8B47BD64D500C0AD8B47ED64D50FE
:1020C0000D0AD8B481D64D500E0AD8B484D64D50DE
:1020D0000F0AD8B487D64D50100AD8B48AD64D50BE
:1020E000110AD8B48DD64D50120AD8B490D64D509E
:1020F000130AD8B493D64D50140AD8B496D64D507E
:10210000150AD8B499D64D50160AD8B49CD64D505D
:10211000170AD8B49FD64D50180AD8B4A2D64D503D
:10212000190AD8B4A5D64D501A0AD8B4A8D64D501D
:102130001B0AD8B4ABD64D501C0AD8B4AED64D50FD
:102140001D0AD8B4B1D64D501E0AD8B4B4D64D50DD
:102150001F0AD8B4B7D64D50200AD8B4BAD64D50BD
:10216000210AD8B4BDD64D50220AD8B4C0D64D509D
:10217000230AD8B4C3D64D50240AD8B4C6D64D507D
:10218000250AD8B4C9D64D50260AD8B4CCD64D505D
:10219000270AD8B4CFD64D502D0AD8B4D2D64D5038
:1021A0002E0AD8B4D5D64D502F0AD8B4D8D64D5013
:1021B000300AD8B4DBD64D50310AD8B4DED64D50F3
:1021C000330AD8B4E1D64D50340AD8B4E4D64D50D1
:1021D000350AD8B4E7D64D50360AD8B4EAD64D50B1
:1021E000370AD8B4EDD64D50380AD8B4F0D64D5091
:1021F000590AD8B4F3D64D505A0AD8B4F6D64D5031
:102200005B0AD8B4F9D64D505C0AD8B4FCD64D5010
:102210005E0AD8B4FFD64D505F0AD8B402D74D50ED
:10222000600AD8B405D74D50610AD8B408D74D50CC
:10223000620AD8B40BD74D50630AD8B40ED714D75E
:102240001200200E0001BE5D03E360B201D002D097
:10225000006A3DD04AC0ECF04BC0EDF077EC08F0DE
:10226000005234E1EBC0ECF0010EED6FE8C0EEF08F
:10227000E9C0EFF0EAC0F0F0E7EC07F000C04AF088
:1022800001C04BF0396A3A6A3B6A3C6A4AC0ECF0DA
:102290004BC0EDF077EC08F000520FE0010E016E3C
:1022A0000150000A02E1ECEC06F039503A103B1004
:1022B0003C1002E0006A0BD0E9D7010E4A24E96E17
:1022C000000E4B20EA6EEECF00F001D0006A120043
:1022D0000001BE51000A0CE1606A646A2FEC05F04F
:1022E0008CEC08F060B602D06086FCD7010EBE6FA1
:1022F0001200606A646A0001BE6B12000001BC91AA
:10230000E8C0ECF040EC09F0BC8112007FEC09F071
:1023100000C0E8F0370E0001EC6F430EED6F000EC9
:10232000EE6F91EC08F000C0E9F0E851005C03E2C8
:10233000E8C000F002D0E9C000F01200086A080E00
:102340000C6E003408360450085ED8B002D008265F
:10235000D89000360C2EF5D71200D8DF00C090F0D0
:10236000010E8B6FE2C089F0E3C08AF0E4C08CF00C
:10237000E5C08DF0AEEC06F0010E016E0150010AD1
:1023800001E1A6DF12004C50000A01E10ED04C50D2
:10239000FF0A01E10AD08B924CC042F0480ED76E82
:1023A000E40ED66EF294F28AD58E1200A2DF1200ED
:1023B000E2C004F0E3C005F004C0E9FF05C0EAFF95
:1023C000EE5203E0044A052AF7D70001E651E7116F
:1023D00021E004C002F005C003F0044A052AE4C06D
:1023E00000F0E5C001F0E44BE52B00C0E9FF01C0BF
:1023F000EAFF02C0E1FF03C0E2FFEECFE6FF02C04A
:10240000E9FF03C0EAFFEE5205E0010EE65F000EB1
:10241000E75BDBD7000EE71902E1000EE61905E1E4
:1024200004C0E1FF05C0E2FFE66AE2C000F0E3C0DD
:1024300001F01200F00E0001E215026E02C000F081
:102440000032009E0032009E0032009E0032009E4C
:10245000720E0024F66E430EF76E000EF722000E89
:10246000F86E000EF8220900F5CF00F0E3C0E1FF9E
:10247000E4C0E2FF00C0E6FFE34BE42B0F0EE215E1
:10248000006E720E0024F66E430EF76E000EF722F9
:10249000000EF86E000EF8220900F5CF00F0E3C040
:1024A000E1FFE4C0E2FF00C0E6FF12000001E56BBF
:1024B000030EE55D0AE2E551E325E16E000EE4213D
:1024C000E26E200EE66EE52BF3D7E551E325E16ED3
:1024D000000EE421E26EE66AE507E551E325E66FCA
:1024E000000EE421E76F0A0E046EE2C000F026DF62
:1024F00008C000F0300E0026E6C0E1FFE7C0E2FFB2
:1025000000C0E6FF0A0E046EE2C000F017DF00C054
:10251000E2F00050000A01E102D0E507DED7120028
:10252000E2C0E8F0E3C0E9F0E4C0EAF0010E000127
:10253000EB6F87DE1200E2C004F0E3C005F004C0D8
:10254000E9FF05C0EAFFEE5203E0044A052AF7D787
:1025500004C002F005C003F0044A052AE4C000F0FC
:10256000E5C001F00001E44BE52B00C0E9FF01C02C
:10257000EAFF02C0E1FF03C0E2FFEECFE6FF02C0C8
:10258000E9FF03C0EAFFEE5201E0E2D7E2C000F04B
:10259000E3C001F01200960E056E000E066E05C037
:1025A00003F006C004F0054A062AE2C000F0E3C0CA
:1025B00001F0E4C002F0010E0001E227000EE32367
:1025C000E42300C0F6FF01C0F7FF02C0F8FF0900D6
:1025D000F5CF00F003C0E1FF04C0E2FF00C0E6FF5A
:1025E00003C0E9FF04C0EAFFEE5201E0D8D7960E1F
:1025F000006E000E016E120010D0800E0001E26F1E
:102600001AD0C00EE26F17D0940EE26F14D0D40E21
:10261000E26F11D0800EE26F0ED00001E251010A8C
:10262000ECE0E251020AEDE0E251030AEDE0E25192
:10263000040AEDE0EFD7E305006EE251002600C08A
:10264000E2F000C0ECF040EC09F0BC91E66BE65122
:10265000E425E96E000EE521EA6EEE520BE0E6514C
:10266000E425E96E000EE521EA6EEECFE8F046DEE5
:10267000E62BEDD7BC811200E2C004F0E3C005F008
:1026800004C002F005C003F0044A052AE4C000F0CB
:10269000E5C001F00001E44BE52B00C0E9FF01C0FB
:1026A000EAFF02C0E1FF03C0E2FFEECFE6FF02C097
:1026B000E9FF03C0EAFFEE5201E0E2D7E2C000F01A
:1026C000E3C001F012004DC0E2F04EC0E3F0F00EA6
:1026D0004E140001E46FE6D2DEEC09F000C067F0B2
:1026E00001C068F002C069F04EA221D0A4EC0EF047
:1026F00000C051F001C052F002C053F000C0F6FF1C
:1027000001C0F7FF02C0F8FF0900F5CF00F000524A
:1027100007E051C000F052C001F053C002F0D3D224
:1027200067C000F068C001F069C002F0CCD267C099
:1027300000F068C001F069C002F0C5D21CD01D0EC7
:10274000006E450E016E000E026EBDD2F00E006EE0
:10275000460E016E000E026EB6D20B0E006E470ED4
:10276000016E000E026EAFD2850E006E480E016E35
:10277000000E026EA8D20001E351100A02E1810EA0
:10278000E219DDE0E351100A02E1820EE219DEE017
:10279000E351100A02E1830EE219DFE0E5D70AD126
:1027A000150E006E470E016E000E026E8CD2810E69
:1027B000006E450E016E000E026E85D2CA0E006ECE
:1027C000460E016E000E026E7ED2C30E006E460EE5
:1027D000016E000E026E77D2D10E006E460E016EB3
:1027E000000E026E70D2AE0E006E460E016E000E2E
:1027F000026E69D2630E006E450E016E000E026E0F
:1028000062D2B50E006E460E016E000E026E5BD2F5
:10281000BC0E006E460E016E000E026E54D24A0EC1
:10282000006E470E016E000E026E4DD2520E006E0B
:10283000470E016E000E026E46D2130E006E480E59
:10284000016E000E026E3FD2150E006E480E016E34
:10285000000E026E38D25E0E006E470E016E000E44
:10286000026E31D2BA0E006E470E016E000E026E7D
:102870002AD2B70E006E470E016E000E026E23D2F2
:102880005A0E006E470E016E000E026E1CD26A0ECA
:10289000006E470E016E000E026E15D2240E006E01
:1028A000470E016E000E026E0ED2E40E006E460E52
:1028B000016E000E026E07D2660E006E470E016EAC
:1028C000000E026E00D2290E006E470E016E000E41
:1028D000026EF9D11A0E006E470E016E000E026EE6
:1028E000F2D11F0E006E470E016E000E026EEBD18C
:1028F000210E006E440E016E000E026EE4D1860EB3
:10290000006E440E016E000E026EDDD1DE0E006E12
:10291000460E016E000E026ED6D1120E006E450EEE
:10292000016E000E026ECFD1400E006E460E016E9B
:10293000000E026EC8D17A0E006E440E016E000EBB
:10294000026EC1D1F10E006E440E016E000E026ED9
:10295000BAD1370E006E460E016E000E026EB3D174
:102960000A0E006E460E016E000E026EACD1010E14
:10297000006E460E016E000E026EA5D11C0E006E9A
:10298000460E016E000E026E9ED16E0E006E440E5B
:10299000016E000E026E97D1DF0E006E430E016EC7
:1029A000000E026E90D18A0E006E480E016E000E6F
:1029B000026E89D1E351200A02E1400EE219D8B437
:1029C000EFD6E351200A02E1410EE219D8B4EFD666
:1029D000E351200A02E1420EE219D8B4EFD6E351E6
:1029E000200A02E1430EE219D8B4EFD6E351200ADF
:1029F00002E1440EE219D8B4EFD6E351200A02E115
:102A0000450EE219D8B4EFD6E351200A02E1460E92
:102A1000E219D8B4EFD6E351200A02E1470EE219D9
:102A2000D8B4EFD6E351200A02E1480EE219D8B437
:102A3000EFD6E351200A02E19C0EE219D8B4EFD69A
:102A4000E351200A02E19D0EE219D8B4EFD6E3511A
:102A5000200A02E1B00EE219D8B4EFD6E351200A01
:102A600002E1B10EE219D8B4EFD6E351200A02E137
:102A7000B20EE219D8B4EFD6E351200A02E1B30E48
:102A8000E219D8B4EFD6E351200A02E1B40EE219FC
:102A9000D8B4EFD6E351200A02E1B50EE219D8B45A
:102AA000EFD6E351200A02E1B60EE219D8B4EFD610
:102AB000E351200A02E1B70EE219D8B4EFD6E35190
:102AC000200A02E1B80EE219D8B4EFD6E351200A89
:102AD00002E1CD0EE219D8B4EFD6E351200A02E1AB
:102AE000E20EE219D8B4EFD6E351200A02E1E90E72
:102AF000E219D8B4EFD6E351200A02E1EA0EE21956
:102B0000D8B4EFD6E351210A02E1830EE219D8B41A
:102B1000EFD6E351210A02E1850EE219D8B4EFD6CF
:102B2000E351210A02E18A0EE219D8B4EFD6E3514B
:102B3000210A02E1920EE219D8B4EFD6E351210A3C
:102B400002E1940EE219D8B4EFD6E351210A02E172
:102B5000960EE219D8B4EFD6E351220A02E1210E13
:102B6000E219D8B4EFD6E351220A02E1230EE219AA
:102B7000D8B4EFD6E351220A02E1240EE219D8B408
:102B8000EFD6E351220A02E1250EE219D8B4EFD6BE
:102B9000E351220A02E1260EE219D8B4EFD6E3513E
:102BA000220A02E1270EE219D8B4EFD6E351220A35
:102BB00002E12A0EE219D8B4EFD6F5D64DD0620E56
:102BC000006E440E016E000E026E7DD0070E006E88
:102BD000440E016E000E026E76D0140E006E440E8E
:102BE000016E000E026E6FD0130E006E460E016E67
:102BF000000E026E68D03B0E006E450E016E000E98
:102C0000026E61D0760E006E460E016E000E026EF0
:102C10005AD0CE0E006E440E016E000E026E53D0DE
:102C20004F0E006E450E016E000E026E4CD06D0E02
:102C3000006E460E016E000E026E45D0E60E006E6E
:102C4000440E016E000E026E3ED0860E006E480EDF
:102C5000016E000E026E37D04D50000AB0E04D50AC
:102C6000010AB4E04D50020AB8E04D50030ABCE03E
:102C70004D50040AC0E04D50050AC4E04D50060A0C
:102C8000C8E04D50080ACCE04D50070AD0E04D5046
:102C90000A0AD4E0DAD7870E006E480E016E000EE5
:102CA000026E11D0E451000AD8B416D5E451100ACE
:102CB000D8B444D5E451200AD8B471D5E451F00A0F
:102CC000D8B47CD7E8D71200C3EC11F0830E000112
:102CD000E26F430EE36F000EE46F5DDC00C0E4F0D2
:102CE00001C0E5F0020EE26F010EE36F85DC4B0ED2
:102CF0000501086F096B0A6B0B6B439043B05CD006
:102D0000000E0001E26F050EE36F080EE46F050E82
:102D1000E56FADEC11F0E06B43B037D0320EE05D03
:102D200034E28B80040E0B6E0C0E0C6E330E0D6EA7
:102D30000D2EFED70C2EFCD70B2EFAD7000000006C
:102D40008B90040E0B6E0C0E0C6E330E0D6E0D2E52
:102D5000FED70C2EFCD70B2EFAD700000000080E71
:102D6000E26F050EE36F040EE46F90EC12F000507A
:102D7000000A000ED8A4010E016E01B002D04390EB
:102D800001D043800001E02BC7D743B014D0C3EC7F
:102D900011F0D6EC11F0020E0A6E310E0B6E620EBF
:102DA0000C6E450E0D6E0D2EFED70C2EFCD70B2E85
:102DB000FAD70A2EF8D7A2D70001480EE26F440EC8
:102DC000E36F000EE46FCBEC12F000C0E4F001C042
:102DD000E5F0020EE26F010EE36F0EDC120008D088
:102DE0008B82D59E0CD08B92D59E09D0D58E07D0E4
:102DF0004C50000AF5E04C50FF0AF5E0F7D71200FE
:102E0000D6EC11F0550EE26F440EE36F000EE46F46
:102E1000CBEC12F000C0E4F001C0E5F0020EE26F6E
:102E2000010EE36FFCEC12F043901200010E000162
:102E3000EC6F40EC09F04EC0E2F0540EE36F000E70
:102E4000E46F1AEC12F0200E566E576AF00E4E1414
:102E5000E16FD1D043A813D0250EE26F460EE36F89
:102E6000000EE46FCBEC12F000C0E4F001C0E5F01E
:102E7000540EE26F000EE36F9BEC12F082D00F0E47
:102E80004E14E06F77D02E0EE26F460EE36F000E09
:102E9000E46FCBEC12F000C0E4F001C0E5F0540E9A
:102EA000E26F000EE36F9BEC12F06BD08B0EE26FC3
:102EB000450EE36F000EE46FCBEC12F000C0E4F0BF
:102EC00001C0E5F0540EE26F000EE36F9BEC12F0D0
:102ED00058D04EA612D0FC0EE26F460EE36F000EE5
:102EE000E46FCBEC12F000C0E4F001C0E5F0540E4A
:102EF000E26F000EE36F9BEC12F04EA012D0010EB9
:102F0000E26F470EE36F000EE46FCBEC12F000C0EF
:102F1000E4F001C0E5F0540EE26F000EE36F9BECAD
:102F200012F04EA412D0060EE26F470EE36F000EB1
:102F3000E46FCBEC12F000C0E4F001C0E5F0540EF9
:102F4000E26F000EE36F9BEC12F04EA212D0F60E71
:102F5000E26F460EE36F000EE46FCBEC12F000C0A0
:102F6000E4F001C0E5F0540EE26F000EE36F9BEC5D
:102F700012F007D0E051000A86E0E0510F0A96E017
:102F8000A8D747D0990EE26F460EE36F000EE46FAC
:102F9000CBEC12F000C0E4F001C0E5F0540EE26F9B
:102FA000000EE36F9BEC12F034D0ED0EE26F430E97
:102FB000E36F000EE46FCBEC12F000C0E4F001C050
:102FC000E5F0540EE26F000EE36F9BEC12F021D09F
:102FD000D10EE26F430EE36F000EE46FCBEC12F004
:102FE00000C0E4F001C0E5F0540EE26F000EE36FA4
:102FF0009BEC12F00ED0E151000AD8B42BD7E1516E
:10300000100AC0E0E151200AD0E0E151F00AE0E00E
:10301000F1D743A813D0A50EE26F430EE36F000E65
:10302000E46FCBEC12F000C0E4F001C0E5F0700EEC
:10303000E26F000EE36F3CEC13F0ACD043A41ED063
:1030400088C0E2F0700EE36F000EE46F1AEC12F02D
:10305000200E726F736B450EE26F450EE36F000E2C
:10306000E46FCBEC12F000C0E4F001C0E5F0700EAC
:10307000E26F000EE36F9BEC12F08CD043AA67D096
:1030800045C0E2F0700EE36F000EE46F1AEC12F030
:10309000200E726F736BA50EE26F470EE36F000E8A
:1030A000E46FCBEC12F000C0E4F001C0E5F0700E6C
:1030B000E26F000EE36F9BEC12F041D0620EE26F04
:1030C000470EE36F000EE46FCBEC12F000C0E4F0AB
:1030D00001C0E5F0700EE26F000EE36F9BEC12F0A2
:1030E00035D0A80EE26F470EE36F000EE46FCBEC15
:1030F00012F000C0E4F001C0E5F0700EE26F000EC7
:10310000E36F9BEC12F022D045C0E2F0750EE36F46
:10311000000EE46F56EC12F0EA0EE26F460EE36F1B
:10312000000EE46FCBEC12F000C0E4F001C0E5F05B
:10313000700EE26F000EE36F9BEC12F007D045506B
:10314000000ABCE04550FF0ACCE0DED723D04DC0DA
:10315000E2F0700EE36F000EE46F1AEC12F0200E36
:10316000726F736B63EC13F000C0E2F001C0E3F028
:1031700002C0E4F0CBEC12F000C0E4F001C0E5F0D6
:10318000700EE26F000EE36F0D0EE66F000EE76F3C
:10319000D8EC11F0010EE26F010EE36F540EE46FF4
:1031A000000EE56FFCEC12F0020EE26F010EE36F11
:1031B000700EE46F000EE56FFCEC12F012004EC0D2
:1031C00000F00032009E0032009E0032009E00326D
:1031D000009E0001DF5100260F0E0014036E0F0E3B
:1031E0004E14026E03C000F00036009000360090CE
:1031F00000360090003600900250001200C04EF0E1
:10320000120081BC02D0D88001D0D890000ED8B076
:10321000010E006E120081BE02D0D88001D0D8907D
:10322000000ED8B0010E006E12000001DF514526DD
:1032300012009494BA840C0EBD1212009484BA94B5
:10324000F00EBD1612000001DF518827120043A0C6
:103250001FD0530E0501086F4DC009F5080E00017F
:10326000E26F050EE36F020EE46F90EC12F0005275
:1032700001E1F4D70501096B080E0001E26F050EAC
:10328000E36F020EE46F90EC12F0005201E1F4D70C
:10329000120043A023D04B0E0501086F4EC009F564
:1032A0000A6B4DC00BF5080E0001E26F050EE36FCF
:1032B000040EE46F90EC12F0005201E1F4D7050126
:1032C000096B0B6B080E0001E26F050EE36F040E35
:1032D000E46F90EC12F0005201E1F4D7120044D0F8
:1032E000828C100E0B6E390E0C6E0D0E0D6E0D2EA7
:1032F000FED70C2EFCD70B2EFAD700000000829CC4
:103300004FD0828E100E0B6E390E0C6E0D0E0D6EA0
:103310000D2EFED70C2EFCD70B2EFAD70000000086
:10332000829E3ED0808C100E0B6E390E0C6E0D0EF0
:103330000D6E0D2EFED70C2EFCD70B2EFAD70000EB
:103340000000809C2DD05CDDBFDC2AD04C6A47DDBC
:1033500027D0FF0E4C6E43DD23D0439C67DD20D089
:10336000438C1ED01DD01CD04D50010AB9E04D50E9
:10337000020AC7E04D500A0AD5E04D50030AE3E0C7
:103380004D50040AE3E04D50050AE3E04D50080AB1
:10339000E4E04D50070AE4E04D50000AE3E0E3D7D3
:1033A000120043A023D0430E0501086F4DC009F55C
:1033B0000F0E4E140A6F080E0001E26F050EE36F48
:1033C000030EE46F90EC12F0005201E1F4D7050116
:1033D000096B0A6B080E0001E26F050EE36F030E26
:1033E000E46F90EC12F0005201E1F4D71200A6A2B3
:1033F00002D00000FCD7A69CDDC0A9FFDEC0A8FF5C
:10340000A69EA684F2CF00F0F29E550EA76EAA0EDD
:10341000A76EA68200BE02D0F29E01D0F28EA694C4
:103420001200A69CDDC0A9FFA69EA680A8CF00F032
:1034300012000001856B876B866B010E4F24006EB6
:10344000000E5020016E00C04FF001C050F012007D
:10345000F250026EF29E0500FF6A0150FE6E0050AF
:10346000FD6E02BEF28E1200000E4D14026E4E5022
:10347000F00B036EFF0E4D14006E4E500F0B016EDD
:103480000001DD510026000EDDBFFF0E0122FF0E00
:1034900000160F0E0116025000120350011200C058
:1034A0004DF001C04EF01200100E0001836F270E88
:1034B000846F8B80F00E4E14DD6F09D0EADE15D0DC
:1034C000C6DE13D06EDF11D00ADF0FD00ED00001A0
:1034D000DD51000AF3E0DD51100AF2E0DD51200A6F
:1034E000F1E0DD51F00AF0E0F1D712000001DD6BF0
:1034F000060EDD5D1BE26A0EE96E000EEA6EDD511E
:10350000E926D8B0EA2AEECFE2F0DDC000F0000EE6
:10351000016E003601360090540E0024E36F000E59
:103520000120E46F1AEC12F0DD2BE2D750C0E2F07C
:10353000600EE36F000EE46F1AEC12F04FC0E2F081
:10354000620EE36F000EE46F1AEC12F0646B4DC074
:10355000E2F0700EE36F000EE46F1AEC12F0200E32
:10356000726F85C0E2F0730EE36F000EE46F1AEC29
:1035700012F087C0E2F0750EE36F000EE46F1AECF4
:1035800012F0200E756F86C0E2F0770EE36F000E2A
:10359000E46F1AEC12F02E0E776F200E796F3EC09A
:1035A000E2F07A0EE36F000EE46F1AEC12F03DC009
:1035B000E2F07C0EE36F000EE46F1AEC12F0200EC6
:1035C0007E6F41A003D0750E7F6F02D0640E7F6FB7
:1035D000806B4F6A506A010EEC6F40EC09F0010EEF
:1035E000E26F010EE36F540EE46F000EE56FFCEC2A
:1035F00012F0020EE26F010EE36F700EE46F000E28
:10360000E56FFCEC12F0120014DE0A0E0C6E580E80
:103610000D6E0D2EFED70C2EFCD700000FDE120013
:10362000929A92989290929292949296899A89986C
:1036300089968994899289900FEC06F00FEC06F038
:103640000FEC06F089828980898A21EC06F0899A3C
:103650000FEC06F0898A21EC06F0899A0FEC06F04F
:10366000898A21EC06F0899A0FEC06F08990898A04
:1036700021EC06F0899A0FEC06F0898A21EC06F01D
:10368000899A89928986898A21EC06F0899A0FECB9
:1036900006F089968980898A21EC06F0899A8990BA
:1036A000898A21EC06F0899A0FEC06F0898A21ECD0
:1036B00006F0899A8980898A21EC06F0899A0FECB4
:1036C00006F08990898A21EC06F0899A8986898496
:1036D00089828980898A21EC06F0899A0FEC06F0AC
:1036E0000001BC811200080E0001D56FD551000801
:1036F0001BE28ADFD4AF0BD01A0E0C6EB50E0D6E26
:103700000D2EFED70C2EFCD70000000009D00A0EAB
:103710000C6E580E0D6E0D2EFED70C2EFCD7000031
:10372000D437D491D507E2D71200A090120000013F
:103730006A51881904E06A51FF0A01E021D06B51F7
:103740006A19006E01E11CD06D516C19006E01E127
:1037500017D06F516E19006E01E112D06CC001F0EC
:10376000006A6E510012000E011200C04DF001C03F
:103770004EF043AC02D0BADE02D016EC17F094DE65
:103780001200010E0001DD6F4CC0DEF030DEEFEC08
:1037900016F01200D7C0E1FFD8C0E2FFD4C0E6FFA8
:1037A000D5C000F0D6C001F053DE16EC17F0D9C03A
:1037B00000F0DAC001F04CDE00521CE043A219D048
:1037C000800E006E800E44BE7F0E005C02E144500D
:1037D00000080FE3D7C0E1FFD8C0E2FFD4C0E6FF86
:1037E000D5C000F0D6C001F033DE16EC17F04392DE
:1037F000446ADDD71200D4C0DDF036DE16EC17F0D7
:10380000050E826FD5C000F0D6C001F021DE005257
:1038100033E043A230D0800E006E800E44BE7F0E97
:10382000005C02E14450000826E300018207825157
:10383000000A1FE1D4C0DDF017DE63EC13F000C016
:10384000F6FF01C0F7FF02C0F8FF0900F5CF01F055
:103850000150000A0AE10F0E4D14016E0150000ADA
:1038600004E0D4C0DDF000DEE8D716EC17F0050E5A
:10387000826F4392446AC6D71200480E0001EC6F73
:1038800040EC09F0E86B7EEC11F0040EE86F7EEC82
:1038900011F00A0EE86F7EEC11F0150EE86F7EEC69
:1038A00011F0040EE86F7EEC11F0040EE86F7EEC70
:1038B00011F0E86B7EEC11F0E86B7EEC11F0E86B38
:1038C0007EEC11F0040EE86F7EEC11F0040EE86F50
:1038D0007EEC11F0150EE86F7EEC11F00A0EE86F29
:1038E0007EEC11F0040EE86F7EEC11F0E86B7EECDC
:1038F00011F0E86B7EEC11F0E86B7EEC11F0040E39
:10390000E86F7EEC11F0020EE86F7EEC11F01D0EF8
:10391000E86F7EEC11F0020EE86F7EEC11F0040E01
:10392000E86F7EEC11F0E86B7EEC11F0E86B7EEC5A
:1039300011F0E86B7EEC11F0040EE86F7EEC11F0F4
:10394000080EE86F7EEC11F0170EE86F7EEC11F0B8
:10395000080EE86F7EEC11F0040EE86F7EEC11F0BB
:10396000E86B7EEC11F0E86B7EEC11F0E86B7EEC1E
:1039700011F0E86B7EEC11F0090EE86F7EEC11F0AF
:10398000150EE86F7EEC11F0120EE86F7EEC11F070
:10399000E86B7EEC11F0E86B7EEC11F0E86B7EECEE
:1039A00011F01B0EE86F7EEC11F01B0EE86F7EEC41
:1039B00011F01B0EE86F7EEC11F01B0EE86F7EEC31
:1039C00011F01B0EE86F7EEC11F01B0EE86F7EEC21
:1039D00011F01B0EE86F7EEC11F0E86B7EEC11F03D
:1039E000E86B7EEC11F0100EE86F7EEC11F0080E23
:1039F000E86F7EEC11F0040EE86F7EEC11F0020E21
:103A0000E86F7EEC11F0010EE86F7EEC11F0E86BD0
:103A10007EEC11F0E86B7EEC11F0020EEC6F40ECE6
:103A200009F01200A090A190040E976ECF6ACE6AA2
:103A300000DDA0801200010E0001DD6FF2DC00C08D
:103A40004CF0EFEC16F012000001862B86510708AF
:103A500011E2866B6A0EE16E000EE26E8751E1267E
:103A6000D8B0E22A81C0E6FF872B060E875D02E30D
:103A7000030E856F1200BB50010F006E016A000E2D
:103A80000122D4C004F0000E056EE9EC00F0060E31
:103A9000026E00C004F001C005F0025005E00532DE
:103AA0000432059EFF0FFAD7040E016E04C000F029
:103AB000015004E000360090FF0FFBD7300E0014D9
:103AC000036E04C000F005C001F001320032019E17
:103AD00001320032019E00C0BEFF0F0EBD16035022
:103AE000BD121200BE6ABD98BD9A120074D03E503D
:103AF000020802E13D50BC08010ED8B0000E016E74
:103B0000050E3E5C02E1140E3D5C010ED8B0000EC5
:103B1000006E00500116006A41B0002A01500016E4
:103B200004E0010E0001856F01D083DC63D041B059
:103B300002D0028001D002903E50010802E13D50C7
:103B40002C08010ED8B0000E016E030E3E5C02E19F
:103B5000840E3D5C010ED8B0000E006E00500116C0
:103B6000006A02B0002A0150001604E00001020EB3
:103B7000856F01D05EDC3ED041A008D03E500308E6
:103B800002E13D50840801E254DC20D03E50070899
:103B900002E13D509E0802E24CDC18D03E50050880
:103BA00002E13D50460806E20001813781918181A2
:103BB0004BDF0CD03E50010802E13D502C0805E2DD
:103BC00000018137819140DF01D033DC13D0ADDDBE
:103BD000AEDD28DF0FD000018551000AD8B487D7A9
:103BE0008551010AA4E08551020AC6E08551030A05
:103BF000EEE0F0D7120043A415D0CFC0D4F0460EAB
:103C00000001D56F320ED66FDF0ED76F000ED86F62
:103C1000D0C0D9F0D1C0DAF0D2C0DBF0D3C0DCF034
:103C2000B9DD39D043AA15D0CFC0D4F02A0E000197
:103C3000D56F320ED66FDF0ED76F000ED86FD0C0A3
:103C4000D9F0D1C0DAF0D2C0DBF0D3C0DCF0A2DD15
:103C500022D043A815D0CFC0D4F0BE0E0001D56F3E
:103C6000310ED66FDF0ED76F000ED86FD0C0D9F0EF
:103C7000D1C0DAF0D2C0DBF0D3C0DCF08BDD0BD0EA
:103C8000CFC0D4F0D0C0D5F0D1C0D6F0D2C0D7F0DC
:103C9000D3C0D8F0B0DD12000001BE51010A07E127
:103CA00060BA05D0656A64806488020EBE6F65A440
:103CB00006D064A404D0FB0E6516A6EC06F060A244
:103CC00003D00DEC06F0DED065A019D064A017D0AB
:103CD000AEEC06F0040EBE6F200E0401026F040E5F
:103CE000036F080E016F000E0015006E00C000F497
:103CF0008C0E0011006E00C000F4FE0E651665A863
:103D000006D064A804D07CEC06F0EF0E651665AC16
:103D100004D064AC02D0BF0E651665AA04D064AAB4
:103D200002D0EFEC05F065A202D064B2676A040E1F
:103D30000001BE5D03E20DEC06F0A4D064A6A0D0A5
:103D4000F36B040EF35DD8B09BD065A695D061CF20
:103D5000BAF0F70E6516780EBA15016E0150000A1A
:103D6000D8A489D0FD0EBA15016E026AFF0E0216A4
:103D7000000E021802E1000E01186DE17E0EBA1568
:103D8000016E01C003F00332039E03C000F0000E79
:103D9000016E003600900136003600900136000EAC
:103DA0000024026E040E0120036E02C08EF003C0D8
:103DB0008FF002C091F003C092F0040E9119006ED2
:103DC00000C091F002C0E9FF03C0EAFFEECF00F0AF
:103DD00000C001F03C0E01160132019E0132019E2D
:103DE00001500D0A35E1020E8E25E96E000E8F217D
:103DF000EA6EEECF01F0EECF02F00250040A02E1CB
:103E0000280E011822E1020E8E25E16E000E8F2190
:103E1000E26E200EE66E040EE66EF26B080EF25DA8
:103E200014E2200EE16E040EE26EF251E126D8B0EB
:103E3000E22A280EE96E040EEA6EF251E926D8B0A5
:103E4000EA2AEECFE6FFF22BE9D7D8EC05F002D054
:103E500081EC06F00FD00001FD0EBA15016E026A6A
:103E6000FF0E0216000E021802E1040E011802E114
:103E700028EC06F000D001D003D00001F32B61D76D
:103E80000DEC06F012000900F5CFE6FF0006FBE19D
:103E90000106F9E112000F015B6B5C6B5D6BBF0EFD
:103EA000926EFF0E936E380E946E896A8A6A8B6AE0
:103EB0008B80700ED36ED3B401D0FDD7D3B601D0B2
:103EC000FDD7D2989B8ED288D2BE01D0FDD7B59EA9
:103ED000B588B58E436A0001CF6B060ECF5D0BE24D
:103EE0006A0EE16E000EE26ECF51E126D8B0E22AF2
:103EF000E66ACF2BF2D74D6A4E6A62886284070E5B
:103F0000D56E320ECD6E320EB16EF28EF28CF19E07
:103F1000BA80BA924E0EBB6EE5DD800ED46FABDD7B
:103F200010EC1BF0AADC010EEC6F40EC09F00C0E5B
:103F3000EC6F40EC09F0FC0EE26F440EE36F000EF4
:103F4000E46FCBEC12F000C0E4F001C0E5F0010E2C
:103F5000E26F010EE36FFCEC12F0F70E8114006EBD
:103F6000F70E001A00521AE0940EE26F430EE36F50
:103F7000000EE46FCBEC12F000C0E4F001C0E5F0FD
:103F8000020EE26F010EE36FFCEC12F0F70E8114EB
:103F9000006EF70E001A005201E0F8D7A082DD6B28
:103FA00011EC1AF000C088F046DD3CDD12008B8079
:103FB00095EC1BF088C06AF00001881D006E00C0FF
:103FC0006BF04EC06CF04E1C006E00C06DF04DC02A
:103FD0006EF04D1C006E00C06FF019EC19F0100E61
:103FE0000C6E940E0D6E0D2EFED70C2EFCD700001D
:103FF0001EEC19F00A0E0C6E580E0D6E0D2EFED72B
:104000000C2EFCD70000CF6B060ECF5D0EE26A0EC1
:10401000E96E000EEA6ECF51E926D8B0EA2AEECF5B
:10402000D4F073EC1BF0CF2BEFD704EC1BF0070E92
:104030000B6E170E0C6E6A0E0D6E0D2EFED70C2E2B
:10404000FCD70B2EFAD70000EDDC8B9012004E70DF
:1040500081B216D043A213D0800E006E800E44BEF3
:104060007F0E005C02E14450000809E34E704E767A
:1040700016EC17F081B201D0FDD74392446AE8D71D
:1040800016EC17F0120043A805D081BA01D0FDD775
:1040900043984FD0F00E4E14016E0150F00A34E1F7
:1040A00081BA01D0FDD722D0437443A401D006D0F9
:1040B0000001DD6B88C0DEF0F7EC19F024D0437A04
:1040C00043AA03D04CC045F004D045C04CF0C1EC2D
:1040D0001BF019D04C6AC1EC1BF015D0FF0E4C6ED2
:1040E000C1EC1BF010D054EC1AF00DD04D50000A6A
:1040F000DBE04D50060AE3E04D50040AEBE04D5082
:10410000050AECE0F0D715D054EC1AF081BA11D0C2
:1041100043A20ED0800E006E800E44BE7F0E005C67
:1041200002E14450000804E354EC1AF04392446A5C
:10413000EDD712004E7281B81ED043A21BD0800E64
:10414000006E800E44BE7F0E005C02E14450000809
:1041500011E343B80DD0000E4D14006E4E50F00B1D
:10416000016E00C04DF001C04EF0438816EC17F010
:104170004392446AE0D716EC17F012008CDE43AE8F
:1041800002D0B4DC439E8BA00CD0010E0001835FF3
:10419000000E845B000E841902E1000E8319D8B46E
:1041A0008B90F70E8114006EF70E001A00524EE04D
:1041B000C3EC11F0020E0B6E860E0C6E990E0D6E96
:1041C0000D2EFED70C2EFCD70B2EFAD7100E446EF8
:1041D000B26AB36AB18043B816D043B414D043BABC
:1041E00012D081B004D0E3DE81B001D0FDD781B21E
:1041F00001D02DDF81B404D04E7481B401D0FDD73D
:1042000081B801D097DF81BA01D03DDF81BC0CD0ED
:10421000010E0001CF6F020ED06F320ED16F000E73
:10422000D26F000ED36FE7DC81BE0CD0FF0E000111
:10423000CF6F160ED06F320ED16F000ED26F000E00
:10424000D36FD9DCB190439216EC17F043B606D089
:1042500084B602D0D89007D0D88005D084B602D0DA
:10426000D88001D0D8900CE384A603D064EC16F07B
:1042700002D000EC17F084B602D0439601D04386FA
:104280007ED7FFD705010906A101854B050719E077
:1042900029E715002501750195088102750895012A
:1042A0008103950126FF0019002AFF008100750196
:1042B000950305081901290325019102750595014A
:1042C0009103C005010980A101855319002AFF004F
:1042D000150026FF00750895018100C0050C090135
:1042E000A101854319002A3C021500263C027510E5
:1042F00095018100C03603520065006D006F0074A7
:10430000006500200043006F006E00740072006FB3
:10431000006C006C006500640020004B00650079B3
:104320000062006F00610072006400000000000085
:104330000000000000000009022900010101803294
:10434000090400000203000002092101010001220A
:1043500071000705810308000A0705010308000C26
:10436000120110010000000849524B210300010214
:104370000001303132333435363738394142434425
:10438000454600456E61626C696E67205553422058
:104390002020200052656C6561736520627574741D
:1043A0006F6E73210001012053656C6563742055A5
:1043B00073616765004B657970616420496E736550
:1043C0007274004B65797061642044656C65746536
:1043D0000049524B212046756E6374696F6E005719
:1043E000656220426F6F6B6D61726B7300436F6E1D
:1043F00073756D657220446576004B6579706164F4
:1044000020456E74657200506F776572205377692E
:1044100074636800526573657420537769746368C8
:10442000004D6564696120506C617965720050725D
:10443000696E742053637265656E004B65797061B7
:104440006420526967687400555342205265616464
:1044500079202020005553422044697361626C65C5
:10446000640053657420416464726573730057651A
:1044700062205265667265736800576562204272F9
:104480006F77736572005465787420456469746F42
:1044900072005363726F6C6C204C6F636B004B65E2
:1044A000797061642050675570004B657970616464
:1044B00020446F776E004B657970616420506744CB
:1044C0006E004B6579706164204C656674004C69C0
:1044D0006768742044656C6179004B65797061642C
:1044E00020486F6D65004175782053776974636863
:1044F00000576562205365617263680049524B2121
:104500002076332E3030004B657970616420456E23
:10451000640043616C63756C61746F7200506F77F7
:104520006572206F6666000A03490052004B002145
:10453000004261636B7370616365004C6967687406
:10454000204F666600042041646472657373004402
:1045500065627567204F6666004B657970616420FF
:104560005570004D656E752045786974005061671F
:104570006520446F776E0043617073204C6F636BEE
:10458000004D656E75205069636B00475549202BBF
:1045900020414C4C004B65797061642034004B65C0
:1045A000797061642032004B657970616420350058
:1045B0004B65797061642031004B657970616420CE
:1045C00033004B6579706164202F004E756D204C6F
:1045D0006F636B005370616365626172004B657954
:1045E000706164202B004B6579706164202D004B55
:1045F0006579706164202A004B65797061642036AA
:1046000000576562204E65787400576562205072CD
:10461000657600496E6974205553420057656220E3
:1046200053746F70004B6579626F617264004B6503
:1046300079626F6172640057656220486F6D650032
:10464000436F6D7075746572004B6579706164209D
:1046500038004B65797061642037004B6579706173
:10466000642030004B6579706164203900446562D4
:104670007567204F6E004C69676874204F6E004B61
:104680006579706164202E004B6579706164203D0E
:1046900000506167652055700053797374656D0033
:1046A00044656C65746500496E73657274004D6590
:1046B0006E752003004D656E75202B004D656E757F
:1046C000202D004D656E752002004D656E75200130
:1046D000004D656E75200400456E74657200456D71
:1046E00061696C00456A65637400207365637300DB
:1046F000536C65657000534849465400475549203E
:104700000043544C2000414C54200057616B65001D
:10471000486F6D65004D656E7500566F6C2B0056C9
:104720006F6C2D0053746F70004D757465004631C9
:1047300035004631340046313600463138004631C6
:104740003700456E64000403090443682B004631BA
:10475000330043682D00463139003E3E7C005265EF
:1047600063004F6666003E2F06007C3C3C004632EC
:104770003100463230004632320046323400463292
:1047800033005461620046313000463131004573D8
:10479000630046313200463700463600463900464F
:1047A00038004631000420004F6E00463200463586
:1047B000004634004633003C3C003E3E0058005961
:1047C000003200330056002300240025005A002147
:1047D0000040004B005000510052004D004E004F71
:1047E00000310055004C00530054007A002B007B30
:1047F000007D003F0029005F0005003C003E007C7A
:10480000003A00220030002800340035005E002607
:10481000002A003E00060039003600370038006AE2
:1048200000690068006D006C006B00670063006247
:10483000006100660065006400720075007100741C
:104840000006007300030070006F006E0004000299
:104850000001004100420043002D0078007900442F
:1048600000480049004A004500460047002E002C41
:10487000006000760077002F005D005B003D003B8C
:104880000027000700000000000000FFFFFFFFFFFF
:020000040030CA
:0E00000023295F3CFF5081FF0FC00FE00F402F
:00000001FF
