:0400000045EF21F0B7
:1000080000C01EF001C01DF002C01CF003C01BF0B0
:1000180004C01AF005C019F008C018F009C017F09C
:100028000AC016F00BC015F0E1CF27F0E2CF28F098
:10003800E9CF25F0EACF26F0F3CF23F0F4CF24F070
:10004800F5CF22F0F8CF1FF0F7CF20F0F6CF21F050
:10005800CCEC1EF0A1A00DD091CF87F090CF86F008
:1000680097CF83F09770CF6ACE6A0001CD8FA190A9
:1000780021D0A1A208D00001CD83CE05006E00C01A
:10008800CEF0A19217D0F2A415D05D04006E00C086
:100098005DF0000E5DBEFF0E006E000E001802E15E
:1000A800000E5D1802E18B82D59E480ED76EE40ED5
:1000B800D66EF29422C0F5FF1FC0F8FF20C0F7FFEC
:1000C80021C0F6FF23C0F3FF24C0F4FF1EC000F0D8
:1000D8001DC001F01CC002F01BC003F01AC004F0E0
:1000E80019C005F018C008F017C009F016C00AF0CA
:1000F80015C00BF025C0E9FF26C0EAFF27C0E1FFC5
:0601080028C0E2FF110017
:10010E001E0E6B6E100E0001806F040E816F80C08C
:10011E00E1FF81C0E2FFE69E80C0E1FF81C0E2FF09
:10012E00E69C040E8025E16E000E8121E26EE68CC7
:10013E00180E726F040E736F72C0E1FF73C0E2FF90
:10014E00E69E72C0E1FF73C0E2FFE69C040E7225CC
:10015E00E16E000E7321E26EE68C020E8025E16EDA
:10016E00000E8121E26E9BC0E6FF9CC0E6FF010EF1
:10017E008025E16E000E8121E26E400EE66E80C09B
:10018E00E9FF81C0EAFFEECF00F080C0E1FF81C041
:10019E00E2FF400E0014E66E80C0E9FF81C0EAFF68
:1001AE00EECF00F080C0E1FF81C0E2FF880E0010AC
:1001BE00E66E80C0C2F081C0C3F0040E8019006EDE
:0601CE0000C080F01200E9
:1001D4000B6A0A6A096A00500402F4CF09F0F3CFEB
:1001E40008F001500502F4CF0BF0F3CF0AF00050F1
:1001F4000502F3500926F4500A22E86A0B22015042
:100204000402F3500926F4500A22E86A0B2208C0BB
:1002140000F009C001F00AC002F00BC003F01200A4
:100224000401286B296B4AD000016A8F04012881DC
:100234000001C851010A02E10401288354D00001DD
:100244006A8F51D000016A8F040124BF16D024C4E0
:1002540003F00F0E031603C000F0000E016E00360B
:10026400009001367E0E0024E96E000E0120EA6E35
:10027400EECF04F0EECF05F015D024C403F00F0E3A
:10028400031603C000F0000E016E00360090013624
:10029400700E0024E96E000E0120EA6EEECF04F029
:1002A400EECF05F004C0E9FF05C0EAFFEECF01F090
:1002B40001A403D00401010E286F15D020C401F05D
:1002C4001F0E01160150000AAFE020C401F01F0EFA
:1002D40001160150010AB3E020C401F01F0E0116FB
:1002E4000150020AAFE000016AAF07D0280E676F21
:0C02F400040E686F6A81020E6B6F12002E
:10030000000E00016C5D02E1080E6B5D10E26BC037
:1003100003F06CC004F08251000A03E1010E826F09
:1003200005D08251010A02E1020E826F04D0080E4C
:10033000036E000E046E70C0E1FF71C0E2FFE69232
:1003400070C0E1FF71C0E2FFE69070C0E9FF71C0CC
:10035000EAFFEECF00F070C0E1FF71C0E2FF045091
:100360000010E66E010E7025E16E000E7121E26E46
:1003700003C0E6FF03506B5D006E04506C59016EC4
:1003800000C06BF001C06CF0280EC46F040EC56F86
:100390006AB12FD0035004102BE067C0F6FF68C08D
:1003A000F7FF69C0F8FF0900F5CF00F0C4C0E1FF16
:1003B000C5C0E2FF00C0E6FFC44BC52B010E672598
:1003C000006E000E6821016E000E6921026E00C0F1
:1003D00067F001C068F002C069F0010E035C006EB6
:1003E000000E0458016E00C003F001C004F0D2D723
:1003F00024D00350041021E067C0E9FF68C0EAFF81
:10040000C4C0E1FFC5C0E2FFEECFE6FFC44BC52B81
:10041000010E6725006E000E6821016E00C067F0B6
:1004200001C068F0010E035C006E000E0458016EFE
:0C04300000C003F001C004F0DCD7120093
:10043C0004012251010A13E120C401F01F0E011620
:10044C000150000A0CE100016A8F04012151030ADA
:10045C0004E1010E0001C86F02D00001C86B040159
:10046C002251000AD8A48DD020C401F01F0E011611
:10047C000150020AD8A485D024C401F00F0E011635
:10048C000150000AD8B47DD000016A8F040124BF4A
:10049C0016D024C403F00F0E031603C000F0000E98
:1004AC00016E0036009001367E0E0024E96E000EBF
:1004BC000120EA6EEECF04F0EECF05F015D024C487
:1004CC0003F00F0E031603C000F0000E016E003691
:1004DC0000900136700E0024E96E000E0120EA6EC9
:1004EC00EECF04F0EECF05F02151030A07E104C072
:1004FC00E1FF05C0E2FF840EE66E43D024C400F099
:10050C000F0E00166A0E026E0F0E036E00500226BE
:10051C00D8B0032A02C0E9FF03C0EAFFFE0EEE14B6
:10052C00006EEECF01F0FF0E011602C0E1FF03C01A
:10053C00E2FF00C0E6FF01C0E6FF24AF11D004C00B
:10054C00E1FF05C0E2FFE66A040E0418006E00C06D
:10055C0004F004C0E1FF05C0E2FF400EE66E11D0CE
:10056C0004C0E1FF05C0E2FF880EE66E040E04181D
:10057C00006E00C004F004C0E1FF05C0E2FFC80E2D
:04058C00E66E120005
:1005900000016A8F6B6AA16B22C492F09251000A2B
:1005A00003E1100E7D6F03D0200E7D6FB0DD1200D1
:1005B00004012051800AD8A478D0C00E00016A6FCF
:1005C00069D00001720E006E440E016E000E026EC4
:1005D00000C067F001C068F002C069F0120E6B6FD6
:1005E000000E6C6F62D00001030E006E000E016EF3
:1005F00022C404F0000E056EEDDD640E0024E96EE9
:10060000000E0120EA6EEECF67F0EECF68F0EECF7D
:1006100069F0020E6725F66E000E6821F76E000E77
:100620006921F86E0900F5CF00F00900F5CF01F05F
:1006300000C06BF001C06CF038D004012251000101
:10064000CB5D23E3030E006E000E016E22C404F0A6
:10065000000E056EBFDD740E0024E96E000E012051
:10066000EA6EEECF67F0EECF68F0EECF69F067C0CC
:10067000F6FF68C0F7FF69C0F8FF0900F5CF00F08A
:1006800000C06BF0000E6C6F01D06A6B0ED00001E1
:100690006A6B0BD004012351010A93E02351020A33
:0C06A000A2E02351030AC9E0F2D71200C7
:1006AC0020C401F01F0E01160150010A01E094D084
:1006BC0004012451000A01E08FD02151060A42E1C5
:1006CC0037D000019251010A17E1490E006E440E19
:1006DC00016E000E026E120E0026000E0122022286
:1006EC0000C067F001C068F002C069F0090E6B6FC2
:1006FC00000E6C6FC00E6A6F25D000019251010A7A
:10070C0012E1960E006E430E016E000E026E00C0DA
:10071C0067F001C068F002C069F0710E6B6F000EDB
:10072C006C6FC00E6A6F0ED00001800E6A6F0AD01B
:10073C0004012351210AC5E02351220ADEE0235192
:10074C00230AF2E020C401F0600E0116050E006EC3
:10075C00005004E00132019EFF0FFBD70150010A4B
:10076C0001E03AD026D038D037D0A00E0001676F08
:10077C00000E686F010E6B6F000E6C6FC10E6A6F0E
:10078C002BD00001800E6A6F23C4A0F025D000018D
:10079C00C60E676F000E686F010E6B6F000E6C6FEC
:1007AC00810E6A6F19D00001800E6A6F22C4C6F0E8
:1007BC0013D004012151010AD6E02151090AD4E0D9
:1007CC002151020AD2E021510A0ADBE02151030A2D
:0A07DC00DEE021510B0AE7E01200F5
:0A07E60000019F5301E05FDF1200E5
:1007F00020C401F0600E0116050E006E005004E0EA
:100800000132019EFF0FFBD70150000A01E05ED0CC
:100810003AD000016A8F080E7D6F58D0C9DE56D0DD
:10082000B7DE54D00001920E676F000E686F6A81C8
:10083000010E6B6F6A8F4AD0F5DC48D0FFDD46D0E1
:10084000A10E006E000E016E040124510026D8B0E6
:10085000012A00C067F001C068F000016A81010E42
:100860006B6F6A8F33D000016A8FA10EE16E000EAC
:10087000E26E04012451E126D8B0E22A22C4E6FF48
:1008800025D024D023D004012151050AC2E02151F2
:10089000060AC4E02151090AC3E02151080AC2E056
:1008A0002151000AC9E02151010AC8E02151030A7F
:1008B000C5E021510A0AC4E021510B0AD4E02151BC
:0E08C000070ADFE021510C0ADDE0DCD7120050
:1008CE000001916B70C0E1FF71C0E2FFE66A040E99
:1008DE007019E16E71C0E2FF000EE21AE66A8AAF8D
:0608EE0001D08A9F1200F8
:1008F400609800016ABF49D08AAF28D0020E916F78
:10090400010E7025E16E000E7121E26EE66A70C080
:10091400E1FF71C0E2FFC80EE66E010E5E24E16ED7
:10092400000E5F20E26E080EE66E020E5E24E16E9B
:10093400000E5F20E26E280EE66E040EE66E5EC0C8
:10094400E1FF5FC0E2FFC80EE66E1ED0010E5E241A
:10095400E16E000E5F20E26E080EE66E020E5E246B
:10096400E16E000E5F20E26E200EE66E040EE66E6F
:100974005EC0E1FF5FC0E2FF8C0EE66E70C0E1FF77
:1009840071C0E2FF840EE66E82D08ABF80D004017B
:1009940020AF55D000016C510401275D04E1000132
:1009A4006B510401265D04E226C46BF027C46CF08D
:1009B400A5DC010E916F010E5E24E16E000E5F2036
:1009C400E26E080EE66E020E5E24E16E000E5F20FB
:1009D400E26E200EE66E040EE66E5EC0E1FF5FC0BE
:1009E400E2FF800EE66EC76B010E5B24E16E000E23
:1009F4005C20E26E080EE66E020E5B24E16E000ED1
:100A04005C20E26E200EE66E040EE66E5BC0E1FF33
:100A14005CC0E2FF840EE66E010EC76F020E702505
:100A2400E16E000E7121E26E280EE66E040EE66E93
:100A340070C0E1FF71C0E2FFC80EE66E28D000016D
:100A4400020E916F010E7025E16E000E7121E26EAF
:100A5400E66A70C0E1FF71C0E2FFC80EE66E010EE7
:100A64005E24E16E000E5F20E26E080EE66E020E5A
:100A74005E24E16E000E5F20E26E280EE66E040E28
:100A8400E66E5EC0E1FF5FC0E2FFC80EE66E1200D4
:0E0A9400160E626E9F0E666E3B0E646E1200B2
:100AA200490E0001646F440E656F000E666F8F0E73
:100AB200746F480E756F000E766F940E776F460E48
:100AC200786F000E796F070E7A6F440E7B6F000EFF
:040AD2007C6F120023
:100AD600010E5B24E96E000E5C20EA6EEECF00F09C
:100AE60000C002F0000E00018C5D02E102508B5D39
:100AF60003E28BC002F00AD002508B5D006E000E3E
:100B06008C59016E00C08BF001C08CF0036A025054
:100B1600035C1CE2280EE96E040EEA6E0350E92619
:100B2600D8B0EA2AEECF00F088C0E1FF89C0E2FF24
:100B360000C0E6FF010E8825006E000E8921016EB9
:100B460000C088F001C089F0032AE1D7000E006ECC
:100B56008C51005C02E18B51000828E2010E5E24F4
:100B6600E16E000E5F20E26E080EE66E020E5E2457
:100B7600E16E000E5F20E26E280EE66E040EE66E53
:100B86005BC0E9FF5CC0EAFFEECF00F000BC07D017
:100B96005EC0E1FF5FC0E2FFC80EE66E06D05EC033
:100BA600E1FF5FC0E2FF880EE66E19D0010E5E24FB
:100BB600E16E000E5F20E26E080EE66E020E5E2407
:100BC600E16E000E5F20E26E200EE66E040EE66E0B
:100BD6005EC0E1FF5FC0E2FF840EE66E8A9F1200F0
:100BE60070C0E9FF71C0EAFFEECF00F000AE05D09D
:100BF60070C0E1FF71C0E2FFE66A0001826B916B93
:0E0C06006B6B6C6B6A6BF1DDEBDD71DE120067
:100C14006AA019D05BC0E9FF5CC0EAFFEECF01F027
:100C24000150800A0FE170C0E9FF71C0EAFFEECF06
:100C340001F00150840A06E15BC0E1FF5CC0E2FF01
:0C0C44008C0EE66E6A90DF0E6516120042
:040C5000A494120056
:100C5400560E0C6EB50E0D6E0D2EFED70C2EFCD757
:060C640000000000120078
:0E0C6A00C70E0D6E0D2EFED70000000012000A
:0E0C7800030E0D6E0D2EFED7000000001200C0
:100C8600040E00017019006E00C070F07D51080A54
:100C96000AE122C463FF6350000803E2100E7D6F71
:100CA60002D0040E7D6F9151010A3BE1020E7025C0
:100CB600E16E000E7121E26E280EE66E040EE66EFF
:100CC60080EC01F08251020A07E170C0E1FF71C0B9
:100CD600E2FF840EE66E24D0040E7019006E00C08A
:100CE60070F070C0E9FF71C0EAFFEECF00F000BC03
:100CF6000CD0040E7019006E00C070F070C0E1FFD9
:100D060071C0E2FFC80EE66E0BD0040E7019006EBD
:100D160000C070F070C0E1FF71C0E2FF880EE66EA1
:060D260001D0D2DD120035
:0A0D2C006484EF0E65166082120069
:100D360000019151020A02E1CBDE1ED0C5DDC7518A
:100D4600000A19E1010E5E24E16E000E5F20E26EDC
:100D5600080EE66E020E5E24E16E000E5F20E26E65
:100D6600200EE66E040EE66E5EC0E1FF5FC0E2FF97
:0A0D76008C0EE66E01D0C76B120070
:100D80006092649465A403D0FB0E6516FBD7120035
:100D900088DEC26BC36B956B966B676A656A7ADE99
:100DA000608C636A6B6A609C6E6B6F6B000E6F5D2C
:100DB00002E1080E6E5D17E26EC000F06FC001F038
:100DC000003600900136003600900136000E0024F7
:100DD000E16E040E0120E26EE66AE66AE66AE66A01
:100DE0006E4B6F2BE3D7160E6A6E65A603D0F70E17
:100DF0006516FBD76A6B8A6B8B6B8C6B6098080EE1
:0C0E0000706F040E716F926B7D6B12001E
:100E0C0000017D51000A0AE1606A646A3DDE60B649
:100E1C0002D06086FCD70001010E7D6F7D51010A66
:100E2C0008E160BA06D0656A646A64806488020E60
:100E3C007D6F65A405D064A403D0FB0E65169ADF04
:100E4C0060A202D0FFDED5D065A018D064A016D069
:100E5C0099DF040E7D6F200E0401026F040E036FE8
:100E6C00080E016F000E0015006E00C000F48C0E11
:100E7C000011006E00C000F4FE0E651665A805D0CA
:100E8C0064A803D04DDFEF0E651665AC04D064ACDE
:100E9C0002D0BF0E651665AA03D064AA01D0B4DED9
:100EAC0065A202D064B2676A040E00017D5D02E2A5
:100EBC00C9DE9FD064A69CD0EF6B040EEF5DD8B05A
:100ECC0097D065A691D061CF5AF0F70E6516780EC3
:100EDC005A14016E0150000AD8A485D0FD0E5A1484
:100EEC00016E026AFF0E0216000E021802E1000EDD
:100EFC0001186BE17E0E5A14016E01C003F003322F
:100F0C00039E03C000F0000E016E00360090013607
:100F1C00003600900136000E0024026E040E0120F3
:100F2C00036E02C05BF003C05CF002C05EF003C055
:100F3C005FF0040E5E18006E00C05EF002C0E9FFA8
:100F4C0003C0EAFFEECF00F000C001F03C0E01162A
:100F5C000132019E0132019E01500D0A34E1020E54
:100F6C005B24E96E000E5C20EA6EEECF01F0EECF52
:100F7C0002F00250040A02E1280E011822E1020ECE
:100F8C005B24E16E000E5C20E26E200EE66E040E19
:100F9C00E66EEE6B080EEE5D14E2200EE16E040EB2
:100FAC00E26EEE51E126D8B0E22A280EE96E040E6C
:100FBC00EA6EEE51E926D8B0EA2AEECFE6FFEE2B28
:100FCC00E9D70BDE01D0B1DE0DD0FD0E5A14016E47
:100FDC00026AFF0E0216000E021802E1040E01183E
:100FEC0001E14BDE00D001D003D00001EF2B65D71F
:040FFC0029DE1200D8
:101000000001EF51000A12E0EEC000F0000E016E88
:10101000003600900136700E0024E96E000E0120AB
:10102000EA6EEECF04F0EECF05F011D0EEC000F086
:10103000000E016E0036009001367E0E0024E96E2F
:10104000000E0120EA6EEECF04F0EECF05F0020EA6
:101050000424E16E000E0520E26EF0C0E6FFF1C050
:10106000E6FF010E0424E16E000E0520E26EF2C0E0
:10107000E6FF04C0E9FF05C0EAFFEECF00F004C0C0
:10108000E1FF05C0E2FF400E0014E66E04C0E9FF78
:1010900005C0EAFFEECF00F004C0E1FF05C0E2FFAB
:1010A000880E0010E66EEF51000A1BE0EEC000F063
:1010B000000E016E003600900136700E0024026EA4
:1010C000000E0120036E02C0E9FF03C0EAFF040E18
:1010D000EE18006E02C0E1FF03C0E2FF00C0E6FFB1
:1010E0001AD0EEC000F0000E016E003600900136FE
:1010F0007E0E0024026E000E0120036E02C0E9FF86
:1011000003C0EAFF040EEE18006E02C0E1FF03C048
:10111000E2FF00C0E6FF04C000F005C001F01200CD
:10112000000E0001EF1902E1000EEE1902E1016A62
:101130000AD0EEC0E9FFEFC0EAFFEECF00F0000EEC
:0C11400000BE010E016E01C000F01200A4
:0A114C00D08EA584A384F28E120059
:101156000001F16BF26BF36B020EEE25F66E000EDC
:10116600EF21F76E000EF021F86E0900F5CF05F0BD
:10117600030EEE25F66E000EEF21F76E000EF0213F
:10118600F86E0900F5CF00F000C003F0000E046E03
:1011960003C001F0006A05500024066E000E01200F
:1011A600076EEEC008F0EFC009F0F0C00AF0010EBD
:1011B6000824F66E000E0920F76E000E0A20F86E5F
:1011C6000900F5CF01F00150020A1BE1060E0824C2
:1011D600F66E000E0920F76E000E0A20F86E090062
:1011E600F5CF01F00150F15D0CE2060E0824F66E13
:1011F600000E0920F76E000E0A20F86E0900F5CFE2
:10120600F1F0010E0824F66E000E0920F76E000EAE
:101216000A20F86E0900F5CF01F00150040A1BE11F
:10122600080E0824F66E000E0920F76E000E0A203E
:10123600F86E0900F5CF01F00150F15D0CE2080EE1
:101246000824F66E000E0920F76E000E0A20F86ECE
:101256000900F5CFF1F008C0F6FF09C0F7FF0AC094
:10126600F8FF0900F5CF00F00050F225016E000EE0
:10127600F321026E01C0F2F002C0F3F00750025CE7
:1012860002E10650015C01E30FD008C0F6FF09C079
:10129600F7FF0AC0F8FF0900F5CF00F00050082656
:0E12A600000E09220A2283D7F1C000F01200C8
:1012B4000001EEBF02D0899601D08986EEBD02D02E
:1012C400899401D08984EEBB02D0899201D08982AD
:1012D400EEB902D0899001D089806DB102D089889D
:1012E40001D08998898AC6DC899AEEB702D089969A
:1012F40001D08986EEB502D0899401D08984EEB3F9
:1013040002D0899201D08982EEB102D0899001D0B5
:1013140089806DB102D0898801D08998898AAADC34
:0E132400899A6DA102D094DC01D09DDC1200EC
:10133200720E006E440E016E000E026E0E0E00243E
:10134200F66E000E0120F76E000E0220F86E090004
:10135200F5CF03F003C004F00F0E0024F66E000E6A
:101362000120F76E000E0220F86E0900F5CF01F0A1
:101372000150035C12E2720E006E440E016E000E0A
:10138200026E0F0E0024F66E000E0120F76E000EA4
:101392000220F86E0900F5CF04F0720E006E440EC2
:1013A200016E000E026E100E0024F66E000E012079
:1013B200F76E000E0220F86E0900F5CF01F0015021
:1013C200045C12E2720E006E440E016E000E026E9A
:1013D200100E0024F66E000E0120F76E000E0220A1
:0E13E200F86E0900F5CF04F004C000F0120010
:1013F00013D3960E006E490E016E000E026EBEEF04
:101400000EF0900E006E490E016E000E026EBEEFE1
:101410000EF08A0E006E490E016E000E026EBEEFD7
:101420000EF08C0E006E490E016E000E026EBEEFC5
:101430000EF08E0E006E490E016E000E026EBEEFB3
:101440000EF0A00E006E490E016E000E026EBEEF91
:101450000EF0A20E006E490E016E000E026EBEEF7F
:101460000EF0A40E006E490E016E000E026EBEEF6D
:101470000EF09E0E006E490E016E000E026EBEEF63
:101480000EF0980E006E490E016E000E026EBEEF59
:101490000EF09A0E006E490E016E000E026EBEEF47
:1014A0000EF09C0E006E490E016E000E026EBEEF35
:1014B0000EF0880E006E490E016E000E026EBEEF39
:1014C0000EF0740E006E490E016E000E026EBEEF3D
:1014D0000EF0760E006E490E016E000E026EBEEF2B
:1014E0000EF0780E006E490E016E000E026EBEEF19
:1014F0000EF0720E006E490E016E000E026EBEEF0F
:101500000EF06C0E006E490E016E000E026EBEEF04
:101510000EF06E0E006E490E016E000E026EBEEFF2
:101520000EF0700E006E490E016E000E026EBEEFE0
:101530000EF0820E006E490E016E000E026EBEEFBE
:101540000EF0840E006E490E016E000E026EBEEFAC
:101550000EF0860E006E490E016E000E026EBEEF9A
:101560000EF0800E006E490E016E000E026EBEEF90
:101570000EF07A0E006E490E016E000E026EFED362
:101580007C0E006E490E016E000E026EF7D37E0EC9
:10159000006E490E016E000E026EF0D3CA0E006E90
:1015A000490E016E000E026EE9D3CC0E006E490E9C
:1015B000016E000E026EE2D3CE0E006E490E016E79
:1015C000000E026EDBD3C80E006E490E016E000ED7
:1015D000026ED4D3C20E006E490E016E000E026E72
:1015E000CDD3C40E006E490E016E000E026EC6D33E
:1015F000C60E006E490E016E000E026EBFD3DA0EEB
:10160000006E490E016E000E026EB8D3D80E006E49
:10161000490E016E000E026EB1D3370E006E480EF9
:10162000016E000E026EAAD3CB0E006E480E016E44
:10163000000E026EA3D3A80E006E460E016E000EC1
:10164000026E9CD3AB0E006E480E016E000E026E51
:1016500095D3090E006E470E016E000E026E8ED3FA
:10166000DC0E006E490E016E000E026E87D3D20EA4
:10167000006E490E016E000E026E80D3D40E006E15
:10168000490E016E000E026E79D3D60E006E490E21
:10169000016E000E026E72D3D00E006E490E016E06
:1016A000000E026E6BD3AE0E006E490E016E000E80
:1016B000026E64D3B00E006E490E016E000E026E13
:1016C0005DD3B20E006E490E016E000E026E56D34F
:1016D000AC0E006E490E016E000E026E4FD3A60EC8
:1016E000006E490E016E000E026E48D3A80E006E09
:1016F000490E016E000E026E41D3760E006E460E4C
:10170000016E000E026E3AD3070E006E490E016E96
:10171000000E026E33D3FE0E006E480E016E000EF8
:10172000026E2CD3F50E006E480E016E000E026E96
:1017300025D3F80E006E480E016E000E026E1ED309
:10174000FB0E006E480E016E000E026E17D3100ED7
:10175000006E490E016E000E026E10D3130E006E65
:10176000490E016E000E026E09D30A0E006E490E7C
:10177000016E000E026E02D30D0E006E490E016E58
:10178000000E026EFBD29B0E006E480E016E000E24
:10179000026EF4D29F0E006E480E016E000E026EB5
:1017A000EDD2A30E006E480E016E000E026EE6D260
:1017B000670E006E450E016E000E026EDFD2EE0E59
:1017C000006E450E016E000E026ED8D2AA0E006E9B
:1017D000490E016E000E026ED1D2F20E006E470E5F
:1017E000016E000E026ECAD2820E006E480E016EAD
:1017F000000E026EC3D2EA0E006E470E016E000E9E
:10180000026EBCD2F90E006E470E016E000E026E23
:10181000B5D2930E006E480E016E000E026EAED26F
:10182000DA0E006E460E016E000E026EA7D2BC0EDE
:10183000006E490E016E000E026EA0D2BE0E006E4A
:10184000490E016E000E026E99D2C00E006E490E56
:10185000016E000E026E92D2BA0E006E490E016E3B
:10186000000E026E8BD2630E006E470E016E000EEC
:10187000026E84D25A0E006E470E016E000E026E8A
:101880007DD2510E006E470E016E000E026E76D2B2
:10189000AB0E006E470E016E000E026E6FD2E10EAF
:1018A000006E470E016E000E026E68D2740E006E5E
:1018B000450E016E000E026E61D2F70E006E460EEE
:1018C000016E000E026E5AD2EE0E006E460E016ED2
:1018D000000E026E53D2000E006E470E016E000E17
:1018E000026E4CD2360E006E470E016E000E026E76
:1018F00045D22D0E006E470E016E000E026E3ED2D6
:101900003F0E006E470E016E000E026E37D2BD0E06
:10191000006E470E016E000E026E30D2C60E006ED3
:10192000470E016E000E026E29D2B40E006E470EF5
:10193000016E000E026E22D2CF0E006E470E016EB7
:10194000000E026E1BD2480E006E470E016E000E96
:10195000026E14D2120E006E470E016E000E026E61
:101960000DD2DB0E006E480E016E000E026E06D226
:10197000D70E006E480E016E000E026EFFD1CF0E24
:10198000006E480E016E000E026EF8D1E70E006E7A
:10199000480E016E000E026EF1D1EB0E006E480E85
:1019A000016E000E026EEAD1DF0E006E480E016E6F
:1019B000000E026EE3D1E30E006E480E016E000EC3
:1019C000026EDCD1B30E006E480E016E000E026E88
:1019D000D5D1B70E006E480E016E000E026ECED14C
:1019E000AF0E006E480E016E000E026EC7D1C30E20
:1019F000006E480E016E000E026EC0D1BB0E006E6E
:101A0000480E016E000E026EB9D1E00E006E490E56
:101A1000016E000E026EB2D10001C951040AD8B4A1
:101A2000E8D4C951050AD8B4ECD4C951060AD8B4CF
:101A3000F0D4C951070AD8B4F4D4C951080AD8B4AB
:101A4000F8D4C951090AD8B4FCD4C9510A0AD8B487
:101A500000D5C9510B0AD8B404D5C9510C0AD8B461
:101A600008D5C9510D0AD8B40CD5C9510E0AD8B43D
:101A700010D5C9510F0AD8B414D5C951100AD8B419
:101A800018D5C951110AD8B41CD5C951120AD8B4F5
:101A900020D5C951130AD8B424D5C951140AD8B4D1
:101AA00028D5C951150AD8B42CD5C951160AD8B4AD
:101AB00030D5C951170AD8B434D5C951180AD8B489
:101AC00038D5C951190AD8B43CD5C9511A0AD8B465
:101AD00040D5C9511B0AD8B444D5C9511C0AD8B441
:101AE00048D5C9511D0AD8B44BD5C9511E0AD8B41E
:101AF0004ED5C9511F0AD8B451D5C951200AD8B4FE
:101B000054D5C951210AD8B457D5C951220AD8B4DD
:101B10005AD5C951230AD8B45DD5C951240AD8B4BD
:101B200060D5C951250AD8B463D5C951260AD8B49D
:101B300066D5C951270AD8B469D5C951280AD8B47D
:101B40006CD5C951290AD8B46FD5C9512A0AD8B45D
:101B500072D5C9512B0AD8B475D5C9512C0AD8B43D
:101B600078D5C9512D0AD8B47BD5C9512E0AD8B41D
:101B70007ED5C9512F0AD8B481D5C951300AD8B4FD
:101B800084D5C951310AD8B487D5C951330AD8B4DC
:101B90008AD5C951340AD8B48DD5C951350AD8B4BB
:101BA00090D5C951360AD8B493D5C951370AD8B49B
:101BB00096D5C951380AD8B499D5C951390AD8B47B
:101BC0009CD5C9513A0AD8B49FD5C9513B0AD8B45B
:101BD000A2D5C9513C0AD8B4A5D5C9513D0AD8B43B
:101BE000A8D5C9513E0AD8B4ABD5C9513F0AD8B41B
:101BF000AED5C951400AD8B4B1D5C951410AD8B4FB
:101C0000B4D5C951420AD8B4B7D5C951430AD8B4DA
:101C1000BAD5C951440AD8B4BDD5C951450AD8B4BA
:101C2000C0D5C951460AD8B4C3D5C951470AD8B49A
:101C3000C6D5C951480AD8B4C9D5C951490AD8B47A
:101C4000CCD5C9514A0AD8B4CFD5C9514B0AD8B45A
:101C5000D2D5C9514C0AD8B4D5D5C9514D0AD8B43A
:101C6000D8D5C9514E0AD8B4DBD5C9514F0AD8B41A
:101C7000DED5C951500AD8B4E1D5C951510AD8B4FA
:101C8000E4D5C951520AD8B4E7D5C951530AD8B4DA
:101C9000EAD5C951540AD8B4EDD5C951550AD8B4BA
:101CA000F0D5C951560AD8B4F3D5C951570AD8B49A
:101CB000F6D5C951580AD8B4F9D5C951590AD8B47A
:101CC000FCD5C9515A0AD8B4FFD5C9515B0AD8B45A
:101CD00002D6C9515C0AD8B405D6C9515D0AD8B438
:101CE00008D6C9515E0AD8B40BD6C9515F0AD8B418
:101CF0000ED6C951600AD8B411D6C951610AD8B4F8
:101D000014D6C951620AD8B417D6C951630AD8B4D7
:101D10001AD6C951670AD8B41DD6C951680AD8B4B1
:101D200020D6C951690AD8B423D6C9516A0AD8B491
:101D300026D6C9516B0AD8B429D6C9516C0AD8B471
:101D40002CD6C9516D0AD8B42FD6C9516E0AD8B451
:101D500032D6C9516F0AD8B435D6C951700AD8B431
:101D600038D6C951710AD8B43BD6C951720AD8B411
:0E1D70003ED6C951730AD8B441D647D61200E8
:101D7E0096D1B40E006E490E016E000E026E75D233
:101D8E00B60E006E490E016E000E026E6ED2B80EC9
:101D9E00006E490E016E000E026E67D26A0E006E64
:101DAE00490E016E000E026E60D2060E006E000E1F
:101DBE00016E000E026E59D21A0E006E490E016EA1
:101DCE00000E026E52D2180E006E490E016E000EFB
:101DDE00026E4BD2160E006E490E016E000E026E92
:101DEE0044D2500E006E490E016E000E026E3DD2B0
:101DFE004E0E006E490E016E000E026E36D2540E5D
:101E0E00006E490E016E000E026E2FD2520E006E43
:101E1E00490E016E000E026E28D24C0E006E490E57
:101E2E00016E000E026E21D2460E006E490E016E3C
:101E3E00000E026E1AD2440E006E490E016E000E96
:101E4E00026E13D24A0E006E490E016E000E026E25
:101E5E000CD2480E006E490E016E000E026E05D2B7
:101E6E00560E006E490E016E000E026EFED1640E0D
:101E7E00006E490E016E000E026EF7D1620E006EFC
:101E8E00490E016E000E026EF0D1680E006E490E04
:101E9E00016E000E026EE9D1660E006E490E016EE5
:101EAE00000E026EE2D1600E006E490E016E000E43
:101EBE00026EDBD15A0E006E490E016E000E026EDE
:101ECE00D4D1580E006E490E016E000E026ECDD1A9
:101EDE005E0E006E490E016E000E026EC6D15C0ED5
:101EEE00006E490E016E000E026EBFD1420E006EE4
:101EFE00490E016E000E026EB8D1280E006E490E0C
:101F0E00016E000E026EB1D1260E006E490E016EEC
:101F1E00000E026EAAD12C0E006E490E016E000E3E
:101F2E00026EA3D12A0E006E490E016E000E026ED5
:101F3E009CD1240E006E490E016E000E026E95D1DC
:101F4E001E0E006E490E016E000E026E8ED11C0E1C
:101F5E00006E490E016E000E026E87D1220E006ECB
:101F6E00490E016E000E026E80D1200E006E490EDB
:101F7E00016E000E026E79D12E0E006E490E016EAC
:101F8E00000E026E72D13C0E006E490E016E000EF6
:101F9E00026E6BD13A0E006E490E016E000E026E8D
:101FAE0064D1400E006E490E016E000E026E5DD1C0
:101FBE003E0E006E490E016E000E026E56D1380EA8
:101FCE00006E490E016E000E026E4FD1320E006E83
:101FDE00490E016E000E026E48D1300E006E490E93
:101FEE00016E000E026E41D1360E006E490E016E6C
:101FFE00000E026E3AD1340E006E490E016E000EC6
:10200E00026E33D1350E006E460E016E000E026E5C
:10201E002CD1E20E006E450E016E000E026E25D121
:10202E00D60E006E450E016E000E026E1ED1120E01
:10203E00006E460E016E000E026E17D14D0E006E32
:10204E00450E016E000E026E10D1060E006E460E8B
:10205E00016E000E026E09D1800E006E460E016EEC
:10206E00000E026E02D1FA0E006E450E016E000ECB
:10207E00026EFBD0F10E006E440E016E000E026E6B
:10208E00F4D0E30E006E440E016E000E026EEDD023
:10209E00E10E006E490E016E000E026EE6D00001DA
:1020AE00C951040AD8B465D6C951050AD8B468D640
:1020BE00C951060AD8B46BD6C951070AD8B46ED620
:1020CE00C951080AD8B471D6C951090AD8B474D600
:1020DE00C9510A0AD8B477D6C9510B0AD8B47AD6E0
:1020EE00C9510C0AD8B47DD6C9510D0AD8B480D6C0
:1020FE00C9510E0AD8B483D6C9510F0AD8B486D6A0
:10210E00C951100AD8B489D6C951110AD8B48CD67F
:10211E00C951120AD8B48FD6C951130AD8B492D65F
:10212E00C951140AD8B495D6C951150AD8B498D63F
:10213E00C951160AD8B49BD6C951170AD8B49ED61F
:10214E00C951180AD8B4A1D6C951190AD8B4A4D6FF
:10215E00C9511A0AD8B4A7D6C9511B0AD8B4AAD6DF
:10216E00C9511C0AD8B4ADD6C9511D0AD8B4B0D6BF
:10217E00C9511E0AD8B4B3D6C9511F0AD8B4B6D69F
:10218E00C951200AD8B4B9D6C951210AD8B4BCD67F
:10219E00C951220AD8B4BFD6C951230AD8B4C2D65F
:1021AE00C951240AD8B4C5D6C951250AD8B4C8D63F
:1021BE00C951260AD8B4CBD6C951270AD8B4CED61F
:1021CE00C9512D0AD8B4D1D6C9512E0AD8B4D4D6F5
:1021DE00C9512F0AD8B4D7D6C951300AD8B4DAD6D5
:1021EE00C951310AD8B4DDD6C951330AD8B4E0D6B4
:1021FE00C951340AD8B4E3D6C951350AD8B4E6D693
:10220E00C951360AD8B4E9D6C951370AD8B4ECD672
:10221E00C951380AD8B4EFD6C951590AD8B4F2D632
:10222E00C9515A0AD8B4F5D6C9515B0AD8B4F8D6F2
:10223E00C9515C0AD8B4FBD6C9515E0AD8B4FED6D1
:10224E00C9515F0AD8B401D7C951600AD8B404D7AE
:10225E00C951610AD8B407D7C951620AD8B40AD78E
:0C226E00C951630AD8B40DD713D7120071
:10227A00200E00017D5D03E360B201D002D0006A46
:10228A004AD095C0EEF096C0EFF090EC08F00052FC
:10229A0041E1EBC0EEF0010EEF6FE8C0F0F0E9C0EB
:1022AA00F1F0EAC0F2F000EC08F000C095F001C0CD
:1022BA0096F0976B986B996B9A6B95C0EEF096C0F7
:1022CA00EFF090EC08F0005210E0010E016E0150A0
:1022DA00000A02E106EC07F00001975198119911E2
:1022EA009A1102E0006A17D0E8D795C0ECF096C0C0
:1022FA00EDF0000E961902E1000E951909E0010EA3
:10230A00EC25E96E000EED21EA6EEECF00F003D067
:08231A00006A01D0006A120004
:1023220000017D51000A0CE1606A646A4AEC05F022
:10233200A6EC08F060B602D06086FCD7010E7D6F75
:02234200120087
:0A234400606A646A00017D6B1200FC
:10234E0000016D91E8C0EEF05AEC09F06D811200BB
:10235E0099EC09F000C0E8F0490E0001EE6F440E52
:10236E00EF6F000EF06FABEC08F000C0E9F0E85133
:10237E00005C03E2E8C000F002D0E9C000F01200F9
:10238E00086A080E0C6E003408360450085ED8B089
:0E239E0002D00826D89000360C2EF5D712007B
:1023AC00D8DF00C0CBF0010E9F6FE2C09BF0E3C002
:1023BC009CF0E4C093F0E5C094F0C8EC06F0010E7C
:0C23CC00016E0150010A01E1A6DF1200C1
:1023D8000001CC51000A01E10ED0CC51FF0A01E105
:1023E8000AD08B92CCC05DF0480ED76EE40ED66E44
:0823F800F294F28AD58E120066
:04240000A1DF120046
:10240400E2C004F0E3C005F004C0E9FF05C0EAFF40
:10241400EE5203E0044A052AF7D70001E651E7111A
:1024240021E004C002F005C003F0044A052AE4C018
:1024340000F0E5C001F0E44BE52B00C0E9FF01C06A
:10244400EAFF02C0E1FF03C0E2FFEECFE6FF02C0F5
:10245400E9FF03C0EAFFEE5205E0010EE65F000E5D
:10246400E75BDBD7000EE71902E1000EE61905E190
:1024740004C0E1FF05C0E2FFE66AE2C000F0E3C089
:0424840001F0120051
:10248800F00E0001E215026E02C000F00032009E5C
:102498000032009E0032009E0032009E950E0024FD
:1024A800F66E440EF76E000EF722000EF86E000E60
:1024B800F8220900F5CF00F0E3C0E1FFE4C0E2FF35
:1024C80000C0E6FFE34BE42B0F0EE215006E950EFD
:1024D8000024F66E440EF76E000EF722000EF86E1A
:1024E800000EF8220900F5CF00F0E3C0E1FFE4C0D8
:0824F800E2FF00C0E6FF120044
:102500000001E56B030EE55D0AE2E551E325E16EAE
:10251000000EE421E26E200EE66EE52BF3D7E551C6
:10252000E325E16E000EE421E26EE66AE507E5517F
:10253000E325E66F000EE421E76F0A0E046EE2C0A9
:1025400000F025DF08C000F0300E0026E6C0E1FFF5
:10255000E7C0E2FF00C0E6FF0A0E046EE2C000F032
:1025600016DF00C0E2F00050000A01E102D0E507EA
:04257000DED71200A0
:10257400E2C0E8F0E3C0E9F0E4C0EAF0010E0001D3
:06258400EB6F79DE12008E
:10258A00E2C004F0E3C005F004C0E9FF05C0EAFFB9
:10259A00EE5203E0044A052AF7D704C002F005C048
:1025AA0003F0044A052AE4C000F0E5C001F0000186
:1025BA00E44BE52B00C0E9FF01C0EAFF02C0E1FFDE
:1025CA0003C0E2FFEECFE6FF02C0E9FF03C0EAFF65
:1025DA00EE5201E0E2D7E2C000F0E3C001F01200DF
:1025EA00A20E056E000E066E05C003F006C004F0CA
:1025FA00054A062AE2C000F0E3C001F0E4C002F096
:10260A00010E0001E227000EE323E42300C0F6FFD7
:10261A0001C0F7FF02C0F8FF0900F5CF00F003C0C0
:10262A00E1FF04C0E2FF00C0E6FF03C0E9FF04C007
:10263A00EAFFEE5201E0D8D7A20E006E000E016E3C
:02264A0012007C
:10264C0010D0800E0001E26F1AD0C00EE26F17D0CE
:10265C00940EE26F14D0D40EE26F11D0800EE26FA4
:10266C000ED00001E251010AECE0E251020AEDE069
:10267C00E251030AEDE0E251040AEDE0EFD7E30585
:10268C00006EE251002600C0E2F000C0EEF05AEC01
:10269C0009F06D91E66BE651E425E96E000EE5213B
:1026AC00EA6EEE520BE0E651E425E96E000EE521F0
:1026BC00EA6EEECFE8F045DEE62BEDD76D81120029
:1026CC00E2C004F0E3C005F004C002F005C003F062
:1026DC00044A052AE4C000F0E5C001F00001E44B17
:1026EC00E52B00C0E9FF01C0EAFF02C0E1FF03C017
:1026FC00E2FFEECFE6FF02C0E9FF03C0EAFFEE52B5
:0E270C0001E0E2D7E2C000F0E3C001F01200ED
:10271A00C9C0E2F0CAC0E3F0F00E0001CA15E46FC6
:10272A0023D3F8EC09F000C061F001C062F002C0E6
:10273A0063F00001CAA321D0BFEC0EF000C057F02D
:10274A0001C058F002C059F000C0F6FF01C0F7FFFF
:10275A0002C0F8FF0900F5CF00F0005207E057C0A9
:10276A0000F058C001F059C002F00FD361C000F068
:10277A0062C001F063C002F008D361C000F062C019
:10278A0001F063C002F001D31CD0D00E006E460ED9
:10279A00016E000E026EF9D23D0E006E480E016EF9
:1027AA00000E026EF2D2780E006E480E016E000E16
:1027BA00026EEBD2E30E006E490E016E000E026E3F
:1027CA00E4D20001E351100A02E1810EE219DDE0D0
:1027DA00E351100A02E1820EE219DEE0E351100A27
:1027EA0002E1830EE219DFE0E5D70AD16E0E006E30
:1027FA00480E016E000E026EC8D2B20E006E460E70
:10280A00016E000E026EC1D21C0E006E480E016EE1
:10281A00000E026EBAD2230E006E480E016E000E32
:10282A00026EB3D20E0E006E480E016E000E026EDC
:10283A00ACD2150E006E480E016E000E026EA5D2C5
:10284A00BC0E006E460E016E000E026E9ED2000E87
:10285A00006E480E016E000E026E97D2070E006ED1
:10286A00480E016E000E026E90D2970E006E480E50
:10287A00016E000E026E89D28B0E006E480E016E3A
:10288A00000E026E82D2940E006E490E016E000E88
:10289A00026E7BD2920E006E490E016E000E026E1F
:1028AA0074D2870E006E480E016E000E026E6DD253
:1028BA00EF0E006E480E016E000E026E66D2F20E28
:1028CA00006E480E016E000E026E5FD2BF0E006EE1
:1028DA00480E016E000E026E58D2C70E006E480EE8
:1028EA00016E000E026E51D2550E006E480E016E38
:1028FA00000E026E4AD2430E006E480E016E000EA2
:10290A00026E43D2D30E006E480E016E000E026EA6
:10291A003CD2730E006E480E016E000E026E35D266
:10292A00690E006E480E016E000E026E2ED2640E03
:10293A00006E480E016E000E026E27D2190E006E4E
:10294A00450E016E000E026E20D21E0E006E460E5D
:10295A00016E000E026E19D2310E006E480E016E23
:10296A00000E026E12D2400E006E460E016E000E6E
:10297A00026E0BD2870E006E470E016E000E026EBB
:10298A0004D2BE0E006E450E016E000E026EFDD11F
:10299A004B0E006E460E016E000E026EF6D17E0ED2
:1029AA00006E470E016E000E026EEFD1900E006EA1
:1029BA00470E016E000E026EE8D1A20E006E470E9F
:1029CA00016E000E026EE1D1990E006E470E016E85
:1029DA00000E026EDAD1B20E006E450E016E000EC6
:1029EA00026ED3D1D50E006E440E016E000E026E39
:1029FA00CCD1DF0E006E490E016E000E026EC5D1FB
:102A0A00E351200A02E1400EE219D8B4EFD6E351AD
:102A1A00200A02E1410EE219D8B4EFD6E351200AA6
:102A2A0002E1420EE219D8B4EFD6E351200A02E1DC
:102A3A00430EE219D8B4EFD6E351200A02E1440E5C
:102A4A00E219D8B4EFD6E351200A02E1450EE219A1
:102A5A00D8B4EFD6E351200A02E1460EE219D8B4FF
:102A6A00EFD6E351200A02E1470EE219D8B4EFD6B5
:102A7A00E351200A02E1480EE219D8B4EFD6E35135
:102A8A00200A02E19C0EE219D8B4EFD6E351200ADB
:102A9A0002E19D0EE219D8B4EFD6E351200A02E111
:102AAA00B00EE219D8B4EFD6E351200A02E1B10E12
:102ABA00E219D8B4EFD6E351200A02E1B20EE219C4
:102ACA00D8B4EFD6E351200A02E1B30EE219D8B422
:102ADA00EFD6E351200A02E1B40EE219D8B4EFD6D8
:102AEA00E351200A02E1B50EE219D8B4EFD6E35158
:102AFA00200A02E1B60EE219D8B4EFD6E351200A51
:102B0A0002E1B70EE219D8B4EFD6E351200A02E186
:102B1A00B80EE219D8B4EFD6E351200A02E1CD0E7D
:102B2A00E219D8B4EFD6E351200A02E1E20EE21923
:102B3A00D8B4EFD6E351200A02E1E90EE219D8B47B
:102B4A00EFD6E351200A02E1EA0EE219D8B4EFD631
:102B5A00E351210A02E1830EE219D8B4EFD6E35118
:102B6A00210A02E1850EE219D8B4EFD6E351210A0F
:102B7A0002E18A0EE219D8B4EFD6E351210A02E142
:102B8A00920EE219D8B4EFD6E351210A02E1940E6B
:102B9A00E219D8B4EFD6E351210A02E1960EE219FE
:102BAA00D8B4EFD6E351220A02E1210EE219D8B4D1
:102BBA00EFD6E351220A02E1230EE219D8B4EFD686
:102BCA00E351220A02E1240EE219D8B4EFD6E35106
:102BDA00220A02E1250EE219D8B4EFD6E351220AFD
:102BEA0002E1260EE219D8B4EFD6E351220A02E135
:102BFA00270EE219D8B4EFD6E351220A02E12A0ECF
:102C0A00E219D8B4EFD6F5D677D0A60E006E450EE7
:102C1A00016E000E026EB9D0260E006E450E016ED0
:102C2A00000E026EB2D0FF0E006E440E016E000E50
:102C3A00026EABD0750E006E470E016E000E026E6C
:102C4A00A4D06C0E006E460E016E000E026E9DD070
:102C5A006C0E006E470E016E000E026E96D08E0E3E
:102C6A00006E450E016E000E026E8FD08A0E006E47
:102C7A00460E016E000E026E88D0D80E006E470E08
:102C8A00016E000E026E81D0610E006E460E016E5C
:102C9A00000E026E7AD09A0E006E450E016E000E7C
:102CAA00026E73D0CA0E006E450E016E000E026EE1
:102CBA006CD0C60E006E460E016E000E026E65D016
:102CCA000C0E006E450E016E000E026E5ED0330EC3
:102CDA00006E450E016E000E026E57D0560E006E43
:102CEA00460E016E000E026E50D0DE0E006E490EC8
:102CFA00016E000E026E49D0C951000A86E0C95120
:102D0A00010A8AE0C951020A8EE0C951030A92E017
:102D1A00C951040A96E0C951050A9AE0C951060A3E
:102D2A009EE0C951080AA2E0C951070AA6E0C951A2
:102D3A00090AAAE0C9510A0AAEE0C9510B0AB2E06F
:102D4A00C9510C0AB6E0C9510D0ABAE0C9510E0AB6
:102D5A00BEE0C9510F0AC2E0C8D7E20E006E490EA2
:102D6A00016E000E026E11D0E451000AD8B4D9D413
:102D7A00E451100AD8B408D5E451200AD8B435D59C
:0C2D8A00E451F00AD8B440D7E8D712009A
:102D9600ECEC11F0A60EE26F440EE36F000EE46F4A
:102DA60021DC00C0E4F001C0E5F0020EE26F010E86
:102DB600E36F49DC4B0E0501086F096B0A6B0B6B61
:102DC6000001CD91CDB15AD0000EE26F050EE36F32
:102DD600080EE46F050EE56FD6EC11F0E06BCDB191
:102DE60036D0320EE05D33E28B80040E0B6E0C0E95
:102DF6000C6E330E0D6E0D2EFED70C2EFCD70B2E41
:102E0600FAD7000000008B90040E0B6E0C0E0C6EB1
:102E1600330E0D6E0D2EFED70C2EFCD70B2EFAD7C9
:102E260000000000080EE26F050EE36F040EE46F6B
:102E3600BAEC12F00050000A000ED8A4010E016E82
:102E460001B002D0CD9101D0CD81E02BC8D7CDB154
:102E560014D0ECEC11F000EC12F0020E0A6E310EFA
:102E66000B6E620E0C6E450E0D6E0D2EFED70C2EE1
:102E7600FCD70B2EFAD70A2EF8D7A4D7810EE26F0D
:102E8600450EE36F000EE46FF5EC12F000C0E4F0BF
:102E960001C0E5F0020EE26F010EE36F26EC13F0BF
:022EA600120018
:102EA80008D08B82D59E0DD08B92D59E0AD0D58E18
:102EB80008D00001CC51000AF4E0CC51FF0AF4E03C
:042EC800F6D7120027
:102ECC0000EC12F05A0EE26F450EE36F000EE46F49
:102EDC00F5EC12F000C0E4F001C0E5F0020EE26F78
:0C2EEC00010EE36F26EC13F0CD911200F4
:102EF800010E0001EE6F5AEC09F0CAC0E2F02F0E85
:102F0800E36F000EE46F44EC12F0200E316E326A6B
:102F1800F00ECA15E16FD1D0CDA913D0240EE26FFF
:102F2800470EE36F000EE46FF5EC12F000C0E4F01A
:102F380001C0E5F02F0EE26F000EE36FC5EC12F052
:102F480082D00F0ECA15E06F77D01B0EE26F470EC6
:102F5800E36F000EE46FF5EC12F000C0E4F001C07E
:102F6800E5F02F0EE26F000EE36FC5EC12F06BD0A8
:102F7800E40EE26F460EE36F000EE46FF5EC12F01C
:102F880000C0E4F001C0E5F02F0EE26F000EE36F21
:102F9800C5EC12F058D0CAA712D07D0EE26F480EC9
:102FA800E36F000EE46FF5EC12F000C0E4F001C02E
:102FB800E5F02F0EE26F000EE36FC5EC12F0CAA128
:102FC80012D05A0EE26F480EE36F000EE46FF5EC74
:102FD80012F000C0E4F001C0E5F02F0EE26F000E21
:102FE800E36FC5EC12F0CAA512D05F0EE26F480E6F
:102FF800E36F000EE46FF5EC12F000C0E4F001C0DE
:10300800E5F02F0EE26F000EE36FC5EC12F0CAA3D5
:1030180012D04F0EE26F480EE36F000EE46FF5EC2E
:1030280012F000C0E4F001C0E5F02F0EE26F000ED0
:10303800E36FC5EC12F007D0E051000A86E0E051DA
:103048000F0A96E0A8D747D02A0EE26F480EE36F22
:10305800000EE46FF5EC12F000C0E4F001C0E5F0FA
:103068002F0EE26F000EE36FC5EC12F034D0400E65
:10307800E26F450EE36F000EE46FF5EC12F000C04E
:10308800E4F001C0E5F02F0EE26F000EE36FC5EC2F
:1030980012F021D0C70EE26F440EE36F000EE46F0A
:1030A800F5EC12F000C0E4F001C0E5F02F0EE26F7D
:1030B800000EE36FC5EC12F00ED0E151000AD8B44F
:1030C8002BD7E151100AC0E0E151200AD0E0E151CC
:1030D800F00AE0E0F1D7CDA913D0B70EE26F440EA5
:1030E800E36F000EE46FF5EC12F000C0E4F001C0ED
:1030F800E5F0400EE26F000EE36F66EC13F0ACD023
:10310800CDA51ED09EC0E2F0400EE36F000EE46F26
:1031180044EC12F0200E426E436A9E0EE26F460E99
:10312800E36F000EE46FF5EC12F000C0E4F001C0AC
:10313800E5F0400EE26F000EE36FC5EC12F08CD0A4
:10314800CDAB67D09DC0E2F0400EE36F000EE46F98
:1031580044EC12F0200E426E436A010EE26F490EF3
:10316800E36F000EE46FF5EC12F000C0E4F001C06C
:10317800E5F0400EE26F000EE36FC5EC12F041D0AF
:10318800A70EE26F480EE36F000EE46FF5EC12F045
:1031980000C0E4F001C0E5F0400EE26F000EE36FFE
:1031A800C5EC12F035D0040EE26F490EE36F000E45
:1031B800E46FF5EC12F000C0E4F001C0E5F0400E59
:1031C800E26F000EE36FC5EC12F022D09DC0E2F072
:1031D800450EE36F000EE46F80EC12F0490EE26FCB
:1031E800480EE36F000EE46FF5EC12F000C0E4F057
:1031F80001C0E5F0400EE26F000EE36FC5EC12F07F
:1032080007D09D51000ABCE09D51FF0ACCE0DED7F3
:1032180023D0C9C0E2F0400EE36F000EE46F44EC27
:1032280012F0200E426E436A8DEC13F000C0E2F0FB
:1032380001C0E3F002C0E4F0F5EC12F000C0E4F0E5
:1032480001C0E5F0400EE26F000EE36F0D0EE66F71
:10325800000EE76F02EC12F0010EE26F010EE36F51
:103268002F0EE46F000EE56F26EC13F0020EE26FEE
:10327800010EE36F400EE46F000EE56F26EC13F0CD
:02328800120032
:10328A00CAC000F00032009E0032009E0032009E4A
:10329A000032009E0001DF5100260F0E0014036E5B
:1032AA000F0ECA15026E03C000F0003600900036F9
:1032BA00009000360090003600900250001200C0C4
:0432CA00CAF0120034
:1032CE0081BC02D0D88001D0D890000ED8B0010EAB
:0432DE00006E12006C
:1032E20081BE02D0D88001D0D890000ED8B0010E95
:0432F200006E120058
:0832F6000001DF519D271200C9
:0A32FE009494BA840C0EBD12120065
:0A3308009484BA94F00EBD16120072
:083312000001DF519E271200AB
:10331A000001CDA11FD0530E0501086FC9C009F5E0
:10332A00080E0001E26F050EE36F020EE46FBAECBD
:10333A0012F0005201E1F4D70501096B080E0001F1
:10334A00E26F050EE36F020EE46FBAEC12F0005260
:06335A0001E1F4D71200AE
:103360000001CDA123D04B0E0501086FCAC009F59D
:103370000A6BC9C00BF5080E0001E26F050EE36F82
:10338000040EE46FBAEC12F0005201E1F4D705012B
:10339000096B0B6B080E0001E26F050EE36F040E64
:0E33A000E46FBAEC12F0005201E1F4D7120013
:1033AE004CD0828C100E0B6E390E0C6E0D0E0D6EF7
:1033BE000D2EFED70C2EFCD70B2EFAD700000000D8
:1033CE00829C6AD0828E100E0B6E390E0C6E0D0E14
:1033DE000D6E0D2EFED70C2EFCD70B2EFAD700003D
:1033EE000000829E59D0808C100E0B6E390E0C6E22
:1033FE000D0E0D6E0D2EFED70C2EFCD70B2EFAD702
:10340E0000000000809C48D0828C46D0828E44D032
:10341E00808C42D054DDB8DC3FD0CC6B3EDD3CD04E
:10342E00FF0E0001CC6F39DD37D00001CD9D5DDD83
:10343E0033D0CD8D31D030D02FD00001C951010AFB
:10344E00B0E0C9510D0ABCE0C951020ABBE0C95136
:10345E000E0AC7E0C951090AC6E0C9510F0AD2E0E7
:10346E00C9510A0AD1E0C9510B0AD0E0C9510C0A60
:10347E00CFE0C951030ACEE0C951040ACEE0C951CA
:10348E00050ACEE0C951080AD0E0C951070AD1E0B9
:0A349E00C951000AD0E0D0D7120097
:1034A8000001CDA125D0430E0501086FC9C009F55B
:1034B8000F0E0001CA1505010A6F080E0001E26F20
:1034C800050EE36F030EE46FBAEC12F0005201E14F
:1034D800F4D70501096B0A6B080E0001E26F050EAF
:1034E800E36F030EE46FBAEC12F0005201E1F4D777
:0234F8001200C0
:1034FA00A6A202D00000FCD7A69CDDC0A9FFDEC0B0
:10350A00A8FFA69EA684F2CF00F0F29E550EA76EE3
:10351A00AA0EA76EA68200BE02D0F29E01D0F28E3B
:04352A00A694120051
:10352E00A69CDDC0A9FFA69EA680A8CF00F0120023
:0E353E00516A566A556A0001844B852B1200B3
:10354C00F250026EF29E0500FF6A0150FE6E0050B2
:08355C00FD6E02BEF28E1200AA
:10356400000E0001C915026ECA51F00B036EFF0E66
:10357400C915006ECA510F0B016EDD510026000EF5
:10358400DDBFFF0E0122FF0E00160F0E01160250C2
:1035940000120350011200C0C9F001C0CAF01200A9
:1035A400100E526E270E536E8B80F00E0001CA155A
:1035B400DD6F09D0D3DE15D0AEDE13D073DF11D0AA
:1035C400F4DE0FD00ED00001DD51000AF3E0DD512E
:1035D400100AF2E0DD51200AF1E0DD51F00AF0E0DA
:0435E400F1D7120009
:1035E8000001DD6B060EDD5D1BE2290EE96E000EA3
:1035F800EA6EDD51E926D8B0EA2AEECFE2F0DDC066
:1036080000F0000E016E0036013600902F0E0024E7
:10361800E36F000E0120E46F44EC12F0DD2BE2D7DB
:1036280085C0E2F03B0EE36F000EE46F44EC12F04D
:1036380084C0E2F03D0EE36F000EE46F44EC12F03C
:103648003F6AC9C0E2F0400EE36F000EE46F44EC3D
:1036580012F0200E426E51C0E2F0430EE36F000EEE
:10366800E46F44EC12F056C0E2F0450EE36F000E32
:10367800E46F44EC12F0200E456E55C0E2F0470EA0
:10368800E36F000EE46F44EC12F02E0E476E200E2E
:10369800496E87C0E2F04A0EE36F000EE46F44EC17
:1036A80012F086C0E2F04C0EE36F000EE46F44ECBB
:1036B80012F0200E4E6E83A103D0010E4F6E02D081
:1036C800020E4F6E506A846B856B010EEE6F5AECDA
:1036D80009F0010EE26F010EE36F2F0EE46F000E8A
:1036E800E56F26EC13F0020EE26F010EE36F400E59
:0C36F800E46F000EE56F26EC13F01200EA
:10370400FCDD0A0E0C6E580E0D6E0D2EFED70C2E1F
:08371400FCD70000F7DD1200F4
:10371C00929A92989290929292949296899A89986F
:10372C0089968994899289902AEC06F02AEC06F005
:10373C002AEC06F089828980898A3CEC06F0899A09
:10374C002AEC06F0898A3CEC06F0899A2AEC06F001
:10375C00898A3CEC06F0899A2AEC06F08990898AD1
:10376C003CEC06F0899A2AEC06F0898A3CEC06F0CF
:10377C00899A89928986898A3CEC06F0899A2AEC86
:10378C0006F089968980898A3CEC06F0899A8990A2
:10379C00898A3CEC06F0899A2AEC06F0898A3CEC82
:1037AC0006F0899A8980898A3CEC06F0899A2AEC81
:1037BC0006F08990898A3CEC06F0899A898689847E
:1037CC0089828980898A3CEC06F0899A2AEC06F079
:0637DC0000016D811200E6
:1037E200080E0001D56FD55100081BE28ADFD4AF65
:1037F2000BD01A0E0C6EB50E0D6E0D2EFED70C2EC2
:10380200FCD70000000009D00A0E0C6E580E0D6E97
:103812000D2EFED70C2EFCD70000D437D491D5073D
:04382200E2D71200D7
:04382600A09012005C
:10382A00295000019E1904E02950FF0A01E021D025
:10383A002A502918006E01E11CD02C502B18006E5A
:10384A0001E117D02E502D18006E01E112D02BC0C5
:10385A0001F0006A2D500012000E011200C0C9F0DA
:10386A0001C0CAF0CDAD02D0BADE02D07CEC17F0AE
:04387A0094DE1200C6
:10387E00010E0001DD6FCCC0DEF038DE54EC17F027
:02388E00120026
:10389000D7C0E1FFD8C0E2FFD4C0E6FFD5C000F03A
:1038A000D6C001F053DE7CEC17F0D9C000F0DAC0CE
:1038B00001F04CDE00521DE00001CDA319D0800EB6
:1038C000006E800ECEBF7F0E005C02E1CE5100087C
:1038D0000FE3D7C0E1FFD8C0E2FFD4C0E6FFD5C0F8
:1038E00000F0D6C001F032DE7CEC17F0CD93CE6B49
:0438F000DCD712000F
:1038F400D4C0DDF035DE7CEC17F0050E606FD5C06A
:1039040000F0D6C001F020DE005234E00001CDA367
:1039140030D0800E006E800ECEBF7F0E005C02E1C0
:10392400CE51000826E360076051000A20E1D4C0AC
:10393400DDF016DE8DEC13F000C0F6FF01C0F7FFDA
:1039440002C0F8FF0900F5CF01F00150000A0BE1B5
:103954000F0E0001C915016E0150000A04E0D4C025
:10396400DDF0FEDDE7D77CEC17F0050E606FCD933C
:06397400CE6BC5D7120066
:10397A00480E0001EE6F5AEC09F0E86BA7EC11F063
:10398A00040EE86FA7EC11F00A0EE86FA7EC11F02D
:10399A00150EE86FA7EC11F0040EE86FA7EC11F012
:1039AA00040EE86FA7EC11F0E86BA7EC11F0E86BD6
:1039BA00A7EC11F0E86BA7EC11F0040EE86FA7EC86
:1039CA0011F0040EE86FA7EC11F0150EE86FA7ECE2
:1039DA0011F00A0EE86FA7EC11F0040EE86FA7ECDD
:1039EA0011F0E86BA7EC11F0E86BA7EC11F0E86BAB
:1039FA00A7EC11F0040EE86FA7EC11F0020EE86FC5
:103A0A00A7EC11F01D0EE86FA7EC11F0020EE86F9B
:103A1A00A7EC11F0040EE86FA7EC11F0E86BA7EC25
:103A2A0011F0E86BA7EC11F0E86BA7EC11F0040EAB
:103A3A00E86FA7EC11F0080EE86FA7EC11F0170E6B
:103A4A00E86FA7EC11F0080EE86FA7EC11F0040E6E
:103A5A00E86FA7EC11F0E86BA7EC11F0E86BA7ECA4
:103A6A0011F0E86BA7EC11F0E86BA7EC11F0090E66
:103A7A00E86FA7EC11F0150EE86FA7EC11F0120E23
:103A8A00E86FA7EC11F0E86BA7EC11F0E86BA7EC74
:103A9A0011F0E86BA7EC11F01B0EE86FA7EC11F020
:103AAA001B0EE86FA7EC11F01B0EE86FA7EC11F0E4
:103ABA001B0EE86FA7EC11F01B0EE86FA7EC11F0D4
:103ACA001B0EE86FA7EC11F01B0EE86FA7EC11F0C4
:103ADA00E86BA7EC11F0E86BA7EC11F0100EE86F99
:103AEA00A7EC11F0080EE86FA7EC11F0040EE86FCE
:103AFA00A7EC11F0020EE86FA7EC11F0010EE86FC7
:103B0A00A7EC11F0E86BA7EC11F0E86BA7EC11F049
:0A3B1A00020EEE6F5AEC09F01200E3
:103B2400A090A190976A040E976ECF6ACE6A05DDC5
:043B3400A08012005B
:103B3800010E0001DD6FF7DC00C0CCF054EC17F08B
:023B4800120069
:103B4A00552A5550070811E2556A290EE16E000EF2
:103B5A00E26E5650E126D8B0E22A54C0E6FF562A51
:0C3B6A00060E565C02E3030E516E1200C2
:103B7600BB50010F006E016A000E0122D4C004F092
:103B8600000E056EEAEC00F0060E026E00C004F0B0
:103B960001C005F0025005E005320432059EFF0F14
:103BA600FAD7040E016E04C000F0015004E000369E
:103BB6000090FF0FFBD7300E0014036E04C000F018
:103BC60005C001F001320032019E01320032019E31
:0E3BD60000C0BEFF0F0EBD160350BD12120040
:083BE400BE6ABD98BD9A1200F3
:103BEC0075D000018751040802E186511A08010EB4
:103BFC00D8B0000E016E070E875D02E19E0E865D49
:103C0C00010ED8B0000E006E00500116006A83B190
:103C1C00002A0150001603E0010E516E01D089DC20
:103C2C0063D0000183B102D0028001D00290875191
:103C3C00010802E18651C208010ED8B0000E016ED7
:103C4C00050E875D02E1460E865D010ED8B0000EB2
:103C5C00006E00500116006A02B0002A01500016D6
:103C6C0003E0020E516E01D064DC3ED0000183A152
:103C7C0009D08751050802E18651460802E259DC59
:103C8C0000D01FD087510B0802E186516D0802E26B
:103C9C0050DC17D08751070802E18651E90805E28C
:103CAC005436549054804BDF0CD0000187510108DE
:103CBC0002E18651C20804E25436549040DF01D030
:103CCC0038DC12D0AADDABDD27DF0ED05150000A54
:103CDC00D8B487D75150010AA4E05150020AC6E06B
:0A3CEC005150030AEFE0F1D7120077
:103CF6000001CDA514D0CFC0D4F0120ED56F330E6F
:103D0600D66FDF0ED76F000ED86FD0C0D9F0D1C0F6
:103D1600DAF0D2C0DBF0D3C0DCF0B7DD39D0000179
:103D2600CDAB14D0CFC0D4F0F60ED56F320ED66F11
:103D3600DF0ED76F000ED86FD0C0D9F0D1C0DAF041
:103D4600D2C0DBF0D3C0DCF0A0DD22D00001CDA9CB
:103D560014D0CFC0D4F08A0ED56F320ED66FDF0ED8
:103D6600D76F000ED86FD0C0D9F0D1C0DAF0D2C06C
:103D7600DBF0D3C0DCF089DD0BD0CFC0D4F0D0C0EF
:103D8600D5F0D1C0D6F0D2C0D7F0D3C0D8F0AFDDD1
:023D9600120019
:103D980000017D51010A07E160BA05D0656A6480B7
:103DA8006488020E7D6F65A406D064A404D0FB0E5F
:103DB8006516C0EC06F060A203D028EC06F0DDD052
:103DC80065A019D064A017D0C8EC06F0040E7D6F6A
:103DD800200E0401026F040E036F080E016F000E1F
:103DE8000015006E00C000F48C0E0011006E00C0BB
:103DF80000F4FE0E651665A806D064A804D096ECFB
:103E080006F0EF0E651665AC04D064AC02D0BF0EA8
:103E1800651665AA04D064AA02D00AEC06F065A269
:103E280002D064B2676A040E00017D5D03E228ECEB
:103E380006F0A3D064A69FD0F56B040EF55DD8B04C
:103E48009AD065A694D061CF5AF0F70E6516780E11
:103E58005A14016E0150000AD8A488D0FD0E5A14D5
:103E6800016E026AFF0E0216000E021802E1000E31
:103E780001186DE17E0E5A14016E01C003F0033281
:103E8800039E03C000F0000E016E0036009001365C
:103E9800003600900136000E0024026E040E012048
:103EA800036E02C05BF003C05CF002C05EF003C0AA
:103EB8005FF0040E5E18006E00C05EF002C0E9FFFD
:103EC80003C0EAFFEECF00F000C001F03C0E01167F
:103ED8000132019E0132019E01500D0A35E1020EA8
:103EE8005B24E96E000E5C20EA6EEECF01F0EECFA7
:103EF80002F00250040A02E1280E011822E1020E23
:103F08005B24E16E000E5C20E26E200EE66E040E6D
:103F1800E66EF46B080EF45D14E2200EE16E040EFA
:103F2800E26EF451E126D8B0E22A280EE96E040EBA
:103F3800EA6EF451E926D8B0EA2AEECFE6FFF42B70
:103F4800E9D7F3EC05F002D09BEC06F00ED0FD0E9D
:103F58005A14016E026AFF0E0216000E021802E1E0
:103F6800040E011802E143EC06F000D001D003D0A2
:0C3F78000001F52B62D728EC06F01200C7
:103F84000900F5CFE6FF0006FBE10106F9E11200A6
:103F94000F015B6B5C6B5D6BBF0E926EFF0E936EDD
:103FA400380E946E896A8A6A8B6AF19E8B80700ED1
:103FB400D36ED3B401D0FDD7D3B601D0FDD7D298F8
:103FC4009B8ED288D2BE01D0FDD7B59EB588B58E62
:103FD4000001CD6BCF6B060ECF5D0BE2290EE16EB7
:103FE400000EE26ECF51E126D8B0E22AE66ACF2B6A
:103FF400F2D7C96BCA6B62886284070ED56E330E22
:10400400CD6E320EB16EF28CF28EBA80BA924E0E32
:10401400BB6EE6DD800ED46FACDD8EEC1BF0ABDC4A
:10402400010EEE6F5AEC09F00C0EEE6F5AEC09F02B
:104034002A0EE26F460EE36F000EE46FF5EC12F009
:1040440000C0E4F001C0E5F0010EE26F010EE36F81
:1040540026EC13F0F70E8114006EF70E001A0052CE
:104064001AE0840EE26F440EE36F000EE46FF5EC89
:1040740012F000C0E4F001C0E5F0020EE26F010EA0
:10408400E36F26EC13F0F70E8114006EF70E001A9E
:10409400005201E0F8D7A082DD6B97EC1AF000C063
:0840A4009EF048DD3DDD120035
:1040AC008B8013EC1CF09EC029F000019E1D006E4D
:1040BC0000C02AF0CAC02BF0CA1D006E00C02CF044
:1040CC00C9C02DF0C91D006E00C02EF07FEC19F098
:1040DC00100E0C6E940E0D6E0D2EFED70C2EFCD702
:1040EC00000084EC19F00A0E0C6E580E0D6E0D2E9D
:1040FC00FED70C2EFCD70000CF6B060ECF5D0EE268
:10410C00290EE96E000EEA6ECF51E926D8B0EA2AE4
:10411C00EECFD4F0F1EC1BF0CF2BEFD782EC1BF0F1
:10412C00070E0B6E170E0C6E6A0E0D6E0D2EFED753
:10413C000C2EFCD70B2EFAD70000EEDC8B90120065
:10414C000001CA7181B216D0CDA313D0800E006EBF
:10415C00800ECEBF7F0E005C02E1CE51000809E359
:10416C00CA71CA777CEC17F081B201D0FDD7CD9320
:0A417C00CE6BE8D77CEC17F01200C0
:104186000001CDA905D081BA01D0FDD7CD9954D073
:10419600F00ECA15016E0150F00A37E181BA01D05E
:1041A600FDD724D0CD75CDA501D005D0DD6B9EC041
:1041B600DEF07DEC1AF028D00001CD7BCDAB03D02C
:1041C600CCC09DF004D09DC0CCF03FEC1CF01CD0C0
:1041D6000001CC6B3FEC1CF017D0FF0E0001CC6F3A
:1041E6003FEC1CF011D0D2EC1AF00ED00001C951F0
:1041F600000AD8E0C951060ADFE0C951040AE8E01E
:10420600C951050AEAE0EFD717D0D2EC1AF081BA05
:1042160013D00001CDA30FD0800E006E800ECEBF4E
:104226007F0E005C02E1CE51000805E3D2EC1AF0E5
:0A4236000001CD93CE6BEBD7120010
:104240000001CA7381B81ED0CDA31BD0800E006EB2
:10425000800ECEBF7F0E005C02E1CE51000811E35C
:10426000CDB90DD0000EC915006ECA51F00B016E0C
:1042700000C0C9F001C0CAF0CD897CEC17F0CD9325
:0A428000CE6BE0D77CEC17F01200C3
:10428A0084DE0001CDAF03D0ACDC0001CD9F8BA052
:10429A000BD0010E525E000E535A000E531802E163
:1042AA00000E5218D8B48B90F70E8114006EF70ED8
:1042BA00001A00524FE0ECEC11F0020E0B6E860E63
:1042CA000C6E990E0D6E0D2EFED70C2EFCD70B2EF2
:1042DA00FAD7100ECE6FB36AB26AB180CDB916D0D2
:1042EA00CDB514D0CDBB12D081B004D0DADE81B006
:1042FA0001D0FDD781B201D024DF81B404D0CA75C0
:10430A0081B401D0FDD781B801D095DF81BA01D03F
:10431A0035DF81BC0CD0010E0001CF6FCE0ED06FFD
:10432A00320ED16F000ED26F000ED36FDFDC81BE6A
:10433A000CD0FF0E0001CF6FE20ED06F320ED16F9C
:10434A00000ED26F000ED36FD1DCB1900001CD9375
:10435A007CEC17F0CDB706D084B602D0D89007D03F
:10436A00D88005D084B602D0D88001D0D8900CE38A
:10437A0084A603D0CBEC16F002D066EC17F084B614
:0C438A0002D0CD9701D0CD877CD7FFD7A3
:020006004500B3
:1043960005010906A101854B050719E029E7150066
:1043A600250175019508810275089501810395011E
:1043B60026FF0019002AFF008100750195030508F4
:1043C6001901290325019102750595019103C0057F
:1043D600010980A101855319002AFF00150026FF57
:1043E60000750895018100C0050C0901A1018543EE
:1043F60019002A3C021500263C0275109501810021
:01440600C0F5
:104407003603520065006D006F00740065002000E0
:1044170043006F006E00740072006F006C006C0048
:104427006500640020004B006500790062006F00A2
:10443700610072006400000000000000000000003E
:02444700000073
:104449000902290001010180320904000002030068
:1044590000020921010100012271000705810308F9
:09446900000A0705010308000C1C
:10447200120110010000000849524B210300010201
:02448200000137
:1044840052656C6561736520627574746F6E732117
:014494000027
:104495003031323334353637383941424344454675
:0144A5000016
:1044A600456E61626C696E6720555342202020205C
:0144B6000005
:1044B70001012053656C656374205573616765005E
:0E44C70049524B212046756E6374696F6E007A
:0E44D50057656220426F6F6B6D61726B7300F2
:0E44E3004B65797061642044656C65746500FA
:0E44F1004B657970616420496E7365727400CA
:0D44FF00526573657420537769746368001B
:0D450C00506F776572205377204F66660070
:0D4519004D6564696120506C617965720028
:0D452600506F7765722053776974636800E9
:0D4533005265736574205377204F66660053
:0D454000436F6E73756D65722044657600E3
:0D454D004B657970616420526967687400E5
:0D455A005553422044697361626C65640032
:0D4567005072696E742053637265656E00BA
:0D4574004B657970616420456E74657200BE
:0D45810055534220526561647920202000CE
:0C458E004C696768742044656C6179001A
:0C459A00506F776572205377204F6E0041
:0C45A600536574204164647265737300F7
:0C45B200576562205265667265736800F0
:0C45BE005765622042726F7773657200CF
:0C45CA005265736574205377204F6E001B
:0C45D6004B6579706164205067446E00F2
:0C45E2004B657970616420446F776E00B7
:0C45EE005363726F6C6C204C6F636B00A9
:0C45FA004B6579706164205067557000BB
:0C4606004B657970616420486F6D6500A1
:0C4612004B6579706164204C6566740093
:0C461E005465787420456469746F720064
:0B462A0049524B212076332E30340023
:0B4635004B657970616420456E6400E5
:0B46400043616C63756C61746F720065
:0B464B005765622053656172636800D0
:0B465600417578205377204F66660006
:0B46610041757820537769746368008E
:0A466C004C69676874204F66660011
:0A46760043617073204C6F636B000A
:0A4680004B657970616420557000ED
:0A468A004465627567204F66660004
:0A4694000A03490052004B00210008
:0A469E000420416464726573730028
:0A46A8004261636B7370616365008B
:0A46B2004D656E75205069636B00C2
:0A46BC004D656E75204578697400A5
:0A46C600417578205377204F6E00F5
:0A46D000506F776572206F66660078
:0A46DA005061676520446F776E00A1
:0A46E400475549202B20414C4C00A3
:0946EE004B657970616420320013
:0946F7004B65797061642031000B
:094700004B6579706164203300FF
:0947090053706163656261720086
:094712004B6579706164203D00E3
:09471B004B6579626F6172640064
:094724004B6579626F617264005B
:09472D004B6579706164203500D0
:094736004B6579706164203400C8
:09473F004B6579706164203600BD
:094748004B6579706164202E00BC
:094751004B6579706164202A00B7
:09475A004B6579706164202F00A9
:094763004E756D204C6F636B0074
:09476C004C69676874204F6E006F
:09477500496E697420555342009D
:09477E0057656220486F6D65006B
:09478700436F6D707574657200DA
:0947900057656220507265760045
:094799005765622053746F700033
:0947A200576562204E6578740031
:0947AB004B6579706164202D005A
:0947B4004B657970616420390045
:0947BD004B65797061642037003E
:0947C6004B657970616420380034
:0947CF004B657970616420300033
:0947D8004465627567204F6E0014
:0947E1004B6579706164202B0026
:0847EA00506167652055700065
:0747F200496E73657274004B
:0747F90044656C6574650066
:074800004D656E75202B00D1
:074807004D656E75202D00C8
:07480E004D656E75200400EA
:074815004D656E75200300E4
:07481C004D656E75200100DF
:074823004D656E75200200D7
:07482A0053797374656D0002
:06483100456D61696C0099
:06483700456E746572007D
:06483D00536C656570007C
:06484300456A6563740084
:064849002073656373009B
:06484F00534849465400E5
:0548550053746F7000B8
:05485A0043544C200056
:05485F00414C54200053
:05486400566F6C2D00F1
:05486900566F6C2B00EE
:05486E004D656E7500B0
:054873004D75746500A5
:0548780057616B6500B3
:05487D00475549200031
:05488200486F6D6500A8
:044887005265630013
:04488B0043682D0051
:04488F000403090411
:04489300456E64000A
:0448970043682B0047
:04489B004631300072
:04489F00463131006D
:0448A3004631320068
:0448A7004F666600F2
:0448AB0054616200F2
:0448AF00463232005B
:0448B3004632300059
:0448B7004632310054
:0448BB00463234004D
:0448BF003E3E7C00FD
:0448C3004632330046
:0448C7007C3C3C00F9
:0448CB0045736300CE
:0448CF004631350039
:0448D3003E2F06006E
:0448D7004631340032
:0448DB00463133002F
:0448DF004631380026
:0448E3004631390021
:0448E7004631360020
:0448EB00463137001B
:0348EF003E3E004A
:0348F2003C3C004B
:0348F50046330047
:0348F80046340043
:0348FB004635003F
:0348FE004632003F
:034901000420008F
:034904004F6E00F3
:0349070046310036
:03490A004638002C
:03490D0046390028
:0349100046360028
:0349130046370024
:02491600480057
:02491800470056
:02491A00460055
:02491C00280071
:02491E002A006D
:024920005F0036
:0249220029006A
:0249240026006B
:0249260024006B
:0249280023006A
:02492A005E002D
:02492C00250064
:02492E002B005C
:024930003C0049
:0249320005007E
:024934003F0042
:024936003E0041
:0249380022005B
:02493A007D00FE
:02493C007B00FE
:02493E003A003D
:024940007C00F9
:02494200400033
:024944004F0022
:024946004E0021
:0249480051001C
:02494A0050001B
:02494C004D001C
:02494E004A001D
:0249500049001C
:024952004C0017
:024954004B0016
:0249560052000D
:02495800590004
:02495A00580003
:02495C00210038
:02495E005A00FD
:024960005700FE
:024962005400FF
:024964005300FE
:024966005600F9
:024968005500F8
:02496A00440007
:02496C007200D7
:02496E007300D4
:024970007400D1
:024972007100D2
:024974006E00D3
:024976006F00D0
:024978007000CD
:02497A007900C2
:02497C007A00BF
:02497E00310006
:024980007800BD
:024982007500BE
:024984007600BB
:024986007700B8
:024988006D00C0
:02498A006300C8
:02498C006400C5
:02498E006500C2
:024990006200C3
:0249920006001D
:024994003E00E3
:024996006100BE
:024998006A00B3
:02499A006B00B0
:02499C006C00AD
:02499E006900AE
:0249A0006600AF
:0249A2006700AC
:0249A4006800A9
:0249A6002E00E1
:0249A8002F00DE
:0249AA00060005
:0249AC002C00DD
:0249AE003B00CC
:0249B0002700DE
:0249B2006000A3
:0249B4004100C0
:0249B6004200BD
:0249B8004300BA
:0249BA000100FA
:0249BC000300F6
:0249BE000400F3
:0249C0000200F3
:0249C2003600BD
:0249C4003700BA
:0249C6003800B7
:0249C8003500B8
:0249CA003200B9
:0249CC003300B6
:0249CE003400B3
:0249D0000700DE
:0249D2003D00A6
:0249D4005B0086
:0249D6005D0082
:0249D8003000AD
:0249DA003900A2
:0249DC002D00AC
:0149DE0000D8
:0149DF0000D7
:0149E00000D6
:0149E10000D5
:0149E20000D4
:0149E30000D3
:020000040030CA
:0E00000023285F3CFF5081FF0FC00FE00F4030
:00000001FF
