:10000000D7EF20F0FFFF570000C01EF001C01DF029
:1000100002C01CF003C01BF004C01AF005C019F0A8
:1000200008C018F009C017F00AC016F00BC015F090
:10003000E1CF27F0E2CF28F0E9CF25F0EACF26F094
:10004000F3CF23F0F4CF24F0F5CF22F0F8CF1FF058
:10005000F7CF20F0F6CF21F068EC1EF0A1A00DD074
:1000600091CF2AF090CF29F097CF2BF09770CF6ADD
:10007000CE6A0001CE8FA19022D0A1A208D00001AB
:10008000CE83CD05006E00C0CDF0A19218D0F2A4B1
:1000900016D00001CA05006E00C0CAF0000ECABF2B
:1000A000FF0E006E000E001802E1000ECA1902E1F8
:1000B0008B82D59EA40ED76E720ED66EF29422C09D
:1000C000F5FF1FC0F8FF20C0F7FF21C0F6FF23C0D7
:1000D000F3FF24C0F4FF1EC000F01DC001F01CC0DF
:1000E00002F01BC003F01AC004F019C005F018C0DC
:1000F00008F017C009F016C00AF015C00BF025C0B3
:10010000E9FF26C0EAFF27C0E1FF28C0E2FF110097
:100110001E0E6B6E100E0001A56F020EA66FA5C01D
:10012000E1FFA6C0E2FFE69EA5C0E1FFA6C0E2FF98
:10013000E69C040EA525E16E000EA621E26EE68C7B
:10014000180EAA6F020EAB6FAAC0E1FFABC0E2FFB0
:10015000E69EAAC0E1FFABC0E2FFE69C040EAA2522
:10016000E16E000EAB21E26EE68C020EA525E16E7B
:10017000000EA621E26E70C0E6FF71C0E6FF010E20
:10018000A525E16E000EA621E26E400EE66EA5C02A
:10019000E9FFA6C0EAFFEECF00F0A5C0E1FFA6C0D0
:1001A000E2FF400E0014E66EA5C0E9FFA6C0EAFF1C
:1001B000EECF00F0A5C0E1FFA6C0E2FF880E001060
:1001C000E66EA5C0C3F0A6C0C4F0040EA519006E6B
:1001D00000C0A5F012000B6A0A6A096A0050040206
:1001E000F4CF09F0F3CF08F001500502F4CF0BF083
:1001F000F3CF0AF000500502F3500926F4500A220A
:10020000E86A0B2201500402F3500926F4500A2236
:10021000E86A0B2208C000F009C001F00AC002F031
:100220000BC003F012000201286B296B4AD00001B9
:10023000B28F0201288100019F51010A02E10201EF
:10024000288354D00001B28F51D00001B28F020137
:1002500024BF16D024C203F00F0E031603C000F013
:10026000000E016E003600900136A30E0024E96EE8
:10027000000E0120EA6EEECF04F0EECF05F015D0AF
:1002800024C203F00F0E031603C000F0000E016E2F
:10029000003600900136A80E0024E96E000E012001
:1002A000EA6EEECF04F0EECF05F004C0E9FF05C022
:1002B000EAFFEECF01F001A403D00201010E286F86
:1002C00015D020C201F01F0E01160150000AAFE048
:1002D00020C201F01F0E01160150010AB3E020C236
:1002E00001F01F0E01160150020AAFE00001B2AF8B
:1002F00007D0280EAF6F020EB06FB281020EB36F3F
:100300001200000E0001B45D02E1080EB35D10E2C0
:10031000B3C003F0B4C004F0A251000A03E1010E1F
:10032000A26F05D0A251010A02E1020EA26F04D011
:10033000080E036E000E046EA8C0E1FFA9C0E2FF24
:10034000E692A8C0E1FFA9C0E2FFE690A8C0E9FFDD
:10035000A9C0EAFFEECF00F0A8C0E1FFA9C0E2FF0C
:1003600004500010E66E010EA825E16E000EA921D2
:10037000E26E03C0E6FF0350B35D006E0450B45953
:10038000016E00C0B3F001C0B4F0280E7A6F020E07
:100390007B6FB2B12FD0035004102BE0AFC0F6FF3B
:1003A000B0C0F7FFB1C0F8FF0900F5CF00F07AC088
:1003B000E1FF7BC0E2FF00C0E6FF7A4B7B2B010E22
:1003C000AF25006E000EB021016E000EB121026E4D
:1003D00000C0AFF001C0B0F002C0B1F0010E035C8C
:1003E000006E000E0458016E00C003F001C004F05E
:1003F000D2D724D00350041021E0AFC0E9FFB0C031
:10040000EAFF7AC0E1FF7BC0E2FFEECFE6FF7A4B66
:100410007B2B010EAF25006E000EB021016E00C0D7
:10042000AFF001C0B0F0010E035C006E000E045886
:10043000016E00C003F001C004F0DCD7120002011D
:100440002251010A13E120C201F01F0E01160150D2
:10045000000A0CE10001B28F02012151030A04E1FC
:10046000010E00019F6F02D000019F6B020122511B
:10047000000AD8A48DD020C201F01F0E0116015031
:10048000020AD8A485D024C201F00F0E0116015033
:10049000000AD8B47DD00001B28F020124BF16D06B
:1004A00024C203F00F0E031603C000F0000E016E0D
:1004B000003600900136A30E0024E96E000E0120E4
:1004C000EA6EEECF04F0EECF05F015D024C203F0B3
:1004D0000F0E031603C000F0000E016E00360090F0
:1004E0000136A80E0024E96E000E0120EA6EEECF60
:1004F00004F0EECF05F02151030A07E104C0E1FF4B
:1005000005C0E2FF840EE66E43D024C200F00F0E59
:1005100000166A0E026E0F0E036E00500226D8B04F
:10052000032A02C0E9FF03C0EAFFFE0EEE14006ECC
:10053000EECF01F0FF0E011602C0E1FF03C0E2FFA3
:1005400000C0E6FF01C0E6FF24AF11D004C0E1FF08
:1005500005C0E2FFE66A040E0418006E00C004F055
:1005600004C0E1FF05C0E2FF400EE66E11D004C0FA
:10057000E1FF05C0E2FF880EE66E040E0418006E6F
:1005800000C004F004C0E1FF05C0E2FFC80EE66E43
:1005900012000001B28F6B6A7C6B22C2BEF0BE51AA
:1005A000000A03E1100EAC6F03D0200EAC6FB0DD7B
:1005B000120002012051800AD8A478D0C00E000198
:1005C000B26F69D00001900E006E430E016E000EF6
:1005D000026E00C0AFF001C0B0F002C0B1F0120E68
:1005E000B36F000EB46F62D00001030E006E000EF8
:1005F000016E22C204F0000E056EEDDD310E002406
:10060000E96E000E0120EA6EEECFAFF0EECFB0F053
:10061000EECFB1F0020EAF25F66E000EB021F76EF0
:10062000000EB121F86E0900F5CF00F00900F5CFFA
:1006300001F000C0B3F001C0B4F038D00201225183
:100640000001785D23E3030E006E000E016E22C2EE
:1006500004F0000E056EBFDD340E0024E96E000EBE
:100660000120EA6EEECFAFF0EECFB0F0EECFB1F0FA
:10067000AFC0F6FFB0C0F7FFB1C0F8FF0900F5CF7B
:1006800000F000C0B3F0000EB46F01D0B26B0ED01A
:100690000001B26B0BD002012351010A93E02351F8
:1006A000020AA2E02351030AC9E0F2D7120020C2D5
:1006B00001F01F0E01160150010A01E094D0020161
:1006C0002451000A01E08FD02151060A42E137D0BF
:1006D0000001BE51010A17E1670E006E430E016E64
:1006E000000E026E120E0026000E0122022200C031
:1006F000AFF001C0B0F002C0B1F0090EB36F000E50
:10070000B46FC00EB26F25D00001BE51010A12E1D4
:10071000B40E006E420E016E000E026E00C0AFF00D
:1007200001C0B0F002C0B1F0710EB36F000EB46F33
:10073000C00EB26F0ED00001800EB26F0AD002015F
:100740002351210AC5E02351220ADEE02351230A66
:10075000F2E020C201F0600E0116050E006E00509E
:1007600004E00132019EFF0FFBD70150010A01E0B6
:100770003AD026D038D037D0790E0001AF6F000EB6
:10078000B06F010EB36F000EB46FC10EB26F2BD0FD
:100790000001800EB26F23C279F025D000019D0EBA
:1007A000AF6F000EB06F010EB36F000EB46F810E0D
:1007B000B26F19D00001800EB26F22C29DF013D02B
:1007C00002012151010AD6E02151090AD4E0215148
:1007D000020AD2E021510A0ADBE02151030ADEE0DD
:1007E00021510B0AE7E0120000016F5301E05FDFC7
:1007F000120020C201F0600E0116050E006E0050BE
:1008000004E00132019EFF0FFBD70150000A01E016
:100810005ED03AD00001B28F080EAC6F58D0C9DE5E
:1008200056D0B7DE54D00001BE0EAF6F000EB06FD1
:10083000B281010EB36FB28F4AD0F5DC48D0FFDD34
:1008400046D07C0E006E000E016E0201245100267F
:10085000D8B0012A00C0AFF001C0B0F00001B281F1
:10086000010EB36FB28F33D00001B28F7C0EE16EF8
:10087000000EE26E02012451E126D8B0E22A22C223
:10088000E6FF25D024D023D002012151050AC2E081
:100890002151060AC4E02151090AC3E02151080A86
:1008A000C2E02151000AC9E02151010AC8E02151EA
:1008B000030AC5E021510A0AC4E021510B0AD4E021
:1008C0002151070ADFE021510C0ADDE0DCD71200DC
:1008D0000001A16BA8C0E1FFA9C0E2FFE66A040E17
:1008E000A819E16EA9C0E2FF000EE21AE66AB7AFEE
:1008F00001D0B79F120060980001B2BF49D0B7AFD6
:1009000028D0020EA16F010EA825E16E000EA921CC
:10091000E26EE66AA8C0E1FFA9C0E2FFC80EE66E7B
:10092000010E7625E16E000E7721E26E080EE66E6E
:10093000020E7625E16E000E7721E26E280EE66E3D
:10094000020EE66E76C0E1FF77C0E2FFC80EE66EEB
:100950001ED0010E7625E16E000E7721E26E080EA4
:10096000E66E020E7625E16E000E7721E26E200E15
:10097000E66E020EE66E76C0E1FF77C0E2FF8C0EF7
:10098000E66EA8C0E1FFA9C0E2FF840EE66E82D049
:10099000B7BF80D0020120AF55D00001B451020191
:1009A000275D04E10001B3510201265D04E226C285
:1009B000B3F027C2B4F0A5DC010EA16F010E7625BD
:1009C000E16E000E7721E26E080EE66E020E7625CD
:1009D000E16E000E7721E26E200EE66E020EE66EEC
:1009E00076C0E1FF77C0E2FF800EE66E9E6B010EDF
:1009F0007425E16E000E7521E26E080EE66E020EA1
:100A00007425E16E000E7521E26E200EE66E020E78
:100A1000E66E74C0E1FF75C0E2FF840EE66E010E63
:100A20009E6F020EA825E16E000EA921E26E280E2F
:100A3000E66E020EE66EA8C0E1FFA9C0E2FFC80E96
:100A4000E66E28D00001020EA16F010EA825E16E0E
:100A5000000EA921E26EE66AA8C0E1FFA9C0E2FF8C
:100A6000C80EE66E010E7625E16E000E7721E26E6D
:100A7000080EE66E020E7625E16E000E7721E26E1C
:100A8000280EE66E020EE66E76C0E1FF77C0E2FF4A
:100A9000C80EE66E1200160E626E9F0E666E3B0E5C
:100AA000646E1200670E316E430E326E000E336EAE
:100AB000760E346E470E356E000E366E570E376E5C
:100AC000450E386E000E396E250E3A6E430E3B6EA3
:100AD000000E3C6E1200010E00017425E96E000E3E
:100AE0007521EA6EEECF00F000C002F0000EB95D95
:100AF00002E10250B85D03E2B8C002F00AD0025031
:100B0000B85D006E000EB959016E00C0B8F001C0AA
:100B1000B9F0036A0250035C1CE2280EE96E020E73
:100B2000EA6E0350E926D8B0EA2AEECF00F0B5C04D
:100B3000E1FFB6C0E2FF00C0E6FF010EB525006E82
:100B4000000EB621016E00C0B5F001C0B6F0032A58
:100B5000E1D7000E006EB951005C02E1B851000807
:100B600028E2010E7625E16E000E7721E26E080E76
:100B7000E66E020E7625E16E000E7721E26E280EFB
:100B8000E66E020EE66E74C0E9FF75C0EAFFEECFB6
:100B900000F000BC07D076C0E1FF77C0E2FFC80ECE
:100BA000E66E06D076C0E1FF77C0E2FF880EE66E03
:100BB00019D0010E7625E16E000E7721E26E080E47
:100BC000E66E020E7625E16E000E7721E26E200EB3
:100BD000E66E020EE66E76C0E1FF77C0E2FF840E9D
:100BE000E66EB79F1200A8C0E9FFA9C0EAFFEECFEA
:100BF00000F000AE05D0A8C0E1FFA9C0E2FFE66AA0
:100C00000001A26BA16BB36BB46BB26BF2DDECDDD8
:100C100072DE12006AA019D074C0E9FF75C0EAFF45
:100C2000EECF01F00150800A0FE1A8C0E9FFA9C092
:100C3000EAFFEECF01F00150840A06E174C0E1FF43
:100C400075C0E2FF8C0EE66E6A90DF0E651612002C
:100C5000A49412002B0E0C6EDA0E0D6E0D2EFED724
:100C60000C2EFCD700001200630E0D6E0D2EFED769
:100C70000000000012000000000000000000000062
:100C800000001200040E0001A819006E00C0A8F0B8
:100C9000AC51080A0AE122C263FF6350000803E274
:100CA000100EAC6F02D0040EAC6FA151010A3BE1F3
:100CB000020EA825E16E000EA921E26E280EE66E56
:100CC000020EE66E81EC01F0A251020A07E1A8C013
:100CD000E1FFA9C0E2FF840EE66E24D0040EA8193D
:100CE000006E00C0A8F0A8C0E9FFA9C0EAFFEECFDF
:100CF00000F000BC0CD0040EA819006E00C0A8F0D3
:100D0000A8C0E1FFA9C0E2FFC80EE66E0BD0040E3A
:100D1000A819006E00C0A8F0A8C0E1FFA9C0E2FFBA
:100D2000880EE66E01D0D4DD12006484EF0E6516E5
:100D3000608212000001A151020A02E1CCDE1ED045
:100D4000C7DD9E51000A19E1010E7625E16E000E05
:100D50007721E26E080EE66E020E7625E16E000E39
:100D60007721E26E200EE66E020EE66E76C0E1FF9F
:100D700077C0E2FF8C0EE66E01D09E6B120060928F
:100D8000649465A403D0FB0E6516FBD712008ADEBF
:100D90000001C36BC46BAD6BAE6B676A656A7BDECB
:100DA000608C636A6B6A609CC56BC66B000EC65D27
:100DB00002E1080EC55D17E2C5C000F0C6C001F033
:100DC000003600900136003600900136000E0024F7
:100DD000E16E020E0120E26EE66AE66AE66AE66A03
:100DE000C54BC62BE3D7160E6A6E65A603D0F70E69
:100DF0006516FBD7B26BB76BB86BB96B6098080E12
:100E0000A86F020EA96FBE6BAC6B12000001AC5153
:100E1000000A0AE1606A646A3EDE60B602D060865B
:100E2000FCD70001010EAC6FAC51010A08E160BAB9
:100E300006D0656A646A64806488020EAC6F65A43B
:100E400005D064A403D0FB0E651699DF60A202D022
:100E5000FFDED4D065A018D064A016D098DF040EB1
:100E6000AC6F200E0201026F020E036F080E016FBD
:100E7000000E0015006E00C000F28C0E0011006E16
:100E800000C000F2FE0E651665A805D064A803D068
:100E90004CDFEF0E651665AC04D064AC02D0BF0E1B
:100EA000651665AA03D064AA01D0B4DE65A202D09B
:100EB00064B2676A040E0001AC5D02E2C9DE9ED036
:100EC00064A69BD0ED6B040EED5DD8B096D065A600
:100ED00091D061CFA0F0F70E6516780EA015016EC7
:100EE0000150000AD8A485D0FD0EA015016E026A3B
:100EF000FF0E0216000E021802E1000E01186BE14F
:100F00007E0EA015016E01C003F00332039E03C0E4
:100F100000F0000E016E00360090013600360090A1
:100F20000136000E0024026E020E0120036E02C084
:100F300074F003C075F002C076F003C077F0040EC1
:100F40007619006E00C076F002C0E9FF03C0EAFF28
:100F5000EECF00F000C001F03C0E01160132019E00
:100F60000132019E01500D0A34E1020E7425E96E32
:100F7000000E7521EA6EEECF01F0EECF02F00250C6
:100F8000020A02E1280E011822E1020E7425E16E28
:100F9000000E7521E26E200EE66E020EE66EEC6B20
:100FA000080EEC5D14E2200EE16E020EE26EEC51D2
:100FB000E126D8B0E22A280EE96E020EEA6EEC5164
:100FC000E926D8B0EA2AEECFE6FFEC2BE9D70BDE14
:100FD00001D0B0DE0DD0FD0EA015016E026AFF0E2D
:100FE0000216000E021802E1040E011801E14ADEA9
:100FF00000D001D002D0ED2B66D72ADE120000010E
:10100000ED51000A12E0ECC000F0000E016E003657
:1010100000900136A80E0024E96E000E0120EA6E51
:10102000EECF04F0EECF05F011D0ECC000F0000ED2
:10103000016E003600900136A30E0024E96E000E0A
:101040000120EA6EEECF04F0EECF05F0020E04248C
:10105000E16E000E0520E26EEEC0E6FFEFC0E6FF97
:10106000010E0424E16E000E0520E26EF0C0E6FFE2
:1010700004C0E9FF05C0EAFFEECF00F004C0E1FFC5
:1010800005C0E2FF400E0014E66E04C0E9FF05C093
:10109000EAFFEECF00F004C0E1FF05C0E2FF880EDA
:1010A0000010E66EED51000A1BE0ECC000F0000EEF
:1010B000016E003600900136A80E0024026E000E6C
:1010C0000120036E02C0E9FF03C0EAFF040EEE1820
:1010D000006E02C0E1FF03C0E2FF00C0E6FF1AD0CD
:1010E000ECC000F0000E016E003600900136A30E39
:1010F0000024026E000E0120036E02C0E9FF03C04F
:10110000EAFF040EEE18006E02C0E1FF03C0E2FF2A
:1011100000C0E6FF04C000F005C001F01200000EA0
:101120000001ED1902E1000EEC1902E1016A09D09B
:10113000ECC0E9FFEDC0EAFFEECF00F0016A00BEAF
:10114000012A01C000F01200D08EA584A384F28E83
:1011500012000001EF6BF06BF16B020EEC25F66EE6
:10116000000EED21F76E000EEE21F86E0900F5CFAE
:1011700005F0030EEC25F66E000EED21F76E000E65
:10118000EE21F86E0900F5CF00F000C003F0000E6C
:10119000046E03C001F0006A05500024066E000EC4
:1011A0000120076EECC008F0EDC009F0EEC00AF0B7
:1011B000010E0824F66E000E0920F76E000E0A20BC
:1011C000F86E0900F5CF01F00150020A1BE1060E8E
:1011D0000824F66E000E0920F76E000E0A20F86E45
:1011E0000900F5CF01F00150EF5D0CE2060E082476
:1011F000F66E000E0920F76E000E0A20F86E090048
:10120000F5CFEFF0010E0824F66E000E0920F76E00
:10121000000E0A20F86E0900F5CF01F00150040A13
:101220001BE1080E0824F66E000E0920F76E000E72
:101230000A20F86E0900F5CF01F00150EF5D0CE2D5
:10124000080E0824F66E000E0920F76E000E0A2024
:10125000F86E0900F5CFEFF008C0F6FF09C0F7FF00
:101260000AC0F8FF0900F5CF00F00050F025016E2C
:10127000000EF121026E01C0F0F002C0F1F0075043
:10128000025C02E10650015C01E30FD008C0F6FFEA
:1012900009C0F7FF0AC0F8FF0900F5CF00F00050C1
:1012A0000826000E09220A2283D7EFC000F01200A0
:1012B0000001ECBF02D0899601D08986ECBD02D036
:1012C000899401D08984ECBB02D0899201D08982B3
:1012D000ECB902D0899001D08980A7B102D0898869
:1012E00001D08998898AC7DC899AECB702D089969F
:1012F00001D08986ECB502D0899401D08984ECB301
:1013000002D0899201D08982ECB102D0899001D0BB
:101310008980A7B102D0898801D08998898AABDCFD
:10132000899AA7A102D096DC01D09EDC1200900E13
:10133000006E430E016E000E026E0E0E0024F66E5D
:10134000000E0120F76E000E0220F86E0900F5CFA6
:1013500003F003C004F00F0E0024F66E000E01200F
:10136000F76E000E0220F86E0900F5CF01F0015073
:10137000035C12E2900E006E430E016E000E026ED0
:101380000F0E0024F66E000E0120F76E000E0220F4
:10139000F86E0900F5CF04F0900E006E430E016E5A
:1013A000000E026E100E0024F66E000E0120F76E85
:1013B000000E0220F86E0900F5CF01F00150045C28
:1013C00012E2900E006E430E016E000E026E100EC1
:1013D0000024F66E000E0120F76E000E0220F86E5B
:1013E0000900F5CF04F004C000F0120013D3610E21
:1013F000006E480E016E000E026EBCEF0EF05F0E26
:10140000006E480E016E000E026EBCEF0EF05D0E17
:10141000006E480E016E000E026EBCEF0EF0670EFD
:10142000006E480E016E000E026EBCEF0EF0650EEF
:10143000006E480E016E000E026EBCEF0EF0630EE1
:10144000006E480E016E000E026EBCEF0EF05B0ED9
:10145000006E480E016E000E026EBCEF0EF0530ED1
:10146000006E480E016E000E026EBCEF0EF0510EC3
:10147000006E480E016E000E026EBCEF0EF04F0EB5
:10148000006E480E016E000E026EBCEF0EF0590E9B
:10149000006E480E016E000E026EBCEF0EF0570E8D
:1014A000006E480E016E000E026EBCEF0EF0550E7F
:1014B000006E480E016E000E026EBCEF0EF07B0E49
:1014C000006E480E016E000E026EBCEF0EF0790E3B
:1014D000006E480E016E000E026EBCEF0EF0770E2D
:1014E000006E480E016E000E026EBCEF0EF06D0E27
:1014F000006E480E016E000E026EBCEF0EF0690E1B
:10150000006E480E016E000E026EBCEF0EF0730E00
:10151000006E480E016E000E026EBCEF0EF06F0EF4
:10152000006E480E016E000E026EBCEF0EF06B0EE8
:10153000006E480E016E000E026EBCEF0EF0A30EA0
:10154000006E480E016E000E026EBCEF0EF0A50E8E
:10155000006E480E016E000E026EBCEF0EF08B0E98
:10156000006E480E016E000E026EBCEF0EF08D0E86
:10157000006E480E016E000E026EFED31B0E006E52
:10158000480E016E000E026EF7D3110E006E480E6B
:10159000016E000E026EF0D3F10E006E470E016E6A
:1015A000000E026EE9D3F30E006E470E016E000EC0
:1015B000026EE2D3390E006E480E016E000E026E0E
:1015C000DBD33B0E006E480E016E000E026ED4D3CC
:1015D000490E006E480E016E000E026ECDD34B0E0A
:1015E000006E480E016E000E026EC6D34D0E006EE8
:1015F000480E016E000E026EBFD3470E006E480EFD
:10160000016E000E026EB8D3350E006E480E016EEC
:10161000000E026EB1D3080E006E470E016E000E72
:10162000026EAAD3BE0E006E470E016E000E026E51
:10163000A3D3610E006E450E016E000E026E9CD3A8
:10164000B20E006E470E016E000E026E95D3040EB0
:10165000006E460E016E000E026E8ED3890E006E75
:10166000480E016E000E026E87D3AD0E006E480E5E
:10167000016E000E026E80D3AB0E006E480E016E3E
:10168000000E026E79D3A90E006E480E016E000E98
:10169000026E72D3B30E006E480E016E000E026E23
:1016A0006BD3AF0E006E480E016E000E026E64D357
:1016B000B10E006E480E016E000E026E5DD3A10EDB
:1016C000006E480E016E000E026E56D39F0E006E25
:1016D000480E016E000E026E4FD39D0E006E480E36
:1016E000016E000E026E48D3A70E006E480E016E0A
:1016F000000E026E41D3A70E006E450E016E000E65
:10170000026E3AD3D20E006E470E016E000E026ECC
:1017100033D3DB0E006E470E016E000E026E2CD32B
:10172000E40E006E470E016E000E026E25D3E10E30
:10173000006E470E016E000E026E1ED3DE0E006EAE
:10174000470E016E000E026E17D3C90E006E470ED3
:10175000016E000E026E10D3C60E006E470E016EB3
:10176000000E026E09D3CF0E006E470E016E000E02
:10177000026E02D3CC0E006E470E016E000E026E9A
:10178000FBD2B60E006E470E016E000E026EF4D252
:10179000BA0E006E470E016E000E026EEDD2C20E42
:1017A000006E470E016E000E026EE6D25E0E006EF7
:1017B000440E016E000E026EDFD2C20E006E440EA9
:1017C000016E000E026ED8D2710E006E480E016ED0
:1017D000000E026ED1D2D70E006E460E016E000EC4
:1017E000026ECAD2400E006E470E016E000E026EEF
:1017F000C3D2C10E006E460E016E000E026EBCD248
:10180000D00E006E460E016E000E026EB5D2720E44
:10181000006E470E016E000E026EAED29D0E006E7F
:10182000450E016E000E026EA7D2750E006E480EB8
:10183000016E000E026EA0D27D0E006E480E016E8B
:10184000000E026E99D27F0E006E480E016E000EE1
:10185000026E92D2810E006E480E016E000E026E74
:101860008BD2FB0E006E450E016E000E026E84D20E
:10187000F20E006E450E016E000E026E7DD21F0E3E
:10188000006E460E016E000E026E76D2160E006ECF
:10189000460E016E000E026E6FD20D0E006E460EE9
:1018A000016E000E026E68D22A0E006E440E016EAA
:1018B000000E026E61D2E00E006E450E016E000E4B
:1018C000026E5AD2CE0E006E450E016E000E026EF2
:1018D00053D2E90E006E450E016E000E026E4CD220
:1018E000C50E006E450E016E000E026E45D2D70E7B
:1018F000006E450E016E000E026E3ED2280E006E86
:10190000460E016E000E026E37D2820E006E460E3B
:10191000016E000E026E30D2790E006E460E016E20
:10192000000E026E29D2940E006E460E016E000E5D
:10193000026E22D28B0E006E460E016E000E026EFB
:101940001BD2AF0E006E460E016E000E026E14D258
:10195000B80E006E460E016E000E026E0DD27E0EA7
:10196000006E470E016E000E026E06D2620E006E11
:10197000470E016E000E026EFFD15E0E006E470E26
:10198000016E000E026EF8D1660E006E470E016EFB
:10199000000E026EF1D16E0E006E470E016E000E4B
:1019A000026EEAD16A0E006E470E016E000E026EE4
:1019B000E3D1860E006E470E016E000E026EDCD182
:1019C000A20E006E470E016E000E026ED5D19E0E65
:1019D000006E470E016E000E026ECED1A60E006E96
:1019E000470E016E000E026EC7D1AE0E006E470E9E
:1019F000016E000E026EC0D1AA0E006E470E016E7F
:101A0000000E026EB9D1B80E006E480E016E000EC7
:101A1000026EB2D10001C751040AD8B4E8D4C7514C
:101A2000050AD8B4ECD4C751060AD8B4F0D4C751CB
:101A3000070AD8B4F4D4C751080AD8B4F8D4C751A7
:101A4000090AD8B4FCD4C7510A0AD8B400D5C75182
:101A50000B0AD8B404D5C7510C0AD8B408D5C7515D
:101A60000D0AD8B40CD5C7510E0AD8B410D5C75139
:101A70000F0AD8B414D5C751100AD8B418D5C75115
:101A8000110AD8B41CD5C751120AD8B420D5C751F1
:101A9000130AD8B424D5C751140AD8B428D5C751CD
:101AA000150AD8B42CD5C751160AD8B430D5C751A9
:101AB000170AD8B434D5C751180AD8B438D5C75185
:101AC000190AD8B43CD5C7511A0AD8B440D5C75161
:101AD0001B0AD8B444D5C7511C0AD8B448D5C7513D
:101AE0001D0AD8B44BD5C7511E0AD8B44ED5C7511C
:101AF0001F0AD8B451D5C751200AD8B454D5C751FC
:101B0000210AD8B457D5C751220AD8B45AD5C751DB
:101B1000230AD8B45DD5C751240AD8B460D5C751BB
:101B2000250AD8B463D5C751260AD8B466D5C7519B
:101B3000270AD8B469D5C751280AD8B46CD5C7517B
:101B4000290AD8B46FD5C7512A0AD8B472D5C7515B
:101B50002B0AD8B475D5C7512C0AD8B478D5C7513B
:101B60002D0AD8B47BD5C7512E0AD8B47ED5C7511B
:101B70002F0AD8B481D5C751300AD8B484D5C751FB
:101B8000310AD8B487D5C751330AD8B48AD5C751DA
:101B9000340AD8B48DD5C751350AD8B490D5C751B9
:101BA000360AD8B493D5C751370AD8B496D5C75199
:101BB000380AD8B499D5C751390AD8B49CD5C75179
:101BC0003A0AD8B49FD5C7513B0AD8B4A2D5C75159
:101BD0003C0AD8B4A5D5C7513D0AD8B4A8D5C75139
:101BE0003E0AD8B4ABD5C7513F0AD8B4AED5C75119
:101BF000400AD8B4B1D5C751410AD8B4B4D5C751F9
:101C0000420AD8B4B7D5C751430AD8B4BAD5C751D8
:101C1000440AD8B4BDD5C751450AD8B4C0D5C751B8
:101C2000460AD8B4C3D5C751470AD8B4C6D5C75198
:101C3000480AD8B4C9D5C751490AD8B4CCD5C75178
:101C40004A0AD8B4CFD5C7514B0AD8B4D2D5C75158
:101C50004C0AD8B4D5D5C7514D0AD8B4D8D5C75138
:101C60004E0AD8B4DBD5C7514F0AD8B4DED5C75118
:101C7000500AD8B4E1D5C751510AD8B4E4D5C751F8
:101C8000520AD8B4E7D5C751530AD8B4EAD5C751D8
:101C9000540AD8B4EDD5C751550AD8B4F0D5C751B8
:101CA000560AD8B4F3D5C751570AD8B4F6D5C75198
:101CB000580AD8B4F9D5C751590AD8B4FCD5C75178
:101CC0005A0AD8B4FFD5C7515B0AD8B402D6C75157
:101CD0005C0AD8B405D6C7515D0AD8B408D6C75136
:101CE0005E0AD8B40BD6C7515F0AD8B40ED6C75116
:101CF000600AD8B411D6C751610AD8B414D6C751F6
:101D0000620AD8B417D6C751630AD8B41AD6C751D5
:101D1000670AD8B41DD6C751680AD8B420D6C751AF
:101D2000690AD8B423D6C7516A0AD8B426D6C7518F
:101D30006B0AD8B429D6C7516C0AD8B42CD6C7516F
:101D40006D0AD8B42FD6C7516E0AD8B432D6C7514F
:101D50006F0AD8B435D6C751700AD8B438D6C7512F
:101D6000710AD8B43BD6C751720AD8B43ED6C7510F
:101D7000730AD8B441D647D6120096D1830E006EAE
:101D8000480E016E000E026E75D2850E006E480E72
:101D9000016E000E026E6ED2870E006E480E016E4E
:101DA000000E026E67D28F0E006E480E016E000E9E
:101DB000026E60D2970E006E480E016E000E026E2B
:101DC00059D2990E006E480E016E000E026E52D26C
:101DD0009B0E006E480E016E000E026E4BD2910EED
:101DE000006E480E016E000E026E44D2930E006E1D
:101DF000480E016E000E026E3DD2950E006E480E2A
:101E0000016E000E026E36D2030E006E480E016E99
:101E1000000E026E2FD2150E006E480E016E000EDF
:101E2000026E28D20B0E006E480E016E000E026E7E
:101E300021D20D0E006E480E016E000E026E1AD2F7
:101E40000F0E006E480E016E000E026E13D2050ECC
:101E5000006E480E016E000E026E0CD2070E006E70
:101E6000480E016E000E026E05D2090E006E480E7D
:101E7000016E000E026EFED1170E006E480E016E4E
:101E8000000E026EF7D1190E006E480E016E000EA4
:101E9000026EF0D1130E006E480E016E000E026E3F
:101EA000E9D1F50E006E470E016E000E026EE2D112
:101EB000060E006E000E016E000E026EDBD1ED0EFE
:101EC000006E470E016E000E026ED4D1EF0E006E52
:101ED000470E016E000E026ECDD1FD0E006E470E54
:101EE000016E000E026EC6D1FF0E006E470E016E2F
:101EF000000E026EBFD1010E006E480E016E000E84
:101F0000026EB8D1F70E006E470E016E000E026E23
:101F1000B1D1F90E006E470E016E000E026EAAD10D
:101F2000FB0E006E470E016E000E026EA3D13D0E39
:101F3000006E480E016E000E026E9CD13F0E006EC8
:101F4000480E016E000E026E95D1410E006E480ED5
:101F5000016E000E026E8ED1370E006E480E016EBD
:101F6000000E026E87D1250E006E480E016E000E27
:101F7000026E80D1270E006E480E016E000E026EBA
:101F800079D11D0E006E480E016E000E026E72D1E8
:101F90001F0E006E480E016E000E026E6BD1210EF8
:101FA000006E480E016E000E026E64D12F0E006EA0
:101FB000480E016E000E026E5DD1310E006E480EAD
:101FC000016E000E026E56D1330E006E480E016E89
:101FD000000E026E4FD1290E006E480E016E000EEB
:101FE000026E48D12B0E006E480E016E000E026E7E
:101FF00041D12D0E006E480E016E000E026E3AD1D8
:10200000230E006E480E016E000E026E33D1370EA5
:10201000006E450E016E000E026E2CD1DA0E006EBF
:10202000440E016E000E026E25D1E60E006E440EC7
:10203000016E000E026E1ED1F20E006E440E016E95
:10204000000E026E17D16B0E006E440E016E000E74
:10205000026E10D10A0E006E450E016E000E026E69
:1020600009D1890E006E450E016E000E026E02D17E
:10207000CE0E006E440E016E000E026EFBD0E50E19
:10208000006E430E016E000E026EF4D0F30E006E71
:10209000430E016E000E026EEDD0B90E006E480EBA
:1020A000016E000E026EE6D00001C751040AD8B4DA
:1020B00065D6C751050AD8B468D6C751060AD8B440
:1020C0006BD6C751070AD8B46ED6C751080AD8B420
:1020D00071D6C751090AD8B474D6C7510A0AD8B400
:1020E00077D6C7510B0AD8B47AD6C7510C0AD8B4E0
:1020F0007DD6C7510D0AD8B480D6C7510E0AD8B4C0
:1021000083D6C7510F0AD8B486D6C751100AD8B49F
:1021100089D6C751110AD8B48CD6C751120AD8B47F
:102120008FD6C751130AD8B492D6C751140AD8B45F
:1021300095D6C751150AD8B498D6C751160AD8B43F
:102140009BD6C751170AD8B49ED6C751180AD8B41F
:10215000A1D6C751190AD8B4A4D6C7511A0AD8B4FF
:10216000A7D6C7511B0AD8B4AAD6C7511C0AD8B4DF
:10217000ADD6C7511D0AD8B4B0D6C7511E0AD8B4BF
:10218000B3D6C7511F0AD8B4B6D6C751200AD8B49F
:10219000B9D6C751210AD8B4BCD6C751220AD8B47F
:1021A000BFD6C751230AD8B4C2D6C751240AD8B45F
:1021B000C5D6C751250AD8B4C8D6C751260AD8B43F
:1021C000CBD6C751270AD8B4CED6C7512D0AD8B41A
:1021D000D1D6C7512E0AD8B4D4D6C7512F0AD8B4F5
:1021E000D7D6C751300AD8B4DAD6C751310AD8B4D5
:1021F000DDD6C751330AD8B4E0D6C751340AD8B4B3
:10220000E3D6C751350AD8B4E6D6C751360AD8B492
:10221000E9D6C751370AD8B4ECD6C751380AD8B472
:10222000EFD6C751590AD8B4F2D6C7515A0AD8B412
:10223000F5D6C7515B0AD8B4F8D6C7515C0AD8B4F2
:10224000FBD6C7515E0AD8B4FED6C7515F0AD8B4D0
:1022500001D7C751600AD8B404D7C751610AD8B4AE
:1022600007D7C751620AD8B40AD7C751630AD8B48E
:102270000DD713D71200200E0001AC5D03E360B24E
:1022800001D002D0006A3ED0ADC0ECF0AEC0EDF09F
:102290008FEC08F0005235E1EBC0ECF0010EED6F71
:1022A000E8C0EEF0E9C0EFF0EAC0F0F0FFEC07F0B4
:1022B00000C0ADF001C0AEF0BF6BC06BC16BC26BB4
:1022C000ADC0ECF0AEC0EDF08FEC08F0005210E0C5
:1022D000010E016E0150000A02E106EC07F0000158
:1022E000BF51C011C111C21102E0006A0BD0E8D782
:1022F000010EAD25E96E000EAE21EA6EEECF00F0C4
:1023000001D0006A12000001AC51000A0CE1606AC1
:10231000646A4BEC05F0A4EC08F060B602D060866D
:10232000FCD7010EAC6F1200606A646A0001AC6BEE
:1023300012000001A791E8C0ECF058EC09F0A78169
:10234000120097EC09F000C0E8F0670E0001EC6F96
:10235000430EED6F000EEE6FA9EC08F000C0E9F03F
:10236000E851005C03E2E8C000F002D0E9C000F0F0
:102370001200086A080E0C6E003408360450085E1D
:10238000D8B002D00826D89000360C2EF5D712000F
:10239000D8DF00C078F0010E6F6FE2C070F0E3C0CC
:1023A00071F0E4C072F0E5C073F0C7EC06F0010E06
:1023B000016E0150010A01E1A6DF12000001C951BE
:1023C000000A01E10ED0C951FF0A01E10AD08B9247
:1023D000C9C0CAF0A40ED76E720ED66EF294F28AFD
:1023E000D58E1200A1DF1200E2C004F0E3C005F0B8
:1023F00004C0E9FF05C0EAFFEE5203E0044A052AE3
:10240000F7D70001E651E71121E004C002F005C052
:1024100003F0044A052AE4C000F0E5C001F0E44BF3
:10242000E52B00C0E9FF01C0EAFF02C0E1FF03C0E5
:10243000E2FFEECFE6FF02C0E9FF03C0EAFFEE5283
:1024400005E0010EE65F000EE75BDBD7000EE71943
:1024500002E1000EE61905E104C0E1FF05C0E2FF5C
:10246000E66AE2C000F0E3C001F01200F00E0001E5
:10247000E215026E02C000F00032009E0032009EA3
:102480000032009E0032009EA20E0024F66E430E23
:10249000F76E000EF722000EF86E000EF82209000B
:1024A000F5CF00F0E3C0E1FFE4C0E2FF00C0E6FFCB
:1024B000E34BE42B0F0EE215006EA20E0024F66E25
:1024C000430EF76E000EF722000EF86E000EF82293
:1024D0000900F5CF00F0E3C0E1FFE4C0E2FF00C077
:1024E000E6FF12000001E56B030EE55D0AE2E5512F
:1024F000E325E16E000EE421E26E200EE66EE52B90
:10250000F3D7E551E325E16E000EE421E26EE66AC1
:10251000E507E551E325E66F000EE421E76F0A0EBB
:10252000046EE2C000F025DF08C000F0300E002687
:10253000E6C0E1FFE7C0E2FF00C0E6FF0A0E046E5E
:10254000E2C000F016DF00C0E2F00050000A01E136
:1025500002D0E507DED71200E2C0E8F0E3C0E9F000
:10256000E4C0EAF0010E0001EB6F85DE1200E2C06C
:1025700004F0E3C005F004C0E9FF05C0EAFFEE5235
:1025800003E0044A052AF7D704C002F005C003F0AF
:10259000044A052AE4C000F0E5C001F00001E44B64
:1025A000E52B00C0E9FF01C0EAFF02C0E1FF03C064
:1025B000E2FFEECFE6FF02C0E9FF03C0EAFFEE5202
:1025C00001E0E2D7E2C000F0E3C001F012007D0EAE
:1025D000056E000E066E05C003F006C004F0054A45
:1025E000062AE2C000F0E3C001F0E4C002F0010EF0
:1025F0000001E227000EE323E42300C0F6FF01C040
:10260000F7FF02C0F8FF0900F5CF00F003C0E1FFBB
:1026100004C0E2FF00C0E6FF03C0E9FF04C0EAFF18
:10262000EE5201E0D8D77D0E006E000E016E120052
:1026300010D0800E0001E26F1AD0C00EE26F17D0EA
:10264000940EE26F14D0D40EE26F11D0800EE26FC0
:102650000ED00001E251010AECE0E251020AEDE085
:10266000E251030AEDE0E251040AEDE0EFD7E305A1
:10267000006EE251002600C0E2F000C0ECF058EC21
:1026800009F0A791E66BE651E425E96E000EE5211D
:10269000EA6EEE520BE0E651E425E96E000EE5210C
:1026A000EA6EEECFE8F045DEE62BEDD7A78112000B
:1026B000E2C004F0E3C005F004C002F005C003F07E
:1026C000044A052AE4C000F0E5C001F00001E44B33
:1026D000E52B00C0E9FF01C0EAFF02C0E1FF03C033
:1026E000E2FFEECFE6FF02C0E9FF03C0EAFFEE52D1
:1026F00001E0E2D7E2C000F0E3C001F01200C7C081
:10270000E2F0C8C0E3F0F00E0001C815E46FE7D2B4
:10271000F6EC09F000C03EF001C03FF002C040F00E
:102720000001C8A321D0BDEC0EF000C041F001C0F3
:1027300042F002C043F000C0F6FF01C0F7FF02C044
:10274000F8FF0900F5CF00F0005207E041C000F0AB
:1027500042C001F043C002F0D3D23EC000F03FC0FF
:1027600001F040C002F0CCD23EC000F03FC001F00A
:1027700040C002F0C5D21CD04D0E006E450E016E59
:10278000000E026EBDD2200E006E470E016E000ECE
:10279000026EB6D23B0E006E470E016E000E026E48
:1027A000AFD2B50E006E480E016E000E026EA8D2BA
:1027B0000001E351100A02E1810EE219DDE0E3516C
:1027C000100A02E1820EE219DEE0E351100A02E192
:1027D000830EE219DFE0E5D70AD1450E006E470E01
:1027E000016E000E026E8CD2B10E006E450E016EAF
:1027F000000E026E85D2FA0E006E460E016E000EBD
:10280000026E7ED2F30E006E460E016E000E026E58
:1028100077D2010E006E470E016E000E026E70D26E
:10282000DE0E006E460E016E000E026E69D2930E31
:10283000006E450E016E000E026E62D2E50E006E55
:10284000460E016E000E026E5BD2EC0E006E460E5E
:10285000016E000E026E54D27A0E006E470E016EAB
:10286000000E026E4DD2820E006E470E016E000EFB
:10287000026E46D2430E006E480E016E000E026ECE
:102880003FD2450E006E480E016E000E026E38D229
:102890008E0E006E470E016E000E026E31D2EA0EF1
:1028A000006E470E016E000E026E2AD2E70E006E19
:1028B000470E016E000E026E23D28A0E006E470E86
:1028C000016E000E026E1CD29A0E006E470E016E53
:1028D000000E026E15D2540E006E470E016E000EF1
:1028E000026E0ED2140E006E470E016E000E026EC6
:1028F00007D2960E006E470E016E000E026E00D2D9
:10290000590E006E470E016E000E026EF9D14A0E8E
:10291000006E470E016E000E026EF2D14F0E006E79
:10292000470E016E000E026EEBD1510E006E440E8A
:10293000016E000E026EE4D1B60E006E440E016E02
:10294000000E026EDDD10E0E006E470E016E000EFF
:10295000026ED6D1420E006E450E016E000E026E62
:10296000CFD1700E006E460E016E000E026EC8D101
:10297000AA0E006E440E016E000E026EC1D1210E31
:10298000006E450E016E000E026EBAD1670E006E2B
:10299000460E016E000E026EB3D13A0E006E460E68
:1029A000016E000E026EACD1310E006E460E016E4D
:1029B000000E026EA5D14C0E006E460E016E000E8A
:1029C000026E9ED19E0E006E440E016E000E026ECF
:1029D00097D10F0E006E440E016E000E026E90D164
:1029E000BA0E006E480E016E000E026E89D1E351E0
:1029F000200A02E1400EE219D8B4EFD6E351200AD2
:102A000002E1410EE219D8B4EFD6E351200A02E107
:102A1000420EE219D8B4EFD6E351200A02E1430E88
:102A2000E219D8B4EFD6E351200A02E1440EE219CC
:102A3000D8B4EFD6E351200A02E1450EE219D8B42A
:102A4000EFD6E351200A02E1460EE219D8B4EFD6E0
:102A5000E351200A02E1470EE219D8B4EFD6E35160
:102A6000200A02E1480EE219D8B4EFD6E351200A59
:102A700002E19C0EE219D8B4EFD6E351200A02E13C
:102A80009D0EE219D8B4EFD6E351200A02E1B00E50
:102A9000E219D8B4EFD6E351200A02E1B10EE219EF
:102AA000D8B4EFD6E351200A02E1B20EE219D8B44D
:102AB000EFD6E351200A02E1B30EE219D8B4EFD603
:102AC000E351200A02E1B40EE219D8B4EFD6E35183
:102AD000200A02E1B50EE219D8B4EFD6E351200A7C
:102AE00002E1B60EE219D8B4EFD6E351200A02E1B2
:102AF000B70EE219D8B4EFD6E351200A02E1B80EBE
:102B0000E219D8B4EFD6E351200A02E1CD0EE21962
:102B1000D8B4EFD6E351200A02E1E20EE219D8B4AC
:102B2000EFD6E351200A02E1E90EE219D8B4EFD65C
:102B3000E351200A02E1EA0EE219D8B4EFD6E351DC
:102B4000210A02E1830EE219D8B4EFD6E351210A3B
:102B500002E1850EE219D8B4EFD6E351210A02E171
:102B60008A0EE219D8B4EFD6E351210A02E1920E9F
:102B7000E219D8B4EFD6E351210A02E1940EE2192A
:102B8000D8B4EFD6E351210A02E1960EE219D8B487
:102B9000EFD6E351220A02E1210EE219D8B4EFD6B2
:102BA000E351220A02E1230EE219D8B4EFD6E35131
:102BB000220A02E1240EE219D8B4EFD6E351220A28
:102BC00002E1250EE219D8B4EFD6E351220A02E160
:102BD000260EE219D8B4EFD6E351220A02E1270EFD
:102BE000E219D8B4EFD6E351220A02E12A0EE21923
:102BF000D8B4EFD6F5D64DD0920E006E440E016ECD
:102C0000000E026E7DD0370E006E440E016E000E77
:102C1000026E76D0440E006E440E016E000E026EFF
:102C20006FD0430E006E460E016E000E026E68D02D
:102C30006B0E006E450E016E000E026E61D0A60E88
:102C4000006E460E016E000E026E5AD0FE0E006E31
:102C5000440E016E000E026E53D07F0E006E450EC4
:102C6000016E000E026E4CD09D0E006E460E016E7F
:102C7000000E026E45D0160E006E450E016E000E5F
:102C8000026E3ED0B60E006E480E016E000E026E51
:102C900037D0C751000AB0E0C751010AB4E0C751AC
:102CA000020AB8E0C751030ABCE0C751040AC0E0F9
:102CB000C751050AC4E0C751060AC8E0C751080A4F
:102CC000CCE0C751070AD0E0C7510A0AD4E0DAD7EE
:102CD000B70E006E480E016E000E026E11D0E45168
:102CE000000AD8B415D5E451100AD8B444D5E4513B
:102CF000200AD8B471D5E451F00AD8B47CD7E8D70B
:102D00001200DEEC11F0B30EE26F430EE36F000E23
:102D1000E46F5DDC00C0E4F001C0E5F0020EE26F9C
:102D2000010EE36F85DC4B0E0501086F096B0A6B22
:102D30000B6B0001CE91CEB153D0000EE26F050EA9
:102D4000E36F080EE46F050EE56FC8EC11F0E06B61
:102D5000CEB132D0320EE05D2FE28B80020E0B6ED0
:102D6000860E0C6E990E0D6E0D2EFED70C2EFCD716
:102D70000B2EFAD78B90020E0B6E860E0C6E990EF0
:102D80000D6E0D2EFED70C2EFCD70B2EFAD7080E8B
:102D9000E26F050EE36F040EE46FACEC12F000502E
:102DA000000A000ED8A4010E016E01B002D0CE912F
:102DB00001D0CE81E02BCCD7CEB111D0DEEC11F01A
:102DC000F2EC11F0990E0B6E310E0C6EA20E0D6E20
:102DD0000D2EFED70C2EFCD70B2EFAD70000ABD74A
:102DE000780EE26F440EE36F000EE46FE7EC12F032
:102DF00000C0E4F001C0E5F0020EE26F010EE36FE7
:102E000017DC120008D08B82D59E0DD08B92D59EF8
:102E10000AD0D58E08D00001C951000AF4E0C9518A
:102E2000FF0AF4E0F6D71200F2EC11F0850EE26F23
:102E3000440EE36F000EE46FE7EC12F000C0E4F024
:102E400001C0E5F0020EE26F010EE36F18EC13F023
:102E5000CE911200010E0001EC6F58EC09F0C8C0D1
:102E6000E2F0450EE36F000EE46F36EC12F0200E38
:102E7000476E486AF00EC815E16FD1D0CEA913D0C5
:102E8000550EE26F460EE36F000EE46FE7EC12F0B2
:102E900000C0E4F001C0E5F0450EE26F000EE36F04
:102EA000B7EC12F082D00F0EC815E06F77D05E0E2F
:102EB000E26F460EE36F000EE46FE7EC12F000C025
:102EC000E4F001C0E5F0450EE26F000EE36FB7ECF1
:102ED00012F06BD0BB0EE26F450EE36F000EE46F95
:102EE000E7EC12F000C0E4F001C0E5F0450EE26F3F
:102EF000000EE36FB7EC12F058D0C8A712D02C0E1A
:102F0000E26F470EE36F000EE46FE7EC12F000C0D3
:102F1000E4F001C0E5F0450EE26F000EE36FB7ECA0
:102F200012F0C8A112D0310EE26F470EE36F000E0F
:102F3000E46FE7EC12F000C0E4F001C0E5F0450EEC
:102F4000E26F000EE36FB7EC12F0C8A512D0360E98
:102F5000E26F470EE36F000EE46FE7EC12F000C083
:102F6000E4F001C0E5F0450EE26F000EE36FB7EC50
:102F700012F0C8A312D0260EE26F470EE36F000EC8
:102F8000E46FE7EC12F000C0E4F001C0E5F0450E9C
:102F9000E26F000EE36FB7EC12F007D0E051000AC9
:102FA00086E0E0510F0A96E0A8D747D0C90EE26F3D
:102FB000460EE36F000EE46FE7EC12F000C0E4F0A1
:102FC00001C0E5F0450EE26F000EE36FB7EC12F0C2
:102FD00034D01D0EE26F440EE36F000EE46FE7EC99
:102FE00012F000C0E4F001C0E5F0450EE26F000E03
:102FF000E36FB7EC12F021D0010EE26F440EE36FE5
:10300000000EE46FE7EC12F000C0E4F001C0E5F060
:10301000450EE26F000EE36FB7EC12F00ED0E151F7
:10302000000AD8B42BD7E151100AC0E0E151200AC0
:10303000D0E0E151F00AE0E0F1D7CEA913D0D50EEF
:10304000E26F430EE36F000EE46FE7EC12F000C096
:10305000E4F001C0E5F05E0EE26F000EE36F58ECA5
:1030600013F0ACD0CEA51ED0CCC0E2F05E0EE36F64
:10307000000EE46F36EC12F0200E606F616B750E7F
:10308000E26F450EE36F000EE46FE7EC12F000C054
:10309000E4F001C0E5F05E0EE26F000EE36FB7EC06
:1030A00012F08CD0CEAB67D0CBC0E2F05E0EE36FF7
:1030B000000EE46F36EC12F0200E606F616BD50EDF
:1030C000E26F470EE36F000EE46FE7EC12F000C012
:1030D000E4F001C0E5F05E0EE26F000EE36FB7ECC6
:1030E00012F041D0920EE26F470EE36F000EE46FD4
:1030F000E7EC12F000C0E4F001C0E5F05E0EE26F14
:10310000000EE36FB7EC12F035D0D80EE26F470E29
:10311000E36F000EE46FE7EC12F000C0E4F001C0D2
:10312000E5F05E0EE26F000EE36FB7EC12F022D016
:10313000CBC0E2F0630EE36F000EE46F72EC12F0AE
:103140001A0EE26F470EE36F000EE46FE7EC12F029
:1031500000C0E4F001C0E5F05E0EE26F000EE36F28
:10316000B7EC12F007D0CB51000ABCE0CB51FF0AFC
:10317000CCE0DED723D0C7C0E2F05E0EE36F000ED6
:10318000E46F36EC12F0200E606F616B7FEC13F091
:1031900000C0E2F001C0E3F002C0E4F0E7EC12F09E
:1031A00000C0E4F001C0E5F05E0EE26F000EE36FD8
:1031B0000D0EE66F000EE76FF4EC11F0010EE26FFA
:1031C000010EE36F450EE46F000EE56F18EC13F08F
:1031D000020EE26F010EE36F5E0EE46F000EE56F0C
:1031E00018EC13F01200C8C000F00032009E00324C
:1031F000009E0032009E0032009E0001DF5100263A
:103200000F0E0014036E0F0EC815026E03C000F0FF
:103210000036009000360090003600900036009096
:103220000250001200C0C8F0120081BC02D0D88049
:1032300001D0D890000ED8B0010E006E120081BEF1
:1032400002D0D88001D0D890000ED8B0010E006E08
:1032500012000001DF51CB2712009494BA840C0EA7
:10326000BD1212009484BA94F00EBD161200000133
:10327000DF51CC2712000001CEA11FD0530E050153
:10328000086FC7C009F5080E0001E26F050EE36F75
:10329000020EE46FACEC12F0005201E1F4D705012C
:1032A000096B080E0001E26F050EE36F020EE46F7A
:1032B000ACEC12F0005201E1F4D712000001CEA1F3
:1032C00023D04B0E0501086FC8C009F50A6BC7C0B3
:1032D0000BF5080E0001E26F050EE36F040EE46FBC
:1032E000ACEC12F0005201E1F4D70501096B0B6B55
:1032F000080E0001E26F050EE36F040EE46FACEC04
:1033000012F0005201E1F4D7120046D0828C080E70
:103310000B6E9D0E0C6E050E0D6E0D2EFED70C2E37
:10332000FCD70B2EFAD700000000829C52D0828E70
:10333000080E0B6E9D0E0C6E050E0D6E0D2EFED73B
:103340000C2EFCD70B2EFAD700000000829E41D035
:10335000808C080E0B6E9D0E0C6E050E0D6E0D2EE4
:10336000FED70C2EFCD70B2EFAD700000000809C55
:1033700030D05ADDC6DC2DD0C96B44DD2AD0FF0E1B
:103380000001C96F3FDD25D00001CE9D63DD21D056
:10339000CE8D1FD01ED01DD00001C751010AB6E04E
:1033A000C751020AC4E0C7510A0AD2E0C751030A52
:1033B000E0E0C751040AE0E0C751050AE0E0C75168
:1033C000080AE2E0C751070AE3E0C751000AE2E059
:1033D000E2D712000001CEA125D0430E0501086FEF
:1033E000C7C009F50F0E0001C81505010A6F080EC8
:1033F0000001E26F050EE36F030EE46FACEC12F018
:10340000005201E1F4D70501096B0A6B080E0001B7
:10341000E26F050EE36F030EE46FACEC12F00052A6
:1034200001E1F4D71200A6A202D00000FCD7A69CAE
:10343000DDC0A9FFDEC0A8FFA69EA684F2CF00F0E3
:10344000F29E550EA76EAA0EA76EA68200BE02D0EF
:10345000F29E01D0F28EA6941200A69CDDC0A9FFB8
:10346000A69EA680A8CF00F012002C6A5D6A5C6A56
:10347000010E2F24006E000E3020016E00C02FF0D0
:1034800001C030F01200F250026EF29E0500FF6A99
:103490000150FE6E0050FD6E02BEF28E1200000E54
:1034A0000001C715026EC851F00B036EFF0EC71561
:1034B000006EC8510F0B016EDD510026000EDDBFFE
:1034C000FF0E0122FF0E00160F0E01160250001211
:1034D0000350011200C0C7F001C0C8F01200100E66
:1034E0002D6E270E2E6E8B80F00E0001C815DD6F3D
:1034F00009D0E4DE15D0BFDE13D06CDF11D005DFBC
:103500000FD00ED00001DD51000AF3E0DD51100AAA
:10351000F2E0DD51200AF1E0DD51F00AF0E0F1D7F0
:1035200012000001DD6B060EDD5D1BE2560EE96E3A
:10353000000EEA6EDD51E926D8B0EA2AEECFE2F0BD
:10354000DDC000F0000E016E003601360090450E21
:103550000024E36F000E0120E46F36EC12F0DD2B47
:10356000E2D730C0E2F0510EE36F000EE46F36ECAC
:1035700012F02FC0E2F0530EE36F000EE46F36EC52
:1035800012F0556AC7C0E2F05E0EE36F000EE46F02
:1035900036EC12F0200E606F2CC0E2F0610EE36F8B
:1035A000000EE46F36EC12F05DC0E2F0630EE36FE4
:1035B000000EE46F36EC12F0200E636F5CC0E2F098
:1035C000650EE36F000EE46F36EC12F02E0E656FA1
:1035D000200E676F2AC0E2F0680EE36F000EE46F02
:1035E00036EC12F029C0E2F06A0EE36F000EE46FD1
:1035F00036EC12F0200E6C6F2BA003D0750E6D6FA1
:1036000002D0640E6D6F6E6B2F6A306A010EEC6F24
:1036100058EC09F0010EE26F010EE36F450EE46F06
:10362000000EE56F18EC13F0020EE26F010EE36F6F
:103630005E0EE46F000EE56F18EC13F012000DDE65
:10364000050E0C6EAB0E0D6E0D2EFED70C2EFCD79C
:103650000000000007DE1200929A929892909292D7
:1036600092949296899A8998899689948992899058
:103670002AEC06F02AEC06F02AEC06F08982898012
:10368000898A3BEC06F0899A2AEC06F0898A3BECA1
:1036900006F0899A2AEC06F0898A3BEC06F0899AB2
:1036A0002AEC06F08990898A3BEC06F0899A2AEC8C
:1036B00006F0898A3BEC06F0899A89928986898A84
:1036C0003BEC06F0899A2AEC06F089968980898A73
:1036D0003BEC06F0899A8990898A3BEC06F0899A3E
:1036E0002AEC06F0898A3BEC06F0899A8980898A5F
:1036F0003BEC06F0899A2AEC06F08990898A3BEC2B
:1037000006F0899A8986898489828980898A3BEC36
:1037100006F0899A2AEC06F00001A7811200080E33
:103720000001D56FD55100081BE289DFD4AF0AD064
:103730000D0E0C6EDA0E0D6E0D2EFED70C2EFCD774
:1037400000000AD0050E0C6EAB0E0D6E0D2EFED7CE
:103750000C2EFCD700000000D437D491D507E2D757
:103760001200A090120056500001CC1904E05650EF
:10377000FF0A01E021D057505618006E01E11CD01D
:1037800059505818006E01E117D05B505A18006E5E
:1037900001E112D058C001F0006A5A500012000E28
:1037A000011200C0C7F001C0C8F0CEAD02D0B9DE32
:1037B00002D02AEC17F093DE1200010E0001DD6F3B
:1037C000C9C0DEF030DE02EC17F01200D7C0E1FF16
:1037D000D8C0E2FFD4C0E6FFD5C000F0D6C001F0EB
:1037E00052DE2AEC17F0D9C000F0DAC001F04BDE4F
:1037F00000521DE00001CEA319D0800E006E800E95
:10380000CDBF7F0E005C02E1CD5100080FE3D7C0B1
:10381000E1FFD8C0E2FFD4C0E6FFD5C000F0D6C0BB
:1038200001F031DE2AEC17F0CE93CD6BDCD712001D
:10383000D4C0DDF034DE2AEC17F0020E446ED5C0A1
:1038400000F0D6C001F01FDE005234E00001CEA32C
:1038500030D0800E006E800ECDBF7F0E005C02E186
:10386000CD51000826E344064450000A20E1D4C0AC
:10387000DDF015DE7FEC13F000C0F6FF01C0F7FFAE
:1038800002C0F8FF0900F5CF01F00150000A0BE17A
:103890000F0E0001C715016E0150000A04E0D4C0EC
:1038A000DDF0FDDDE7D72AEC17F0020E446ECE9373
:1038B000CD6BC5D71200480E0001EC6F58EC09F033
:1038C000E86B99EC11F0040EE86F99EC11F00A0E18
:1038D000E86F99EC11F0150EE86F99EC11F0040EF9
:1038E000E86F99EC11F0040EE86F99EC11F0E86BB9
:1038F00099EC11F0E86B99EC11F0E86B99EC11F090
:10390000040EE86F99EC11F0040EE86F99EC11F0D9
:10391000150EE86F99EC11F00A0EE86F99EC11F0B2
:10392000040EE86F99EC11F0E86B99EC11F0E86B7C
:1039300099EC11F0E86B99EC11F0040EE86F99EC3A
:1039400011F0020EE86F99EC11F01D0EE86F99EC82
:1039500011F0020EE86F99EC11F0040EE86F99EC8B
:1039600011F0E86B99EC11F0E86B99EC11F0E86B51
:1039700099EC11F0040EE86F99EC11F0080EE86F65
:1039800099EC11F0170EE86F99EC11F0080EE86F42
:1039900099EC11F0040EE86F99EC11F0E86B99ECDA
:1039A00011F0E86B99EC11F0E86B99EC11F0E86B11
:1039B00099EC11F0090EE86F99EC11F0150EE86F13
:1039C00099EC11F0120EE86F99EC11F0E86B99EC9C
:1039D00011F0E86B99EC11F0E86B99EC11F01B0E0B
:1039E000E86F99EC11F01B0EE86F99EC11F01B0ECB
:1039F000E86F99EC11F01B0EE86F99EC11F01B0EBB
:103A0000E86F99EC11F01B0EE86F99EC11F01B0EAA
:103A1000E86F99EC11F0E86B99EC11F0E86B99EC18
:103A200011F0100EE86F99EC11F0080EE86F99ECA8
:103A300011F0040EE86F99EC11F0020EE86F99ECAA
:103A400011F0010EE86F99EC11F0E86B99EC11F0B0
:103A5000E86B99EC11F0020EEC6F58EC09F01200D3
:103A6000A090A190040E976ECF6ACE6AFEDCA08073
:103A70001200010E0001DD6FF0DC00C0C9F002ECA5
:103A800017F012005C2A5C50070811E25C6A560EBF
:103A9000E16E000EE26E5D50E126D8B0E22A3DC034
:103AA000E6FF5D2A060E5D5C02E3030E2C6E12003B
:103AB000BB50010F006E016A000E0122D4C004F059
:103AC000000E056EEBEC00F0060E026E00C004F076
:103AD00001C005F0025005E005320432059EFF0FDB
:103AE000FAD7040E016E04C000F0015004E0003665
:103AF0000090FF0FFBD7300E0014036E04C000F0DF
:103B000005C001F001320032019E01320032019EF7
:103B100000C0BEFF0F0EBD160350BD121200BE6ADC
:103B2000BD98BD9A120074D02A50020802E12950B3
:103B30000D08010ED8B0000E016E030E2A5C02E1E2
:103B4000CF0E295C010ED8B0000E006E0050011699
:103B5000006A2BB0002A0150001603E0010E2C6E03
:103B600001D083DC63D02BB002D0028001D0029060
:103B7000000E016E2A50015C02E12950E108010E9D
:103B8000D8B0000E016E020E2A5C02E1A30E295C81
:103B9000010ED8B0000E006E00500116006A02B08F
:103BA000002A0150001603E0020E2C6E01D05DDCED
:103BB0003DD02BA008D02A50020802E12950A308CA
:103BC00001E253DC20D02A50050802E12950B60852
:103BD00002E24BDC18D02A50030802E12950F40815
:103BE00005E23D363D903D804DDF0DD0000E006E6C
:103BF0002A50005C02E12950E10804E23D363D9084
:103C000041DF01D032DC12D0ACDDADDD29DF0ED0DA
:103C10002C50000AD8B488D72C50010AA4E02C50AC
:103C2000020AC7E02C50030AEFE0F1D712000001AE
:103C3000CEA514D0CFC0D4F06E0ED56F320ED66F95
:103C4000DF0ED76F000ED86FD0C0D9F0D1C0DAF038
:103C5000D2C0DBF0D3C0DCF0B9DD39D00001CEAB8F
:103C600014D0CFC0D4F0520ED56F320ED66FDF0E07
:103C7000D76F000ED86FD0C0D9F0D1C0DAF0D2C063
:103C8000DBF0D3C0DCF0A2DD22D00001CEA914D03D
:103C9000CFC0D4F0E60ED56F310ED66FDF0ED76FE2
:103CA000000ED86FD0C0D9F0D1C0DAF0D2C0DBF0AE
:103CB000D3C0DCF08BDD0BD0CFC0D4F0D0C0D5F0BA
:103CC000D1C0D6F0D2C0D7F0D3C0D8F0B1DD120049
:103CD0000001AC51010A07E160BA05D0656A648051
:103CE0006488020EAC6F65A406D064A404D0FB0EF9
:103CF0006516BFEC06F060A203D028EC06F0DCD01D
:103D000065A019D064A017D0C7EC06F0040EAC6F04
:103D1000200E0201026F020E036F080E016F000EEB
:103D20000015006E00C000F28C0E0011006E00C085
:103D300000F2FE0E651665A806D064A804D095ECC6
:103D400006F0EF0E651665AC04D064AC02D0BF0E71
:103D5000651665AA04D064AA02D00AEC06F065A232
:103D600002D064B2676A040E0001AC5D03E228EC85
:103D700006F0A2D064A69ED0F36B040EF35DD8B01B
:103D800099D065A694D061CFA0F0F70E6516780E95
:103D9000A015016E0150000AD8A488D0FD0EA01510
:103DA000016E026AFF0E0216000E021802E1000EFA
:103DB00001186DE17E0EA015016E01C003F0033203
:103DC000039E03C000F0000E016E00360090013625
:103DD000003600900136000E0024026E020E012013
:103DE000036E02C074F003C075F002C076F003C029
:103DF00077F0040E7619006E00C076F002C0E9FF7D
:103E000003C0EAFFEECF00F000C001F03C0E011647
:103E10000132019E0132019E01500D0A35E1020E70
:103E20007425E96E000E7521EA6EEECF01F0EECF3B
:103E300002F00250020A02E1280E011822E1020EED
:103E40007425E16E000E7521E26E200EE66E020E04
:103E5000E66EF26B080EF25D14E2200EE16E020EC9
:103E6000E26EF251E126D8B0E22A280EE96E020E87
:103E7000EA6EF251E926D8B0EA2AEECFE6FFF22B3D
:103E8000E9D7F3EC05F002D09AEC06F00ED0FD0E67
:103E9000A015016E026AFF0E0216000E021802E162
:103EA000040E011802E142EC06F000D001D002D06D
:103EB000F32B63D728EC06F012000900F5CFE6FFDC
:103EC0000006FBE10106F9E11200720ED36EB59E09
:103ED000B588B58E0001CE6BCF6B060ECF5D0BE2C1
:103EE000560EE16E000EE26ECF51E126D8B0E22A06
:103EF000E66ACF2BF2D7C76BC86B62886284070E65
:103F0000D56EB10ECD6EB00EB16EF28EF28CF19E0A
:103F10000F015B6B5C6B5D6BBF0E926EFF0E936E61
:103F2000380E946E896A8A6A8B6ABA90BA929C0E2D
:103F3000BB6EF5DD800E0001D46FBADD2CEC1BF0FA
:103F4000BADC010EEC6F58EC09F00C0EEC6F58EC7B
:103F500009F02C0EE26F450EE36F000EE46FE7EC04
:103F600012F000C0E4F001C0E5F0010EE26F010EB6
:103F7000E36F18EC13F0F70E8114006EF70E001AC1
:103F800000521AE0C40EE26F430EE36F000EE46FBE
:103F9000E7EC12F000C0E4F001C0E5F0020EE26FC1
:103FA000010EE36F18EC13F0F70E8114006EF70E9C
:103FB000001A005201E0F8D7A082DD6B2DEC1AF058
:103FC00000C0CCF056DD4CDD12008B80B1EC1BF054
:103FD000CCC056F00001CC1D006E00C057F0C8C028
:103FE00058F0C81D006E00C059F0C7C05AF0C71D78
:103FF000006E00C05BF02DEC19F0080E0C6EC90EBF
:104000000D6E0D2EFED70C2EFCD70000000032ECFA
:1040100019F0050E0C6EAB0E0D6E0D2EFED70C2E8C
:10402000FCD700000000CF6B060ECF5D0EE2560EEF
:10403000E96E000EEA6ECF51E926D8B0EA2AEECF3B
:10404000D4F08FEC1BF0CF2BEFD71FEC1BF0040E3E
:104050000B6E0C0E0C6E330E0D6E0D2EFED70C2E4D
:10406000FCD70B2EFAD700000000FADC8B90120070
:104070000001C87181B216D0CEA313D0800E006E9D
:10408000800ECDBF7F0E005C02E1CD51000809E338
:10409000C871C8772AEC17F081B201D0FDD7CE9352
:1040A000CD6BE8D72AEC17F012000001CEA905D09D
:1040B00081BA01D0FDD7CE9954D0F00EC815016E4B
:1040C0000150F00A37E181BA01D0FDD724D0CE7576
:1040D000CEA501D005D0DD6BCCC0DEF013EC1AF01C
:1040E00028D00001CE7BCEAB03D0C9C0CBF004D02A
:1040F000CBC0C9F0DDEC1BF01CD00001C96BDDECBE
:104100001BF017D0FF0E0001C96FDDEC1BF011D0C2
:104110006FEC1AF00ED00001C751000AD8E0C75169
:10412000060ADFE0C751040AE8E0C751050AEAE0E1
:10413000EFD717D06FEC1AF081BA13D00001CEA3DD
:104140000FD0800E006E800ECDBF7F0E005C02E1AE
:10415000CD51000805E36FEC1AF00001CE93CD6B52
:10416000EBD712000001C87381B81ED0CEA31BD0BC
:10417000800E006E800ECDBF7F0E005C02E1CD513F
:10418000000811E3CEB90DD0000EC715006EC8515E
:10419000F00B016E00C0C7F001C0C8F0CE892AEC58
:1041A00017F0CE93CD6BE0D72AEC17F012008DDE1E
:1041B0000001CEAF03D0B7DC0001CE9F8BA00BD0A7
:1041C000010E2D5E000E2E5A000E2E1802E1000E7A
:1041D0002D18D8B48B90F70E8114006EF70E001ACC
:1041E00000524BE0DEEC11F0C30E0C6ECD0E0D6EE6
:1041F0000D2EFED70C2EFCD7030ECD6FB26AB36A1C
:10420000B180CEB916D0CEB514D0CEBB12D081B00D
:1042100004D0DBDE81B001D0FDD781B201D028DF30
:1042200081B404D0C87581B401D0FDD781B801D064
:1042300099DF81BA01D039DF81BC0CD0010E0001B9
:10424000CF6F2A0ED06F320ED16F000ED26F000EDC
:10425000D36FEDDC81BE0CD0FF0E0001CF6F3E0EA0
:10426000D06F320ED16F000ED26F000ED36FDFDC35
:10427000B1900001CE932AEC17F00001CEB706D022
:1042800084B602D0D89007D0D88005D084B602D0AA
:10429000D88001D0D8900CE384A603D081EC16F02E
:1042A00002D014EC17F084B602D0CE9701D0CE879E
:1042B0007FD7FFD705010906A101854B050719E046
:1042C00029E71500250175019508810275089501FA
:1042D0008103950126FF0019002AFF008100750166
:1042E000950305081901290325019102750595011A
:1042F0009103C005010980A101855319002AFF001F
:10430000150026FF00750895018100C0050C090104
:10431000A101854319002A3C021500263C027510B4
:1043200095018100C03603520065006D006F007476
:10433000006500200043006F006E00740072006F83
:10434000006C006C006500640020004B0065007983
:104350000062006F00610072006400000000000055
:104360000000000000000009022900010101803264
:1043700009040000020300000209210101000122DA
:1043800071000705810308000A0705010308000CF6
:10439000120110010000000849524B2103000102E4
:1043A00000013031323334353637383941424344F5
:1043B000454600456E61626C696E67205553422028
:1043C0002020200052656C656173652062757474ED
:1043D0006F6E73210001012053656C656374205575
:1043E00073616765004B657970616420496E736520
:1043F0007274004B65797061642044656C65746506
:104400000049524B212046756E6374696F6E0057E8
:10441000656220426F6F6B6D61726B7300436F6EEC
:1044200073756D657220446576004B6579706164C3
:1044300020456E74657200506F77657220537769FE
:104440007463680052657365742053776974636898
:10445000004D6564696120506C617965720050722D
:10446000696E742053637265656E004B6579706187
:104470006420526967687400555342205265616434
:1044800079202020005553422044697361626C6595
:1044900064005365742041646472657373005765EA
:1044A00062205265667265736800576562204272C9
:1044B0006F77736572005465787420456469746F12
:1044C00072005363726F6C6C204C6F636B004B65B2
:1044D000797061642050675570004B657970616434
:1044E00020446F776E004B6579706164205067449B
:1044F0006E004B6579706164204C656674004C6990
:104500006768742044656C6179004B6579706164FB
:1045100020486F6D65004175782053776974636832
:1045200000576562205365617263680049524B21F0
:104530002076332E3030004B657970616420456EF3
:10454000640043616C63756C61746F7200506F77C7
:104550006572206F6666000A03490052004B002115
:10456000004261636B7370616365004C69676874D6
:10457000204F6666000420416464726573730044D2
:1045800065627567204F6666004B657970616420CF
:104590005570004D656E75204578697400506167EF
:1045A0006520446F776E0043617073204C6F636BBE
:1045B000004D656E75205069636B00475549202B8F
:1045C00020414C4C004B65797061642034004B6590
:1045D000797061642032004B657970616420350028
:1045E0004B65797061642031004B6579706164209E
:1045F00033004B6579706164202F004E756D204C3F
:104600006F636B005370616365626172004B657923
:10461000706164202B004B6579706164202D004B24
:104620006579706164202A004B6579706164203679
:1046300000576562204E657874005765622050729D
:10464000657600496E6974205553420057656220B3
:1046500053746F70004B6579626F617264004B65D3
:1046600079626F6172640057656220486F6D650002
:10467000436F6D7075746572004B6579706164206D
:1046800038004B65797061642037004B6579706143
:10469000642030004B6579706164203900446562A4
:1046A0007567204F6E004C69676874204F6E004B31
:1046B0006579706164202E004B6579706164203DDE
:1046C00000506167652055700053797374656D0003
:1046D00044656C65746500496E73657274004D6560
:1046E0006E752003004D656E75202B004D656E754F
:1046F000202D004D656E752002004D656E75200100
:10470000004D656E75200400456E74657200456D40
:1047100061696C00456A65637400207365637300AA
:10472000536C65657000534849465400475549200D
:104730000043544C2000414C54200057616B6500ED
:10474000486F6D65004D656E7500566F6C2B005699
:104750006F6C2D0053746F70004D75746500463199
:104760003500463134004631360046313800463196
:104770003700456E64000403090443682B0046318A
:10478000330043682D00463139003E3E7C005265BF
:1047900063004F6666003E2F06007C3C3C004632BC
:1047A0003100463230004632320046323400463262
:1047B00033005461620046313000463131004573A8
:1047C000630046313200463700463600463900461F
:1047D00038004631000420004F6E00463200463556
:1047E000004634004633003C3C003E3E0058005931
:1047F000003200330056002300240025005A002117
:104800000040004B005000510052004D004E004F40
:1048100000310055004C00530054007A002B007BFF
:10482000007D003F0029005F0005003C003E007C49
:10483000003A00220030002800340035005E0026D7
:10484000002A003E00060039003600370038006AB2
:1048500000690068006D006C006B00670063006217
:1048600000610066006500640072007500710074EC
:104870000006007300030070006F006E0004000269
:104880000001004100420043002D007800790044FF
:1048900000480049004A004500460047002E002C11
:1048A000006000760077002F005D005B003D003B5C
:1048B0000027000700000000000000FFFFFFFFFFCF
:020000040030CA
:0E00000000235F3CFFD381FF0FC00FE00F40D5
:00000001FF
