:0400000064EF20F099
:1000080000C01FF001C01EF002C01DF003C01CF0AC
:1000180004C01BF005C01AF006C019F008C018F09B
:1000280009C017F00AC016F00BC015F0E1CF28F090
:10003800E2CF29F0E9CF26F0EACF27F0F3CF24F07A
:10004800F4CF25F0F5CF23F0F8CF20F0F7CF21F04B
:10005800F6CF22F0F6EC1EF0A1A00DD0BCCF2FF009
:10006800BBCF2EF0BACF30F0BA70CF6ACE6A00019B
:10007800C78FA19021D0A1A208D00001C783C805CD
:10008800006E00C0C8F0A19217D0F2A415D03B04AE
:10009800006E00C03BF0000E3BBEFF0E006E000E6F
:1000A800001802E1000E3B1802E18B82D59EA40ED7
:1000B800D76E720ED66EF29423C0F5FF20C0F8FFFB
:1000C80021C0F7FF22C0F6FF24C0F3FF25C0F4FFCC
:1000D8001FC000F01EC001F01DC002F01CC003F0DC
:1000E8001BC004F01AC005F019C006F018C008F0CB
:1000F80017C009F016C00AF015C00BF026C0E9FFBA
:0E01080027C0EAFF28C0E1FF29C0E2FF110076
:100116002B0E0C6EDA0E0D6E0D2EFED70C2EFCD7A6
:0401260000001200C3
:0E012A00630E0D6E0D2EFED7000000001200B9
:0E0138000000000000000000000000001200A7
:10014600000E056E040E066EFCC003F0000E046E73
:10015600033604360390033604360390FDC000F0E0
:10016600000E016E00360136009000500326015045
:10017600042203C001F004C002F0013601900236E9
:1001860001360190023601C003F002C004F00432C9
:100196000332049E04BC048E04320332049E04BC63
:1001A600048E03C000F004C001F000360090013652
:1001B600003600900136055000260650012200C088
:1001C60005F001C006F000C0E1FF01C0E2FFE69EB7
:1001D6000001FD51000A12E1FCC000F0000E016EA4
:1001E6000036009001369F0E0024E16E000E0120BD
:1001F600E26E05C0E6FF06C0E6FF11D0FCC000F0C7
:10020600000E016E003600900136B20E0024E16E3B
:10021600000E0120E26E05C0E6FF06C0E6FF05C03F
:10022600E1FF06C0E2FFE69C040E0524E16E000E27
:080236000620E26EE68C1200C6
:0E023E00800E0001FC11006E00C0A6F0120040
:10024C0001C1A3F002C1A4F003C1A5F004C1A7F041
:10025C0005C1A8F0800E01010611006E00C0A6F0C9
:02026C0012007E
:10026E0001C1A3F002C1A4F003C1A7F004C1A8F01C
:10027E00800E01010511006E008000C0A6F0120074
:0E028E00160E6F6E9F0E6B6E7B0E696E120069
:10029C00E9C002F0EAC003F0ECC000F0EDC001F0E0
:1002AC00010E0001EC5F000EED5B0050011009E047
:1002BC0002C0E1FF03C0E2FFEBC0E6FF024A032AE3
:0402CC00EBD712005A
:1002D0000001EA51000A12E0E9C000F0000E016ED0
:1002E000003600900136B20E0024E96E000E0120A7
:1002F000EA6EEECF04F0EECF05F011D0E9C000F0C9
:10030000000E016E0036009001369F0E0024E96E4B
:10031000000E0120EA6EEECF04F0EECF05F0020EE3
:100320000424E16E000E0520E26EEBC0E6FFECC097
:10033000E6FF010E0424E16E000E0520E26EEDC022
:10034000E6FF04C0E9FF05C0EAFFEECF00F004C0FD
:10035000E1FF05C0E2FF400E0014E66E04C0E9FFB5
:1003600005C0EAFFEECF00F004C0E1FF05C0E2FFE8
:10037000880E0010E66EEA51000A1BE0E9C000F0AA
:10038000000E016E003600900136B20E0024026E9F
:10039000000E0120036E02C0E9FF03C0EAFF040E55
:1003A000EE18006E02C0E1FF03C0E2FF00C0E6FFEE
:1003B0001AD0E9C000F0000E016E00360090013640
:1003C0009F0E0024026E000E0120036E02C0E9FFA2
:1003D00003C0EAFF040EEE18006E02C0E1FF03C086
:1003E000E2FF00C0E6FF04C000F005C001F012000B
:0A03F000D08EA28AA08AF28E1200BD
:1003FA00000E0001EA1902E1000EE91902E1016AA0
:10040A0009D0E9C0E9FFEAC0EAFFEECF00F0016ACD
:0A041A0000BE012A01C000F012002C
:100424007D0E316E420E326E000E336E450E0001AB
:10043400686F460E696F000E6A6F430E6B6F440E51
:100444006C6F000E6D6F3B0E6E6F420E6F6F000E81
:04045400706F1200B3
:100458000001E9BF02D0809601D08086E9BD02D0B4
:10046800809401D08084E9BB02D0809201D0808240
:10047800E9B902D0809001D08080B6B102D08088DE
:1004880001D08098808A54DE809AE9B702D080969D
:1004980001D08086E9B502D0809401D08084E9B388
:1004A80002D0809201D08082E9B102D0809001D040
:1004B8008080B6B102D0808801D08098808A38DEEA
:0E04C800809AB6A102D023DE01D02BDE1200F6
:1004D60020C401F01F0E01160150010A01E08DD063
:1004E60004012451000A01E088D02151060A3AE1AC
:1004F6002FD00001C351010A13E17D0E0101016FE6
:10050600420E026F000E036F120E0127000E022329
:100516000323090E046F000E056F400E066F93DE6F
:1005260021D00001C351010A0EE1CA0E0101016F7B
:10053600410E026F000E036F710E046F000E056F01
:10054600400E066F80DE0ED00001FC6B75DE0AD011
:1005560004012351210ACDE02351220AE2E023516E
:10056600230AF2E020C401F0600E0116050E006EAB
:10057600005004E00132019EFF0FFBD70150010A33
:1005860001E03BD027D039D038D0750E0101016F7C
:10059600000E026F010E036F000E046F400E056F12
:1005A60063DE2BD00001FC6B47DE23C475F025D03B
:1005B600760E0101016F000E026F010E036F000E31
:1005C600046F056B51DE19D00001FC6B35DE22C4C9
:1005D60076F013D004012151010AD5E02151090A10
:1005E600D3E02151020AD1E021510A0ADBE0215170
:0C05F600030ADEE021510B0AE7E01200CE
:100602000001F851000A12E0F7C000F0000E016E7E
:10061200003600900136B20E0024E96E000E012071
:10062200EA6EEECF04F0EECF05F011D0F7C000F085
:10063200000E016E0036009001369F0E0024E96E16
:10064200000E0120EA6EEECF04F0EECF05F0020EAE
:100652000424E16E000E0520E26EF9C0E6FFFAC046
:10066200E6FF010E0424E16E000E0520E26EFBC0DF
:10067200E6FF04C0E9FF05C0EAFFEECF00F004C0C8
:10068200E1FF05C0E2FF400E0014E66E04C0E9FF80
:1006920005C0EAFFEECF00F004C0E1FF05C0E2FFB3
:1006A200880E0010E66EF851000A1BE0F7C000F059
:1006B200000E016E003600900136B20E0024026E6A
:1006C200000E0120036E02C0E9FF03C0EAFF040E20
:1006D200EE18006E02C0E1FF03C0E2FF00C0E6FFB9
:1006E2001AD0F7C000F0000E016E003600900136FD
:1006F2009F0E0024026E000E0120036E02C0E9FF6D
:1007020003C0EAFF040EEE18006E02C0E1FF03C050
:10071200E2FF00C0E6FF04C000F005C001F01200D5
:10072200700EE16E0F0EE26E0001F751E126D8B0B5
:10073200E22AF8C0E6FFF8A504D0F7C0FCF0FD6B92
:1007420001DDF8A305D0F7C0FCF0010EFD6FFADC65
:02075200120093
:10075400086A080E0C6E003408360450085ED8B0DF
:0E07640002D00826D89000360C2EF5D71200D1
:100772000001C451000A0AE16D6A696A87DD37DE49
:0E0782006DB602D06D86FCD7010EC46F12005A
:0A0790006D6A696A0001C46B120073
:10079A00200E0001C45D03E36DB201D002D0006AED
:1007AA0033D0B9C0E9F0BAC0EAF022DE00522BE138
:1007BA00E8C0E9F0010EEA6FE5C0EBF0E6C0ECF044
:1007CA00E7C0EDF080DD00C0B9F001C0BAF0BF6B40
:1007DA00C06BC16BC26BB9C0E9F0BAC0EAF008DEFF
:1007EA00005208E0BF51C011C111C21102E0006AF3
:1007FA000BD0F1D7010EB925E96E000EBA21EA6EC7
:0A080A00EECF00F001D0006A1200EA
:1008140007DEB76BB86BB96BBA6B6A6A686A35DDA9
:100824006D8C6E6A710EE96F0F0EEA6FEB6B010E41
:10083400EC6F000EED6F30DD6D9CE56B080EE55D31
:1008440016E2E5C000F0000E016E0036009001369D
:10085400003600900136000E0024E16E040E0120E3
:10086400E26EE66AE66AE66AE66AE52BE7D7160E02
:10087400706E68A603D0F70E6816FBD7A66BAB6B39
:10088400AC6BAD6B6D98080EB26F040EB36FC36B97
:04089400C46B12001F
:1008980013D37C0E006E470E016E000E026E12EF2F
:1008A80009F0960E006E470E016E000E026E12EFF2
:1008B80009F0940E006E470E016E000E026E12EFE4
:1008C80009F0980E006E470E016E000E026E12EFD0
:1008D80009F09A0E006E470E016E000E026E12EFBE
:1008E80009F0920E006E470E016E000E026E12EFB6
:1008F80009F08C0E006E470E016E000E026E12EFAC
:1009080009F08A0E006E470E016E000E026E12EF9D
:1009180009F0900E006E470E016E000E026E12EF87
:1009280009F08E0E006E470E016E000E026E12EF79
:1009380009F0760E006E470E016E000E026E12EF81
:1009480009F05A0E006E470E016E000E026E12EF8D
:1009580009F0580E006E470E016E000E026E12EF7F
:1009680009F05C0E006E470E016E000E026E12EF6B
:1009780009F0600E006E470E016E000E026E12EF57
:1009880009F05E0E006E470E016E000E026E12EF49
:1009980009F0500E006E470E016E000E026E12EF47
:1009A80009F04E0E006E470E016E000E026E12EF39
:1009B80009F0520E006E470E016E000E026E12EF25
:1009C80009F0560E006E470E016E000E026E12EF11
:1009D80009F0540E006E470E016E000E026E12EF03
:1009E80009F06E0E006E470E016E000E026E12EFD9
:1009F80009F06C0E006E470E016E000E026E12EFCB
:100A080009F0700E006E470E016E000E026E12EFB6
:100A180009F0740E006E470E016E000E026EFED3D2
:100A2800720E006E470E016E000E026EF7D3640E52
:100A3800006E470E016E000E026EF0D3620E006E5D
:100A4800470E016E000E026EE9D3660E006E470E69
:100A5800016E000E026EE2D36A0E006E470E016E42
:100A6800000E026EDBD3680E006E470E016E000E9C
:100A7800026ED4D3DE0E006E460E016E000E026EBC
:100A8800CDD3DC0E006E460E016E000E026EC6D38C
:100A9800E00E006E460E016E000E026EBFD3E40E2D
:100AA800006E460E016E000E026EB8D3E20E006EA6
:100AB800460E016E000E026EB1D3120E006E460E87
:100AC800016E000E026EAAD34D0E006E460E016E28
:100AD800000E026EA3D3570E006E440E016E000E78
:100AE800026E9CD3550E006E460E016E000E026E0D
:100AF80095D3380E006E450E016E000E026E8ED331
:100B0800D60E006E460E016E000E026E87D3F40EEE
:100B1800006E460E016E000E026E80D3F20E006E5D
:100B2800460E016E000E026E79D3F60E006E460E6A
:100B3800016E000E026E72D3FA0E006E460E016E42
:100B4800000E026E6BD3F80E006E460E016E000E9C
:100B5800026E64D3F00E006E460E016E000E026E39
:100B68005DD3E80E006E460E016E000E026E56D37F
:100B7800E60E006E460E016E000E026E4FD3EA0EB0
:100B8800006E460E016E000E026E48D3EE0E006E29
:100B9800460E016E000E026E41D36B0E006E440EBF
:100BA800016E000E026E3AD3BC0E006E460E016E48
:100BB800000E026E33D3B90E006E460E016E000EA3
:100BC800026E2CD3B60E006E460E016E000E026E3B
:100BD80025D3AD0E006E460E016E000E026E1ED3BA
:100BE800B00E006E460E016E000E026E17D3B30EE5
:100BF800006E460E016E000E026E10D3CB0E006E14
:100C0800460E016E000E026E09D3CE0E006E460E21
:100C1800016E000E026E02D3D10E006E460E016EFA
:100C2800000E026EFBD2610E006E460E016E000EC3
:100C3800026EF4D2690E006E460E016E000E026E50
:100C4800EDD2650E006E460E016E000E026EE6D203
:100C5800860E006E430E016E000E026EDFD2DB0EB2
:100C6800006E430E016E000E026ED8D2060E006EA4
:100C7800000E016E000E026ED1D2C30E006E450E3C
:100C8800016E000E026ECAD2270E006E460E016E6D
:100C9800000E026EC3D2AD0E006E450E016E000E40
:100CA800026EBCD2BC0E006E450E016E000E026EC6
:100CB800B5D2950E006E460E016E000E026EAED2D3
:100CC800930E006E440E016E000E026EA7D2DA0E6D
:100CD800006E460E016E000E026EA0D2D40E006E9B
:100CE800460E016E000E026E99D2D80E006E460EA8
:100CF800016E000E026E92D2EC0E006E460E016E70
:100D0800000E026E8BD20B0E006E450E016E000EA9
:100D1800026E84D2140E006E450E016E000E026E35
:100D28007DD21D0E006E450E016E000E026E76D24B
:100D3800F00E006E440E016E000E026E6FD2F90EB8
:100D4800006E440E016E000E026E68D2520E006EE6
:100D5800430E016E000E026E61D2020E006E450E49
:100D6800016E000E026E5AD2260E006E450E016EFE
:100D7800000E026E53D24A0E006E450E016E000E32
:100D8800026E4CD2530E006E450E016E000E026EBE
:100D980045D25C0E006E450E016E000E026E3ED20C
:100DA8002F0E006E450E016E000E026E37D2410EF8
:100DB800006E450E016E000E026E30D2BA0E006E45
:100DC800440E016E000E026E29D2C30E006E440E50
:100DD800016E000E026E22D2B10E006E440E016E3C
:100DE800000E026E1BD2DE0E006E440E016E000E67
:100DF800026E14D2E70E006E440E016E000E026EF3
:100E08000DD2A90E006E460E016E000E026E06D2BD
:100E18009D0E006E460E016E000E026EFFD1910E01
:100E2800006E460E016E000E026EF8D18D0E006E39
:100E3800460E016E000E026EF1D1A10E006E460E36
:100E4800016E000E026EEAD1A50E006E460E016E0E
:100E5800000E026EE3D1810E006E460E016E000E8A
:100E6800026EDCD17D0E006E460E016E000E026E23
:100E7800D5D1890E006E460E016E000E026ECED1DF
:100E8800850E006E460E016E000E026EC7D1710E01
:100E9800006E460E016E000E026EC0D16D0E006E21
:100EA800460E016E000E026EB9D1A10E006E470EFD
:100EB800016E000E026EB2D10001C951040AD8B405
:100EC800E8D4C951050AD8B4ECD4C951060AD8B433
:100ED800F0D4C951070AD8B4F4D4C951080AD8B40F
:100EE800F8D4C951090AD8B4FCD4C9510A0AD8B4EB
:100EF80000D5C9510B0AD8B404D5C9510C0AD8B4C5
:100F080008D5C9510D0AD8B40CD5C9510E0AD8B4A0
:100F180010D5C9510F0AD8B414D5C951100AD8B47C
:100F280018D5C951110AD8B41CD5C951120AD8B458
:100F380020D5C951130AD8B424D5C951140AD8B434
:100F480028D5C951150AD8B42CD5C951160AD8B410
:100F580030D5C951170AD8B434D5C951180AD8B4EC
:100F680038D5C951190AD8B43CD5C9511A0AD8B4C8
:100F780040D5C9511B0AD8B444D5C9511C0AD8B4A4
:100F880048D5C9511D0AD8B44BD5C9511E0AD8B481
:100F98004ED5C9511F0AD8B451D5C951200AD8B461
:100FA80054D5C951210AD8B457D5C951220AD8B441
:100FB8005AD5C951230AD8B45DD5C951240AD8B421
:100FC80060D5C951250AD8B463D5C951260AD8B401
:100FD80066D5C951270AD8B469D5C951280AD8B4E1
:100FE8006CD5C951290AD8B46FD5C9512A0AD8B4C1
:100FF80072D5C9512B0AD8B475D5C9512C0AD8B4A1
:1010080078D5C9512D0AD8B47BD5C9512E0AD8B480
:101018007ED5C9512F0AD8B481D5C951300AD8B460
:1010280084D5C951310AD8B487D5C951330AD8B43F
:101038008AD5C951340AD8B48DD5C951350AD8B41E
:1010480090D5C951360AD8B493D5C951370AD8B4FE
:1010580096D5C951380AD8B499D5C951390AD8B4DE
:101068009CD5C9513A0AD8B49FD5C9513B0AD8B4BE
:10107800A2D5C9513C0AD8B4A5D5C9513D0AD8B49E
:10108800A8D5C9513E0AD8B4ABD5C9513F0AD8B47E
:10109800AED5C951400AD8B4B1D5C951410AD8B45E
:1010A800B4D5C951420AD8B4B7D5C951430AD8B43E
:1010B800BAD5C951440AD8B4BDD5C951450AD8B41E
:1010C800C0D5C951460AD8B4C3D5C951470AD8B4FE
:1010D800C6D5C951480AD8B4C9D5C951490AD8B4DE
:1010E800CCD5C9514A0AD8B4CFD5C9514B0AD8B4BE
:1010F800D2D5C9514C0AD8B4D5D5C9514D0AD8B49E
:10110800D8D5C9514E0AD8B4DBD5C9514F0AD8B47D
:10111800DED5C951500AD8B4E1D5C951510AD8B45D
:10112800E4D5C951520AD8B4E7D5C951530AD8B43D
:10113800EAD5C951540AD8B4EDD5C951550AD8B41D
:10114800F0D5C951560AD8B4F3D5C951570AD8B4FD
:10115800F6D5C951580AD8B4F9D5C951590AD8B4DD
:10116800FCD5C9515A0AD8B4FFD5C9515B0AD8B4BD
:1011780002D6C9515C0AD8B405D6C9515D0AD8B49B
:1011880008D6C9515E0AD8B40BD6C9515F0AD8B47B
:101198000ED6C951600AD8B411D6C951610AD8B45B
:1011A80014D6C951620AD8B417D6C951630AD8B43B
:1011B8001AD6C951670AD8B41DD6C951680AD8B415
:1011C80020D6C951690AD8B423D6C9516A0AD8B4F5
:1011D80026D6C9516B0AD8B429D6C9516C0AD8B4D5
:1011E8002CD6C9516D0AD8B42FD6C9516E0AD8B4B5
:1011F80032D6C9516F0AD8B435D6C951700AD8B495
:1012080038D6C951710AD8B43BD6C951720AD8B474
:0E1218003ED6C951730AD8B441D647D612004B
:0C1226000001C55302E06BEC02F0120066
:101232000001C55316E0010EF76F1E0EF86F91EC18
:1012420003F0010EF76FF86BBBC0F9F0BCC0FAF007
:10125200400EFB6F01EC03F000C0B7F001C0B8F024
:1012620015D0010EF76F1E0EF86F91EC03F0010E10
:10127200F76FF86BBBC0F9F0BCC0FAF0400EFB6F21
:0E12820001EC03F000C0B7F001C0B8F012009C
:101290000001B691E5C0E9F02CEC02F0B681120035
:1012A00096D1340E006E470E016E000E026E75D29E
:1012B000380E006E470E016E000E026E6ED2360EB4
:1012C000006E470E016E000E026E67D2280E006E91
:1012D000470E016E000E026E60D2260E006E470EA3
:1012E000016E000E026E59D22A0E006E470E016E7C
:1012F000000E026E52D22E0E006E470E016E000ED0
:10130000026E4BD22C0E006E470E016E000E026E66
:1013100044D2460E006E470E016E000E026E3DD2A4
:10132000440E006E470E016E000E026E36D2480E5D
:10133000006E470E016E000E026E2FD24C0E006E34
:10134000470E016E000E026E28D24A0E006E470E46
:10135000016E000E026E21D23C0E006E470E016E31
:10136000000E026E1AD23A0E006E470E016E000E8B
:10137000026E13D23E0E006E470E016E000E026E1C
:101380000CD2420E006E470E016E000E026E05D2A8
:10139000400E006E470E016E000E026EFED1240E4E
:1013A000006E470E016E000E026EF7D1080E006E41
:1013B000470E016E000E026EF0D1060E006E470E53
:1013C000016E000E026EE9D10A0E006E470E016E2C
:1013D000000E026EE2D10E0E006E470E016E000E80
:1013E000026EDBD10C0E006E470E016E000E026E17
:1013F000D4D1FE0E006E460E016E000E026ECDD1EF
:10140000FC0E006E460E016E000E026EC6D1000E7E
:10141000006E470E016E000E026EBFD1040E006E0C
:10142000470E016E000E026EB8D1020E006E470E1E
:10143000016E000E026EB1D11C0E006E470E016EE1
:10144000000E026EAAD11A0E006E470E016E000E3B
:10145000026EA3D11E0E006E470E016E000E026ECC
:101460009CD1220E006E470E016E000E026E95D1C9
:10147000200E006E470E016E000E026E8ED1120E0F
:10148000006E470E016E000E026E87D1100E006EC8
:10149000470E016E000E026E80D1140E006E470ED4
:1014A000016E000E026E79D1180E006E470E016EAD
:1014B000000E026E72D1160E006E470E016E000E07
:1014C000026E6BD17E0E006E470E016E000E026E34
:1014D00064D1780E006E470E016E000E026E5DD173
:1014E000840E006E470E016E000E026E56D1820E03
:1014F000006E470E016E000E026E4FD1880E006E18
:10150000470E016E000E026E48D1860E006E470E29
:10151000016E000E026E41D1800E006E470E016E0C
:10152000000E026E3AD17A0E006E470E016E000E6A
:10153000026E33D1220E006E440E016E000E026E5A
:101540002CD1FF0E006E430E016E000E026E25D1EF
:101550000B0E006E440E016E000E026E1ED1E70EE1
:10156000006E430E016E000E026E17D1450E006E26
:10157000430E016E000E026E10D1C30E006E430EBC
:10158000016E000E026E09D1A70E006E440E016EB0
:10159000000E026E02D1CF0E006E430E016E000EE1
:1015A000026EFBD0030E006E430E016E000E026E43
:1015B000F4D0E70E006E420E016E000E026EEDD00A
:1015C0009F0E006E470E016E000E026EE6D0000107
:1015D000C951040AD8B465D6C951050AD8B468D629
:1015E000C951060AD8B46BD6C951070AD8B46ED609
:1015F000C951080AD8B471D6C951090AD8B474D6E9
:10160000C9510A0AD8B477D6C9510B0AD8B47AD6C8
:10161000C9510C0AD8B47DD6C9510D0AD8B480D6A8
:10162000C9510E0AD8B483D6C9510F0AD8B486D688
:10163000C951100AD8B489D6C951110AD8B48CD668
:10164000C951120AD8B48FD6C951130AD8B492D648
:10165000C951140AD8B495D6C951150AD8B498D628
:10166000C951160AD8B49BD6C951170AD8B49ED608
:10167000C951180AD8B4A1D6C951190AD8B4A4D6E8
:10168000C9511A0AD8B4A7D6C9511B0AD8B4AAD6C8
:10169000C9511C0AD8B4ADD6C9511D0AD8B4B0D6A8
:1016A000C9511E0AD8B4B3D6C9511F0AD8B4B6D688
:1016B000C951200AD8B4B9D6C951210AD8B4BCD668
:1016C000C951220AD8B4BFD6C951230AD8B4C2D648
:1016D000C951240AD8B4C5D6C951250AD8B4C8D628
:1016E000C951260AD8B4CBD6C951270AD8B4CED608
:1016F000C9512D0AD8B4D1D6C9512E0AD8B4D4D6DE
:10170000C9512F0AD8B4D7D6C951300AD8B4DAD6BD
:10171000C951310AD8B4DDD6C951330AD8B4E0D69C
:10172000C951340AD8B4E3D6C951350AD8B4E6D67B
:10173000C951360AD8B4E9D6C951370AD8B4ECD65B
:10174000C951380AD8B4EFD6C951590AD8B4F2D61B
:10175000C9515A0AD8B4F5D6C9515B0AD8B4F8D6DB
:10176000C9515C0AD8B4FBD6C9515E0AD8B4FED6BA
:10177000C9515F0AD8B401D7C951600AD8B404D797
:10178000C951610AD8B407D7C951620AD8B40AD777
:0C179000C951630AD8B40DD713D712005A
:10179C00DFC004F0E0C005F004C0E9FF05C0EAFFBB
:1017AC00EE5203E0044A052AF7D704C002F005C044
:1017BC0003F0044A052AE1C000F0E2C001F0000188
:1017CC00E14BE22B00C0E9FF01C0EAFF02C0E1FFE0
:1017DC0003C0E2FFEECFE6FF02C0E9FF03C0EAFF61
:1017EC00EE5201E0E2D7DFC000F0E0C001F01200E1
:0617FC00C8EC03F012002E
:10180200DFC004F0E0C005F004C002F005C003F040
:10181200044A052AE1C000F0E2C001F00001E14BF8
:10182200E22B00C0E9FF01C0EAFF02C0E1FF03C0F2
:10183200E2FFEECFE6FF02C0E9FF03C0EAFFEE528D
:0E18420001E0E2D7DFC000F0E0C001F01200CC
:101850000B6A0A6A096A00500402F4CF09F0F3CF58
:1018600008F001500502F4CF0BF0F3CF0AF000505E
:101870000502F3500926F4500A22E86A0B220150AF
:101880000402F3500926F4500A22E86A0B2208C029
:1018900000F009C001F00AC002F00BC003F0120012
:1018A000F00E0001DF15026E02C000F00032009E53
:1018B0000032009E0032009E0032009EB80E0024CE
:1018C000F66E420EF76E000EF722000EF86E000E56
:1018D000F8220900F5CF00F0E0C0E1FFE1C0E2FF2F
:1018E00000C0E6FFE04BE12B0F0EDF15006EB80ED7
:1018F0000024F66E420EF76E000EF722000EF86E10
:10190000000EF8220900F5CF00F0E0C0E1FFE1C0D1
:08191000E2FF00C0E6FF120037
:10191800010E0001C56FDFC0BBF0E0C0BCF0E1C044
:10192800BDF0E2C0BEF00AEC04F0010E016E0150F9
:0A193800010A02E1B9EC03F012000D
:101942000001CC51000A01E10ED0CC51FF0A01E1A5
:101952000AD08B92CCC03BF0A40ED76E720ED66E1C
:08196200F294F28AD58E120006
:10196A0010D0800E0001DF6F1AD0C00EDF6F17D0C3
:10197A00940EDF6F14D0D40EDF6F11D0800EDF6F9C
:10198A000ED00001DF51010AECE0DF51020AEDE05E
:10199A00DF51030AEDE0DF51040AEDE0EFD7E0057D
:1019AA00006EDF51002600C0DFF000C0E9F02CEC29
:1019BA0002F0B691E36BE351E125E96E000EE221F4
:1019CA00EA6EEE520BE0E351E125E96E000EE221E8
:1019DA00EA6EEECFE5F057DCE32BEDD7B6811200C5
:1019EA00DFC0E5F0E0C0E6F0E1C0E7F0010E00017B
:0819FA00E86FCDEC03F01200D0
:101A0200F1C002F0F2C003F0F4C000F0F5C001F042
:101A1200010E0001F45F000EF55B0050011009E0B9
:101A220002C0E1FF03C0E2FFF3C0E6FF024A032A5D
:041A3200EBD71200DC
:101A36000ED019EC09F03DD03CD013EC09F039D0AA
:101A460038D037D036D035D0000033D032D0000E63
:101A56000001F21902E1010EF119EBE0000EF21994
:101A660002E1020EF119E8E0000EF21902E1030E9E
:101A7600F119E3E0F251000A02E1730EF119E0E018
:101A8600F251000A02E1750EF119DBE0F251000A8B
:101A960002E1740EF119D6E0F2513F0A02E1FF0E9F
:101AA600F119D1E0F251000A02E1720EF119CCE00F
:081AB600CDD7010E006E1200F5
:101ABE007B0E056E000E066E05C003F006C004F028
:101ACE00054A062ADFC000F0E0C001F0E1C002F0D6
:101ADE00010E0001DF27000EE023E12300C0F6FF18
:101AEE0001C0F7FF02C0F8FF0900F5CF00F003C0F8
:101AFE00E1FF04C0E2FF00C0E6FF03C0E9FF04C03F
:101B0E00EAFFEE5201E0D8D77B0E006E000E016E9A
:021B1E001200B3
:101B2000C9C0DFF0CAC0E0F0F00E0001CA15E16FD5
:101B3000DDD24CEC04F000C065F001C066F002C0DC
:101B400067F00001CAA321D050EC09F000C03DF0BD
:101B500001C03EF002C03FF000C0F6FF01C0F7FF39
:101B600002C0F8FF0900F5CF00F0005207E03DC0C9
:101B700000F03EC001F03FC002F0C8D265C000F0E6
:101B800066C001F067C002F0C1D265C000F066C057
:101B900001F067C002F0BAD21CD07F0E006E440E76
:101BA000016E000E026EB2D2000E006E460E016E85
:101BB000000E026EABD2400E006E460E016E000E9D
:101BC000026EA4D29E0E006E470E016E000E026ED3
:101BD0009DD20001E051100A02E1810EDF19DDE023
:101BE000E051100A02E1820EDF19DEE0E051100A36
:101BF00002E1830EDF19DFE0E5D70AD1310E006E76
:101C0000460E016E000E026E81D29D0E006E440ED5
:101C1000016E000E026E7AD2E60E006E450E016E67
:101C2000000E026E73D2ED0E006E450E016E000EB8
:101C3000026E6CD2DF0E006E450E016E000E026E5B
:101C400065D2B50E006E450E016E000E026E5ED2BC
:101C5000610E006E440E016E000E026E57D2D10E60
:101C6000006E450E016E000E026E50D2D80E006E50
:101C7000450E016E000E026E49D2790E006E460EC0
:101C8000016E000E026E42D2510E006E460E016EC3
:101C9000000E026E3BD2320E006E470E016E000E39
:101CA000026E34D2300E006E470E016E000E026ED0
:101CB0002DD25D0E006E460E016E000E026E26D213
:101CC000BF0E006E460E016E000E026E1FD2C20ED7
:101CD000006E460E016E000E026E18D2490E006EA6
:101CE000460E016E000E026E11D2990E006E460E67
:101CF000016E000E026E0AD2220E006E460E016EBA
:101D0000000E026E03D2060E006E460E016E000E2D
:101D1000026EFCD1750E006E460E016E000E026E54
:101D2000F5D12C0E006E460E016E000E026EEED145
:101D30001D0E006E460E016E000E026EE7D1180EEB
:101D4000006E460E016E000E026EE0D16C0E006E4B
:101D5000430E016E000E026ED9D19F0E006E430E2F
:101D6000016E000E026ED2D1F40E006E450E016EB1
:101D7000000E026ECBD1170E006E440E016E000EE7
:101D8000026EC4D16E0E006E450E016E000E026E24
:101D9000BDD1AB0E006E430E016E000E026EB6D1C9
:101DA000380E006E440E016E000E026EAFD19B0E17
:101DB000006E450E016E000E026EA8D1770E006E09
:101DC000450E016E000E026EA1D1800E006E450E12
:101DD000016E000E026E9AD1650E006E450E016E08
:101DE000000E026E93D1B70E006E430E016E000E10
:101DF000026E8CD1F50E006E420E016E000E026E68
:101E000085D19D0E006E470E016E000E026E7ED1D2
:101E1000E051200A02E1400EDF19D8B4EFD6E051BC
:101E2000200A02E1410EDF19D8B4EFD6E051200AB2
:101E300002E1420EDF19D8B4EFD6E051200A02E1E8
:101E4000430EDF19D8B4EFD6E051200A02E1440E68
:101E5000DF19D8B4EFD6E051200A02E1450EDF19B0
:101E6000D8B4EFD6E051200A02E1460EDF19D8B40B
:101E7000EFD6E051200A02E1470EDF19D8B4EFD6C1
:101E8000E051200A02E1480EDF19D8B4EFD6E05144
:101E9000200A02E19C0EDF19D8B4EFD6E051200AE7
:101EA00002E19D0EDF19D8B4EFD6E051200A02E11D
:101EB000B00EDF19D8B4EFD6E051200A02E1B10E1E
:101EC000DF19D8B4EFD6E051200A02E1B20EDF19D3
:101ED000D8B4EFD6E051200A02E1B30EDF19D8B42E
:101EE000EFD6E051200A02E1B40EDF19D8B4EFD6E4
:101EF000E051200A02E1B50EDF19D8B4EFD6E05167
:101F0000200A02E1B60EDF19D8B4EFD6E051200A5C
:101F100002E1B70EDF19D8B4EFD6E051200A02E192
:101F2000B80EDF19D8B4EFD6E051200A02E1CD0E89
:101F3000DF19D8B4EFD6E051200A02E1E20EDF1932
:101F4000D8B4EFD6E051200A02E1E90EDF19D8B487
:101F5000EFD6E051200A02E1EA0EDF19D8B4EFD63D
:101F6000E051210A02E1830EDF19D8B4EFD6E05127
:101F7000210A02E1850EDF19D8B4EFD6E051210A1B
:101F800002E18A0EDF19D8B4EFD6E051210A02E14E
:101F9000920EDF19D8B4EFD6E051210A02E1940E77
:101FA000DF19D8B4EFD6E051210A02E1960EDF190D
:101FB000D8B4EFD6E051220A02E1210EDF19D8B4DD
:101FC000EFD6E051220A02E1230EDF19D8B4EFD692
:101FD000E051220A02E1240EDF19D8B4EFD6E05115
:101FE000220A02E1250EDF19D8B4EFD6E051220A09
:101FF00002E1260EDF19D8B4EFD6E051220A02E141
:10200000270EDF19D8B4EFD6E051220A02E12A0EDA
:10201000DF19D8B4EFD6F5D646D0930E006E430E36
:10202000016E000E026E72D02B0E006E430E016E1A
:10203000000E026E6BD0110E006E430E016E000E8C
:10204000026E64D0890E006E450E016E000E026EA7
:102050005DD04D0E006E440E016E000E026E56D025
:10206000920E006E450E016E000E026E4FD0F30E02
:10207000006E430E016E000E026E48D0750E006EAB
:10208000440E016E000E026E41D0D50E006E440E5D
:10209000016E000E026E3AD09C0E006E470E016E6D
:1020A000000E026E33D0C951000AB7E0C951010ACF
:1020B000BBE0C951020ABFE0C951030AC3E0C951DC
:1020C000040AC7E0C951050ACBE0C951060ACFE0AE
:1020D000C951080AD3E0C951070AD7E0DDD7A00EDD
:1020E000006E470E016E000E026E10D0E151000A24
:1020F000D8B41FD5E151100AD8B44ED5E151200A09
:0E210000D8B47BD5E151F00A87E0E9D7120090
:10210E000001E26B030EE25D0AE2E251E025E16EB0
:10211E00000EE121E26E200EE66EE22BF3D7E251C5
:10212E00E025E16E000EE121E26EE66AE207E25181
:10213E00E025E36F000EE121E46F0A0E046EDFC0AE
:10214E0000F0AAEC03F008C000F0300E0026E3C049
:10215E00E1FFE4C0E2FF00C0E6FF0A0E046EDFC03E
:10216E0000F0AAEC03F000C0DFF00050000A01E11D
:08217E0002D0E207DCD71200D9
:10218600DFC004F0E0C005F004C0E9FF05C0EAFFC7
:10219600EE5203E0044A052AF7D70001E351E411A1
:1021A60021E004C002F005C003F0044A052AE1C09C
:1021B60000F0E2C001F0E14BE22B00C0E9FF01C0F4
:1021C600EAFF02C0E1FF03C0E2FFEECFE6FF02C076
:1021D600E9FF03C0EAFFEE5205E0010EE35F000EE1
:1021E600E45BDBD7000EE41902E1000EE31905E11A
:1021F60004C0E1FF05C0E2FFE66ADFC000F0E0C010
:0422060001F01200D1
:10220A000001A68F710EF16F0F0EF26FF36B010EC4
:10221A00F46F000EF56F01EC0DF07A0EF16F000EFF
:10222A00F26FF36B010EF46F000EF56F01EC0DF017
:10223A0022C4C3F0C351000A03E1100EC46F10D0C8
:10224A00200EC46F010EF16F000EF26FC30EF36F12
:10225A00000EF46F010EF56F000EF66F1BEC0DF019
:02226A00120060
:10226C0004012251010A13E120C401F01F0E0116D2
:10227C000150000A0CE10001A68F04012151030A50
:10228C0004E1010E00019C6F02D000019C6B040163
:10229C002251000AD8A48DD020C401F01F0E0116C3
:1022AC000150020AD8A485D024C401F00F0E0116E7
:1022BC000150000AD8B47DD00001A68F040124BFC0
:1022CC0016D024C403F00F0E031603C000F0000E4A
:1022DC00016E0036009001369F0E0024E96E000E50
:1022EC000120EA6EEECF04F0EECF05F015D024C439
:1022FC0003F00F0E031603C000F0000E016E003643
:10230C0000900136B20E0024E96E000E0120EA6E38
:10231C00EECF04F0EECF05F02151030A07E104C023
:10232C00E1FF05C0E2FF840EE66E43D024C400F04A
:10233C000F0E0016700E026E0F0E036E005002266A
:10234C00D8B0032A02C0E9FF03C0EAFFFE0EEE1468
:10235C00006EEECF01F0FF0E011602C0E1FF03C0CC
:10236C00E2FF00C0E6FF01C0E6FF24AF11D004C0BD
:10237C00E1FF05C0E2FFE66A040E0418006E00C01F
:10238C0004F004C0E1FF05C0E2FF400EE66E11D080
:10239C0004C0E1FF05C0E2FF880EE66E040E0418CF
:1023AC00006E00C004F004C0E1FF05C0E2FFC80EDF
:0423BC00E66E1200B7
:1023C00004012051800AD8A47BD0C00E0001A66F62
:1023D0006CD00001A60E006E420E016E000E026E61
:1023E00000C0A3F001C0A4F002C0A5F0120EA76FB8
:1023F000000EA86F65D00001030E006E000E016E86
:1024000022C404F0000E056E28EC0CF0310E0024FE
:10241000E96E000E0120EA6EEECFA3F0EECFA4F03D
:10242000EECFA5F0020EA325F66E000EA421F76EE6
:10243000000EA521F86E0900F5CF00F00900F5CFD8
:1024400001F000C0A7F001C0A8F03AD0030E0401CB
:10245000225D25E2030E006E000E016E22C404F020
:10246000000E056E28EC0CF0680E0024E96E000EDC
:102470000120EA6EEECFA3F0EECFA4F0EECFA5F0F0
:10248000A3C0F6FFA4C0F7FFA5C0F8FF0900F5CF71
:1024900000F000C0A7F0000E0001A86F02D00001FC
:1024A000A66B0ED00001A66B0BD004012351010ACC
:1024B00090E02351020A9FE02351030AC7E0F2D7BC
:0224C000120008
:1024C200000E0001A85D02E1080EA75D10E2A7C0A0
:1024D20003F0A8C004F09B51000A03E1010E9B6FB8
:1024E20005D09B51010A02E1020E9B6F04D0080E37
:1024F200036E000E046EB2C0E1FFB3C0E2FFE692CB
:10250200B2C0E1FFB3C0E2FFE690B2C0E9FFB3C0E0
:10251200EAFFEECF00F0B2C0E1FFB3C0E2FF045029
:102522000010E66E010EB225E16E000EB321E26EDE
:1025320003C0E6FF0350A75D006E0450A859016E68
:1025420000C0A7F001C0A8F0280E9D6F040E9E6F78
:10255200A6B12FD0035004102BE0A3C0F6FFA4C0F5
:10256200F7FFA5C0F8FF0900F5CF00F09DC0E1FF1D
:102572009EC0E2FF00C0E6FF9D4B9E2B010EA325ED
:10258200006E000EA421016E000EA521026E00C095
:10259200A3F001C0A4F002C0A5F0010E035C006E1E
:1025A200000E0458016E00C003F001C004F0D2D73F
:1025B20024D00350041021E0A3C0E9FFA4C0EAFF25
:1025C2009DC0E1FF9EC0E2FFEECFE6FF9D4B9E2B3A
:1025D200010EA325006E000EA421016E00C0A3F01F
:1025E20001C0A4F0010E035C006E000E0458016EDF
:0C25F20000C003F001C004F0DCD71200B0
:1025FE000401286B296B4AD00001A68F04012881A3
:10260E0000019C51010A02E10401288354D000010B
:10261E00A68F51D00001A68F040124BF16D024C46A
:10262E0003F00F0E031603C000F0000E016E00360D
:10263E00009001369F0E0024E96E000E0120EA6E16
:10264E00EECF04F0EECF05F015D024C403F00F0E3C
:10265E00031603C000F0000E016E00360090013626
:10266E00B20E0024E96E000E0120EA6EEECF04F0E9
:10267E00EECF05F004C0E9FF05C0EAFFEECF01F092
:10268E0001A403D00401010E286F15D020C401F05F
:10269E001F0E01160150000AAFE020C401F01F0EFC
:1026AE0001160150010AB3E020C401F01F0E0116FD
:1026BE000150020AAFE00001A6AF07D0280EA36FAB
:0C26CE00040EA46FA681020EA76F12007C
:1026DA0008D08B82D59E0DD08B92D59E0AD0D58EEE
:1026EA0008D00001CC51000AF4E0CC51FF0AF4E012
:0426FA00F6D71200FD
:1026FE00FEEC0BF0790EDF6F430EE06F000EE16F14
:10270E005FEC0DF000C0E1F001C0E2F0020EDF6FF1
:0C271E00010EE06FB5EC0CF0C79112004A
:10272A00010E0001E96F2CEC02F0CAC0DFF0430E83
:10273A00E06F000EE16F50EC0CF0200E456E466A19
:10274A00F00ECA15DE6F9FD0C7A913D0A40EDF6F93
:10275A00450EE06F000EE16F5FEC0DF000C0E1F096
:10276A0001C0E2F0430EDF6F000EE06FCEEC0BF01B
:10277A0050D0CAA112D0360EDF6F460EE06F000E9F
:10278A00E16F5FEC0DF000C0E1F001C0E2F0430E32
:10279A00DF6F000EE06FCEEC0BF0CAA512D03B0E35
:1027AA00DF6F460EE06F000EE16F5FEC0DF000C0C8
:1027BA00E1F001C0E2F0430EDF6F000EE06FCEECF5
:1027CA000BF0CAA312D00C0EDF6F460EE06F000E9C
:1027DA00E16F5FEC0DF000C0E1F001C0E2F0430EE2
:1027EA00DF6F000EE06FCEEC0BF0465212E1CC0E1A
:1027FA00DF6F440EE06F000EE16F5FEC0DF000C07A
:10280A00E1F001C0E2F0430EDF6F000EE06FCEECA4
:10281A000BF047D0CA0EDF6F450EE06F000EE16F76
:10282A005FEC0DF000C0E1F001C0E2F0430EDF6F93
:10283A00000EE06FCEEC0BF034D05F0EDF6F430E6C
:10284A00E06F000EE16F5FEC0DF000C0E1F001C037
:10285A00E2F0430EDF6F000EE06FCEEC0BF021D0FA
:10286A00D90EDF6F420EE06F000EE16F5FEC0DF0E4
:10287A0000C0E1F001C0E2F0430EDF6F000EE06F2E
:10288A00CEEC0BF00ED0DE51000AD8B45DD7DE5183
:10289A00100AC0E0DE51200AD0E0DE51F00AE0E082
:1028AA00F1D7C7A913D0C90EDF6F420EE06F000E31
:1028BA00E16F5FEC0DF000C0E1F001C0E2F0540EF0
:1028CA00DF6F000EE06F01EC0CF0ACD0C7A51ED094
:1028DA00CBC0DFF0540EE06F000EE16F50EC0CF04D
:1028EA00200E566E576A890EDF6F440EE06F000E97
:1028FA00E16F5FEC0DF000C0E1F001C0E2F0540EB0
:10290A00DF6F000EE06FCEEC0BF08CD0C7AB67D058
:10291A00C6C0DFF0540EE06F000EE16F50EC0CF011
:10292A00200E566E576AC50EDF6F460EE06F000E18
:10293A00E16F5FEC0DF000C0E1F001C0E2F0540E6F
:10294A00DF6F000EE06FCEEC0BF041D0590EDF6F57
:10295A00460EE06F000EE16F5FEC0DF000C0E1F093
:10296A0001C0E2F0540EDF6F000EE06FCEEC0BF008
:10297A0035D0C80EDF6F460EE06F000EE16F5FECD8
:10298A000DF000C0E1F001C0E2F0540EDF6F000E5E
:10299A00E06FCEEC0BF022D0C6C0DFF0590EE06F2C
:1029AA00000EE16F87EC10F0FA0EDF6F450EE06F54
:1029BA00000EE16F5FEC0DF000C0E1F001C0E2F043
:1029CA00540EDF6F000EE06FCEEC0BF007D0C6514D
:1029DA00000ABCE0C651FF0ACCE0DED723D0C9C04A
:1029EA00DFF0540EE06F000EE16F50EC0CF0200E99
:1029FA00566E576A90EC0DF000C0DFF001C0E0F0AF
:102A0A0002C0E1F05FEC0DF000C0E1F001C0E2F0BD
:102A1A00540EDF6F000EE06F0D0EE36F000EE46FD1
:102A2A00C3EC10F0010EDF6F010EE06F430EE16F91
:102A3A00000EE26FB5EC0CF0020EDF6F010EE06FD4
:0E2A4A00540EE16F000EE26FB5EC0CF01200BE
:102A5800A1EC0CF0380EDF6F430EE06F000EE16F53
:102A68005FEC0DF000C0E1F001C0E2F0020EDF6F94
:102A7800010EE06FB5EC0CF04B0E0501086F096B09
:102A88000A6B0B6B0001C791C7B153D0000EDF6F03
:102A9800050EE06F080EE16F050EE26F8CEC0CF08E
:102AA800DE6BC7B132D0320EDE5D2FE28B80020EB4
:102AB8000B6E860E0C6E990E0D6E0D2EFED70C2E1B
:102AC800FCD70B2EFAD78B90020E0B6E860E0C6E6F
:102AD800990E0D6E0D2EFED70C2EFCD70B2EFAD7A5
:102AE800080EDF6F050EE06F040EE16FF5EC0CF0D9
:102AF8000050000A000ED8A4010E016E01B002D0E9
:102B0800C79101D0C781DE2BCCD7C7B111D0A1ECBA
:102B18000CF0FEEC0BF0990E0B6E310E0C6EA20E43
:102B28000D6E0D2EFED70C2EFCD70B2EFAD70000FB
:102B3800ABD71E0EDF6F430EE06F000EE16F5FEC48
:102B48000DF000C0E1F001C0E2F0020EDF6F010EEF
:082B5800E06FB5EC0CF0120077
:102B60000001736BB2C0E1FFB3C0E2FFE66A040E7E
:102B7000B219E16EB3C0E2FF000EE21AE66AABAF33
:062B800001D0AB9F120022
:102B860035D0828C080E0B6E9D0E0C6E050E0D6EEA
:102B96000D2EFED70C2EFCD70B2EFAD70000000008
:102BA600829C3ED0828E080E0B6E9D0E0C6E050E1C
:102BB6000D6E0D2EFED70C2EFCD70B2EFAD700006D
:102BC6000000829E2DD098DD44DF2AD0CC6B82DDBA
:102BD60027D0FF0E0001CC6F7DDD22D00001C79DFE
:102BE600A1DD1ED0C78D1CD01BD01AD00001C95143
:102BF600010AC7E0C951020AD5E0C951030AE3E058
:102C0600C951040AE3E0C951050AE3E0C951080ABB
:102C1600E5E0C951070AE6E0C951000AE5E0E5D753
:022C260012009A
:102C280020C401F0600E0116050E006E005004E08D
:102C38000132019EFF0FFBD70150000A01E06CD062
:102C480048D00001A68F080EC46F66D0E0EC11F0E2
:102C580063D005EC11F060D0C30E0001A36F000E25
:102C6800A46FA681010EA76FA68F56D0C4DC54D0DE
:102C780036EC11F051D07A0E006E000E016E040190
:102C880024510026D8B0012A00C0A3F001C0A4F046
:102C98000001A681010EA76FA68F3ED00001A68F66
:102CA8007A0EE16E000EE26E04012451E126D8B0DE
:102CB800E22A22C4E6FF30D0020E0001F16F000EB6
:102CC800F26FF36BF46BF56BF66B1BEC0DF024D025
:102CD80023D004012151050AB4E02151060AB6E0C7
:102CE8002151090AB6E02151080AB6E02151000A2B
:102CF800BDE02151010ABCE02151030AB9E021518C
:102D08000A0AB9E021510B0AC9E02151070AD4E0A7
:0A2D180021510C0ADDE0DCD71200A7
:102D22006D980001A6BF49D0ABAF28D0020E736FD9
:102D3200010EB225E16E000EB321E26EE66AB2C068
:102D4200E1FFB3C0E2FFC80EE66E010E7125E16E2F
:102D5200000E7221E26E080EE66E020E7125E16E21
:102D6200000E7221E26E280EE66E040EE66E71C04F
:102D7200E1FF72C0E2FFC80EE66E1ED0010E7125A1
:102D8200E16E000E7221E26E080EE66E020E7125F1
:102D9200E16E000E7221E26E200EE66E040EE66E09
:102DA20071C0E1FF72C0E2FF8C0EE66EB2C0E1FFBD
:102DB200B3C0E2FF840EE66E83D0ABBF81D00401C4
:102DC20020AF56D00001A8510401275D04E10001A3
:102DD200A7510401265D04E226C4A7F027C4A8F087
:102DE20061EC12F0010E736F010E7125E16E000E9F
:102DF2007221E26E080EE66E020E7125E16E000E81
:102E02007221E26E200EE66E040EE66E71C0E1FFE4
:102E120072C0E2FF800EE66E746B010E7725E16EE2
:102E2200000E7821E26E080EE66E020E7725E16E44
:102E3200000E7821E26E200EE66E040EE66E77C07A
:102E4200E1FF78C0E2FF840EE66E010E746F020E9F
:102E5200B225E16E000EB321E26E280EE66E040E7C
:102E6200E66EB2C0E1FFB3C0E2FFC80EE66E28D044
:102E72000001020E736F010EB225E16E000EB32146
:102E8200E26EE66AB2C0E1FFB3C0E2FFC80EE66ED0
:102E9200010E7125E16E000E7221E26E080EE66EE1
:102EA200020E7125E16E000E7221E26E280EE66EB0
:102EB200040EE66E71C0E1FF72C0E2FFC80EE66E5C
:022EC2001200FC
:102EC400010E00017725E96E000E7821EA6EEECF3F
:102ED40000F000C002F0000EAD5D02E10250AC5DF6
:102EE40003E2ACC002F00AD00250AC5D006E000EEA
:102EF400AD59016E00C0ACF001C0ADF0036A0250E0
:102F0400035C1CE2280EE96E040EEA6E0350E92607
:102F1400D8B0EA2AEECF00F0A9C0E1FFAAC0E2FFD0
:102F240000C0E6FF010EA925006E000EAA21016E65
:102F340000C0A9F001C0AAF0032AE1D7000E006E78
:102F4400AD51005C02E1AC51000828E2010E71258C
:102F5400E16E000E7221E26E080EE66E020E71251D
:102F6400E16E000E7221E26E280EE66E040EE66E2D
:102F740077C0E9FF78C0EAFFEECF00F000BC07D0CD
:102F840071C0E1FF72C0E2FFC80EE66E06D071C0E8
:102F9400E1FF72C0E2FF880EE66E19D0010E7125C2
:102FA400E16E000E7221E26E080EE66E020E7125CD
:102FB400E16E000E7221E26E200EE66E040EE66EE5
:102FC40071C0E1FF72C0E2FF840EE66EAB9F120097
:082FD4000001DD51C6271200C7
:102FDC00CAC000F00032009E0032009E0032009EFB
:102FEC000032009E0001DD5100260F0E0014036E0E
:102FFC000F0ECA15026E03C000F0003600900036AA
:10300C00009000360090003600900250001200C074
:04301C00CAF01200E4
:0A3020009484CA94F00EBD1612004D
:08302A000001DD51CB2712006B
:1030320081BC02D0D88001D0D890000ED8B0010E49
:04304200006E12000A
:1030460081BE02D0D88001D0D890000ED8B0010E33
:04305600006E1200F6
:10305A000001C7A123D04B0E0501086FCAC009F5AC
:10306A000A6BC9C00BF5080E0001DF6F050EE06F91
:10307A00040EE16FF5EC0CF0005201E1F4D7050102
:10308A00096B0B6B080E0001DF6F050EE06F040E73
:0E309A00E16FF5EC0CF0005201E1F4D71200EA
:1030A8000001C7A125D0430E0501086FC9C009F565
:1030B8000F0E0001CA1505010A6F080E0001DF6F27
:1030C800050EE06F030EE16FF5EC0CF0005201E124
:1030D800F4D70501096B0A6B080E0001DF6F050EB6
:1030E800E06F030EE16FF5EC0CF0005201E1F4D74C
:0230F8001200C4
:1030FA000001C7A11FD0530E0501086FC9C009F509
:10310A00080E0001DF6F050EE06F020EE16FF5ECAD
:10311A000CF0005201E1F4D70501096B080E000119
:10312A00DF6F050EE06F020EE16FF5EC0CF0005256
:06313A0001E1F4D71200D0
:0A3140009494CA840C0EBD12120014
:10314A00B2C0E9FFB3C0EAFFEECF00F000AE05D08F
:10315A00B2C0E1FFB3C0E2FFE66A00019B6B736B8A
:10316A00A76BA86BA66B5BDD030E0001F16F000E67
:10317A00F26FF36BF46BF56BF66B1BEC0DF0CCDDB9
:02318A00120031
:10318C0000017351020A02E197DE1ED0E3DC745198
:10319C00000A19E1010E7125E16E000E7221E26E3A
:1031AC00080EE66E020E7125E16E000E7221E26EC3
:1031BC00200EE66E040EE66E71C0E1FF72C0E2FFF7
:0A31CC008C0EE66E01D0746B120049
:1031D600B2C0E9FFB3C0EAFFEECF00F0000E00BCBC
:1031E600010E0001F06F040EB219006E00C0B2F0BD
:1031F600C451080A0AE122C46EFF6E50000803E2B9
:10320600100EC46F02D0040EC46F7351010A2BE175
:10321600020EB225E16E000EB321E26E280E006E9C
:10322600040E016E00C0E6FF01C0E6FF61EC12F07D
:103236009B51020A07E1B2C0E1FFB3C0E2FF840E70
:10324600E66E10D0F051000A07E1B2C0E1FFB3C04C
:10325600E2FFC80EE66E06D0B2C0E1FFB3C0E2FFE1
:0A326600880EE66E01D079DC12003C
:103270000001DB6B060EDB5D1BE2350EE96E000E16
:10328000EA6EDB51E926D8B0EA2AEECFDFF0DBC0E8
:1032900000F0000E016E003601360090430E00244F
:1032A000E06F000E0120E16F50EC0CF0DB2BE2D759
:1032B00041C0DFF04F0EE06F000EE16F50EC0CF0FC
:1032C00040C0DFF0510EE06F000EE16F50EC0CF0EB
:1032D000536AC9C0DFF0540EE06F000EE16F50EC8E
:1032E0000CF0200E566E42C0DFF0570EE06F000E5D
:1032F000E16F50EC0CF034C0DFF0590EE06F000EBF
:10330000E16F50EC0CF0200E596E2DC0DFF05B0E1B
:10331000E06F000EE16F50EC0CF02E0E5B6E200E95
:103320005D6E2FC0DFF05E0EE06F000EE16F50ECBF
:103330000CF02EC0DFF0600EE06F000EE16F50EC7D
:103340000CF0200E626F30A003D0750E636F02D0B8
:10335000640E636F646B406A416A010EE96F2CEC86
:1033600002F0010EDF6F010EE06F430EE16F000E01
:10337000E26FB5EC0CF0020EDF6F010EE06F540E41
:0C338000E16F000EE26FB5EC0CF01200E3
:10338C00A6A202D00000FCD7A69CDBC0A9FFDCC023
:10339C00A8FFA69EA684F2CF00F0F29E550EA76E53
:1033AC00AA0EA76EA68200BE02D0F29E01D0F28EAB
:0433BC00A6941200C1
:1033C000F250026EF29E0500FF6A0150FE6E005040
:0833D000FD6E02BEF28E120038
:1033D800000E0001C915026ECA51F00B036EFF0EF4
:1033E800C915006ECA510F0B016EDB510026000E85
:1033F800DBBFFF0E0122FF0E00160F0E0116025052
:1034080000120350011200C0C9F001C0CAF0120036
:1034180093DE050E0C6EAB0E0D6E0D2EFED70C2E28
:0A342800FCD700000000F8DD1200E0
:10343200100E2A6E270E2B6E8B80F00E0001CA151D
:10344200DB6F0AD009DE16D057DE14D02CDE12D084
:10345200C3EC15F00FD00ED00001DB51000AF2E0F0
:10346200DB51100AF1E0DB51200AF0E0DB51F00AF7
:06347200EFE0F1D71200AB
:10347800A69CDBC0A9FFA69EA680A8CF00F01200DC
:10348800426A346A2D6A010E4024006E000E412003
:0C349800016E00C040F001C041F01200C5
:1034A400080E0001D36FD35100081BE2B3DFD2AF83
:1034B4000AD00D0E0C6EDA0E0D6E0D2EFED70C2EEC
:1034C400FCD700000AD0050E0C6EAB0E0D6E0D2E4F
:1034D400FED70C2EFCD700000000D237D291D307C0
:0434E400E2D7120019
:1034E800FD0E00017915016E026AFF0E0216000E2C
:1034F800021802E1000E01186BE17E0E7915016ECB
:1035080001C003F00332039E03C000F0000E016EF9
:10351800003600900136003600900136000E002477
:10352800026E040E0120036E02C077F003C078F02B
:1035380002C071F003C072F0040E7119006E00C071
:1035480071F002C0E9FF03C0EAFFEECF00F000C04F
:1035580001F03C0E01160132019E0132019E01501C
:103568000D0A34E1020E7725E96E000E7821EA6E25
:10357800EECF01F0EECF02F00250040A02E1280E6D
:10358800011822E1020E7725E16E000E7821E26E25
:10359800200EE66E040EE66EEF6B080EEF5D14E289
:1035A800200EE16E040EE26EEF51E126D8B0E22A59
:1035B800280EE96E040EEA6EEF51E926D8B0EA2A21
:1035C800EECFE6FFEF2BE9D7BCDD01D0DBDD0DD078
:1035D800FD0E7915016E026AFF0E0216000E021822
:0C35E80002E1040E011801E1F2DD120006
:1035F400CB50010F006E016A000E0122D2C004F00C
:10360400000E056E28EC0CF0060E026E00C004F0ED
:1036140001C005F0025005E005320432059EFF0F9B
:10362400FAD7040E016E04C000F0015004E0003625
:103634000090FF0FFBD7300E0014036E04C000F09F
:1036440005C001F001320032019E01320032019EB8
:0E36540000C0BEFF0F0EBD160350BD121200C7
:08366200BE6ABD98BD9A12007A
:10366A00010E0001DB6FCCC0DCF08BDE6DEC13F0D9
:02367A0012003C
:04367C00A090120008
:10368000929A92989290929292949296809A80981E
:1036900080968094809280908BEC00F08BEC00F010
:1036A0008BEC00F080828080808A9CEC00F0809A15
:1036B0008BEC00F0808A9CEC00F0809A8BEC00F0A0
:1036C000808A9CEC00F0809A8BEC00F08090808ADD
:1036D0009CEC00F0809A8BEC00F0808A9CEC00F06F
:1036E000809A80928086808A9CEC00F0809A8BEC95
:1036F00000F080968080808A9CEC00F0809A809018
:10370000808A9CEC00F0809A8BEC00F0808A9CEC24
:1037100000F0809A8080808A9CEC00F0809A8BEC8C
:1037200000F08090808A9CEC00F0809A80868084F3
:1037300080828080808A9CEC00F0809A8BEC00F084
:063740000001B681120039
:10374600010E0001DB6F95DE00C0CCF06DEC13F0CE
:0237560012005F
:10375800D2C0DBF03DDE95EC13F0020E3C6ED3C018
:1037680000F0D4C001F028DE005234E00001C7A305
:1037780030D0800E006E800EC8BF7F0E005C02E164
:10378800C851000826E33C063C50000A20E1D2C09C
:10379800DBF01EDE90EC0DF000C0F6FF01C0F7FF75
:1037A80002C0F8FF0900F5CF01F00150000A0BE153
:1037B8000F0E0001C915016E0150000A04E0D2C0C5
:1037C800DBF006DEE7D795EC13F0020E3C6EC793EC
:0637D800C86BC5D712000A
:1037DE00D5C0E1FFD6C0E2FFD2C0E6FFD3C000F0F5
:1037EE00D4C001F0E6DD95EC13F0D7C000F0D8C0E0
:1037FE0001F0DFDD00521DE00001C7A319D0800EDD
:10380E00006E800EC8BF7F0E005C02E1C85100083A
:10381E000FE3D5C0E1FFD6C0E2FFD2C0E6FFD3C0B2
:10382E0000F0D4C001F0C5DD95EC13F0C793C86B62
:04383E00DCD71200C1
:1038420035500001CB1904E03550FF0A01E021D0C8
:1038520036503518006E01E11CD038503718006E12
:1038620001E117D03A503918006E01E112D037C089
:1038720001F0006A39500012000E011200C0C9F0B6
:1038820001C0CAF0C7AD02D0F2DC02D095EC13F051
:04389200CFDD120074
:10389600480E0001E96F2CEC02F0E56B48EC09F0EC
:1038A600040EE56F48EC09F00A0EE56F48EC09F0E6
:1038B600150EE56F48EC09F0040EE56F48EC09F0CB
:1038C600040EE56F48EC09F0E56B48EC09F0E56B92
:1038D60048EC09F0E56B48EC09F0040EE56F48EC9E
:1038E60009F0040EE56F48EC09F0150EE56F48EC9B
:1038F60009F00A0EE56F48EC09F0040EE56F48EC96
:1039060009F0E56B48EC09F0E56B48EC09F0E56B6E
:1039160048EC09F0040EE56F48EC09F0020EE56F7D
:1039260048EC09F01D0EE56F48EC09F0020EE56F54
:1039360048EC09F0040EE56F48EC09F0E56B48EC3D
:1039460009F0E56B48EC09F0E56B48EC09F0040E6C
:10395600E56F48EC09F0080EE56F48EC09F0170E24
:10396600E56F48EC09F0080EE56F48EC09F0040E27
:10397600E56F48EC09F0E56B48EC09F0E56B48ECBF
:1039860009F0E56B48EC09F0E56B48EC09F0090E27
:10399600E56F48EC09F0150EE56F48EC09F0120EDC
:1039A600E56F48EC09F0E56B48EC09F0E56B48EC8F
:1039B60009F0E56B48EC09F01B0EE56F48EC09F0E1
:1039C6001B0EE56F48EC09F01B0EE56F48EC09F09D
:1039D6001B0EE56F48EC09F01B0EE56F48EC09F08D
:1039E6001B0EE56F48EC09F01B0EE56F48EC09F07D
:1039F600E56B48EC09F0E56B48EC09F0100EE56F55
:103A060048EC09F0080EE56F48EC09F0040EE56F86
:103A160048EC09F0020EE56F48EC09F0010EE56F7F
:103A260048EC09F0E56B48EC09F0E56B48EC09F069
:0A3A3600020EE96F2CEC02F0120002
:103A400012EC02F0B76BB86BB96BBA6B6A6A686A52
:103A500047EC01F06D8C6E6A710EF16F0F0EF26F14
:103A6000F36B010EF46F000EF56F01EC0DF06D9C21
:103A7000EF6B080EEF5D16E2EFC000F0000E016E76
:103A8000003600900136003600900136000E00240A
:103A9000E16E040E0120E26EE66AE66AE66AE66A14
:103AA000EF2BE7D7160E706E68A603D0F70E6816D8
:103AB000FBD7A66BAB6BAC6BAD6B6D98080EB26FA2
:0A3AC000040EB36FC36BC46B120059
:103ACA00740E0001F16F000EF26FF36BF46BF56B7D
:103ADA00F66B1BEC0DF06D92699468A403D0FB0E93
:063AEA006816FBD7120074
:103AF00070A019D077C0E9FF78C0EAFFEECF01F0DF
:103B00000150800A0FE1B2C0E9FFB3C0EAFFEECF77
:103B100001F00150840A06E177C0E1FF78C0E2FFBE
:0C3B20008C0EE66E7090DF0E681612002E
:103B2C006984EF0E68166D82750E0001F16F000E40
:103B3C00F26FF36BF46BF56BF66B1BEC0DF0120084
:103B4C002D2A2D50070811E22D6A350EE16E000E5C
:103B5C00E26E3450E126D8B0E22A2CC0E6FF342ABB
:0C3B6C00060E345C02E3030E426E1200F1
:103B7800A090A190040EBA6ECF6ACE6A81DCA080B4
:023B8800120029
:043B8A00A19A1200EA
:103B8E008B8075DDCBC035F00001CB1D006E00C003
:103B9E0036F0CAC037F0CA1D006E00C038F0C9C07A
:103BAE0039F0C91D006E00C03AF0A0EC18F0080EF6
:103BBE000C6EC90E0D6E0D2EFED70C2EFCD700000E
:103BCE00000010EC18F0050E0C6EAB0E0D6E0D2EE7
:103BDE00FED70C2EFCD700000000CD6B060ECD5D7F
:103BEE000DE2350EE96E000EEA6ECD51E926D8B023
:103BFE00EA2AEECFD2F04FDCCD2BF0D706DC040E46
:103C0E000B6E0C0E0C6E330E0D6E0D2EFED70C2E93
:103C1E00FCD70B2EFAD700000000A7DF8B90120006
:103C2E000900F5CFE6FF0006FBE10106F9E11200FF
:103C3E000001C76BCD6B060ECD5D0BE2350EE16E4E
:103C4E00000EE26ECD51E126D8B0E22AE66ACD2B07
:103C5E00F2D7C96BCA6B6F886F94070ED56EB10E13
:103C6E00CD6EB00EB16EF28EF28CA082F19E0F0E62
:103C7E00C16E070EB46EFF0E926EFF0E936E380E6F
:103C8E00946E896A8A6A8B6ACA90CA929C0ECB6EAF
:103C9E00E1DC800ED26FA7DCECDCF6DD010EE96F05
:103CAE002CEC02F00C0EE96F2CEC02F02D0EDF6FF7
:103CBE00440EE06F000EE16F5FEC0DF000C0E1F01E
:103CCE0001C0E2F0010EDF6F010EE06FB5EC0CF0FB
:103CDE00DB6B3CEC1AF000C0CBF02EDD46DF1200A1
:103CEE000001C7A905D081BA01D0FDD7C79951D01F
:103CFE00F00ECA15016E0150F00A34E181BA01D0FE
:103D0E00FDD721D0C775C7A501D005D0DB6BCBC0C1
:103D1E00DCF0C6EC19F025D00001C77BC7AB03D091
:103D2E00CCC0C6F003D0C6C0CCF098DC1AD00001CF
:103D3E00CC6B94DC16D0FF0E0001CC6F8FDC11D053
:103D4E0019EC1AF00ED00001C951000ADBE0C9517E
:103D5E00060AE2E0C951040AEAE0C951050AEBE09D
:103D6E00EFD717D019EC1AF081BA13D00001C7A300
:103D7E000FD0800E006E800EC8BF7F0E005C02E179
:103D8E00C851000805E319EC1AF00001C793C86B7F
:043D9E00EBD712004D
:103DA2000001CA7381B81ED0C7A31BD0800E006E5B
:103DB200800EC8BF7F0E005C02E1C851000811E30B
:103DC200C7B90DD0000EC915006ECA51F00B016EB5
:103DD20000C0C9F001C0CAF0C78995EC13F0C793BF
:0A3DE200C86BE0D795EC13F0120057
:103DEC000001C451010A07E16DBA05D0686A698007
:103DFC006988020EC46F68A405D069A403D0FB0EB9
:103E0C0068165DDE6DA202D0BADE78D068A018D03C
:103E1C0069A016D00FDE040EC46F200E0401026FD1
:103E2C00040E036F080E016F000E0015006E00C02B
:103E3C0000F48C0E0011006E00C000F4FE0E68162B
:103E4C0068A805D069A803D06BDEEF0E681668ACC5
:103E5C0011D069AC0FD0730E0001F16F000EF26F30
:103E6C00F36BF46B010EF56F000EF66F1BEC0DF09F
:103E7C00BF0E681668AA03D069AA01D033DE68A207
:103E8C0010D069A20ED0FF0E0001F16F3F0EF26F41
:103E9C00F36BF46B010EF56F000EF66F1BEC0DF06F
:103EAC006A6A040E0001C45D02E269DE27D069A6CD
:103EBC0024D0EE6B040EEE5D20E268A61AD06CCF17
:103ECC0079F0F70E6816780E7915016E0150000A1C
:103EDC0003E174EC1AF00CD0720EF16F000EF26F5D
:103EEC00790EF36F000EF46FF56BF66B1BEC0DF0A7
:0E3EFC0001D003D00001EE2BDDD741DE120015
:103F0A007AD02F50020802E12E500D08010ED8B0C7
:103F1A00000E016E030E2F5C02E1CF0E2E5C010E25
:103F2A00D8B0000E006E00500116006A30B0002AA8
:103F3A000150001603E0010E426E02D044EC1AF062
:103F4A0068D030B002D0028001D00290000E016E1B
:103F5A002F50015C02E12E50E108010ED8B0000E8C
:103F6A00016E020E2F5C02E1A30E2E5C010ED8B088
:103F7A00000E006E00500116006A02B0002A0150BD
:103F8A00001603E0020E426E02D044EC1AF041D051
:103F9A0030A009D02F50020802E12E50A30802E2F5
:103FAA0044EC1AF022D02F50050802E12E50B60830
:103FBA0003E244EC1AF019D02F50030802E12E5004
:103FCA00F40805E22C362C902C80BBDD0ED0000EB6
:103FDA00006E2F50005C02E12E50E10804E22C36FC
:103FEA002C90AFDD02D044EC1AF013D03EEC1BF05B
:103FFA0023DCBDDD0ED04250000AD8B482D742502D
:10400A00010A9FE04250020AC3E04250030AEEE06E
:04401A00F1D71200C8
:10401E000001C7A515D0CDC0D2F02A0ED36F300E39
:10402E00D46FDD0ED56F000ED66FCEC0D7F0CFC0D9
:10403E00D8F0D0C0D9F0D1C0DAF0EFEC1BF03CD004
:10404E000001C7AB15D0CDC0D2F0D40ED36F2F0E5A
:10405E00D46FDD0ED56F000ED66FCEC0D7F0CFC0A9
:10406E00D8F0D0C0D9F0D1C0DAF0EFEC1BF024D0EC
:10407E000001C7A915D0CDC0D2F0DC0ED36F2F0E24
:10408E00D46FDD0ED56F000ED66FCEC0D7F0CFC079
:10409E00D8F0D0C0D9F0D1C0DAF0EFEC1BF00CD0D4
:1040AE00CDC0D2F0CEC0D3F0CFC0D4F0D0C0D5F0BA
:0A40BE00D1C0D6F0ACEC1BF01200EC
:1040C800BADD0001C7AF03D01CDF0001C79F8BA07A
:1040D8000BD0010E2A5E000E2B5A000E2B1802E19F
:1040E800000E2A18D8B48B90F70E8114006EF70EC4
:1040F800001A005249E0A1EC0CF0C30E0C6ECD0E74
:104108000D6E0D2EFED70C2EFCD7030EC86FB26AAB
:10411800B36AB18081B004D036DD81B001D0FDD75B
:1041280081B204D0CA7181B201D0FDD781B405D063
:104138000001CA7581B401D0FDD781B801D02DDE48
:1041480081BA01D0D0DD81BC0CD0010E0001CD6F49
:10415800320ECE6F300ECF6F000ED06F000ED16FC3
:104168005ADF81BE0CD0FF0E0001CD6F460ECE6F18
:10417800300ECF6F000ED06F000ED16F4CDFB190B4
:104188000001C79395EC13F00001C7B706D084B6B9
:1041980002D0D89007D0D88005D084B602D0D88075
:1041A80001D0D8900CE384A603D02CEC15F002D0F3
:1041B8007FEC13F084B602D0C79701D0C78781D7A8
:0241C800FFD71F
:020006000600F2
:1041CA0005010906A101854B050719E029E7150034
:1041DA0025017501950881027508950181039501EC
:1041EA0026FF0019002AFF008100750195030508C2
:1041FA001901290325019102750595019103C0054D
:10420A00010980A101855319002AFF00150026FF24
:10421A0000750895018100C0050C0901A1018543BB
:10422A0019002A3C021500263C02751095018100EE
:01423A00C0C3
:10423B004003490052004B00210020005200650052
:10424B006D006F0074006500200043006F006E006E
:10425B00740072006F006C006C006500640020003D
:10426B004B006500790062006F0061007200640012
:02427B00000041
:10427D000902290001010180320904000002030036
:10428D0000020921010100012271000705810308C7
:09429D00000A0705010308000CEA
:1042A600120110010000000849524B2103000102CF
:0242B600000105
:1042B8003031323334353637383941424344454654
:0142C80000F5
:1042C90001012053656C656374205573616765004E
:0E42D90049524B212046756E6374696F6E006A
:0E42E7004B65797061642044656C65746500F8
:0E42F50057656220426F6F6B6D61726B7300D4
:0E4303004B657970616420496E7365727400B9
:0D431100526573657420537769746368000A
:0D431E005553422052656164792020200033
:0D432B00506F7765722053776974636800E6
:0D433800456E61626C696E6720555342004E
:0D4345004B657970616420526967687400EF
:0D4352004B657970616420456E74657200E2
:0D435F00436F6E73756D65722044657600C6
:0D436C004D6564696120506C6179657200D7
:0D4379005553422044697361626C65640015
:0D4386005072696E742053637265656E009D
:0C4393005365742041646472657373000C
:0C439F005465787420456469746F7200E6
:0C43AB005765622042726F7773657200E4
:0C43B700576562205265667265736800ED
:0C43C3004B657970616420486F6D6500E7
:0C43CF004B6579706164205067557000E8
:0C43DB005363726F6C6C204C6F636B00BE
:0C43E7004B6579706164204C65667400C1
:0C43F3004C696768742044656C617900B7
:0C43FF004B657970616420446F776E009C
:0C440B004B6579706164205067446E00BE
:0B44170043616C63756C61746F720090
:0B4422004B657970616420456E6400FA
:0B442D0049524B212076322E3038001F
:0B4438005765622053656172636800E5
:0A4443000A03490052004B0021005B
:0A444D004C69676874204F66660032
:0A4457004261636B737061636500DE
:0A4461004D656E7520457869740002
:0A446B0043617073204C6F636B0017
:0A4475004465627567204F6666001B
:0A447F00506F776572206F666600CB
:0A448900042041646472657373003F
:0A4493005061676520446F776E00EA
:0A449D004D656E75205069636B00D9
:0A44A7004B657970616420557000C8
:0944B1004B657970616420300054
:0944BA004B657970616420380043
:0944C3004B657970616420390039
:0944CC004B6579626F61726400B6
:0944D5004465627567204F6E001A
:0944DE004B6579706164202E0029
:0944E7004B6579706164203D0011
:0944F0004B6579706164202D0018
:0944F9004B6579706164202B0011
:094502004B657970616420310001
:09450B004E756D204C6F636B00CE
:094514004B6579706164202F00F1
:09451D004B6579706164202A00ED
:094526004B6579706164203200DC
:09452F004B6579706164203600CF
:0945380053706163656261720059
:094541004B6579706164203700BC
:09454A004B6579706164203300B7
:094553004B6579706164203400AD
:09455C004B6579706164203500A3
:094565005765622053746F700069
:09456E00436F6D707574657200F5
:0945770057656220507265760060
:09458000576562204E6578740055
:09458900496E697420555342008B
:094592004C69676874204F6E004B
:09459B0057656220486F6D650050
:0945A4004B6579626F61726400DD
:0845AD005061676520557000A4
:0745B5004D656E7520030047
:0745BC0044656C65746500A5
:0745C300496E73657274007C
:0745CA0053797374656D0065
:0745D1004D656E75202B0003
:0745D8004D656E75202D00FA
:0745DF004D656E752004001C
:0745E6004D656E7520010018
:0745ED004D656E7520020010
:0645F400456D61696C00D9
:0645FA00207365637300ED
:06460000536C65657000BB
:06460600456A65637400C3
:06460C005348494654002A
:06461200456E74657200A4
:05461800566F6C2D003F
:05461D00566F6C2B003C
:0546220053746F7000ED
:05462700486F6D650005
:05462C004D75746500EE
:054631004D656E7500EF
:0546360043544C20007C
:05463B00414C54200079
:0546400057616B6500ED
:04464500040309045D
:044649003E3E7C0075
:04464D00457363004E
:0446510043682D008D
:04465500546162004A
:044659004F66660042
:04465D00526563003F
:0446610046313000AE
:0446650046313200A8
:0446690046313100A5
:04466D00463234009D
:04467100463233009A
:044675003E2F0600CE
:0446790043682B0067
:04467D004632300091
:044681004631390085
:044685004632320087
:044689004632310084
:04468D00463136007C
:044691004631350079
:04469500456E64000A
:044699007C3C3C0029
:04469D00463134006E
:0446A1004631370067
:0446A5004631380062
:0446A9004631330063
:0346AD0046340090
:0346B0004635008C
:0346B30046360088
:0346B60046330088
:0346B90046320086
:0346BC0046310084
:0346BF003E3E007C
:0346C2003C3C007D
:0346C500042000CE
:0346C8004F6E0032
:0346CB004637006F
:0346CE004638006B
:0346D10046390067
:0246D4000400E0
:0246D6002D00B5
:0246D8000200DE
:0246DA000300DB
:0246DC003700A5
:0246DE003600A4
:0246E0003800A0
:0246E2003000A6
:0246E40039009B
:0246E6002C00A6
:0246E800600070
:0246EA002E00A0
:0246EC000100CB
:0246EE002F009B
:0246F0002700A1
:0246F2005B006B
:0246F4003D0087
:0246F6005D0065
:0246F8003B0085
:0246FA000700B7
:0246FC005A0062
:0246FE00590061
:02470000210096
:02470200230092
:02470400400073
:0247060055005C
:0247080054005B
:02470A00560057
:02470C00580053
:02470E00570052
:0247100029007E
:0247120028007D
:024714005F0044
:024716007B0026
:024718002B0074
:02471A00250078
:02471C00240077
:02471E005E003B
:024720002A006D
:0247220026006F
:02472400530040
:0247260045004C
:0247280044004B
:02472A00460047
:02472C00480043
:02472E00470042
:02473000060081
:024732003E0047
:02473400410042
:0247360043003E
:0247380042003D
:02473A004F002E
:02473C004E002D
:02473E00500029
:02474000520025
:02474200510024
:024744004A0029
:02474600490028
:024748004B0024
:02474A004D0020
:02474C004C001F
:02474E007200F7
:024750007100F6
:024752007300F2
:024754007500EE
:024756007400ED
:024758006D00F2
:02475A006C00F1
:02475C006E00ED
:02475E007000E9
:024760006F00E8
:02476200320023
:02476400310022
:0247660033001E
:0247680035001A
:02476A00340019
:02476C007700D4
:02476E007600D3
:024770007800CF
:024772007A00CB
:024774007900CA
:024776006B00D6
:024778007C00C3
:02477A003F00FE
:02477C006100DA
:02477E007D00BC
:024780003E00F9
:02478200220013
:024784003A00F9
:024786003C00F5
:0247880005002A
:02478A006800C5
:02478C006700C4
:02478E006A00BF
:024790006900BE
:024792006600BF
:024794006300C0
:024796006200BF
:024798006400BB
:02479A006500B8
:01479C00001C
:01479D00001B
:01479E00001A
:01479F000019
:0147A0000018
:0147A1000017
:020000040030CA
:0E000000310E2E1EFF0081FF0FC00FE00F40DB
:00000001FF
