:040000002BEF1CF0D6
:1000080000C01EF001C01DF002C01CF003C01BF0B0
:1000180004C01AF005C019F008C018F009C017F09C
:100028000AC016F00BC015F0E1CF27F0E2CF28F098
:10003800E9CF25F0EACF26F0F3CF23F0F4CF24F070
:10004800F5CF22F0F8CF1FF0F7CF20F0F6CF21F050
:10005800BDEC1AF0A1A00DD0BCCF37F3BBCF36F35F
:10006800BACF5BF3BA70CF6ACE6A0301778FA190DB
:1000780022D0A1A208D0030177837D05006E00C0BD
:100088007DF3A19218D0F2A416D003017505006E75
:1000980000C075F3000E75BFFF0E006E000E00184D
:1000A80002E1000E751902E18B82D59EA40ED76E6F
:1000B800720ED66EF29422C0F5FF1FC0F8FF20C062
:1000C800F7FF21C0F6FF23C0F3FF24C0F4FF1EC0D2
:1000D80000F01DC001F01CC002F01BC003F01AC0E4
:1000E80004F019C005F018C008F017C009F016C0D0
:1000F8000AF015C00BF025C0E9FF26C0EAFF27C0AB
:08010800E1FF28C0E2FF110035
:100110002B0E0C6EDA0E0D6E0D2EFED70C2EFCD7AC
:0401200000001200C9
:0E012400630E0D6E0D2EFED7000000001200BF
:0E0132000000000000000000000000001200AD
:10014000000E056E040E066ECDC303F0000E046EA5
:10015000033604360390033604360390CEC300F012
:10016000000E016E0036013600900050032601504B
:10017000042203C001F004C002F0013601900236EF
:1001800001360190023601C003F002C004F00432CF
:100190000332049E04BC048E04320332049E04BC69
:1001A000048E03C000F004C001F000360090013658
:1001B000003600900136055000260650012200C08E
:1001C00005F001C006F000C0E1FF01C0E2FFE69EBD
:1001D0000301CE51000A12E1CDC300F0000E016E02
:1001E000003600900136570E0024E16E030E012008
:1001F000E26E05C0E6FF06C0E6FF11D0CDC300F0F9
:10020000000E016E0036009001363A0E0024E16EB9
:10021000030E0120E26E05C0E6FF06C0E6FF05C042
:10022000E1FF06C0E2FFE69C040E0524E16E000E2D
:080230000620E26EE68C1200CC
:0E023800800E0301CD11006E00C024F31200F1
:10024600CDC321F3CEC322F3CFC323F3D0C325F30B
:10025600D1C326F3800E0301D211006E00C024F331
:02026600120084
:10026800CDC321F3CEC322F3CFC325F3D0C326F3E6
:10027800800E0301D111006E008000C024F312002B
:0E028800160E6F6E9F0E6B6E7B0E696E12006F
:10029600BAC302F0BBC303F0BDC300F0BEC301F096
:1002A600010E0301BD5F000EBE5B0050011009E0A8
:1002B60002C0E1FF03C0E2FFBCC3E6FF024A032A15
:0402C600EBD7120060
:1002CA000301BABF02D0809601D08086BABD02D09F
:1002DA00809401D08084BABB02D0809201D08082FF
:1002EA00BAB902D0809001D0808020B102D0808833
:1002FA0001D08098808A18DF809ABAB702D0809697
:10030A0001D08086BAB502D0809401D08084BAB375
:10031A0002D0809201D08082BAB102D0809001D0FE
:10032A00808020B102D0808801D08098808AFCDE4B
:0E033A00809A20A102D0E7DE01D0EFDE120093
:10034800BAC304F0BBC305F004C0E9FF05C0EAFF67
:10035800EE5203E0044A052AF7D704C002F005C0AC
:1003680003F0044A052ABCC300F0BDC301F0030131
:10037800BC4BBD2B00C0E9FF01C0EAFF02C0E1FF92
:1003880003C0E2FFEECFE6FF02C0E9FF03C0EAFFC9
:10039800EE5201E0E2D7BAC300F0BBC301F012008D
:1003A800000E0301BB1902E1000EBA1902E1016A4D
:1003B80009D0BAC3E9FFBBC3EAFFEECF00F0016A78
:0A03C80000BE012A01C000F012007F
:1003D200F40E0301146F3C0E156F000E166F4A0ED9
:1003E200176F3D0E186F000E196F400E1A6F3D0EFB
:1003F2001B6F000E1C6FB20E1D6F3C0E1E6F000EA7
:040402001F6F120056
:100406000301BB51000A12E0BAC300F0000E016EF0
:100416000036009001363A0E0024E96E030E0120E4
:10042600EA6EEECF04F0EECF05F011D0BAC300F0BD
:10043600000E016E003600900136570E0024E96E5C
:10044600030E0120EA6EEECF04F0EECF05F0020EA9
:100456000424E16E000E0520E26EBCC3E6FFBDC3B8
:10046600E6FF010E0424E16E000E0520E26EBEC317
:10047600E6FF04C0E9FF05C0EAFFEECF00F004C0C6
:10048600E1FF05C0E2FF400E0014E66E04C0E9FF7E
:1004960005C0EAFFEECF00F004C0E1FF05C0E2FFB1
:1004A600880E0010E66EBB51000A1BE0BAC300F0CE
:1004B600000E016E0036009001363A0E0024026EE0
:1004C600030E0120036E02C0E9FF03C0EAFF040E1B
:1004D600EE18006E02C0E1FF03C0E2FF00C0E6FFB7
:1004E6001AD0BAC300F0000E016E00360090013635
:1004F600570E0024026E030E0120036E02C0E9FFB0
:1005060003C0EAFF040EEE18006E02C0E1FF03C04E
:10051600E2FF00C0E6FF04C000F005C001F01200D3
:0A052600D08EA28AA08AF28E120085
:1005300020C401F01F0E01160150010A01E08BD00A
:1005400004012451000A01E086D02151060A38E155
:100550002DD003014D51010A12E1F40ECD6F3C0E76
:10056000CE6F000ECF6F120ECD27000ECE23CF23FD
:10057000090ED06F000ED16F400ED26F64DE20D016
:1005800003014D51010A0DE1410ECD6F3C0ECE6FBE
:10059000000ECF6F710ED06F000ED16F400ED26F74
:1005A00052DE0ED00301CD6B47DE0AD00401235189
:1005B000210ACFE02351220AE3E02351230AF2E08B
:1005C00020C401F0600E0116050E006E005004E01C
:1005D0000132019EFF0FFBD70150010A01E03BD021
:1005E00027D039D038D0510E0301CD6F030ECE6F16
:1005F000010ECF6F000ED06F400ED16F35DE2BD0C5
:100600000301CD6B19DE23C451F325D00301520E33
:10061000CD6F030ECE6F010ECF6F000ED06FD16B7A
:1006200023DE19D00301CD6B07DE22C452F313D0B1
:1006300004012151010AD5E02151090AD3E02151D9
:10064000020AD1E021510A0ADBE02151030ADEE06F
:0806500021510B0AE7E0120042
:100658000301C951000A12E0C8C300F0000E016E80
:100668000036009001363A0E0024E96E030E012090
:10067800EA6EEECF04F0EECF05F011D0C8C300F05B
:10068800000E016E003600900136570E0024E96E08
:10069800030E0120EA6EEECF04F0EECF05F0020E55
:1006A8000424E16E000E0520E26ECAC3E6FFCBC348
:1006B800E6FF010E0424E16E000E0520E26ECCC3B5
:1006C800E6FF04C0E9FF05C0EAFFEECF00F004C072
:1006D800E1FF05C0E2FF400E0014E66E04C0E9FF2A
:1006E80005C0EAFFEECF00F004C0E1FF05C0E2FF5D
:1006F800880E0010E66EC951000A1BE0C8C300F05E
:10070800000E016E0036009001363A0E0024026E8B
:10071800030E0120036E02C0E9FF03C0EAFF040EC6
:10072800EE18006E02C0E1FF03C0E2FF00C0E6FF62
:100738001AD0C8C300F0000E016E003600900136D2
:10074800570E0024026E030E0120036E02C0E9FF5B
:1007580003C0EAFF040EEE18006E02C0E1FF03C0FA
:10076800E2FF00C0E6FF04C000F005C001F012007F
:10077800700EE16E0F0EE26E0301C851E126D8B08B
:10078800E22AC9C3E6FFC9A504D0C8C3CDF3CE6B1E
:10079800D3DCC9A305D0C8C3CDF3010ECE6FCCDC22
:0207A80012003D
:1007AA004D0E0301AF6F650EB06F6E0EB16F750E11
:1007BA00B26F200EB36F200EB46F200EB56F200EED
:1007CA00B66F200EB76F200EB86FB96BB46BAF0E51
:1007DA00BA6F030EBB6FADC3BCF3AEC3BDF3AFDDDF
:0207EA001200FB
:1007EC0003014E51000A0AE16D6A696A47DD95DE24
:0E07FC006DB602D06D86FCD7010E4E6F120056
:10080A0090D1B70E006E000E016EC9D2B20E006E04
:10081A00000E016EC4D2B40E006E000E016EBFD27D
:10082A00B90E006E000E016EBAD2BF0E006E000E37
:10083A00016EB5D2C10E006E000E016EB0D2BB0EB3
:10084A00006E000E016EABD2BD0E006E000E016E80
:10085A00A6D28A0E006E000E016EA1D23F0E006E65
:10086A00000E016E9CD2410E006E000E016E97D2F0
:10087A003B0E006E000E016E92D23D0E006E000E0F
:10088A00016E8DD2430E006E000E016E88D2490EA3
:10089A00006E000E016E83D24B0E006E000E016ECA
:1008AA007ED2450E006E000E016E79D2470E006EA2
:1008BA00000E016E74D22D0E006E000E016E6FD204
:1008CA002F0E006E000E016E6AD2290E006E000E07
:1008DA00016E65D22B0E006E000E016E60D2310ED3
:1008EA00006E000E016E5BD2370E006E000E016EB6
:1008FA0056D2390E006E000E016E51D2330E006EC2
:10090A00000E016E4CD2350E006E000E016E47D2FB
:10091A004D0E006E000E016E42D2780E006E000E71
:10092A00016E3DD27A0E006E000E016E38D2740E40
:10093A00006E000E016E33D2760E006E000E016E4E
:10094A002ED27C0E006E000E016E29D2860E006E2B
:10095A00000E016E24D2880E006E000E016E1FD2A8
:10096A007E0E006E000E016E1AD2800E006E000E10
:10097A00016E15D25C0E006E000E016E10D2600E72
:10098A00006E000E016E0BD24F0E006E000E016E4D
:10099A0006D2530E006E000E016E01D26A0E006E70
:1009AA00000E016EFCD1700E006E000E016EF7D1C2
:1009BA00720E006E000E016EF2D16C0E006E000E09
:1009CA00016EEDD16E0E006E000E016EE8D1D50EED
:1009DA00006E000E016EE3D1110E006E010E016E63
:1009EA00DED1130E006E010E016ED9D10D0E006E0E
:1009FA00010E016ED4D10F0E006E010E016ECFD121
:100A0A00150E006E010E016ECAD11D0E006E010E8A
:100A1A00016EC5D1240E006E010E016EC0D1170EF3
:100A2A00006E010E016EBBD11A0E006E010E016E30
:100A3A00B6D1F50E006E000E016EB1D1F80E006E41
:100A4A00000E016EACD1EF0E006E000E016EA7D142
:100A5A00F20E006E000E016EA2D1FB0E006E000EA9
:100A6A00016E9DD1060E006E010E016E98D1090E1F
:100A7A00006E010E016E93D1FE0E006E000E016E25
:100A8A008ED1020E006E010E016E89D1270E006E04
:100A9A00010E016E84D1450E006E010E016E7FD1EA
:100AAA004C0E006E010E016E7AD13C0E006E010EE4
:100ABA00016E75D1400E006E010E016E70D14E0EA0
:100ACA00006E010E016E6BD15A0E006E010E016EA0
:100ADA0066D15E0E006E010E016E61D1530E006E7C
:100AEA00010E016E5CD1580E006E010E016E57D1D7
:100AFA00370E006E010E016E52D1390E006E010ED4
:100B0A00016E4DD12E0E006E010E016E48D1300ECF
:100B1A00006E010E016E43D13B0E006E010E016E96
:100B2A003ED103017A51040AD8B46BD67A51050A28
:100B3A00D8B46CD67A51060AD8B46DD67A51070A57
:100B4A00D8B46ED67A51080AD8B46FD67A51090A3F
:100B5A00D8B470D67A510A0AD8B471D67A510B0A27
:100B6A00D8B472D67A510C0AD8B473D67A510D0A0F
:100B7A00D8B474D67A510E0AD8B475D67A510F0AF7
:100B8A00D8B476D67A51100AD8B477D67A51110ADF
:100B9A00D8B478D67A51120AD8B479D67A51130AC7
:100BAA00D8B47AD67A51140AD8B47BD67A51150AAF
:100BBA00D8B47CD67A51160AD8B47DD67A51170A97
:100BCA00D8B47ED67A51180AD8B47FD67A51190A7F
:100BDA00D8B480D67A511A0AD8B481D67A511B0A67
:100BEA00D8B482D67A511C0AD8B483D67A511D0A4F
:100BFA00D8B484D67A511E0AD8B485D67A511F0A37
:100C0A00D8B486D67A51200AD8B487D67A51210A1E
:100C1A00D8B488D67A51220AD8B489D67A51230A06
:100C2A00D8B48AD67A51240AD8B48BD67A51250AEE
:100C3A00D8B48CD67A51260AD8B48DD67A51270AD6
:100C4A00D8B48ED67A51280AD8B48FD67A51290ABE
:100C5A00D8B490D67A512A0AD8B491D67A512B0AA6
:100C6A00D8B492D67A512C0AD8B493D67A512D0A8E
:100C7A00D8B494D67A512E0AD8B495D67A512F0A76
:100C8A00D8B496D67A51300AD8B497D67A51310A5E
:100C9A00D8B498D67A51330AD8B499D67A51340A44
:100CAA00D8B49AD67A51350AD8B49BD67A51360A2C
:100CBA00D8B49CD67A51370AD8B49DD67A51380A14
:100CCA00D8B49ED67A51390AD8B49FD67A513A0AFC
:100CDA00D8B4A0D67A513B0AD8B4A1D67A513C0AE4
:100CEA00D8B4A2D67A513D0AD8B4A3D67A513E0ACC
:100CFA00D8B4A4D67A513F0AD8B4A5D67A51400AB4
:100D0A00D8B4A6D67A51410AD8B4A7D67A51420A9B
:100D1A00D8B4A8D67A51430AD8B4A9D67A51440A83
:100D2A00D8B4AAD67A51450AD8B4ABD67A51460A6B
:100D3A00D8B4ACD67A51470AD8B4ADD67A51480A53
:100D4A00D8B4AED67A51490AD8B4AFD67A514A0A3B
:100D5A00D8B4B0D67A514B0AD8B4B1D67A514C0A23
:100D6A00D8B4B2D67A514D0AD8B4B3D67A514E0A0B
:100D7A00D8B4B4D67A514F0AD8B4B5D67A51500AF3
:100D8A00D8B4B6D67A51510AD8B4B7D67A51520ADB
:100D9A00D8B4B8D67A51530AD8B4B9D6BDD6120047
:100DAA00200E03014E5D03E36DB201D002D0006A4A
:100DBA0036D032C3BAF333C3BBF3D4EC01F00052DA
:100DCA002DE1B0C3BAF3010EBB6FADC3BCF3AEC322
:100DDA00BDF3AFC3BEF303EC02F000C032F301C0AF
:100DEA0033F3536B546B556B566B32C3BAF333C33D
:100DFA00BBF3D4EC01F0005208E0535154115511E1
:100E0A00561102E0006A0BD0F0D7010E3225E96EC6
:100E1A00000E3321EA6EEECF00F001D0006A120014
:100E2A00E9EC01F0306B316B326B336B6A6A686ADA
:100E3A0044EC01F06D8C6E6A710EBA6F0F0EBB6FC7
:100E4A00BC6B010EBD6F000EBE6F4BEC01F06D9CCA
:100E5A00AD6B080EAD5D16E2ADC300F0000E016E7B
:100E6A00003600900136003600900136000E00244C
:100E7A00E16E040E0120E26EE66AE66AE66AE66A56
:100E8A00AD2BE7D7160E706E68A603D0F70E68165C
:100E9A00FBD7246B296B2A6B2B6B6D98080E3A6F64
:0A0EAA00040E3B6F4D6B4E6B1200FF
:100EB400086A080E0C6E003408360450085ED8B078
:0E0EC40002D00826D89000360C2EF5D712006A
:0A0ED2006D6A696A03014E6B12009D
:0C0EDC0003014A5302E098EC02F01200FF
:100EE80003014A5315E0010EC86F1E0EC96F40DC9E
:100EF800010EC86FC96B4BC3CAF34CC3CBF3400E8A
:100F0800CC6F2CEC03F000C030F301C031F314D0E7
:100F1800010EC86F1E0EC96F2BDC010EC86FC96B9E
:100F28004BC3CAF34CC3CBF3400ECC6F2CEC03F08D
:0A0F380000C030F301C031F31200D5
:100F420003012091ADC3BAF365EC01F020811200D8
:100F5200F0D0230E006E020E016EA9D1210E006E9A
:100F6200020E016EA4D11F0E006E020E016E9FD101
:100F7200290E006E020E016E9AD1270E006E020E2D
:100F8200016E95D1550E006E020E016E90D1650E66
:100F9200006E020E016E8BD1690E006E020E016EA2
:100FA20086D1590E006E020E016E81D1570E006E6F
:100FB200020E016E7CD1610E006E020E016E77D1BF
:100FC2005D0E006E020E016E72D15F0E006E020E99
:100FD200016E6DD15B0E006E020E016E68D16B0E5A
:100FE200006E020E016E63D16D0E006E020E016E76
:100FF2005ED1630E006E020E016E59D1670E006E55
:10100200020E016E54D1250E006E020E016E4FD1FA
:10101200A20E006E000E016E4AD1A40E006E000EEA
:10102200016E45D19E0E006E000E016E40D1A00EE3
:10103200006E000E016E3BD1A60E006E000E016E18
:1010420036D1AC0E006E000E016E31D1AE0E006EC6
:10105200000E016E2CD1A80E006E000E016E27D17B
:10106200AA0E006E000E016E22D1900E006E000ECE
:10107200016E1DD1920E006E000E016E18D18C0E03
:10108200006E000E016E13D18E0E006E000E016E08
:101092000ED1940E006E000E016E09D19A0E006EF2
:1010A200000E016E04D19C0E006E000E016EFFD088
:1010B200960E006E000E016EFAD0980E006E000EB3
:1010C200016EF5D0B00E006E000E016EF0D0C70EAC
:1010D200006E000E016EEBD0C90E006E000E016EA6
:1010E200E6D0C30E006E000E016EE1D0C50E006E9A
:1010F200000E016EDCD0CB0E006E000E016ED7D05A
:10110200D10E006E000E016ED2D0D30E006E000E14
:10111200016ECDD0CD0E006E000E016EC8D0CF0E86
:10112200006E000E016EC3D0B60E006E000E016E90
:10113200BED003017A51040AD8B40BD77A51050AFA
:10114200D8B40CD77A51060AD8B40DD77A51070A07
:10115200D8B40ED77A51080AD8B40FD77A51090AEF
:10116200D8B410D77A510A0AD8B411D77A510B0AD7
:10117200D8B412D77A510C0AD8B413D77A510D0ABF
:10118200D8B414D77A510E0AD8B415D77A510F0AA7
:10119200D8B416D77A51100AD8B417D77A51110A8F
:1011A200D8B418D77A51120AD8B419D77A51130A77
:1011B200D8B41AD77A51140AD8B41BD77A51150A5F
:1011C200D8B41CD77A51160AD8B41DD77A51170A47
:1011D200D8B41ED77A51180AD8B41FD77A51190A2F
:1011E200D8B420D77A511A0AD8B421D77A511B0A17
:1011F200D8B422D77A511C0AD8B423D77A511D0AFF
:10120200D8B424D77A511E0AD8B425D77A511F0AE6
:10121200D8B426D77A51200AD8B427D77A51210ACE
:10122200D8B428D77A51220AD8B429D77A51230AB6
:10123200D8B42AD77A51240AD8B42BD77A51250A9E
:10124200D8B42CD77A51260AD8B42DD77A51270A86
:10125200D8B42ED77A512D0AD8B42FD77A512E0A64
:10126200D8B430D77A512F0AD8B431D77A51300A4C
:10127200D8B432D77A51310AD8B433D77A51330A33
:10128200D8B434D77A51340AD8B435D77A51350A1A
:10129200D8B436D77A51360AD8B437D77A51370A02
:1012A200D8B438D77A51380AD8B439D73DD71200D2
:1012B2000B6A0A6A096A00500402F4CF09F0F3CFFC
:1012C20008F001500502F4CF0BF0F3CF0AF0005002
:1012D2000502F3500926F4500A22E86A0B22015053
:1012E2000402F3500926F4500A22E86A0B2208C0CD
:1012F20000F009C001F00AC002F00BC003F01200B6
:04130200E7DD120011
:10130600A7C304F0A8C305F004C002F005C003F0AB
:10131600044A052AA9C300F0AAC301F00301A94B98
:10132600AA2B00C0E9FF01C0EAFF02C0E1FF03C02B
:10133600E2FFEECFE6FF02C0E9FF03C0EAFFEE528E
:0E13460001E0E2D7A7C300F0A8C301F0120037
:1013540010D0800E0301A76F1AD0C00EA76F17D04C
:10136400940EA76F14D0D40EA76F11D0800EA76F60
:101374000ED00301A751010AECE0A751020AEDE0E7
:10138400A751030AEDE0A751040AEDE0EFD7A80541
:10139400006EA751002600C0A7F300C0BAF365ECA5
:1013A40001F02091AB6BAB51A925E96E000EAA2187
:1013B400EA6EEE520BE0AB51A925E96E000EAA21AC
:1013C400EA6EEECFADF3BBDDAB2BEDD7208112007F
:1013D40003017C51000A01E10ED07C51FF0A01E1B6
:1013E4000AD08B927CC375F3A40ED76E720ED66EA0
:0813F400F294F28AD58E12007A
:1013FC00010E03014A6FA7C34BF3A8C34CF3A9C357
:10140C004FF3AAC350F30BDD010E016E0150010A1C
:08141C0002E1F6EC03F01200FE
:10142400F00E0301A715026E02C000F00032009E08
:101434000032009E0032009E0032009E2F0E0024D7
:10144400F66E3D0EF76E000EF722000EF86E000EDB
:10145400F8220900F5CF00F0A8C3E1FFA9C3E2FF19
:1014640000C0E6FFA84BA92B0F0EA715006E2F0E88
:101474000024F66E3D0EF76E000EF722000EF86E95
:10148400000EF8220900F5CF00F0A8C3E1FFA9C3BC
:08149400E2FF00C0E6FF1200B8
:10149C000301AA6B030EAA5D0AE2AA51A825E16E0C
:1014AC00000EA921E26E200EE66EAA2BF3D7AA51EC
:1014BC00A825E16E000EA921E26EE66AAA07AA51E0
:1014CC00A825AB6F000EA921AC6F0A0E046EA7C342
:1014DC0000F0EADC08C000F0300E0026ABC3E1FFE0
:1014EC00ACC3E2FF00C0E6FF0A0E046EA7C300F017
:1014FC00DBDC00C0A7F30050000A01E102D0AA0710
:04150C00DED7120014
:10151000C2C302F0C3C303F0C5C300F0C6C301F0E9
:10152000010E0301C55F000EC65B0050011009E00B
:1015300002C0E1FF03C0E2FFC4C3E6FF024A032A80
:04154000EBD71200D3
:101544000CD0D0DC3CD03BD0C7DC39D038D037D03D
:1015540036D035D0000033D032D0000E0301C31989
:1015640002E1010EC219EDE0000EC31902E1020E00
:10157400C219E9E0000EC31902E1030EC219E4E046
:10158400C351000A02E1730EC219E0E0C351000A1C
:1015940002E1750EC219DBE0C351000A02E1740EC8
:1015A400C219D6E0C3513F0A02E1FF0EC219D1E0CD
:1015B400C351000A02E1720EC219CCE0CDD7010E6C
:0415C400006E1200A3
:1015C800A7C304F0A8C305F004C0E9FF05C0EAFFFB
:1015D800EE5203E0044A052AF7D70301AB51AC11D8
:1015E80021E004C002F005C003F0044A052AA9C39B
:1015F80000F0AAC301F0A94BAA2B00C0E9FF01C063
:10160800EAFF02C0E1FF03C0E2FFEECFE6FF02C03F
:10161800E9FF03C0EAFFEE5205E0010EAB5F000EE2
:10162800AC5BDBD7000EAC1902E1000EAB1905E18B
:1016380004C0E1FF05C0E2FFE66AA7C300F0A8C343
:0416480001F012009B
:10164C007AC3A7F37BC3A8F3F00E03017B15A96F34
:10165C001DD205EC04F000C060F301C061F303017E
:10166C007BA315D070DC00C062F301C063F300C033
:10167C00E9FF01C0EAFFEE5205E062C300F063C36C
:10168C0001F014D260C300F061C301F00FD260C34B
:10169C0000F061C301F00AD214D0710E006E010E7D
:1016AC00016E04D26B0E006E010E016EFFD1AC0EFA
:1016BC00006E010E016EFAD1C80E006E010E016EA5
:1016CC00F5D10301A851100A02E1810EA719E5E03A
:1016DC00A851100A02E1820EA719E4E0A851100AE1
:1016EC0002E1830EA719E3E0E7D7A9D0C70EAD6FCF
:1016FC00010EAE6FD5EC03F0D9D1C40EAD6F010E57
:10170C00AE6FD5EC03F0D2D1CD0EAD6F010EAE6F36
:10171C00D5EC03F0CBD1CB0EAD6F010EAE6FD5EC8B
:10172C0003F0C4D1C90EAD6F010EAE6FD5EC03F052
:10173C00BDD1BA0EAD6F010EAE6FD5EC03F0B6D1C4
:10174C00B50EAD6F010EAE6FD5EC03F0AFD1B10E8F
:10175C00006E010E016EAAD1C00E006E010E016E5C
:10176C00A5D1BE0E006E010E016EA0D1BC0E006E96
:10177C00010E016E9BD1A60E006E020E016E96D16B
:10178C00A30E006E020E016E91D1A00E006E020E21
:10179C00016E8CD1B30E006E020E016E87D1AF0EAE
:1017AC00006E020E016E82D1AA0E006E020E016E48
:1017BC007DD19C0E006E020E016E78D1790E006EFA
:1017CC00020E016E73D1740E006E020E016E6ED19C
:1017DC006F0E006E020E016E69D18F0E006E020E3E
:1017EC00016E64D1890E006E020E016E5FD17E0E09
:1017FC00006E020E016E5AD1B70E006E020E016E13
:10180C0055D1000E006E030E016E50D1050E006E08
:10181C00030E016E4BD10A0E006E030E016E46D103
:10182C000F0E006E030E016E41D1CB0E006E020E38
:10183C00016E3CD1CA0E006E020E016E37D1A8515A
:10184C00200A02E1400EA719D8B450D7A851200A9B
:10185C0002E1410EA719D8B450D7A851200A02E1D1
:10186C00420EA719D8B450D7A851200A02E1430E52
:10187C00A719D8B450D7A851200A02E1440EA719D1
:10188C00D8B450D7A851200A02E1450EA719D8B4F4
:10189C0050D7A851200A02E1460EA719D8B450D748
:1018AC00A851200A02E19C0EA719D8B450D7A85110
:1018BC00200A02E19D0EA719D8B44ED7A851200AD0
:1018CC0002E1B00EA719D8B44CD7A851200A02E1F6
:1018DC00B10EA719D8B44AD7A851200A02E1B20E0A
:1018EC00A719D8B448D7A851200A02E1B30EA719FA
:1018FC00D8B446D7A851200A02E1B40EA719D8B41F
:10190C0044D7A851200A02E1B50EA719D8B442D782
:10191C00A851200A02E1B60EA719D8B440D7A85195
:10192C00200A02E1B70EA719D8B43ED7A851200A55
:10193C0002E1CD0EA719D8B43CD7A851200A02E178
:10194C00E20EA719D8B43AD7A851200A02E1E90E41
:10195C00A719D8B438D7A851200A02E1EA0EA71962
:10196C00D8B436D7A851210A02E1830EA719D8B4EE
:10197C0034D7A851210A02E18A0EA719D8B432D75C
:10198C00A851210A02E1920EA719D8B430D7A85158
:10199C00220A02E1210EA719D8B42ED7A851220A87
:1019AC0002E1230EA719D8B42CD7A851220A02E1C0
:1019BC00240EA719D8B42AD7A851220A02E1250E61
:1019CC00A719D8B428D7A851220A02E1260EA719C4
:1019DC00D8B426D7A851220A02E1270EA719D8B4E9
:1019EC0024D728D732D0BE0E006E020E016E5ED008
:1019FC00D30E006E020E016E59D0F30E006E020E65
:101A0C00016E54D0EA0E006E020E016E4FD0E00E45
:101A1C00006E020E016E4AD0410E006E020E016E77
:101A2C0045D0350E006E020E016E40D02B0E006EAE
:101A3C00020E016E3BD04C0E006E020E016E36D0C3
:101A4C004B0E006E020E016E31D07A51000ACBE0C3
:101A5C007A51010ACDE07A51020ACFE07A51030A99
:101A6C00D1E07A51040AD3E07A51050AD5E07A51D3
:101A7C00060AD7E07A51080AD9E07A51070ADBE066
:101A8C00DFD74A0E006E020E016E10D0A951000A6B
:101A9C00D8B4DFD5A951100AD8B4FED5A951200A63
:0E1AAC00D8B423D6A951F00A9DE0EBD7120062
:101ABA00A7C3ADF3A8C3AEF3A9C3AFF3010E0301E5
:081ACA00B06FD5EC06F012002C
:101AD2000301248F710EC26F0F0EC36FC46B010E10
:101AE200C56F000EC66F13DD460EC26F030EC36FC5
:101AF200C46B010EC56F000EC66F09DD22C44DF323
:101B02004D51000A03E1100E4E6F0FD0200E4E6FA2
:101B1200010EC26F000EC36F4D0EC46F030EC56F70
:0C1B2200010EC66F000EC76F0CDD120034
:101B2E0004012251010A13E120C401F01F0E011617
:101B3E000150000A0CE10301248F04012151030A14
:101B4E0004E1010E0301476F02D00301476B04014C
:101B5E002251000AD8A48DD020C401F01F0E011608
:101B6E000150020AD8A485D024C401F00F0E01162C
:101B7E000150000AD8B47DD00301248F040124BF84
:101B8E0016D024C403F00F0E031603C000F0000E8F
:101B9E00016E003600900136570E0024E96E030EDA
:101BAE000120EA6EEECF04F0EECF05F015D024C47E
:101BBE0003F00F0E031603C000F0000E016E003688
:101BCE00009001363A0E0024E96E030E0120EA6EF3
:101BDE00EECF04F0EECF05F02151030A07E104C069
:101BEE00E1FF05C0E2FF840EE66E43D024C400F090
:101BFE000F0E0016700E026E0F0E036E00500226B0
:101C0E00D8B0032A02C0E9FF03C0EAFFFE0EEE14AD
:101C1E00006EEECF01F0FF0E011602C0E1FF03C011
:101C2E00E2FF00C0E6FF01C0E6FF24AF11D004C002
:101C3E00E1FF05C0E2FFE66A040E0418006E00C064
:101C4E0004F004C0E1FF05C0E2FF400EE66E11D0C5
:101C5E0004C0E1FF05C0E2FF880EE66E040E041814
:101C6E00006E00C004F004C0E1FF05C0E2FFC80E24
:041C7E00E66E1200FC
:101C820004012051800AD8A47BD0C00E0301246F26
:101C92006CD003011D0E006E3D0E016E000E026E31
:101CA20000C021F301C022F302C023F3120E256FFC
:101CB200000E266F65D00301030E006E000E016E4A
:101CC20022C404F0000E056E59EC09F0140E002433
:101CD200E96E030E0120EA6EEECF21F3EECF22F37E
:101CE200EECF23F3020E2125F66E000E2221F76EAF
:101CF200000E2321F86E0900F5CF00F00900F5CFA0
:101D020001F000C025F301C026F33AD0030E04010E
:101D1200225D25E2030E006E000E016E22C404F065
:101D2200000E056E59EC09F0170E0024E96E030E41
:101D32000120EA6EEECF21F3EECF22F3EECF23F3B2
:101D420021C3F6FF22C3F7FF23C3F8FF0900F5CF33
:101D520000F000C025F3000E0301266F02D003013C
:101D6200246B0ED00301246B0BD004012351010A12
:101D720090E02351020A9FE02351030AC7E0F2D701
:021D820012004D
:101D8400000E0301265D02E1080E255D10E225C365
:101D940003F026C304F04451000A03E1010E446F2A
:101DA40005D04451010A02E1020E446F04D0080E2A
:101DB400036E000E046E3AC3E1FF3BC3E2FFE692FA
:101DC4003AC3E1FF3BC3E2FFE6903AC3E9FF3BC3FA
:101DD400EAFFEECF00F03AC3E1FF3BC3E2FF045059
:101DE4000010E66E010E3A25E16E000E3B21E26E14
:101DF40003C0E6FF0350255D006E04502659016EB2
:101E040000C025F301C026F3280E486F040E496F65
:101E140024B12FD0035004102BE021C3F6FF22C3BA
:101E2400F7FF23C3F8FF0900F5CF00F048C3E1FF33
:101E340049C3E2FF00C0E6FF484B492B010E2125B0
:101E4400006E000E2221016E000E2321026E00C0DE
:101E540021F301C022F302C023F3010E035C006EE0
:101E6400000E0458016E00C003F001C004F0D2D784
:101E740024D00350041021E021C3E9FF22C3EAFF68
:101E840048C3E1FF49C3E2FFEECFE6FF484B492BCD
:101E9400010E2125006E000E2221016E00C021F3E7
:101EA40001C022F3010E035C006E000E0458016EA3
:0C1EB40000C003F001C004F0DCD71200F5
:101EC0000401286B296B4AD00301248F0401288167
:101ED00003014751010A02E10401288354D00301A0
:101EE000248F51D00301248F040124BF16D024C4B1
:101EF00003F00F0E031603C000F0000E016E003653
:101F000000900136570E0024E96E030E0120EA6EA0
:101F1000EECF04F0EECF05F015D024C403F00F0E81
:101F2000031603C000F0000E016E0036009001366B
:101F30003A0E0024E96E030E0120EA6EEECF04F0A3
:101F4000EECF05F004C0E9FF05C0EAFFEECF01F0D7
:101F500001A403D00401010E286F15D020C401F0A4
:101F60001F0E01160150000AAFE020C401F01F0E41
:101F700001160150010AB3E020C401F01F0E011642
:101F80000150020AAFE0030124AF07D0280E216FF1
:0C1F9000040E226F2481020E256F120047
:101F9C0008D08B82D59E0DD08B92D59E0AD0D58E33
:101FAC0008D003017C51000AF4E07C51FF0AF4E0F4
:041FBC00F6D7120042
:101FC000EAEC09F0020EA76F010EA86FDC0EA96FF4
:101FD000010EAA6FAAEC09F04B0E0501086F096B00
:101FE0000A6B0B6B0301779177B152D0000EA76F8C
:101FF000050EA86F080EA96F050EAA6FFEEC09F07A
:10200000A66B77B131D0320EA65D2EE28B80020E28
:102010000B6E860E0C6E990E0D6E0D2EFED70C2ECD
:10202000FCD70B2EFAD78B90020E0B6E860E0C6E21
:10203000990E0D6E0D2EFED70C2EFCD70B2EFAD757
:10204000080EA76F050EA86F040EA96F36DD0050AD
:10205000000A000ED8A4010E016E01B002D07791E3
:1020600001D07781A62BCDD777B111D0EAEC09F05A
:1020700081EC09F0990E0B6E310E0C6EA20E0D6EF6
:102080000D2EFED70C2EFCD70B2EFAD70000ACD7A6
:10209000020EA76F010EA86FCF0EA96F010EAA6FD7
:0620A000AAEC09F0120099
:1020A600010E0301BA6F65EC01F07BC3A7F3840E42
:1020B600A86F030EA96F12EC0AF0200E866F876BCD
:1020C600F00E7B15A66F5FD077A90BD0840EBA6F82
:1020D600030EBB6F160EBC6F020EBD6FA4EC01F0B3
:1020E60030D07BA10AD0840EBA6F030EBB6FF40EFC
:1020F600BC6F010EBD6FA4EC01F07BA50AD0840E67
:10210600BA6F030EBB6FEF0EBC6F010EBD6FA4EC72
:1021160001F07BA30AD0840EBA6F030EBB6FE90EE3
:10212600BC6F010EBD6FA4EC01F087530AE1840E6B
:10213600BA6F030EBB6F0D0EBC6F020EBD6FA4EC23
:1021460001F02ED0840EBA6F030EBB6F060EBC6F65
:10215600020EBD6FA4EC01F023D0840EBA6F030EFD
:10216600BB6FF90EBC6F010EBD6FA4EC01F018D069
:10217600840EBA6F030EBB6F8B0EBC6F010EBD6F64
:10218600A4EC01F00DD0A651000A9EE0A651100A5B
:10219600D9E0A651200AE1E0A651F00AE9E0F2D71B
:1021A60077A90BD0640EA76F030EA86F7B0EA96FDD
:1021B600010EAA6F83EC09F07DD077A516D079C3FE
:1021C600A7F3640EA86F030EA96F12EC0AF0200E97
:1021D600666F676B640EBA6F030EBB6FA10EBC6FA2
:1021E600010EBD6FA4EC01F065D077AB47D078C384
:1021F600A7F3640EA86F030EA96F12EC0AF0200E67
:10220600666F676B640EBA6F030EBB6F9D0EBC6F75
:10221600010EBD6FA4EC01F029D0640EBA6F030E57
:10222600BB6F990EBC6F010EBD6FA4EC01F025D0FB
:10223600640EBA6F030EBB6F680EBC6F010EBD6FE6
:10224600A4EC01F01AD078C3A7F36A0EA86F030EA8
:10225600A96F4EEC0AF0640EBA6F030EBB6F620EE6
:10226600BC6F010EBD6FA4EC01F007D07851000AD7
:10227600D4E07851FF0ADCE0E6D71CD07AC3A7F396
:10228600640EA86F030EA96F12EC0AF0200E666F9B
:10229600676B26EC0BF000C0A9F301C0AAF3640E2D
:1022A6000301A76F030EA86F0D0EAB6F000EAC6F88
:1022B600E4EC0AF0010EA76F010EA86F840EA96F59
:1022C600030EAA6FAAEC09F0020EA76F010EA86F03
:0E22D600640EA96F030EAA6FAAEC09F01200A5
:1022E40081EC09F0020EA76F010EA86FD70EA96F3B
:0C22F400000EAA6FAAEC09F0779112000E
:1023000003013E6B3AC3E1FF3BC3E2FFE66A040E02
:102310003A19E16E3BC3E2FF000EE21AE66A29AF0A
:0623200001D0299F12000C
:1023260081BE02D0D88001D0D890000ED8B0010E60
:04233600006E120023
:10233A0020C401F0600E0116050E006E005004E084
:10234A000132019EFF0FFBD70150000A01E06BD05A
:10235A0047D00301248F080E4E6F65D08DDC63D001
:10236A0069EC0DF060D04D0E0301216F030E226F50
:10237A002481010E256F248F56D09DDD54D097EC11
:10238A000DF051D0460E006E030E016E0401245169
:10239A000026D8B0012A00C021F301C022F30301AC
:1023AA002481010E256F248F3ED00301248F460E0F
:1023BA00E16E030EE26E04012451E126D8B0E22A4E
:1023CA0022C4E6FF30D0020E0301C26F000EC36FB3
:1023DA00C46BC56BC66BC76BA2EC0AF024D023D0C2
:1023EA0004012151050AB5E02151060AB7E021513D
:1023FA00090AB6E02151080AB6E02151000ABDE0F7
:10240A002151010ABCE02151030AB9E021510A0A0B
:10241A00B9E021510B0AC9E02151070AD4E0215140
:08242A000C0ADDE0DCD7120012
:102432006D98030124BF49D029AF28D0020E3E6F08
:10244200010E3A25E16E000E3B21E26EE66A3AC3C6
:10245200E1FF3BC3E2FFC80EE66E010E4225E16ECC
:10246200000E4321E26E080EE66E020E4225E16E78
:10247200000E4321E26E280EE66E040EE66E42C3A3
:10248200E1FF43C3E2FFC80EE66E1ED0010E4225F5
:10249200E16E000E4321E26E080EE66E020E422548
:1024A200E16E000E4321E26E200EE66E040EE66E31
:1024B20042C3E1FF43C3E2FF8C0EE66E3AC3E1FF83
:1024C2003BC3E2FF840EE66E82D029BF80D00401B6
:1024D20020AF55D0030126510401275D04E1030119
:1024E20025510401265D04E226C425F327C426F300
:1024F20048DC010E3E6F010E4225E16E000E4321C3
:10250200E26E080EE66E020E4225E16E000E4321D7
:10251200E26E200EE66E040EE66E42C3E1FF43C396
:10252200E2FF800EE66E3F6B010E4025E16E000E6B
:102532004121E26E080EE66E020E4025E16E000EAB
:102542004121E26E200EE66E040EE66E40C3E1FF0C
:1025520041C3E2FF840EE66E010E3F6F020E3A2582
:10256200E16E000E3B21E26E280EE66E040EE66E70
:102572003AC3E1FF3BC3E2FFC80EE66E28D0030177
:10258200020E3E6F010E3A25E16E000E3B21E26E15
:10259200E66A3AC3E1FF3BC3E2FFC80EE66E010EF4
:1025A2004225E16E000E4321E26E080EE66E020E37
:1025B2004225E16E000E4321E26E280EE66E040E05
:1025C200E66E42C3E1FF43C3E2FFC80EE66E1200AD
:1025D200010E03014025E96E000E4121EA6EEECFA5
:1025E20000F000C002F0000E2B5D02E102502A5DF5
:1025F20003E22AC302F00AD002502A5D006E000EE6
:102602002B59016E00C02AF301C02BF3036A02505A
:10261200035C1CE2280EE96E040EEA6E0350E92602
:10262200D8B0EA2AEECF00F027C3E1FF28C3E2FFC9
:1026320000C0E6FF010E2725006E000E2821016E64
:1026420000C027F301C028F3032AE1D7000E006E71
:102652002B51005C02E12A51000828E2010E4225BA
:10266200E16E000E4321E26E080EE66E020E422576
:10267200E16E000E4321E26E280EE66E040EE66E57
:1026820040C3E9FF41C3EAFFEECF00F000BC07D030
:1026920042C3E1FF43C3E2FFC80EE66E06D042C367
:1026A200E1FF43C3E2FF880EE66E19D0010E422518
:1026B200E16E000E4321E26E080EE66E020E422526
:1026C200E16E000E4321E26E200EE66E040EE66E0F
:1026D20042C3E1FF43C3E2FF840EE66E299F12006C
:1026E20081BC02D0D88001D0D890000ED8B0010EA3
:0426F200006E120064
:0826F6000301A5517827120031
:0A26FE009494CA840C0EBD12120061
:102708007BC300F00032009E0032009E0032009E23
:102718000032009E0301A55100260F0E0014036E1F
:102728000F0E7B15026E03C000F0003600900036D5
:10273800009000360090003600900250001200C051
:042748007BF312000D
:08274C000301A55179271200D9
:1027540037D0828C080E0B6E9D0E0C6E050E0D6E1E
:102764000D2EFED70C2EFCD70B2EFAD7000000003E
:10277400829C40D0828E080E0B6E9D0E0C6E050E50
:102784000D6E0D2EFED70C2EFCD70B2EFAD70000A3
:102794000000829E2FD0A4DD11DC2CD07C6BCEEC0B
:1027A4000FF028D0FF0E03017C6FCEEC0FF022D087
:1027B4000301779D76DC1ED0778D1CD01BD01AD0F8
:1027C40003017A51010AC5E07A51020AD3E07A5131
:1027D400030AE1E07A51040AE1E07A51050AE2E0F1
:1027E4007A51080AE5E07A51070AE6E07A51000ACC
:0627F400E5E0E5D712004C
:1027FA00030177A123D04B0E0501086F7BC309F5AE
:10280A000A6B7AC30BF5080E0301A76F050EA86FB2
:10281A00040EA96F5DEC0DF0005201E1F4D7050139
:10282A00096B0B6B080E0301A76F050EA86F040E48
:0E283A00A96F5DEC0DF0005201E1F4D7120021
:10284800030177A125D0430E0501086F7AC309F566
:102858000F0E03017B1505010A6F080E0301A76F10
:10286800050EA86F030EA96F5DEC0DF0005201E193
:10287800F4D70501096B0A6B080E0301A76F050E53
:10288800A86F030EA96F5DEC0DF0005201E1F4D7BB
:0228980012002C
:0A289A009484CA94F00EBD161200DB
:1028A400030177A11FD0530E0501086F7AC309F500
:1028B400080E0301A76F050EA86F020EA96F5DEC49
:1028C4000DF0005201E1F4D70501096B080E030174
:1028D400A76F050EA86F020EA96F5DEC0DF00052F4
:0628E40001E1F4D712002F
:1028EA003AC3E9FF3BC3EAFFEECF00F000AE05D0E2
:1028FA003AC3E1FF3BC3E2FFE66A0301446B3E6B66
:10290A00256B266B246B14DD030E0301C26F000EC8
:10291A00C36FC46BC56BC66BC76BA2EC0AF084DDD0
:02292A00120099
:10292C0003013E51020A02E14EDE1ED0E3DC3F51B0
:10293C00000A19E1010E4225E16E000E4321E26E00
:10294C00080EE66E020E4225E16E000E4321E26E89
:10295C00200EE66E040EE66E42C3E1FF43C3E2FFB7
:0A296C008C0EE66E01D03F6B1200E6
:102976003AC3E9FF3BC3EAFFEECF00F0000E00BC0E
:10298600010E0301C16F040E3A19006E00C03AF33E
:102996004E51080A0AE122C46EFF6E50000803E297
:1029A600100E4E6F02D0040E4E6F3E51010A2BE1FF
:1029B600020E3A25E16E000E3B21E26E280E006EF5
:1029C600040E016E00C0E6FF01C0E6FFC2EC0EF089
:1029D6004451020A07E13AC3E1FF3BC3E2FF840E1A
:1029E600E66E10D0C151000A07E13AC3E1FF3BC3CE
:1029F600E2FFC80EE66E06D03AC3E1FF3BC3E2FF34
:0A2A0600880EE66E01D079DC1200A4
:102A100003015D6B5F6B5E6B010E3425006E000E73
:0E2A20003521016E00C034F301C035F3120001
:102A2E00A6A202D00000FCD7A69CA3C3A9FFA4C3F4
:102A3E00A8FFA69EA684F2CF00F0F29E550EA76EBA
:102A4E00AA0EA76EA68200BE02D0F29E01D0F28E12
:042A5E00A694120028
:102A6200000E03017A15026E7B51F00B036EFF0E0E
:102A72007A15006E7B510F0B016EA3510026000EDA
:102A8200A3BFFF0E0122FF0E00160F0E0116025009
:102A920000120350011200C07AF301C07BF312004E
:102AA2002DDE050E0C6EAB0E0D6E0D2EFED70C2E0E
:0A2AB200FCD700000000F0DE120067
:102ABC00F250026EF29E0500FF6A0150FE6E00504D
:082ACC00FD6E02BEF28E120045
:102AD400A69CA3C3A9FFA69EA680A8CF00F01200BF
:102AE400100E0301386F270E396F8B80F00E7B15A3
:102AF400A36F09D080DE15D0D3DE13D0A3DE11D0AE
:102B040027DE0FD00ED00301A351000AF3E0A35136
:102B1400100AF2E0A351200AF1E0A351F00AF0E018
:042B2400F1D71200D3
:102B28000301A36B060EA35D1BE27E0EE96E030E86
:102B3800EA6EA351E926D8B0EA2AEECFA7F3A3C3D9
:102B480000F0000E016E003601360090840E00245D
:102B5800A86F030E0120A96F12EC0AF0A32BE2D78D
:102B680035C3A7F3900EA86F030EA96F12EC0AF0F5
:102B780034C3A7F3920EA86F030EA96F12EC0AF0E4
:102B8800946B7AC3A7F3640EA86F030EA96F12ECB7
:102B98000AF0200E666F5DC3A7F3670EA86F030ED9
:102BA800A96F12EC0AF05FC3A7F3690EA86F030EB2
:102BB800A96F12EC0AF0200E696F5EC3A7F36B0EC3
:102BC800A86F030EA96F12EC0AF02E0E6B6F200E81
:102BD8006D6F37C3A7F36E0EA86F030EA96F12ECC3
:102BE8000AF036C3A7F3700EA86F030EA96F12EC94
:102BF8000AF0200E726F5BA103D0750E736F02D0BE
:102C0800640E736F746B346B356B010EBA6F65ECC1
:102C180001F0010EA76F010EA86F840EA96F030EB5
:102C2800AA6FAAEC09F0020EA76F010EA86F640E36
:0C2C3800A96F030EAA6FAAEC09F01200AD
:102C4400010E0301A36F44DF00C07CF3CEEC0FF050
:022C540012006C
:102C5600FD0E03014515016E026AFF0E0216000EF7
:102C6600021802E1000E01186BE17E0E4515016E99
:102C760001C003F00332039E03C000F0000E016E94
:102C8600003600900136003600900136000E002412
:102C9600026E040E0120036E02C040F303C041F32E
:102CA60002C042F303C043F3040E4219006E00C093
:102CB60042F302C0E9FF03C0EAFFEECF00F000C016
:102CC60001F03C0E01160132019E0132019E0150B7
:102CD6000D0A34E1020E4025E96E000E4121EA6E2E
:102CE600EECF01F0EECF02F00250040A02E1280E08
:102CF600011822E1020E4025E16E000E4121E26E2E
:102D0600200EE66E040EE66EC06B080EC05D14E281
:102D1600200EE16E040EE26EC051E126D8B0E22A22
:102D2600280EE96E040EEA6EC051E926D8B0EA2AEA
:102D3600EECFE6FFC02BE9D7D5DD01D0F4DD0DD00F
:102D4600FD0E4515016E026AFF0E0216000E0218F0
:0C2D560002E1040E011801E10BDE120086
:102D6200929A92989290929292949296809A809845
:102D7200809680948092809088EC00F088EC00F03D
:102D820088EC00F080828080808A99EC00F0809A42
:102D920088EC00F0808A99EC00F0809A88EC00F0D0
:102DA200808A99EC00F0809A88EC00F08090808A0A
:102DB20099EC00F0809A88EC00F0808A99EC00F09F
:102DC200809A80928086808A99EC00F0809A88ECC2
:102DD20000F080968080808A99EC00F0809A809042
:102DE200808A99EC00F0809A88EC00F0808A99EC55
:102DF20000F0809A8080808A99EC00F0809A88ECBA
:102E020000F08090808A99EC00F0809A808680841D
:102E120080828080808A99EC00F0809A88EC00F0B1
:062E2200030120811200F3
:102E28009DC3E1FF9EC3E2FF9AC3E6FF9BC300F088
:102E38009CC301F03FDE53EC10F09FC300F0A0C329
:102E480001F038DE00521DE0030177A319D0800E8F
:102E5800006E800E7DBF7F0E005C02E17D51000890
:102E68000FE39DC3E1FF9EC3E2FF9AC3E6FF9BC346
:102E780000F09CC301F01EDE53EC10F077937D6BDD
:042E8800DCD7120081
:102E8C00080E03019B6F9B5100081BE204DE9AAFF6
:102E9C000AD00D0E0C6EDA0E0D6E0D2EFED70C2E0A
:102EAC00FCD700000AD0050E0C6EAB0E0D6E0D2E6D
:102EBC00FED70C2EFCD7000000009A379A919B0786
:042ECC00E2D7120037
:042ED000A0901200BC
:082ED400BE6ABD98BD9A120010
:102EDC00480E0301BA6F65EC01F0AD6BA1EC07F085
:102EEC00040EAD6FA1EC07F00A0EAD6FA1EC07F06C
:102EFC00150EAD6FA1EC07F0040EAD6FA1EC07F051
:102F0C00040EAD6FA1EC07F0AD6BA1EC07F0AD6B4F
:102F1C00A1EC07F0AD6BA1EC07F0040EAD6FA1ECCA
:102F2C0007F0040EAD6FA1EC07F0150EAD6FA1EC20
:102F3C0007F00A0EAD6FA1EC07F0040EAD6FA1EC1B
:102F4C0007F0AD6BA1EC07F0AD6BA1EC07F0AD6B2E
:102F5C00A1EC07F0040EAD6FA1EC07F0020EAD6F03
:102F6C00A1EC07F01D0EAD6FA1EC07F0020EAD6FDA
:102F7C00A1EC07F0040EAD6FA1EC07F0AD6BA1EC6A
:102F8C0007F0AD6BA1EC07F0AD6BA1EC07F0040EF4
:102F9C00AD6FA1EC07F0080EAD6FA1EC07F0170EAA
:102FAC00AD6FA1EC07F0080EAD6FA1EC07F0040EAD
:102FBC00AD6FA1EC07F0AD6BA1EC07F0AD6BA1EC24
:102FCC0007F0AD6BA1EC07F0AD6BA1EC07F0090EAF
:102FDC00AD6FA1EC07F0150EAD6FA1EC07F0120E62
:102FEC00AD6FA1EC07F0AD6BA1EC07F0AD6BA1ECF4
:102FFC0007F0AD6BA1EC07F01B0EAD6FA1EC07F069
:10300C001B0EAD6FA1EC07F01B0EAD6FA1EC07F022
:10301C001B0EAD6FA1EC07F01B0EAD6FA1EC07F012
:10302C001B0EAD6FA1EC07F01B0EAD6FA1EC07F002
:10303C00AD6BA1EC07F0AD6BA1EC07F0100EAD6F12
:10304C00A1EC07F0080EAD6FA1EC07F0040EAD6F0C
:10305C00A1EC07F0020EAD6FA1EC07F0010EAD6F05
:10306C00A1EC07F0AD6BA1EC07F0AD6BA1EC07F098
:0A307C00020EBA6F65EC01F01200BD
:103086009AC3A3F3EBDC53EC10F0020E766F9BC3EE
:1030960000F09CC301F00FDD00522FE0030177A37F
:1030A6002BD0800E006E800E7DBF7F0E005C02E18D
:1030B6007D51000821E376077651000A1BE19AC389
:1030C600A3F3CCDC26EC0BF000C0E9FF01C0EAFF5D
:1030D600EE50000A0BE10F0E03017A15016E015046
:1030E600000A04E09AC3A3F3B9DCECD753EC10F062
:0C30F600020E766F77937D6BCAD7120034
:10310200010E0301A36F7CC3A4F390DCCEEC0FF09D
:023112001200A9
:1031140003017E51791904E07E51FF0A01E021D0B8
:103124007F517E19006E01E11CD081518019006E1F
:1031340001E117D083518219006E01E112D080C3DE
:1031440001F0006A82510012000E011200C07AF3ED
:1031540001C07BF377AD02D0E5DC02D053EC10F074
:04316400BFDC1200BA
:1031680003015E2B5E51070811E25E6B7E0EE16E75
:10317800030EE26E5F51E126D8B0E22A5CC3E6FF97
:0E3188005F2B060E5F5D02E3030E5D6F12000B
:10319600E9EC01F0306B316B326B336B6A6A686A4B
:1031A60044EC01F06D8C6E6A710EC26F0F0EC36F28
:1031B600C46B010EC56F000EC66F88EC0AF06D9CDD
:1031C600C06B080EC05D16E2C0C300F0000E016EB3
:1031D600003600900136003600900136000E0024BD
:1031E600E16E040E0120E26EE66AE66AE66AE66AC7
:1031F600C02BE7D7160E706E68A603D0F70E6816BA
:10320600FBD7246B296B2A6B2B6B6D98080E3A6FD4
:0A321600040E3B6F4D6B4E6B12006F
:10322000740E0301C26F000EC36FC46BC56BC66B17
:10323000C76BA2EC0AF06D92699468A403D0FB0EF0
:063240006816FBD7120026
:1032460070A019D040C3E9FF41C3EAFFEECF01F0F9
:103256000150800A0FE13AC3E9FF3BC3EAFFEECF14
:1032660001F00150840A06E140C3E1FF41C3E2FFD9
:0C3276008C0EE66E7090DF0E68161200E1
:103282006984EF0E68166D82750E0301C26F000E1F
:10329200C36FC46BC56BC66BC76BA2EC0AF012009E
:1032A200A090A190040EBA6ECF6ACE6A08EC15F017
:0432B200A0801200E6
:1032B600CB50010F006E016A000E01229AC304F082
:1032C600000E056E59EC09F0060E026E00C004F001
:1032D60001C005F0025005E005320432059EFF0FDD
:1032E600FAD7040E016E04C000F0015004E0003667
:1032F6000090FF0FFBD7300E0014036E04C000F0E1
:1033060005C001F001320032019E01320032019EF9
:0E33160000C0BEFF0F0EBD160350BD12120008
:04332400A19A120058
:103328000900F5CFE6FF0006FBE10106F9E112000E
:1033380003017B7381B81ED077A31BD0800E006E6B
:10334800800E7DBF7F0E005C02E17D51000811E315
:1033580077B90DD0000E7A15006E7B51F00B016E17
:1033680000C07AF301C07BF3778953EC10F07793B0
:0A3378007D6BE0D753EC10F012005B
:10338200030177A514D095C39AF34C0E9B6F270EB9
:103392009C6FA50E9D6F030E9E6F96C39FF397C3FE
:1033A200A0F398C3A1F399C3A2F33DDD39D0030181
:1033B20077AB14D095C39AF3F60E9B6F260E9C6FD3
:1033C200A50E9D6F030E9E6F96C39FF397C3A0F346
:1033D20098C3A1F399C3A2F326DD22D0030177A9F2
:1033E20014D095C39AF3080E9B6F270E9C6FA50EFF
:1033F2009D6F030E9E6F96C39FF397C3A0F398C36E
:10340200A1F399C3A2F30FDD0BD095C39AF396C330
:103412009BF397C39CF398C39DF399C39EF332DE4B
:02342200120096
:103424000301776B956B060E955D0BE27E0EE16EE4
:10343400030EE26E9551E126D8B0E22AE66A952B96
:10344400F2D77A6B7B6B6F886F94070ED56EB10ED3
:10345400CD6EB00EB16EF28EF28CA082F19E0F0E84
:10346400C16E070EB46EFF0E926EFF0E936E380E91
:10347400946E896A8A6A8B6ACA90CA929C0ECB6ED1
:1034840027DD800E9A6F15DF6ADC26DD010EBA6F28
:1034940065EC01F00C0EBA6F65EC01F0010EA76F3C
:1034A400010EA86FE40EA96F000EAA6FAAEC09F032
:1034B400A36B6AEC15F000C079F322EC16F0EFDE92
:0234C4001200F4
:1034C600030177A905D081BA01D0FDD7779951D0EC
:1034D600F00E7B15016E0150F00A34E181BA01D07D
:1034E600FDD721D0777577A501D005D0A36B79C319
:1034F600A4F317EC15F025D00301777B77AB03D047
:103506007CC378F303D078C37CF3F8DD1AD00301CB
:103516007C6BF4DD16D0FF0E03017C6FEFDD11D05E
:1035260072EC15F00ED003017A51000ADBE07A51F5
:10353600060AE2E07A51040AEAE07A51050AEBE06B
:10354600EFD717D072EC15F081BA13D0030177A329
:103556000FD0800E006E800E7DBF7F0E005C02E1F4
:103566007D51000805E372EC15F0030177937D6B3E
:04357600EBD712007D
:10357A0003014E51010A07E16DBA05D0686A6980F4
:10358A006988020E4E6F68A405D069A403D0FB0EA9
:10359A00681641DE6DA202D0C0DE78D068A018D0CD
:1035AA0069A016D0F3DD040E4E6F200E0401026FDF
:1035BA00040E036F080E016F000E0015006E00C0A6
:1035CA0000F48C0E0011006E00C000F4FE0E6816A6
:1035DA0068A805D069A803D04FDEEF0E681668AC5C
:1035EA0011D069AC0FD0730E0301C26F000EC36F06
:1035FA00C46BC56B010EC66F000EC76FA2EC0AF052
:10360A00BF0E681668AA03D069AA01D017DE68A29D
:10361A0010D069A20ED0FF0E0301C26F3F0EC36F16
:10362A00C46BC56B010EC66F000EC76FA2EC0AF021
:10363A006A6A040E03014E5D02E26FDE27D069A6B4
:10364A0024D0BF6B040EBF5D20E268A61AD06CCFEF
:10365A0045F3F70E6816780E4515016E0150000AFB
:10366A0003E12BEC16F00CD0720EC26F000EC36F82
:10367A00450EC46F030EC56FC66BC76BA2EC0AF08A
:0E368A0001D003D00301BF2BDDD747DE1200B5
:103698007BD003013751020802E136510D08010EB3
:1036A800D8B0000E016E030E375D02E1CF0E365D15
:1036B800010ED8B0000E006E00500116006A5BB112
:1036C800002A0150001603E0010E5D6F02D008ECDD
:1036D80015F069D05BB102D0028001D00290000ED3
:1036E800016E3751015C02E13651E108010ED8B094
:1036F800000E016E020E375D02E1A30E365D010E6B
:10370800D8B0000E006E00500116006A02B0002A00
:103718000150001603E0020E5D6F02D008EC15F0B0
:1037280042D05BA109D03751020802E13651A30803
:1037380002E208EC15F022D03751050802E13651B3
:10374800B60803E208EC15F019D03751030802E176
:103758003651F40805E25C375C915C8101DD0ED0DE
:10376800000E006E3751005C02E13651E10804E2B8
:103778005C375C91F5DC02D008EC15F014D068ECED
:1037880017F0C4DC8ADD0FD003015D51000AD8B4FC
:1037980080D75D51010A9EE05D51020AC2E05D5189
:0837A800030AEDE0F0D7120066
:1037B0008B8068EC17F079C37EF30301791D006EEE
:1037C00000C07FF37BC380F37B1D006E00C081F3DC
:1037D0007AC382F37A1D006E00C083F37FEC13F08E
:1037E000080E0C6EC90E0D6E0D2EFED70C2EFCD7DA
:1037F000000000004DEC14F0050E0C6EAB0E0D6ECB
:103800000D2EFED70C2EFCD700000000956B060E87
:10381000955D0EE27E0EE96E030EEA6E9551E92685
:10382000D8B0EA2AEECF9AF346EC17F0952BEFD7F3
:1038300051EC15F0040E0B6E0C0E0C6E330E0D6E6B
:103840000D2EFED70C2EFCD70B2EFAD70000000051
:0638500028DD8B90120040
:10385600A7EC1EF0E4DD030177AF02D01ADF779FF5
:103866008BA00BD0010E385F000E395B000E3919A4
:1038760002E1000E3819D8B48B90F70E8114006E51
:10388600F70E001A005248E0EAEC09F0C30E0C6E7F
:10389600CD0E0D6E0D2EFED70C2EFCD7030E7D6FB2
:1038A600B26AB36AB18081B004D07FDF81B001D043
:1038B600FDD781B204D07B7181B201D0FDD781B42E
:1038C60004D07B7581B401D0FDD781B801D031DD3C
:1038D60081BA01D0F5DD81BC0CD0010E0301956FD4
:1038E600E20E966F260E976F000E986F000E996F78
:1038F60045DD81BE0CD0FF0E0301956F260E966F37
:10390600230E976F000E986F000E996F37DDB190FA
:103916000301779353EC10F077B706D084B602D044
:10392600D89007D0D88005D084B602D0D88001D0F0
:10393600D8900CE384A603D0E0EC0FF002D072EC32
:1039460011F084B602D0779701D0778784D7FFD756
:103D4E0010EE29F0EB0E006E030E016E560EF66E9F
:0E3D5E00390EF76E000EF86E94EC19F012009C
:023956007500FA
:023958007600F7
:02395A007300F8
:02395C007400F5
:02395E007700F0
:023960007A00EB
:02396200310032
:023964007800E9
:023966007900E6
:023968006C00F1
:02396A006D00EE
:02396C006A00EF
:02396E006B00EC
:023970006E00E7
:023972007100E2
:023974007200DF
:023976006F00E0
:023978007000DD
:02397A00320019
:04397C005461620030
:093980005370616365626172001D
:04398900457363001F
:0A398D004261636B737061636500B3
:023997002D0001
:023999005D00CF
:02399B00070023
:02399D003D00EB
:02399F005B00CB
:0239A1003500EF
:0239A3003600EC
:0239A5003300ED
:0239A7003400EA
:0239A9003700E5
:0239AB003000EA
:0639AD00456E7465720016
:0239B3003800DA
:0239B5003900D7
:0239B7006900A5
:0239B9002500E7
:0239BB005E00AC
:0239BD002300E5
:0239BF002400E2
:0239C1002600DE
:0239C3002900D9
:0239C5005F00A1
:0239C7002A00D4
:0239C9002800D4
:0239CB005600A4
:0239CD005700A1
:0239CF005400A2
:0239D10055009F
:0239D30058009A
:0239D5002100CF
:0239D7004000AE
:0239D900590093
:0239DB005A0090
:0239DD002B00BD
:0239DF00620084
:0239E100630081
:0139E30000E3
:0239E400610080
:0239E60064007B
:0239E800670076
:0239EA00680073
:0239EC00650074
:0239EE00660071
:0239F0007C0059
:0239F2003A0099
:0239F4007B0056
:0239F6007D0052
:0239F8002200AB
:0239FA003E008D
:0239FC003F008A
:0239FE000500C2
:023A00003C0088
:023A02003B0087
:0D3A04005553422044697361626C65640093
:0B3A110049524B212076322E30370046
:033A1C004636002B
:033A1F0046370027
:033A220046340027
:033A250046350023
:033A28004638001D
:043A2B0046313100EF
:043A2F0046313200EA
:033A330046390011
:043A360046313000E5
:023A3A002C005E
:023A3C002E005A
:023A3E0027005F
:023A4000600024
:023A42002F0053
:033A440046320007
:033A470046330003
:073A4A004361704C636B0047
:033A5100463100FB
:073A5400507274536372000D
:023A5B00010068
:073A5D004E756D4C636B0018
:023A640004005C
:023A660002005C
:013A6800005D
:043A6900496E73002F
:053A6D00486F6D6500CB
:073A72005363724C636B000B
:023A7900060045
:053A7B005067557000CA
:053A80005067446E00D8
:023A850003003C
:043A870044656C0026
:043A8B00456E640020
:063A8F0020736563730063
:033A95004F6E0071
:063A9800536C656570002F
:0A3A9E00506F776572206F666600B6
:103AA8005E5E2053656C65637420557361676500BD
:0E3AB80049524B212046756E6374696F6E0093
:043AC6004F666600E1
:043ACA003C2D20006F
:0B3ACE003C2D2041646472657373009E
:053AD90057616B650060
:043ADE0043682B000E
:053AE200457869740045
:023AE7000300DA
:023AE9000600D5
:023AEB003E009B
:043AED0043682D00FD
:033AF1004F4B0038
:013AF40000D1
:013AF50000D0
:023AF6000400CA
:023AF8000200CA
:023AFA000100C9
:0D3AFC00555342205265616479202020005E
:0D3B0900456E61626C696E67205553420085
:063B16005348494654002B
:053B1C00414C542000A3
:053B210043544C20009C
:0D3B2600436F6E73756D6572204465760007
:073B330053797374656D0006
:093B3A004B6579626F6172640051
:093B43004B6579626F6172640048
:023B4C00430034
:023B4E00420033
:023B5000410032
:023B520053001E
:023B540045002A
:023B5600440029
:0A3B58004465627567204F66660041
:0C3B62004C696768742044656C61790050
:093B6E004C69676874204F6E0079
:013B7700004D
:013B7800004C
:093B79004465627567204F6E007F
:023B82004600FB
:023B84004A00F5
:023B86004900F4
:023B88004E00ED
:023B8A004C00ED
:023B8C004D00EA
:023B8E004B00EA
:023B90005100E2
:023B92004700EA
:023B94005200DD
:023B96004800E5
:023B98004F00DC
:023B9A005000D9
:053B9C00566F6C2D00C6
:053BA100566F6C2B00C3
:053BA6004D757465007F
:0B3BAB0043616C63756C61746F720005
:063BB600456D61696C0021
:0D3BBC004D6564696120506C61796572008F
:043BC9003E2F060085
:033BCD003C3C007D
:033BD0003E3E0076
:043BD30052656300D4
:053BD70053746F700043
:043BDC007C3C3C00F1
:043BE0003E3E7C00E9
:073BE4005365617263680084
:0C3BEB00536574204164647265737300BC
:013BF70000CD
:083BF8005265667265736800F6
:0D3C0000506F776572205377697463680018
:0A3C0D004C69676874204F6666007A
:093C1700496E6974205553420006
:0D3C20005265736574205377697463680002
:053C2D00486F6D650009
:053C32005072657600F0
:053C37004E65787400E9
:053C3C0053746F7000DD
:103C410005010906A101854B050719E029E71500C2
:103C5100250175019508810275089501810395017A
:103C610026FF0019002AFF00810075019503050850
:103C71001901290325019102750595019103C005DB
:103C8100010980A101855319002AFF00150026FFB3
:103C910000750895018100C0050C0901A10185434A
:103CA10019002A3C021500263C027510950181007D
:013CB100C052
:103CB2004003490052004B002100200052006500E1
:103CC2006D006F0074006500200043006F006E00FD
:103CD200740072006F006C006C00650064002000CC
:103CE2004B006500790062006F00610072006400A1
:023CF2000000D0
:103CF40009022900010101803209040000020300C5
:103D04000002092101010001227100070581030855
:093D1400000A0705010308000C78
:103D1D00120110010000000849524B21030001025D
:023D2D00000193
:103D2F0030313233343536373839414243444546E2
:013D3F000083
:0A3D40000A03490052004B00210065
:043D4A000403090461
:020000040030CA
:0E000000310E2E1EFF0081FF0FC00FE00F40DB
:00000001FF
