:04000000B3EF20F04A
:1000080000C01FF001C01EF002C01DF003C01CF0AC
:1000180004C01BF005C01AF006C019F008C018F09B
:1000280009C017F00AC016F00BC015F0E1CF28F090
:10003800E2CF29F0E9CF26F0EACF27F0F3CF24F07A
:10004800F4CF25F0F5CF23F0F8CF20F0F7CF21F04B
:10005800F6CF22F0E1EC1FF0A1A00DD0BCCF5BF0F1
:10006800BBCF5AF0BACF57F0BA70CF6ACE6A000148
:10007800CB8FA19022D0A1A208D00001CB83A805E4
:10008800006E00C0A8F0A19218D0F2A416D000010A
:10009800A905006E00C0A9F0000EA9BFFF0E006EF2
:1000A800000E001802E1000EA91902E18B82D59E0C
:1000B800A40ED76E720ED66EF29423C0F5FF20C040
:1000C800F8FF21C0F7FF22C0F6FF24C0F3FF25C0C8
:1000D800F4FF1FC000F01EC001F01DC002F01CC0DC
:1000E80003F01BC004F01AC005F019C006F018C0D0
:1000F80008F017C009F016C00AF015C00BF026C0AA
:10010800E9FF27C0EAFF28C0E1FF29C0E2FF11008C
:100118002B0E0C6EDA0E0D6E0D2EFED70C2EFCD7A4
:0401280000001200C1
:0E012C00630E0D6E0D2EFED7000000001200B7
:0E013A000000000000000000000000001200A5
:10014800000E056E040E066EFDC003F0000E046E70
:10015800033604360390033604360390FEC000F0DD
:10016800000E016E00360136009000500326015043
:10017800042203C001F004C002F0013601900236E7
:1001880001360190023601C003F002C004F00432C7
:100198000332049E04BC048E04320332049E04BC61
:1001A800048E03C000F004C001F000360090013650
:1001B800003600900136055000260650012200C086
:1001C80005F001C006F000C0E1FF01C0E2FFE69EB5
:1001D8000001FE51000A12E1FDC000F0000E016EA0
:1001E8000036009001368F0E0024E16E000E0120CB
:1001F800E26E05C0E6FF06C0E6FF11D0FDC000F0C4
:10020800000E016E003600900136770E0024E16E74
:10021800000E0120E26E05C0E6FF06C0E6FF05C03D
:10022800E1FF06C0E2FFE69C040E0524E16E000E25
:080238000620E26EE68C1200C4
:0E024000800E0001FD11006E00C082F0120061
:10024E0001C17FF002C180F003C181F004C183F0CF
:10025E0005C184F0800E01010611006E00C082F00F
:02026E0012007C
:1002700001C17FF002C180F003C183F004C184F0AA
:10028000800E01010511006E008000C082F0120096
:100290001F0E0001746F430E756F000E766F320EE5
:1002A0006B6F470E6C6F000E6D6F490E6E6F450ED3
:1002B0006F6F000E706FDD0E716F420E726F000E69
:0402C000736F120046
:1002C400EAC002F0EBC003F0EDC000F0EEC001F0B4
:1002D400010E0001ED5F000EEE5B0050011009E01D
:1002E40002C0E1FF03C0E2FFECC0E6FF024A032ABA
:0402F400EBD7120032
:1002F8000001EB51000A12E0EAC000F0000E016EA6
:10030800003600900136770E0024E96E000E0120B9
:10031800EA6EEECF04F0EECF05F011D0EAC000F09F
:10032800000E016E0036009001368F0E0024E96E33
:10033800000E0120EA6EEECF04F0EECF05F0020EBB
:100348000424E16E000E0520E26EECC0E6FFEDC06D
:10035800E6FF010E0424E16E000E0520E26EEEC0F9
:10036800E6FF04C0E9FF05C0EAFFEECF00F004C0D5
:10037800E1FF05C0E2FF400E0014E66E04C0E9FF8D
:1003880005C0EAFFEECF00F004C0E1FF05C0E2FFC0
:10039800880E0010E66EEB51000A1BE0EAC000F080
:1003A800000E016E003600900136770E0024026EB2
:1003B800000E0120036E02C0E9FF03C0EAFF040E2D
:1003C800EE18006E02C0E1FF03C0E2FF00C0E6FFC6
:1003D8001AD0EAC000F0000E016E00360090013617
:1003E8008F0E0024026E000E0120036E02C0E9FF8A
:1003F80003C0EAFF040EEE18006E02C0E1FF03C05E
:10040800E2FF00C0E6FF04C000F005C001F01200E2
:0A041800D08EA28AA08AF28E120094
:10042200000E0001EB1902E1000EEA1902E1016A75
:1004320009D0EAC0E9FFEBC0EAFFEECF00F0016AA3
:0A04420000BE012A01C000F0120004
:0E044C00160E6F6E9F0E6B6E7B0E696E1200A9
:10045A000001EABF02D0809601D08086EABD02D0B0
:10046A00809401D08084EABB02D0809201D080823D
:10047A00EAB902D0809001D0808085B102D080880C
:10048A0001D08098808A54DE809AEAB702D080969A
:10049A0001D08086EAB502D0809401D08084EAB384
:1004AA0002D0809201D08082EAB102D0809001D03D
:1004BA00808085B102D0808801D08098808A38DE19
:0E04CA00809A85A102D023DE01D02BDE120025
:1004D80020C401F01F0E01160150010A01E08DD061
:1004E80004012451000A01E088D02151060A3AE1AA
:1004F8002FD000016A51010A13E11F0E0101016F9B
:10050800430E026F000E036F120E0127000E022326
:100518000323090E046F000E056F400E066F93DE6D
:1005280021D000016A51010A0EE16C0E0101016F30
:10053800420E026F000E036F710E046F000E056FFE
:10054800400E066F80DE0ED00001FD6B75DE0AD00E
:1005580004012351210ACDE02351220AE2E023516C
:10056800230AF2E020C401F0600E0116050E006EA9
:10057800005004E00132019EFF0FFBD70150010A31
:1005880001E03BD027D039D038D0990E0101016F56
:10059800000E026F010E036F000E046F400E056F10
:1005A80063DE2BD00001FD6B47DE23C499F025D014
:1005B800980E0101016F000E026F010E036F000E0D
:1005C800046F056B51DE19D00001FD6B35DE22C4C6
:1005D80098F013D004012151010AD5E02151090AEC
:1005E800D3E02151020AD1E021510A0ADBE021516E
:0C05F800030ADEE021510B0AE7E01200CC
:100604000001F951000A12E0F8C000F0000E016E7A
:10061400003600900136770E0024E96E000E0120AA
:10062400EA6EEECF04F0EECF05F011D0F8C000F082
:10063400000E016E0036009001368F0E0024E96E24
:10064400000E0120EA6EEECF04F0EECF05F0020EAC
:100654000424E16E000E0520E26EFAC0E6FFFBC042
:10066400E6FF010E0424E16E000E0520E26EFCC0DC
:10067400E6FF04C0E9FF05C0EAFFEECF00F004C0C6
:10068400E1FF05C0E2FF400E0014E66E04C0E9FF7E
:1006940005C0EAFFEECF00F004C0E1FF05C0E2FFB1
:1006A400880E0010E66EF951000A1BE0F8C000F055
:1006B400000E016E003600900136770E0024026EA3
:1006C400000E0120036E02C0E9FF03C0EAFF040E1E
:1006D400EE18006E02C0E1FF03C0E2FF00C0E6FFB7
:1006E4001AD0F8C000F0000E016E003600900136FA
:1006F4008F0E0024026E000E0120036E02C0E9FF7B
:1007040003C0EAFF040EEE18006E02C0E1FF03C04E
:10071400E2FF00C0E6FF04C000F005C001F01200D3
:10072400700EE16E0F0EE26E0001F851E126D8B0B2
:10073400E22AF9C0E6FFF9A504D0F8C0FDF0FE6B8B
:1007440001DDF9A305D0F8C0FDF0010EFE6FFADC5F
:02075400120091
:10075600086A080E0C6E003408360450085ED8B0DD
:0E07660002D00826D89000360C2EF5D71200CF
:1007740000016951000A0AE16D6A696A65DE4ADEB0
:0E0784006DB602D06D86FCD7010E696F1200B3
:0A0792006D6A696A0001696B1200CC
:10079C00200E0001695D03E36DB201D002D0006A46
:1007AC0033D07DC0EAF07EC0EBF035DE00522BE199
:1007BC00E9C0EAF0010EEB6FE6C0ECF0E7C0EDF03B
:1007CC00E8C0EEF093DD00C07DF001C07EF0936BCD
:1007DC00946B956B966B7DC0EAF07EC0EBF01BDEE4
:1007EC00005208E0935194119511961102E0006AA1
:1007FC000BD0F1D7010E7D25E96E000E7E21EA6E3D
:0A080C00EECF00F001D0006A1200E8
:100816003CDD7B6B7C6B7D6B7E6B6A6A686A13DE84
:100826006D8C6E6A710EEA6F0F0EEB6FEC6B010E3C
:10083600ED6F000EEE6F43DD6D9CE66B080EE65D18
:1008460016E2E6C000F0000E016E0036009001369A
:10085600003600900136000E0024E16E040E0120E1
:10086600E26EE66AE66AE66AE66AE62BE7D7160EFF
:10087600706E68A603D0F70E6816FBD7826B886B7E
:10088600896B8A6B6D98080E776F040E786F6A6BAA
:04089600696B120078
:10089A0013D32F0E006E480E016E000E026E13EF78
:1008AA0009F02D0E006E480E016E000E026E13EF57
:1008BA0009F0450E006E480E016E000E026E13EF2F
:1008CA0009F0490E006E480E016E000E026E13EF1B
:1008DA0009F04B0E006E480E016E000E026E13EF09
:1008EA0009F0430E006E480E016E000E026E13EF01
:1008FA0009F03D0E006E480E016E000E026E13EFF7
:10090A0009F03B0E006E480E016E000E026E13EFE8
:10091A0009F0410E006E480E016E000E026E13EFD2
:10092A0009F03F0E006E480E016E000E026E13EFC4
:10093A0009F0270E006E480E016E000E026E13EFCC
:10094A0009F00B0E006E480E016E000E026E13EFD8
:10095A0009F0090E006E480E016E000E026E13EFCA
:10096A0009F00D0E006E480E016E000E026E13EFB6
:10097A0009F0110E006E480E016E000E026E13EFA2
:10098A0009F00F0E006E480E016E000E026E13EF94
:10099A0009F0010E006E480E016E000E026E13EF92
:1009AA0009F0FF0E006E470E016E000E026E13EF85
:1009BA0009F0030E006E480E016E000E026E13EF70
:1009CA0009F0070E006E480E016E000E026E13EF5C
:1009DA0009F0050E006E480E016E000E026E13EF4E
:1009EA0009F01F0E006E480E016E000E026E13EF24
:1009FA0009F01D0E006E480E016E000E026E13EF16
:100A0A0009F0210E006E480E016E000E026E13EF01
:100A1A0009F0250E006E480E016E000E026EFED31E
:100A2A00230E006E480E016E000E026EF7D3150EED
:100A3A00006E480E016E000E026EF0D3130E006EA9
:100A4A00480E016E000E026EE9D3170E006E480EB4
:100A5A00016E000E026EE2D31B0E006E480E016E8E
:100A6A00000E026EDBD3190E006E480E016E000EE8
:100A7A00026ED4D38F0E006E470E016E000E026E08
:100A8A00CDD38D0E006E470E016E000E026EC6D3D8
:100A9A00910E006E470E016E000E026EBFD3950EC8
:100AAA00006E470E016E000E026EB8D3930E006EF2
:100ABA00470E016E000E026EB1D3B80E006E460EDE
:100ACA00016E000E026EAAD31E0E006E470E016E54
:100ADA00000E026EA3D30D0E006E450E016E000EBF
:100AEA00026E9CD3160E006E470E016E000E026E49
:100AFA0095D3C90E006E450E016E000E026E8ED39E
:100B0A00870E006E470E016E000E026E87D3A50E89
:100B1A00006E470E016E000E026E80D3A30E006EA9
:100B2A00470E016E000E026E79D3A70E006E470EB5
:100B3A00016E000E026E72D3AB0E006E470E016E8E
:100B4A00000E026E6BD3A90E006E470E016E000EE8
:100B5A00026E64D3A10E006E470E016E000E026E85
:100B6A005DD3990E006E470E016E000E026E56D3CB
:100B7A00970E006E470E016E000E026E4FD39B0E4B
:100B8A00006E470E016E000E026E48D39F0E006E75
:100B9A00470E016E000E026E41D3EF0E006E440E38
:100BAA00016E000E026E3AD3670E006E470E016E9A
:100BBA00000E026E33D35E0E006E470E016E000EFB
:100BCA00026E2CD3640E006E470E016E000E026E8A
:100BDA0025D3610E006E470E016E000E026E1ED303
:100BEA00730E006E470E016E000E026E17D37F0E53
:100BFA00006E470E016E000E026E10D3820E006E5A
:100C0A00470E016E000E026E09D37C0E006E470E6F
:100C1A00016E000E026E02D3760E006E470E016E52
:100C2A00000E026EFBD2220E006E470E016E000EFF
:100C3A00026EF4D2060E006E470E016E000E026EB0
:100C4A00EDD20A0E006E470E016E000E026EE6D25B
:100C5A00E70E006E430E016E000E026EDFD2350EF5
:100C6A00006E440E016E000E026ED8D28B0E006E1C
:100C7A00470E016E000E026ED1D2610E006E460E54
:100C8A00016E000E026ECAD2CE0E006E460E016EC4
:100C9A00000E026EC3D2590E006E460E016E000E91
:100CAA00026EBCD26F0E006E460E016E000E026E10
:100CBA00B5D23A0E006E470E016E000E026EAED22B
:100CCA002B0E006E450E016E000E026EA7D2060EA6
:100CDA00006E000E016E000E026EA0D2850E006E2E
:100CEA00470E016E000E026E99D2890E006E470EF3
:100CFA00016E000E026E92D29D0E006E470E016EBC
:100D0A00000E026E8BD2B70E006E450E016E000EFB
:100D1A00026E84D2C00E006E450E016E000E026E87
:100D2A007DD2AE0E006E450E016E000E026E76D2B8
:100D3A009C0E006E450E016E000E026E6FD2A50E5D
:100D4A00006E450E016E000E026E68D2010E006E34
:100D5A00440E016E000E026E61D2ED0E006E450E5B
:100D6A00016E000E026E5AD2F60E006E450E016E2C
:100D7A00000E026E53D2E40E006E450E016E000E96
:100D8A00026E4CD2D20E006E450E016E000E026E3D
:100D9A0045D2DB0E006E450E016E000E026E3ED28B
:100DAA00660E006E450E016E000E026E37D25D0EA3
:100DBA00006E450E016E000E026E30D28A0E006E73
:100DCA00450E016E000E026E29D2930E006E450E7C
:100DDA00016E000E026E22D2810E006E450E016E69
:100DEA00000E026E1BD26F0E006E450E016E000ED3
:100DFA00026E14D2780E006E450E016E000E026E5F
:100E0A000DD23E0E006E470E016E000E026E06D225
:100E1A00360E006E470E016E000E026EFFD1560EA0
:100E2A00006E470E016E000E026EF8D15A0E006E69
:100E3A00470E016E000E026EF1D1520E006E470E81
:100E4A00016E000E026EEAD14A0E006E470E016E66
:100E5A00000E026EE3D14E0E006E470E016E000EBA
:100E6A00026EDCD1FE0E006E460E016E000E026EA0
:100E7A00D5D10E0E006E470E016E000E026ECED157
:100E8A00020E006E470E016E000E026EC7D1F60EFC
:100E9A00006E460E016E000E026EC0D1120E006E7A
:100EAA00470E016E000E026EB9D1520E006E480E48
:100EBA00016E000E026EB2D10001A551040AD8B427
:100ECA00E8D4A551050AD8B4ECD4A551060AD8B479
:100EDA00F0D4A551070AD8B4F4D4A551080AD8B455
:100EEA00F8D4A551090AD8B4FCD4A5510A0AD8B431
:100EFA0000D5A5510B0AD8B404D5A5510C0AD8B40B
:100F0A0008D5A5510D0AD8B40CD5A5510E0AD8B4E6
:100F1A0010D5A5510F0AD8B414D5A551100AD8B4C2
:100F2A0018D5A551110AD8B41CD5A551120AD8B49E
:100F3A0020D5A551130AD8B424D5A551140AD8B47A
:100F4A0028D5A551150AD8B42CD5A551160AD8B456
:100F5A0030D5A551170AD8B434D5A551180AD8B432
:100F6A0038D5A551190AD8B43CD5A5511A0AD8B40E
:100F7A0040D5A5511B0AD8B444D5A5511C0AD8B4EA
:100F8A0048D5A5511D0AD8B44BD5A5511E0AD8B4C7
:100F9A004ED5A5511F0AD8B451D5A551200AD8B4A7
:100FAA0054D5A551210AD8B457D5A551220AD8B487
:100FBA005AD5A551230AD8B45DD5A551240AD8B467
:100FCA0060D5A551250AD8B463D5A551260AD8B447
:100FDA0066D5A551270AD8B469D5A551280AD8B427
:100FEA006CD5A551290AD8B46FD5A5512A0AD8B407
:100FFA0072D5A5512B0AD8B475D5A5512C0AD8B4E7
:10100A0078D5A5512D0AD8B47BD5A5512E0AD8B4C6
:10101A007ED5A5512F0AD8B481D5A551300AD8B4A6
:10102A0084D5A551310AD8B487D5A551330AD8B485
:10103A008AD5A551340AD8B48DD5A551350AD8B464
:10104A0090D5A551360AD8B493D5A551370AD8B444
:10105A0096D5A551380AD8B499D5A551390AD8B424
:10106A009CD5A5513A0AD8B49FD5A5513B0AD8B404
:10107A00A2D5A5513C0AD8B4A5D5A5513D0AD8B4E4
:10108A00A8D5A5513E0AD8B4ABD5A5513F0AD8B4C4
:10109A00AED5A551400AD8B4B1D5A551410AD8B4A4
:1010AA00B4D5A551420AD8B4B7D5A551430AD8B484
:1010BA00BAD5A551440AD8B4BDD5A551450AD8B464
:1010CA00C0D5A551460AD8B4C3D5A551470AD8B444
:1010DA00C6D5A551480AD8B4C9D5A551490AD8B424
:1010EA00CCD5A5514A0AD8B4CFD5A5514B0AD8B404
:1010FA00D2D5A5514C0AD8B4D5D5A5514D0AD8B4E4
:10110A00D8D5A5514E0AD8B4DBD5A5514F0AD8B4C3
:10111A00DED5A551500AD8B4E1D5A551510AD8B4A3
:10112A00E4D5A551520AD8B4E7D5A551530AD8B483
:10113A00EAD5A551540AD8B4EDD5A551550AD8B463
:10114A00F0D5A551560AD8B4F3D5A551570AD8B443
:10115A00F6D5A551580AD8B4F9D5A551590AD8B423
:10116A00FCD5A5515A0AD8B4FFD5A5515B0AD8B403
:10117A0002D6A5515C0AD8B405D6A5515D0AD8B4E1
:10118A0008D6A5515E0AD8B40BD6A5515F0AD8B4C1
:10119A000ED6A551600AD8B411D6A551610AD8B4A1
:1011AA0014D6A551620AD8B417D6A551630AD8B481
:1011BA001AD6A551670AD8B41DD6A551680AD8B45B
:1011CA0020D6A551690AD8B423D6A5516A0AD8B43B
:1011DA0026D6A5516B0AD8B429D6A5516C0AD8B41B
:1011EA002CD6A5516D0AD8B42FD6A5516E0AD8B4FB
:1011FA0032D6A5516F0AD8B435D6A551700AD8B4DB
:10120A0038D6A551710AD8B43BD6A551720AD8B4BA
:0E121A003ED6A551730AD8B441D647D612006D
:0C12280000019C5302E06CEC02F012008C
:1012340000019C5316E0010EF86F1E0EF96F92EC3C
:1012440003F0010EF86FF96B9AC0FAF09BC0FBF043
:10125400400EFC6F02EC03F000C07BF001C07CF098
:1012640015D0010EF86F1E0EF96F92EC03F0010E0B
:10127400F86FF96B9AC0FAF09BC0FBF0400EFC6F5C
:0E12840002EC03F000C07BF001C07CF0120011
:1012920000018591E6C0EAF02DEC02F08581120092
:1012A20096D1E30E006E470E016E000E026E75D2ED
:1012B200E70E006E470E016E000E026E6ED2E50E54
:1012C200006E470E016E000E026E67D2D70E006EE0
:1012D200470E016E000E026E60D2D50E006E470EF2
:1012E200016E000E026E59D2D90E006E470E016ECB
:1012F200000E026E52D2DD0E006E470E016E000E1F
:10130200026E4BD2DB0E006E470E016E000E026EB5
:1013120044D2F50E006E470E016E000E026E3DD2F3
:10132200F30E006E470E016E000E026E36D2F70EFD
:10133200006E470E016E000E026E2FD2FB0E006E83
:10134200470E016E000E026E28D2F90E006E470E95
:10135200016E000E026E21D2EB0E006E470E016E80
:10136200000E026E1AD2E90E006E470E016E000EDA
:10137200026E13D2ED0E006E470E016E000E026E6B
:101382000CD2F10E006E470E016E000E026E05D2F7
:10139200EF0E006E470E016E000E026EFED1B90E08
:1013A200006E470E016E000E026EF7D1B70E006E90
:1013B200470E016E000E026EF0D1BB0E006E470E9C
:1013C200016E000E026EE9D1BF0E006E470E016E75
:1013D200000E026EE2D1BD0E006E470E016E000ECF
:1013E200026EDBD1AF0E006E470E016E000E026E72
:1013F200D4D1AD0E006E470E016E000E026ECDD13D
:10140200B10E006E470E016E000E026EC6D1B50E11
:10141200006E470E016E000E026EBFD1B30E006E5B
:10142200470E016E000E026EB8D1CD0E006E470E51
:10143200016E000E026EB1D1CB0E006E470E016E30
:10144200000E026EAAD1CF0E006E470E016E000E84
:10145200026EA3D1D30E006E470E016E000E026E15
:101462009CD1D10E006E470E016E000E026E95D118
:10147200C30E006E470E016E000E026E8ED1C10EBB
:10148200006E470E016E000E026E87D1C50E006E11
:10149200470E016E000E026E80D1C90E006E470E1D
:1014A200016E000E026E79D1C70E006E470E016EFC
:1014B200000E026E72D1FD0E006E470E016E000E1E
:1014C200026E6BD1470E006E480E016E000E026E68
:1014D20064D1290E006E480E016E000E026E5DD1BF
:1014E200350E006E480E016E000E026E56D1330E9E
:1014F200006E480E016E000E026E4FD1390E006E64
:10150200480E016E000E026E48D1370E006E480E74
:10151200016E000E026E41D1310E006E480E016E58
:10152200000E026E3AD12B0E006E480E016E000EB6
:10153200026E33D1DA0E006E440E016E000E026EA0
:101542002CD14D0E006E440E016E000E026E25D19E
:10155200890E006E440E016E000E026E1ED1AD0E9B
:10156200006E440E016E000E026E17D1F40E006E74
:10157200430E016E000E026E10D1950E006E440EE7
:10158200016E000E026E09D1350E006E450E016E1F
:10159200000E026E02D1A10E006E440E016E000E0C
:1015A200026EFBD0970E006E430E016E000E026EAD
:1015B200F4D0A50E006E430E016E000E026EEDD049
:1015C2004F0E006E480E016E000E026EE6D0000154
:1015D200A551040AD8B465D6A551050AD8B468D66F
:1015E200A551060AD8B46BD6A551070AD8B46ED64F
:1015F200A551080AD8B471D6A551090AD8B474D62F
:10160200A5510A0AD8B477D6A5510B0AD8B47AD60E
:10161200A5510C0AD8B47DD6A5510D0AD8B480D6EE
:10162200A5510E0AD8B483D6A5510F0AD8B486D6CE
:10163200A551100AD8B489D6A551110AD8B48CD6AE
:10164200A551120AD8B48FD6A551130AD8B492D68E
:10165200A551140AD8B495D6A551150AD8B498D66E
:10166200A551160AD8B49BD6A551170AD8B49ED64E
:10167200A551180AD8B4A1D6A551190AD8B4A4D62E
:10168200A5511A0AD8B4A7D6A5511B0AD8B4AAD60E
:10169200A5511C0AD8B4ADD6A5511D0AD8B4B0D6EE
:1016A200A5511E0AD8B4B3D6A5511F0AD8B4B6D6CE
:1016B200A551200AD8B4B9D6A551210AD8B4BCD6AE
:1016C200A551220AD8B4BFD6A551230AD8B4C2D68E
:1016D200A551240AD8B4C5D6A551250AD8B4C8D66E
:1016E200A551260AD8B4CBD6A551270AD8B4CED64E
:1016F200A5512D0AD8B4D1D6A5512E0AD8B4D4D624
:10170200A5512F0AD8B4D7D6A551300AD8B4DAD603
:10171200A551310AD8B4DDD6A551330AD8B4E0D6E2
:10172200A551340AD8B4E3D6A551350AD8B4E6D6C1
:10173200A551360AD8B4E9D6A551370AD8B4ECD6A1
:10174200A551380AD8B4EFD6A551590AD8B4F2D661
:10175200A5515A0AD8B4F5D6A5515B0AD8B4F8D621
:10176200A5515C0AD8B4FBD6A5515E0AD8B4FED600
:10177200A5515F0AD8B401D7A551600AD8B404D7DD
:10178200A551610AD8B407D7A551620AD8B40AD7BD
:0C179200A551630AD8B40DD713D712007C
:06179E00C9EC03F012008B
:1017A400E0C004F0E1C005F004C0E9FF05C0EAFFB1
:1017B400EE5203E0044A052AF7D704C002F005C03C
:1017C40003F0044A052AE2C000F0E3C001F000017E
:1017D400E24BE32B00C0E9FF01C0EAFF02C0E1FFD6
:1017E40003C0E2FFEECFE6FF02C0E9FF03C0EAFF59
:1017F400EE5201E0E2D7E0C000F0E1C001F01200D7
:101804000B6A0A6A096A00500402F4CF09F0F3CFA4
:1018140008F001500502F4CF0BF0F3CF0AF00050AA
:101824000502F3500926F4500A22E86A0B220150FB
:101834000402F3500926F4500A22E86A0B2208C075
:1018440000F009C001F00AC002F00BC003F012005E
:10185400E0C004F0E1C005F004C002F005C003F0EC
:10186400044A052AE2C000F0E3C001F00001E24BA3
:10187400E32B00C0E9FF01C0EAFF02C0E1FF03C09F
:10188400E2FFEECFE6FF02C0E9FF03C0EAFFEE523B
:0E18940001E0E2D7E0C000F0E1C001F0120078
:1018A200F00E0001E015026E02C000F00032009E50
:1018B2000032009E0032009E0032009E5A0E00242A
:1018C200F66E430EF76E000EF722000EF86E000E53
:1018D200F8220900F5CF00F0E1C0E1FFE2C0E2FF2B
:1018E20000C0E6FFE14BE22B0F0EE015006E5A0E30
:1018F2000024F66E430EF76E000EF722000EF86E0D
:10190200000EF8220900F5CF00F0E1C0E1FFE2C0CD
:08191200E2FF00C0E6FF120035
:10191A00010E00019C6FE0C09AF0E1C09BF0E2C0AA
:10192A009DF0E3C09EF00BEC04F0010E016E015035
:0A193A00010A02E1BAEC03F012000A
:101944000001A051000A01E10ED0A051FF0A01E1FB
:101954000AD08B92A0C0A9F0A40ED76E720ED66ED8
:08196400F294F28AD58E120004
:10196C0010D0800E0001E06F1AD0C00EE06F17D0BF
:10197C00940EE06F14D0D40EE06F11D0800EE06F97
:10198C000ED00001E051010AECE0E051020AEDE05A
:10199C00E051030AEDE0E051040AEDE0EFD7E10578
:1019AC00006EE051002600C0E0F000C0EAF02DEC23
:1019BC0002F08591E46BE451E225E96E000EE3211F
:1019CC00EA6EEE520BE0E451E225E96E000EE321E3
:1019DC00EA6EEECFE6F057DCE42BEDD785811200F2
:1019EC00E0C0E6F0E1C0E7F0E2C0E8F0010E000173
:0819FC00E96FCEEC03F01200CC
:101A0400F2C002F0F3C003F0F5C000F0F6C001F03C
:101A1400010E0001F55F000EF65B0050011009E0B5
:101A240002C0E1FF03C0E2FFF4C0E6FF024A032A5A
:041A3400EBD71200DA
:101A38000ED01AEC09F03DD03CD014EC09F039D0A6
:101A480038D037D036D035D0000033D032D0000E61
:101A58000001F31902E1010EF219EBE0000EF3198F
:101A680002E1020EF219E8E0000EF31902E1030E9A
:101A7800F219E3E0F351000A02E1730EF219E0E013
:101A8800F351000A02E1750EF219DBE0F351000A86
:101A980002E1740EF219D6E0F3513F0A02E1FF0E9B
:101AA800F219D1E0F351000A02E1720EF219CCE00A
:081AB800CDD7010E006E1200F3
:101AC000AB0E056E000E066E05C003F006C004F0F6
:101AD000054A062AE0C000F0E1C001F0E2C002F0D1
:101AE000010E0001E027000EE123E22300C0F6FF13
:101AF00001C0F7FF02C0F8FF0900F5CF00F003C0F6
:101B0000E1FF04C0E2FF00C0E6FF03C0E9FF04C03C
:101B1000EAFFEE5201E0D8D7AB0E006E000E016E68
:021B20001200B1
:101B2200E0C004F0E1C005F004C0E9FF05C0EAFF2F
:101B3200EE5203E0044A052AF7D70001E451E51109
:101B420021E004C002F005C003F0044A052AE2C005
:101B520000F0E3C001F0E24BE32B00C0E9FF01C05B
:101B6200EAFF02C0E1FF03C0E2FFEECFE6FF02C0E0
:101B7200E9FF03C0EAFFEE5205E0010EE45F000E4A
:101B8200E55BDBD7000EE51902E1000EE41905E181
:101B920004C0E1FF05C0E2FFE66AE0C000F0E1C078
:041BA20001F012003C
:101BA600A5C0E0F0A6C0E1F0F00E0001A615E26FB8
:101BB600DDD24DEC04F000C065F001C066F002C055
:101BC60067F00001A6A321D051EC09F000C061F036
:101BD60001C062F002C063F000C0F6FF01C0F7FF6B
:101BE60002C0F8FF0900F5CF00F0005207E061C01F
:101BF60000F062C001F063C002F0C8D265C000F018
:101C060066C001F067C002F0C1D265C000F066C0D0
:101C160001F067C002F0BAD21CD0E50E006E440E89
:101C2600016E000E026EB2D2A00E006E460E016E5E
:101C3600000E026EABD2EC0E006E460E016E000E6A
:101C4600026EA4D2500E006E480E016E000E026E99
:101C56009DD20001E151100A02E1810EE019DDE09A
:101C6600E151100A02E1820EE019DEE0E151100AAC
:101C760002E1830EE019DFE0E5D70AD1C90E006E56
:101C8600460E016E000E026E81D2210E006E450ECA
:101C9600016E000E026E7AD28B0E006E460E016E3B
:101CA600000E026E73D2840E006E460E016E000E9A
:101CB600026E6CD2680E006E460E016E000E026E4B
:101CC60065D2760E006E460E016E000E026E5ED274
:101CD6003F0E006E450E016E000E026E57D27D0E4F
:101CE600006E460E016E000E026E50D2990E006E08
:101CF600460E016E000E026E49D2460E006E470E6B
:101D0600016E000E026E42D2420E006E470E016E4A
:101D1600000E026E3BD2DF0E006E470E016E000E05
:101D2600026E34D2E10E006E470E016E000E026E98
:101D36002DD21A0E006E470E016E000E026E26D2CE
:101D46006D0E006E470E016E000E026E1FD2700EF3
:101D5600006E470E016E000E026E18D22E0E006E39
:101D6600470E016E000E026E11D2260E006E470E51
:101D7600016E000E026E0AD2C40E006E460E016E91
:101D8600000E026E03D2A60E006E460E016E000E07
:101D9600026EFCD1FA0E006E460E016E000E026E49
:101DA600F5D1D80E006E460E016E000E026EEED113
:101DB600DD0E006E460E016E000E026EE7D1D30EEA
:101DC600006E460E016E000E026EE0D1CD0E006E64
:101DD600430E016E000E026ED9D1410E006E440E06
:101DE600016E000E026ED2D1BE0E006E460E016E60
:101DF600000E026ECBD1CF0E006E440E016E000EA9
:101E0600026EC4D1230E006E460E016E000E026EE7
:101E1600BDD1710E006E440E016E000E026EB6D17B
:101E2600C40E006E440E016E000E026EAFD12C0E73
:101E3600006E460E016E000E026EA8D1350E006EC3
:101E4600460E016E000E026EA1D11A0E006E460EEF
:101E5600016E000E026E9AD1FF0E006E450E016EE7
:101E6600000E026E93D17D0E006E440E016E000EC2
:101E7600026E8CD1890E006E430E016E000E026E4C
:101E860085D14E0E006E480E016E000E026E7ED19A
:101E9600E151200A02E1400EE019D8B4EFD6E15133
:101EA600200A02E1410EE019D8B4EFD6E151200A2A
:101EB60002E1420EE019D8B4EFD6E151200A02E160
:101EC600430EE019D8B4EFD6E151200A02E1440EE0
:101ED600E019D8B4EFD6E151200A02E1450EE01927
:101EE600D8B4EFD6E151200A02E1460EE019D8B483
:101EF600EFD6E151200A02E1470EE019D8B4EFD639
:101F0600E151200A02E1480EE019D8B4EFD6E151BA
:101F1600200A02E19C0EE019D8B4EFD6E151200A5E
:101F260002E19D0EE019D8B4EFD6E151200A02E194
:101F3600B00EE019D8B4EFD6E151200A02E1B10E95
:101F4600E019D8B4EFD6E151200A02E1B20EE01949
:101F5600D8B4EFD6E151200A02E1B30EE019D8B4A5
:101F6600EFD6E151200A02E1B40EE019D8B4EFD65B
:101F7600E151200A02E1B50EE019D8B4EFD6E151DD
:101F8600200A02E1B60EE019D8B4EFD6E151200AD4
:101F960002E1B70EE019D8B4EFD6E151200A02E10A
:101FA600B80EE019D8B4EFD6E151200A02E1CD0E01
:101FB600E019D8B4EFD6E151200A02E1E20EE019A9
:101FC600D8B4EFD6E151200A02E1E90EE019D8B4FF
:101FD600EFD6E151200A02E1EA0EE019D8B4EFD6B5
:101FE600E151210A02E1830EE019D8B4EFD6E1519E
:101FF600210A02E1850EE019D8B4EFD6E151210A93
:1020060002E18A0EE019D8B4EFD6E151210A02E1C5
:10201600920EE019D8B4EFD6E151210A02E1940EEE
:10202600E019D8B4EFD6E151210A02E1960EE01983
:10203600D8B4EFD6E151220A02E1210EE019D8B454
:10204600EFD6E151220A02E1230EE019D8B4EFD609
:10205600E151220A02E1240EE019D8B4EFD6E1518B
:10206600220A02E1250EE019D8B4EFD6E151220A80
:1020760002E1260EE019D8B4EFD6E151220A02E1B8
:10208600270EE019D8B4EFD6E151220A02E12A0E52
:10209600E019D8B4EFD6F5D646D0590E006E440EE8
:1020A600016E000E026E72D0B30E006E430E016E0C
:1020B600000E026E6BD0C00E006E430E016E000E57
:1020C600026E64D0470E006E460E016E000E026E62
:1020D6005DD0030E006E450E016E000E026E56D0E8
:1020E6003E0E006E460E016E000E026E4FD0650E5D
:1020F600006E440E016E000E026E48D0F90E006EA0
:10210600440E016E000E026E41D0500E006E460E59
:10211600016E000E026E3AD04D0E006E480E016E34
:10212600000E026E33D0A551000AB7E0A551010A90
:10213600BBE0A551020ABFE0A551030AC3E0A551C1
:10214600040AC7E0A551050ACBE0A551060ACFE06F
:10215600A551080AD3E0A551070AD7E0DDD7510EED
:10216600006E480E016E000E026E10D0E251000A9B
:10217600D8B41FD5E251100AD8B44ED5E251200A80
:0E218600D8B47BD5E251F00A87E0E9D7120009
:102194000001E36B030EE35D0AE2E351E125E16E26
:1021A400000EE221E26E200EE66EE32BF3D7E3513C
:1021B400E125E16E000EE221E26EE66AE307E351F7
:1021C400E125E46F000EE221E56F0A0E046EE0C023
:1021D40000F0ABEC03F008C000F0300E0026E4C0C1
:1021E400E1FFE5C0E2FF00C0E6FF0A0E046EE0C0B6
:1021F40000F0ABEC03F000C0E0F00050000A01E195
:0822040002D0E307DCD7120051
:10220C000001828F710EF26F0F0EF36FF46B010EE3
:10221C00F56F000EF66F02EC0DF0AA0EF26F000EC9
:10222C00F36FF46B010EF56F000EF66F02EC0DF010
:10223C0022C46AF06A51000A03E1100E696F10D0D3
:10224C00200E696F010EF26F000EF36F6A0EF46FC1
:10225C00000EF56F010EF66F000EF76F1CEC0DF013
:02226C0012005E
:10226E000401286B296B4AD00001828F040128815A
:10227E000001A151010A02E10401288354D000019A
:10228E00828F51D00001828F040124BF16D024C446
:10229E0003F00F0E031603C000F0000E016E0036A1
:1022AE00009001368F0E0024E96E000E0120EA6EBA
:1022BE00EECF04F0EECF05F015D024C403F00F0ED0
:1022CE00031603C000F0000E016E003600900136BA
:1022DE00770E0024E96E000E0120EA6EEECF04F0B8
:1022EE00EECF05F004C0E9FF05C0EAFFEECF01F026
:1022FE0001A403D00401010E286F15D020C401F0F3
:10230E001F0E01160150000AAFE020C401F01F0E8F
:10231E0001160150010AB3E020C401F01F0E011690
:10232E000150020AAFE0000182AF07D0280E7F6F86
:0C233E00040E806F8281020E836F12007B
:10234A0004012051800AD8A47BD0C00E0001826FFC
:10235A006CD00001480E006E430E016E000E026E34
:10236A0000C07FF001C080F002C081F0120E836FBE
:10237A00000E846F65D00001030E006E000E016E20
:10238A0022C404F0000E056E02EC0CF0740E002458
:10239A00E96E000E0120EA6EEECF7FF0EECF80F0FC
:1023AA00EECF81F0020E7F25F66E000E8021F76EC9
:1023BA00000E8121F86E0900F5CF00F00900F5CF73
:1023CA0001F000C083F001C084F03AD0030E04018A
:1023DA00225D25E2030E006E000E016E22C404F097
:1023EA00000E056E02EC0CF06B0E0024E96E000E76
:1023FA000120EA6EEECF7FF0EECF80F0EECF81F0D3
:10240A007FC0F6FF80C0F7FF81C0F8FF0900F5CF53
:10241A0000F000C083F0000E0001846F02D00001BA
:10242A00826B0ED00001826B0BD004012351010A8A
:10243A0090E02351020A9FE02351030AC7E0F2D732
:02244A0012007E
:10244C00000E0001845D02E1080E835D10E283C082
:10245C0003F084C004F0A751000A03E1010EA76F3A
:10246C0005D0A751010A02E1020EA76F04D0080E95
:10247C00036E000E046E77C0E1FF78C0E2FFE692B7
:10248C0077C0E1FF78C0E2FFE69077C0E9FF78C043
:10249C00EAFFEECF00F077C0E1FF78C0E2FF045016
:1024AC000010E66E010E7725E16E000E7821E26ECB
:1024BC0003C0E6FF0350835D006E04508459016E27
:1024CC0000C083F001C084F0280EA36F040EA46F2B
:1024DC0082B12FD0035004102BE07FC0F6FF80C0D8
:1024EC00F7FF81C0F8FF0900F5CF00F0A3C0E1FFB2
:1024FC00A4C0E2FF00C0E6FFA34BA42B010E7F2576
:10250C00006E000E8021016E000E8121026E00C053
:10251C007FF001C080F002C081F0010E035C006E00
:10252C00000E0458016E00C003F001C004F0D2D7B5
:10253C0024D00350041021E07FC0E9FF80C0EAFFE3
:10254C00A3C0E1FFA4C0E2FFEECFE6FFA34BA42B98
:10255C00010E7F25006E000E8021016E00C07FF001
:10256C0001C080F0010E035C006E000E0458016E79
:0C257C0000C003F001C004F0DCD7120026
:1025880004012251010A13E120C401F01F0E0116B3
:102598000150000A0CE10001828F04012151030A55
:1025A80004E1010E0001A16F02D00001A16B04013A
:1025B8002251000AD8A48DD020C401F01F0E0116A4
:1025C8000150020AD8A485D024C401F00F0E0116C8
:1025D8000150000AD8B47DD00001828F040124BFC5
:1025E80016D024C403F00F0E031603C000F0000E2B
:1025F800016E0036009001368F0E0024E96E000E41
:102608000120EA6EEECF04F0EECF05F015D024C419
:1026180003F00F0E031603C000F0000E016E003623
:1026280000900136770E0024E96E000E0120EA6E54
:10263800EECF04F0EECF05F02151030A07E104C004
:10264800E1FF05C0E2FF840EE66E43D024C400F02B
:102658000F0E0016700E026E0F0E036E005002264B
:10266800D8B0032A02C0E9FF03C0EAFFFE0EEE1449
:10267800006EEECF01F0FF0E011602C0E1FF03C0AD
:10268800E2FF00C0E6FF01C0E6FF24AF11D004C09E
:10269800E1FF05C0E2FFE66A040E0418006E00C000
:1026A80004F004C0E1FF05C0E2FF400EE66E11D061
:1026B80004C0E1FF05C0E2FF880EE66E040E0418B0
:1026C800006E00C004F004C0E1FF05C0E2FFC80EC0
:0426D800E66E120098
:1026DC0008D08B82D59E0DD08B92D59E0AD0D58EEC
:1026EC0008D00001A051000AF4E0A051FF0AF4E068
:0426FC00F6D71200FB
:10270000A2EC0CF0280EE06F440EE16F000EE26FB9
:1027100060EC0DF000C0E2F001C0E3F0020EE06FEB
:10272000010EE16FB6EC0CF04B0E0501086F096B62
:102730000A6B0B6B0001CB91CBB153D0000EE06F55
:10274000050EE16F080EE26F050EE36F8DEC0CF0E5
:10275000DE6BCBB132D0320EDE5D2FE28B80020E0B
:102760000B6E860E0C6E990E0D6E0D2EFED70C2E76
:10277000FCD70B2EFAD78B90020E0B6E860E0C6ECA
:10278000990E0D6E0D2EFED70C2EFCD70B2EFAD700
:10279000080EE06F050EE16F040EE26FF6EC0CF030
:1027A0000050000A000ED8A4010E016E01B002D044
:1027B000CB9101D0CB81DE2BCCD7CBB111D0A2EC09
:1027C0000CF0CFEC0BF0990E0B6E310E0C6EA20ECE
:1027D0000D6E0D2EFED70C2EFCD70B2EFAD7000057
:1027E000ABD71B0EE06F440EE16F000EE26F60ECA2
:1027F0000DF000C0E2F001C0E3F0020EE06F010E48
:08280000E16FB6EC0CF01200D0
:10280800CFEC0BF0DA0EE06F430EE16F000EE26FD3
:1028180060EC0DF000C0E2F001C0E3F0020EE06FE2
:0C282800010EE16FB6EC0CF0CB91120039
:10283400010E0001EA6F2DEC02F0A6C0E0F0340EA8
:10284400E16F000EE26F51EC0CF0200E366E376A29
:10285400F00EA615DF6FD1D0CBA913D0110EE06F07
:10286400460EE16F000EE26F60EC0DF000C0E2F086
:1028740001C0E3F0340EE06F000EE16FD2EC0BF018
:1028840082D00F0EA615DE6F77D0080EE06F460ECD
:10289400E16F000EE26F60EC0DF000C0E2F001C0E9
:1028A400E3F0340EE06F000EE16FD2EC0BF06BD06E
:1028B400170EE06F450EE16F000EE26F60EC0DF055
:1028C40000C0E2F001C0E3F0340EE06F000EE16FEF
:1028D400D2EC0BF058D0A6A712D0F10EE06F460E42
:1028E400E16F000EE26F60EC0DF000C0E2F001C099
:1028F400E3F0340EE06F000EE16FD2EC0BF0A6A112
:1029040012D0E20EE06F460EE16F000EE26F60EC53
:102914000DF000C0E2F001C0E3F0340EE06F000EF1
:10292400E16FD2EC0BF0A6A512D0E70EE06F460ED5
:10293400E16F000EE26F60EC0DF000C0E2F001C048
:10294400E3F0340EE06F000EE16FD2EC0BF0A6A3BF
:1029540012D0AC0EE06F460EE16F000EE26F60EC39
:102964000DF000C0E2F001C0E3F0340EE06F000EA1
:10297400E16FD2EC0BF007D0DE51000A86E0DE51A5
:102984000F0A96E0A8D747D0920EE06F460EE16F8B
:10299400000EE26F60EC0DF000C0E2F001C0E3F065
:1029A400340EE06F000EE16FD2EC0BF034D00E0E5B
:1029B400E06F440EE16F000EE26F60EC0DF000C0BA
:1029C400E2F001C0E3F0340EE06F000EE16FD2ECF0
:1029D4000BF021D07B0EE06F430EE16F000EE26F2F
:1029E40060EC0DF000C0E2F001C0E3F0340EE06FE3
:1029F400000EE16FD2EC0BF00ED0DF51000AD8B418
:102A04002BD7DF51100AC0E0DF51200AD0E0DF519C
:102A1400F00AE0E0F1D7CBA913D06B0EE06F430EC0
:102A2400E16F000EE26F60EC0DF000C0E2F001C057
:102A3400E3F0450EE06F000EE16F2AEC0CF0ACD031
:102A4400CBA51ED0A2C0E0F0450EE16F000EE26FF0
:102A540051EC0CF0200E476E486A530EE06F450EA1
:102A6400E16F000EE26F60EC0DF000C0E2F001C017
:102A7400E3F0450EE06F000EE16FD2EC0BF08CD06A
:102A8400CBAB67D09FC0E0F0450EE16F000EE26F64
:102A940051EC0CF0200E476E486A6A0EE06F470E48
:102AA400E16F000EE26F60EC0DF000C0E2F001C0D7
:102AB400E3F0450EE06F000EE16FD2EC0BF041D075
:102AC4002A0EE06F470EE16F000EE26F60EC0DF02E
:102AD40000C0E2F001C0E3F0450EE06F000EE16FCC
:102AE400D2EC0BF035D0790EE06F470EE16F000E9B
:102AF400E26F60EC0DF000C0E2F001C0E3F0450EBF
:102B0400E06F000EE16FD2EC0BF022D09FC0E0F03A
:102B14004A0EE16F000EE26FCAEC10F0B20EE06FE5
:102B2400460EE16F000EE26F60EC0DF000C0E2F0C3
:102B340001C0E3F0450EE06F000EE16FD2EC0BF044
:102B440007D09F51000ABCE09F51FF0ACCE0DED7BA
:102B540023D0A5C0E0F0450EE16F000EE26F51EC0A
:102B64000CF0200E476E486AD3EC0DF000C0E0F084
:102B740001C0E1F002C0E2F060EC0DF000C0E2F050
:102B840001C0E3F0450EE06F000EE16F0D0EE46F3F
:102B9400000EE56F91EC0DF0010EE06F010EE16F98
:102BA400340EE26F000EE36FB6EC0CF0020EE06F31
:102BB400010EE16F450EE26F000EE36FB6EC0CF010
:022BC4001200FD
:102BC6000001646B77C0E1FF78C0E2FFE66A040E9D
:102BD6007719E16E78C0E2FF000EE21AE66A88AF66
:062BE60001D0889F1200DF
:102BEC0035D0828C080E0B6E9D0E0C6E050E0D6E84
:102BFC000D2EFED70C2EFCD70B2EFAD700000000A2
:102C0C00829C3ED0828E080E0B6E9D0E0C6E050EB5
:102C1C000D6E0D2EFED70C2EFCD70B2EFAD7000006
:102C2C000000829E2DD0EADD65DD2AD0A06B50DD40
:102C3C0027D0FF0E0001A06F4BDD22D00001CB9DF1
:102C4C00F3DD1ED0CB8D1CD01BD01AD00001A551AA
:102C5C00010AC7E0A551020AD5E0A551030AE3E039
:102C6C00A551040AE3E0A551050AE3E0A551080AC1
:102C7C00E5E0A551070AE6E0A551000AE5E0E5D735
:022C8C00120034
:102C8E0020C401F0600E0116050E006E005004E027
:102C9E000132019EFF0FFBD70150000A01E06CD0FC
:102CAE0048D00001828F080E696F66D0A5EC11F036
:102CBE0063D006EC11F060D06A0E00017F6F000E3B
:102CCE00806F8281010E836F828F56D037EC11F0A8
:102CDE0053D053DC51D0AA0E006E000E016E0401CB
:102CEE0024510026D8B0012A00C07FF001C080F028
:102CFE0000018281010E836F828F3ED00001828F90
:102D0E00AA0EE16E000EE26E04012451E126D8B047
:102D1E00E22A22C4E6FF30D0020E0001F26F000E4E
:102D2E00F36FF46BF56BF66BF76B1CEC0DF024D0B8
:102D3E0023D004012151050AB4E02151060AB6E060
:102D4E002151090AB6E02151080AB6E02151000AC4
:102D5E00BDE02151010ABDE02151030ABAE0215123
:102D6E000A0AB9E021510B0AC9E02151070AD4E041
:0A2D7E0021510C0ADDE0DCD7120041
:102D88006D98000182BF49D088AF28D0020E646FC9
:102D9800010E7725E16E000E7821E26EE66A77C0B3
:102DA800E1FF78C0E2FFC80EE66E010E5E24E16E18
:102DB800000E5F20E26E080EE66E020E5E24E16EE3
:102DC800000E5F20E26E280EE66E040EE66E5EC010
:102DD800E1FF5FC0E2FFC80EE66E1ED0010E5E2462
:102DE800E16E000E5F20E26E080EE66E020E5E24B3
:102DF800E16E000E5F20E26E200EE66E040EE66EB7
:102E08005EC0E1FF5FC0E2FF8C0EE66E77C0E1FFB7
:102E180078C0E2FF840EE66E83D088BF81D00401BB
:102E280020AF56D0000184510401275D04E1000160
:102E380083510401265D04E226C483F027C484F08C
:102E480026EC12F0010E646F010E5E24E16E000E96
:102E58005F20E26E080EE66E020E5E24E16E000E42
:102E68005F20E26E200EE66E040EE66E5EC0E1FFA5
:102E78005FC0E2FF800EE66E606B010E5824E16EC3
:102E8800000E5920E26E080EE66E020E5824E16E1E
:102E9800000E5920E26E200EE66E040EE66E58C053
:102EA800E1FF59C0E2FF840EE66E010E606F020E6C
:102EB8007725E16E000E7821E26E280EE66E040E8C
:102EC800E66E77C0E1FF78C0E2FFC80EE66E28D054
:102ED8000001020E646F010E7725E16E000E782165
:102EE800E26EE66A77C0E1FF78C0E2FFC80EE66EE0
:102EF800010E5E24E16E000E5F20E26E080EE66EA3
:102F0800020E5E24E16E000E5F20E26E280EE66E71
:102F1800040EE66E5EC0E1FF5FC0E2FFC80EE66E1B
:022F2800120095
:102F2A00010E5824E96E000E5920EA6EEECF00F029
:102F3A0000C002F0000E00018A5D02E10250895DC4
:102F4A0003E289C002F00AD00250895D006E000EC9
:102F5A008A59016E00C089F001C08AF0036A0250E2
:102F6A00035C1CE2280EE96E040EEA6E0350E926A1
:102F7A00D8B0EA2AEECF00F086C0E1FF87C0E2FFB0
:102F8A0000C0E6FF010E8625006E000E8721016E45
:102F9A0000C086F001C087F0032AE1D7000E006E58
:102FAA008A51005C02E18951000828E2010E5E2480
:102FBA00E16E000E5F20E26E080EE66E020E5E24DF
:102FCA00E16E000E5F20E26E280EE66E040EE66EDB
:102FDA0058C0E9FF59C0EAFFEECF00F000BC07D0A5
:102FEA005EC0E1FF5FC0E2FFC80EE66E06D05EC0BB
:102FFA00E1FF5FC0E2FF880EE66E19D0010E5E2483
:10300A00E16E000E5F20E26E080EE66E020E5E248E
:10301A00E16E000E5F20E26E200EE66E040EE66E92
:10302A005EC0E1FF5FC0E2FF840EE66E889F120079
:08303A000001DD51A227120084
:1030420081BC02D0D88001D0D890000ED8B0010E39
:04305200006E1200FA
:103056000001CBA11FD0530E0501086FA5C009F5CD
:10306600080E0001E06F050EE16F020EE26FF6EC4E
:103076000CF0005201E1F4D70501096B080E0001BE
:10308600E06F050EE16F020EE26FF6EC0CF00052F7
:0630960001E1F4D7120075
:10309C00A6C000F00032009E0032009E0032009E5E
:1030AC000032009E0001DD5100260F0E0014036E4D
:1030BC000F0EA615026E03C000F00036009000360D
:1030CC00009000360090003600900250001200C0B4
:0430DC00A6F0120048
:0830E0000001DD519F271200E1
:0A30E8009494CA840C0EBD1212006D
:1030F2000001CBA123D04B0E0501086FA6C009F534
:103102000A6BA5C00BF5080E0001E06F050EE16F1A
:10311200040EE26FF6EC0CF0005201E1F4D7050167
:10312200096B0B6B080E0001E06F050EE16F040ED8
:0E313200E26FF6EC0CF0005201E1F4D712004F
:103140000001CBA125D0430E0501086FA5C009F5EC
:103150000F0E0001A61505010A6F080E0001E06FB1
:10316000050EE16F030EE26FF6EC0CF0005201E188
:10317000F4D70501096B0A6B080E0001E06F050E1C
:10318000E16F030EE26FF6EC0CF0005201E1F4D7B0
:0231900012002B
:1031920081BE02D0D88001D0D890000ED8B0010EE6
:0431A200006E1200A9
:0A31A6009484CA94F00EBD161200C6
:1031B00077C0E9FF78C0EAFFEECF00F000AE05D09F
:1031C00077C0E1FF78C0E2FFE66A0001A76B646B9D
:1031D000836B846B826B5BDD030E0001F26F000E6C
:1031E000F36FF46BF56BF66BF76B1CEC0DF0CCDD4D
:0231F0001200CB
:1031F20000016451020A02E197DE1ED0E3DC605155
:10320200000A19E1010E5E24E16E000E5F20E26EFB
:10321200080EE66E020E5E24E16E000E5F20E26E84
:10322200200EE66E040EE66E5EC0E1FF5FC0E2FFB6
:0A3232008C0EE66E01D0606B1200F6
:10323C0077C0E9FF78C0EAFFEECF00F0000E00BCCB
:10324C00010E0001F16F040E7719006E00C077F0CB
:10325C006951080A0AE122C46EFF6E50000803E2AD
:10326C00100E696F02D0040E696F6451010A2BE1D4
:10327C00020E7725E16E000E7821E26E280E006EAC
:10328C00040E016E00C0E6FF01C0E6FF26EC12F052
:10329C00A751020A07E177C0E1FF78C0E2FF840E74
:1032AC00E66E10D0F151000A07E177C0E1FF78C05B
:1032BC00E2FFC80EE66E06D077C0E1FF78C0E2FFF1
:0A32CC00880EE66E01D079DC1200D6
:1032D600100E2A6E270E2B6E8B80F00E0001A6159F
:1032E600DB6F09D003DF15D0B3DE13D026DF11D094
:1032F6007ADC0FD00ED00001DB51000AF3E0DB517F
:10330600100AF2E0DB51200AF1E0DB51F00AF0E0AE
:04331600F1D71200D9
:10331A00A6A202D00000FCD7A69CDBC0A9FFDCC095
:10332A00A8FFA69EA684F2CF00F0F29E550EA76EC5
:10333A00AA0EA76EA68200BE02D0F29E01D0F28E1D
:04334A00A694120033
:10334E00F250026EF29E0500FF6A0150FE6E0050B2
:08335E00FD6E02BEF28E1200AA
:10336600C0DE050E0C6EAB0E0D6E0D2EFED70C2EAE
:0A337600FCD70000000014DF120075
:10338000000E0001A515026EA651F00B036EFF0E94
:10339000A515006EA6510F0B016EDB510026000E25
:1033A000DBBFFF0E0122FF0E00160F0E01160250AA
:1033B00000120350011200C0A5F001C0A6F01200D7
:1033C000A69CDBC0A9FFA69EA680A8CF00F0120095
:1033D000566A5C6A5D6A010E2C24006E000E2D2078
:0C33E000016E00C02CF001C02DF01200A6
:1033EC000001DB6B060EDB5D1BE22E0EE96E000EA0
:1033FC00EA6EDB51E926D8B0EA2AEECFE0F0DBC06A
:10340C0000F0000E016E003601360090340E0024E0
:10341C00E16F000E0120E26F51EC0CF0DB2BE2D7D8
:10342C002DC0E0F0400EE16F000EE26F51EC0CF09D
:10343C002CC0E0F0420EE16F000EE26F51EC0CF08C
:10344C00446AA5C0E0F0450EE16F000EE26F51EC4E
:10345C000CF0200E476E56C0E0F0480EE16F000EE7
:10346C00E26F51EC0CF05CC0E0F04A0EE16F000E24
:10347C00E26F51EC0CF0200E4A6E5DC0E0F04C0E89
:10348C00E16F000EE26F51EC0CF02E0E4C6E200E24
:10349C004E6E5BC0E0F04F0EE16F000EE26F51EC30
:1034AC000CF05AC0E0F0510EE16F000EE26F51ECDF
:1034BC000CF0200E536E57A003D0750E546E02D034
:1034CC00640E546E556A2C6A2D6A010EEA6F2DEC4F
:1034DC0002F0010EE06F010EE16F340EE26F000E90
:1034EC00E36FB6EC0CF0020EE06F010EE16F450ECF
:0C34FC00E26F000EE36FB6EC0CF0120063
:10350800FD0E0001CC15016E026AFF0E0216000EB8
:10351800021802E1000E01186BE17E0ECC15016E57
:1035280001C003F00332039E03C000F0000E016ED9
:10353800003600900136003600900136000E002457
:10354800026E040E0120036E02C058F003C059F049
:1035580002C05EF003C05FF0040E5E18006E00C08B
:103568005EF002C0E9FF03C0EAFFEECF00F000C042
:1035780001F03C0E01160132019E0132019E0150FC
:103588000D0A34E1020E5824E96E000E5920EA6E45
:10359800EECF01F0EECF02F00250040A02E1280E4D
:1035A800011822E1020E5824E16E000E5920E26E45
:1035B800200EE66E040EE66EF06B080EF05D14E267
:1035C800200EE16E040EE26EF051E126D8B0E22A38
:1035D800280EE96E040EEA6EF051E926D8B0EA2A00
:1035E800EECFE6FFF02BE9D7DFDD01D0FEDD0DD011
:1035F800FD0ECC15016E026AFF0E0216000E0218AF
:0C36080002E1040E011801E115DE1200C1
:1036140070A019D058C0E9FF59C0EAFFEECF01F0FD
:103624000150800A0FE177C0E9FF78C0EAFFEECFCE
:1036340001F00150840A06E158C0E1FF59C0E2FFDD
:0C3644008C0EE66E7090DF0E681612000F
:10365000CB50010F006E016A000E0122D2C004F0AF
:10366000000E056E02EC0CF0060E026E00C004F0B7
:1036700001C005F0025005E005320432059EFF0F3F
:10368000FAD7040E016E04C000F0015004E00036C9
:103690000090FF0FFBD7300E0014036E04C000F043
:1036A00005C001F001320032019E01320032019E5C
:0E36B00000C0BEFF0F0EBD160350BD1212006B
:0836BE00BE6ABD98BD9A12001E
:1036C600D2C0DBF05ADE1AEC14F0020E686FD3C0DB
:1036D60000F0D4C001F038DE005234E00001CBA384
:1036E60030D0800E006E800EA8BF7F0E005C02E117
:1036F600A851000826E368076851000A20E1D2C0F5
:10370600DBF03BDED3EC0DF000C0F6FF01C0F7FFA7
:1037160002C0F8FF0900F5CF01F00150000A0BE1E5
:103726000F0E0001A515016E0150000A04E0D2C07B
:10373600DBF023DEE7D71AEC14F0020E686FCB93AA
:06374600A86BC5D71200BC
:10374C00D5C0E1FFD6C0E2FFD2C0E6FFD3C000F087
:10375C00D4C001F0F6DD1AEC14F0D7C000F0D8C0DC
:10376C0001F0EFDD00521DE00001CBA319D0800E5B
:10377C00006E800EA8BF7F0E005C02E1A85100080D
:10378C000FE3D5C0E1FFD6C0E2FFD2C0E6FFD3C045
:10379C0000F0D4C001F0D5DD1AEC14F0CB93A86B7B
:0437AC00DCD7120054
:1037B000929A92989290929292949296809A8098ED
:1037C00080968094809280908CEC00F08CEC00F0DD
:1037D0008CEC00F080828080808A9DEC00F0809AE2
:1037E0008CEC00F0808A9DEC00F0809A8CEC00F06C
:1037F000808A9DEC00F0809A8CEC00F08090808AAA
:103800009DEC00F0809A8CEC00F0808A9DEC00F03A
:10381000809A80928086808A9DEC00F0809A8CEC61
:1038200000F080968080808A9DEC00F0809A8090E5
:10383000808A9DEC00F0809A8CEC00F0808A9DECF0
:1038400000F0809A8080808A9DEC00F0809A8CEC59
:1038500000F08090808A9DEC00F0809A80868084C1
:1038600080828080808A9DEC00F0809A8CEC00F051
:0638700000018581120039
:10387600010E0001DB6FA1DD00C0A0F06EEC13F0BD
:0238860012002E
:04388800A0901200FA
:10388C00010E0001DB6FA0C0DCF041DD6EEC13F02B
:02389C00120018
:10389E002E500001A21904E02E50FF0A01E021D0A3
:1038AE002F502E18006E01E11CD031503018006ED2
:1038BE0001E117D033503218006E01E112D030C042
:1038CE0001F0006A32500012000E011200C0A5F085
:1038DE0001C0A6F0CBAD02D082DD02D01AEC14F0FE
:0438EE00F3DC1200F5
:1038F200480E0001EA6F2DEC02F0E66B49EC09F08C
:10390200040EE66F49EC09F00A0EE66F49EC09F085
:10391200150EE66F49EC09F0040EE66F49EC09F06A
:10392200040EE66F49EC09F0E66B49EC09F0E66B30
:1039320049EC09F0E66B49EC09F0040EE66F49EC3C
:1039420009F0040EE66F49EC09F0150EE66F49EC3A
:1039520009F00A0EE66F49EC09F0040EE66F49EC35
:1039620009F0E66B49EC09F0E66B49EC09F0E66B0D
:1039720049EC09F0040EE66F49EC09F0020EE66F1D
:1039820049EC09F01D0EE66F49EC09F0020EE66FF4
:1039920049EC09F0040EE66F49EC09F0E66B49ECDC
:1039A20009F0E66B49EC09F0E66B49EC09F0040E0C
:1039B200E66F49EC09F0080EE66F49EC09F0170EC4
:1039C200E66F49EC09F0080EE66F49EC09F0040EC7
:1039D200E66F49EC09F0E66B49EC09F0E66B49EC5D
:1039E20009F0E66B49EC09F0E66B49EC09F0090EC7
:1039F200E66F49EC09F0150EE66F49EC09F0120E7C
:103A0200E66F49EC09F0E66B49EC09F0E66B49EC2C
:103A120009F0E66B49EC09F01B0EE66F49EC09F080
:103A22001B0EE66F49EC09F01B0EE66F49EC09F03C
:103A32001B0EE66F49EC09F01B0EE66F49EC09F02C
:103A42001B0EE66F49EC09F01B0EE66F49EC09F01C
:103A5200E66B49EC09F0E66B49EC09F0100EE66FF3
:103A620049EC09F0080EE66F49EC09F0040EE66F26
:103A720049EC09F0020EE66F49EC09F0010EE66F1F
:103A820049EC09F0E66B49EC09F0E66B49EC09F008
:0A3A9200020EEA6F2DEC02F01200A4
:103A9C00740E0001F26F000EF36FF46BF56BF66BA6
:103AAC00F76B1CEC0DF06D92699468A403D0FB0EBF
:063ABC006816FBD71200A2
:043AC200A19A1200B3
:103AC6006984EF0E68166D82750E0001F26F000EA6
:103AD600F36FF46BF56BF66BF76B1CEC0DF01200E5
:103AE60048EC01F07B6B7C6B7D6B7E6B6A6A686A67
:103AF60026EC02F06D8C6E6A710EF26F0F0EF36F8C
:103B0600F46B010EF56F000EF66F02EC0DF06D9C76
:103B1600F06B080EF05D16E2F0C000F0000E016ECC
:103B2600003600900136003600900136000E002463
:103B3600E16E040E0120E26EE66AE66AE66AE66A6D
:103B4600F02BE7D7160E706E68A603D0F70E681630
:103B5600FBD7826B886B896B8A6B6D98080E776FC3
:0A3B6600040E786F6A6B696B1200A1
:103B70005D2A5D50070811E25D6A2E0EE16E000EAF
:103B8000E26E5C50E126D8B0E22A97C0E6FF5C2ADC
:0C3B9000060E5C5C02E3030E566E120091
:103B9C00A090A190040EBA6ECF6ACE6A13DCA080FE
:023BAC00120005
:103BAE00080E0001D36FD35100081CE2B3EC19F0DC
:103BBE00D2AF0AD00D0E0C6EDA0E0D6E0D2EFED794
:103BCE000C2EFCD700000AD0050E0C6EAB0E0D6E3F
:103BDE000D2EFED70C2EFCD700000000D237D2914E
:063BEE00D307E1D712002D
:103BF4008B8048DEA2C02EF00001A21D006E00C022
:103C04002FF0A6C030F0A61D006E00C031F0A5C094
:103C140032F0A51D006E00C033F074EC18F0080EED
:103C24000C6EC90E0D6E0D2EFED70C2EFCD70000A7
:103C34000000D3EC18F0050E0C6EAB0E0D6E0D2EBD
:103C4400FED70C2EFCD700000000CD6B060ECD5D18
:103C54000DE22E0EE96E000EEA6ECD51E926D8B0C3
:103C6400EA2AEECFD2F0A1DFCD2BF0D7B3EC19F0D6
:103C7400040E0B6E0C0E0C6E330E0D6E0D2EFED755
:103C84000C2EFCD70B2EFAD70000000085DF8B909A
:023C940012001C
:103C96000001CBA905D081BA01D0FDD7CB9951D06F
:103CA600F00EA615016E0150F00A34E181BA01D07A
:103CB600FDD721D0CB75CBA501D005D0DB6BA2C03B
:103CC600DCF08DEC19F025D00001CB7BCBAB03D01B
:103CD600A0C09FF003D09FC0A0F0D5DD1AD0000190
:103CE600A06BD1DD16D0FF0E0001A06FCCDD11D088
:103CF6006BEC19F00ED00001A551000ADBE0A551CE
:103D0600060AE2E0A551040AEAE0A551050AEBE03D
:103D1600EFD717D06BEC19F081BA13D00001CBA303
:103D26000FD0800E006E800EA8BF7F0E005C02E1F1
:103D3600A851000805E36BEC19F00001CB93A86BC2
:043D4600EBD71200A5
:103D4A000001CB6BCD6B060ECD5D0BE22E0EE16E44
:103D5A00000EE26ECD51E126D8B0E22AE66ACD2BFA
:103D6A00F2D7A56BA66B6F886F94070ED56EB10E4E
:103D7A00CD6EB00EB16EF28EF28CA082F19E0F0E55
:103D8A00C16E070EB46EFF0E926EFF0E936E380E62
:103D9A00946E896A8A6A8B6ACA90CA929C0ECB6EA2
:103DAA0089DC800ED26F4FDCFEDC9EDD010EEA6FED
:103DBA002DEC02F00C0EEA6F2DEC02F0B90EE06F5A
:103DCA00440EE16F000EE26F60EC0DF000C0E2F00D
:103DDA0001C0E3F0010EE06F010EE16FB6EC0CF0EA
:103DEA00DB6BE0EC19F000C0A2F040DDD2DE12007D
:103DFA000900F5CFE6FF0006FBE10106F9E1120032
:103E0A000001CBA514D0CDC0D2F03A0ED36F300E3C
:103E1A00D46FDD0ED56F000ED66FCEC0D7F0CFC0EF
:103E2A00D8F0D0C0D9F0D1C0DAF08BDC39D000019B
:103E3A00CBAB14D0CDC0D2F0E00ED36F300ED46F1E
:103E4A00DD0ED56F000ED66FCEC0D7F0CFC0D8F03A
:103E5A00D0C0D9F0D1C0DAF074DC22D00001CBA9ED
:103E6A0014D0CDC0D2F09C0ED36F300ED46FDD0EBD
:103E7A00D56F000ED66FCEC0D7F0CFC0D8F0D0C065
:103E8A00D9F0D1C0DAF05DDC0BD0CDC0D2F0CEC013
:103E9A00D3F0CFC0D4F0D0C0D5F0D1C0D6F00EDC6C
:023EAA00120004
:103EAC007BD05B50020802E15A500D08010ED8B0CD
:103EBC00000E016E030E5B5C02E1CF0E5A5C010E2C
:103ECC00D8B0000E006E00500116006A57B0002AE0
:103EDC000150001603E0010E566E02D0E8EC19F00A
:103EEC0069D057B002D0028001D00290000E016E52
:103EFC005B50015C02E15A50E108010ED8B0000E93
:103F0C00016E020E5B5C02E1A30E5A5C010ED8B08E
:103F1C00000E006E00500116006A02B0002A01501B
:103F2C00001603E0020E566E02D0E8EC19F042D0F7
:103F3C0057A009D05B50020802E15A50A30802E2D4
:103F4C00E8EC19F024D05B50050802E15A50B60891
:103F5C0003E2E8EC19F01BD05B50030802E15A5065
:103F6C00F40806E20001973797919781FBDD0FD09B
:103F7C00000E006E5B50005C02E15A50E10805E255
:103F8C00000197379791EEDD02D0E8EC19F012D0D2
:103F9C0075DC7FDCFDDD0ED05650000AD8B481D71D
:103FAC005650010A9EE05650020AC2E05650030ACF
:063FBC00EFE0F1D7120056
:103FC20000016951010A07E16DBA05D0686A69808A
:103FD2006988020E696F68A405D069A403D0FB0E3C
:103FE20068165BDD6DA202D06BDD79D068A018D0B7
:103FF20069A016D077DD040E696F200E0401026FEE
:10400200040E036F080E016F000E0015006E00C053
:1040120000F48C0E0011006E00C000F4FE0E681653
:1040220068A805D069A803D04DDDEF0E681668AC0C
:1040320011D069AC0FD0730E0001F26F000EF36F56
:10404200F46BF56B010EF66F000EF76F1CEC0DF0C2
:10405200BF0E681668AA04D069AA02D00AEC1BF047
:1040620068A210D069A20ED0FF0E0001F26F3F0EBF
:10407200F36FF46BF56B010EF66F000EF76F1CEC2D
:104082000DF06A6A040E0001695D02E219DD27D0B3
:1040920069A624D0EF6B040EEF5D20E268A61AD069
:1040A2006CCFCCF0F70E6816780ECC15016E01506D
:1040B200000A03E184EC1AF00CD0720EF26F000ECB
:1040C200F36FCC0EF46F000EF56FF66BF76B1CEC12
:1040D2000DF001D003D00001EF2BDDD7F1DC12008F
:1040E2000001A67381B81ED0CBA31BD0800E006E38
:1040F200800EA8BF7F0E005C02E1A851000811E308
:10410200CBB90DD0000EA515006EA651F00B016EB5
:1041120000C0A5F001C0A6F0CB891AEC14F0CB9335
:0A412200A86BE0D71AEC14F01200AD
:10412C000001A67181B216D0CBA313D0800E006E05
:10413C00800EA8BF7F0E005C02E1A851000809E3C5
:10414C00A671A6771AEC14F081B201D0FDD7CB93EF
:0A415C00A86BE8D71AEC14F012006B
:10416600F1DD0001CBAF03D09EDE0001CB9F8BA01B
:104176000BD0010E2A5E000E2B5A000E2B1802E100
:10418600000E2A18D8B48B90F70E8114006EF70E25
:10419600001A00524BE0A2EC0CF0C30E0C6ECD0ED2
:1041A6000D6E0D2EFED70C2EFCD7030EA86FB26A2D
:1041B600B36AB180CBB916D0CBB514D0CBBB12D075
:1041C60081B004D014DD81B001D0FDD781B201D019
:1041D600AADF81B404D0A67581B401D0FDD781B819
:1041E60001D07CDF81BA01D053DD81BC0CD0010E39
:1041F6000001CD6F420ECE6F300ECF6F000ED06F26
:10420600000ED16FFFDD81BE0CD0FF0E0001CD6F19
:10421600920ECE6F310ECF6F000ED06F000ED16FA3
:10422600F1DDB1900001CB931AEC14F00001CBB78D
:1042360006D084B602D0D89007D0D88005D084B6F0
:1042460002D0D88001D0D8900CE384A603D080ECAD
:1042560013F002D004EC14F084B602D0CB9701D050
:06426600CB877FD7FFD7D4
:020006000300F5
:10426C0005010906A101854B050719E029E7150091
:10427C002501750195088102750895018103950149
:10428C0026FF0019002AFF0081007501950305081F
:10429C001901290325019102750595019103C005AA
:1042AC00010980A101855319002AFF00150026FF82
:1042BC0000750895018100C0050C0901A101854319
:1042CC0019002A3C021500263C027510950181004C
:0142DC00C021
:1042DD004003490052004B002100200052006500B0
:1042ED006D006F0074006500200043006F006E00CC
:1042FD00740072006F006C006C006500640020009B
:10430D004B006500790062006F006100720064006F
:02431D0000009E
:10431F000902290001010180320904000002030093
:10432F000002092101010001227100070581030824
:09433F00000A0705010308000C47
:10434800120110010000000849524B21030001022C
:02435800000162
:10435A0030313233343536373839414243444546B1
:01436A000052
:10436B0001012053656C65637420557361676500AB
:0E437B0049524B212046756E6374696F6E00C7
:0E43890057656220426F6F6B6D61726B73003F
:0E4397004B657970616420496E736572740025
:0E43A5004B65797061642044656C6574650039
:0D43B300506F77657220537769746368005E
:0D43C000526573657420537769746368005B
:0D43CD004D6564696120506C617965720076
:0D43DA005553422044697361626C656400B4
:0D43E7005072696E742053637265656E003C
:0D43F4004B65797061642052696768740040
:0D4401004B657970616420456E7465720032
:0D440E00436F6E73756D6572204465760016
:0D441B005553422052656164792020200035
:0D442800456E61626C696E6720555342005D
:0C4435005363726F6C6C204C6F636B0063
:0C4441005465787420456469746F720043
:0C444D004B657970616420446F776E004D
:0C44590053657420416464726573730045
:0C4465004C696768742044656C61790044
:0C4471005765622042726F77736572001D
:0C447D0057656220526566726573680026
:0C4489004B6579706164205067446E0040
:0C4495004B657970616420486F6D650014
:0C44A1004B657970616420506755700015
:0C44AD004B6579706164204C65667400FA
:0B44B90049524B212076322E30390092
:0B44C400576562205365617263680059
:0B44CF0043616C63756C61746F7200D8
:0B44DA004B657970616420456E640042
:0A44E500506F776572206F66660065
:0A44EF0043617073204C6F636B0093
:0A44F9004465627567204F66660097
:0A4503004C69676874204F6666007B
:0A450D004261636B73706163650027
:0A451700475549202B20414C4C0071
:0A4521004D656E75205069636B0054
:0A452B005061676520446F776E0051
:0A4535004B65797061642055700039
:0A453F004D656E7520457869740023
:0A4549000A03490052004B00210054
:0A4553000420416464726573730074
:09455D004B6579706164203700A0
:094566004B657970616420360098
:09456F004B6579706164202E0097
:094578004B6579706164203D007F
:094581004B657970616420300083
:09458A004B657970616420380072
:094593004B657970616420390068
:09459C004B6579706164202D006B
:0945A5004B6579706164202B0064
:0945AE004B6579706164202A005C
:0945B7004E756D204C6F636B0022
:0945C0004B6579706164202F0045
:0945C900537061636562617200C8
:0945D2004B65797061642034002E
:0945DB004B657970616420350024
:0945E4004B65797061642033001D
:0945ED004B657970616420310016
:0945F6004B65797061642032000C
:0945FF005765622053746F7000CF
:094608004B6579626F6172640078
:094611004B6579626F617264006F
:09461A00576562204E65787400BA
:09462300436F6D7075746572003F
:09462C0057656220486F6D6500BE
:09463500576562205072657600A1
:09463E004C69676874204F6E009E
:09464700496E69742055534200CC
:094650004465627567204F6E009D
:084659005061676520557000F7
:07466100496E7365727400DD
:074668004D656E7520040092
:07466F0044656C65746500F1
:074676004D656E7520030085
:07467D004D656E75202B0056
:074684004D656E7520020078
:07468B004D656E7520010072
:0746920053797374656D009C
:074699004D656E75202D0038
:0646A000536C656570001B
:0646A600456A6563740023
:0646AC005348494654008A
:0646B20020736563730034
:0646B800456E74657200FE
:0646BE00456D61696C000E
:0546C40053746F70004B
:0546C9004D656E750057
:0546CE00486F6D65005E
:0546D300566F6C2D0084
:0546D8004D7574650042
:0546DD00566F6C2B007C
:0546E20043544C2000D0
:0546E700414C542000CD
:0546EC0057616B650041
:0546F1004755492000BF
:0446F6004632330015
:0446FA003E2F060049
:0446FE004632300010
:044702004632320009
:044706004631310007
:04470A004631320002
:04470E0046323100FE
:0447120046323400F7
:044716005461620088
:04471A005265630081
:04471E00457363007C
:0447220046313000EC
:044726007C3C3C009B
:04472A004F66660070
:04472E003E3E7C008F
:04473200040309046F
:0447360046313400D4
:04473A00456E640064
:04473E0046313300CD
:0447420043682D009B
:0447460043682B0099
:04474A0046313800BC
:04474E0046313900B7
:0447520046313700B5
:0447560046313500B3
:04475A0046313600AE
:03475E00463200E0
:03476100463400DB
:03476400463300D9
:03476700463100D8
:03476A0004200028
:03476D003E3E00CD
:034770003C3C00CE
:03477300463500C8
:03477600463900C1
:034779004F6E0080
:03477C00463800BC
:03477F00463600BB
:03478200463700B7
:0247850004002E
:024787002D0003
:0247890002002C
:02478B00060026
:02478D003700F3
:02478F003600F2
:024791003800EE
:024793003000F4
:024795003900E9
:024797002C00F4
:024799006000BE
:02479B002E00EE
:02479D00010019
:02479F002F00E9
:0247A1002700EF
:0247A3005B00B9
:0247A5003D00D5
:0247A7005D00B3
:0247A9003B00D3
:0247AB00070005
:0247AD005900B1
:0247AF005800B0
:0247B1005A00AC
:0247B3004000C4
:0247B5002100E1
:0247B7005400AC
:0247B9005300AB
:0247BB005500A7
:0247BD005700A3
:0247BF005600A2
:0247C1002800CE
:0247C3002A00CA
:0247C5002900C9
:0247C7002B00C5
:0247C9005F008F
:0247CB002400C8
:0247CD002300C7
:0247CF002500C3
:0247D1002600C0
:0247D3005E0086
:0247D50045009D
:0247D70044009C
:0247D900460098
:0247DB00480094
:0247DD00470093
:0247DF003E009A
:0247E1000600D0
:0247E300410093
:0247E50043008F
:0247E70042008E
:0247E9004F007F
:0247EB004E007E
:0247ED0050007A
:0247EF00520076
:0247F100510075
:0247F3004A007A
:0247F500490079
:0247F7004B0075
:0247F9004D0071
:0247FB004C0070
:0247FD007B003F
:0247FF00720046
:02480100710044
:02480300730040
:0248050075003C
:0248070074003B
:024809006D0040
:02480B006C003F
:02480D006E003B
:02480F00700037
:024811006F0036
:02481300320071
:02481500310070
:0248170033006C
:02481900350068
:02481B00340067
:02481D00770022
:02481F00760021
:0248210078001D
:024823007A0019
:02482500790018
:024827006B0024
:024829007C0011
:02482B003F004C
:02482D00620027
:02482F00610026
:024831003E0047
:02483300220061
:024835003A0047
:024837003C0043
:02483900050078
:02483B00680013
:02483D00670012
:02483F006A000D
:0248410069000C
:0248430066000D
:0248450063000E
:024847007D00F2
:02484900640009
:02484B00650006
:01484D00006A
:01484E000069
:01484F000068
:014850000067
:014851000066
:014852000065
:020000040030CA
:0E000000310E2E1EFF0081FF0FC00FE00F40DB
:00000001FF
