:0400000003EF1AF000
:1000080000C01EF001C01DF002C01CF003C01BF0B0
:1000180004C01AF005C019F008C018F009C017F09C
:100028000AC016F00BC015F0E1CF27F0E2CF28F098
:10003800E9CF25F0EACF26F0F3CF23F0F4CF24F070
:10004800F5CF22F0F8CF1FF0F7CF20F0F6CF21F050
:1000580099EC18F0A1A011D0BCCF9CF3BBCF9BF3B7
:10006800BACF9DF3BA70CF6ACE6A03019951010FD6
:10007800006E00C099F3A190A08FA1A207D0030140
:10008800A0837405006E00C074F3A192F2A416D088
:1000980003017205006E00C072F3000E72BFFF0EFE
:1000A800006E000E001802E1000E721902E18B8248
:1000B800D59EA40ED76E720ED66EF29422C0F5FFAE
:1000C8001FC0F8FF20C0F7FF21C0F6FF23C0F3FFD1
:1000D80024C0F4FF1EC000F01DC001F01CC002F0D7
:1000E8001BC003F01AC004F019C005F018C008F0CE
:1000F80017C009F016C00AF015C00BF025C0E9FFBB
:0E01080026C0EAFF27C0E1FF28C0E2FF110079
:0E0116000000000000000000000000001200C9
:0E012400630E0D6E0D2EFED7000000001200BF
:100132002B0E0C6EDA0E0D6E0D2EFED70C2EFCD78A
:0401420000001200A7
:10014600000E056E040E066EDAC303F0000E046E92
:10015600033604360390033604360390DBC300F0FF
:10016600000E016E00360136009000500326015045
:10017600042203C001F004C002F0013601900236E9
:1001860001360190023601C003F002C004F00432C9
:100196000332049E04BC048E04320332049E04BC63
:1001A600048E03C000F004C001F000360090013652
:1001B600003600900136055000260650012200C088
:1001C60005F001C006F000C0E1FF01C0E2FFE69EB7
:1001D6000301DB51000A12E1DAC300F0000E016EE2
:1001E600003600900136370E0024E16E030E012022
:1001F600E26E05C0E6FF06C0E6FF11D0DAC300F0E6
:10020600000E016E003600900136330E0024E16EBA
:10021600030E0120E26E05C0E6FF06C0E6FF05C03C
:10022600E1FF06C0E2FFE69C040E0524E16E000E27
:080236000620E26EE68C1200C6
:0E023E00800E0301DA11006E00C05FF31200A3
:10024C00DAC35CF3DBC35DF3DCC35EF3DDC360F3E5
:10025C00DEC361F3800E0301DF11006E00C05FF39B
:02026C0012007E
:10026E00DAC35CF3DBC35DF3DCC360F3DDC361F3C0
:10027E00800E0301DE11006E008000C05FF31200DD
:10028E00B70E0301216F380E226F000E236F0D0E75
:10029E00246F390E256F000E266F030E276F390E51
:1002AE00286F000E296F750E2A6F380E2B6F000EF9
:0402BE002C6F12008F
:1002C200C7C302F0C8C303F0CAC300F0CBC301F036
:1002D200010E0301CA5F000ECB5B0050011009E062
:1002E20002C0E1FF03C0E2FFC9C3E6FF024A032ADC
:0402F200EBD7120034
:1002F6000301C851000A12E0C7C300F0000E016EE8
:10030600003600900136330E0024E96E030E0120FC
:10031600EA6EEECF04F0EECF05F011D0C7C300F0C1
:10032600000E016E003600900136370E0024E96E8D
:10033600030E0120EA6EEECF04F0EECF05F0020EBA
:100346000424E16E000E0520E26EC9C3E6FFCAC3AF
:10035600E6FF010E0424E16E000E0520E26ECBC31B
:10036600E6FF04C0E9FF05C0EAFFEECF00F004C0D7
:10037600E1FF05C0E2FF400E0014E66E04C0E9FF8F
:1003860005C0EAFFEECF00F004C0E1FF05C0E2FFC2
:10039600880E0010E66EC851000A1BE0C7C300F0C5
:1003A600000E016E003600900136330E0024026EF8
:1003B600030E0120036E02C0E9FF03C0EAFF040E2C
:1003C600EE18006E02C0E1FF03C0E2FF00C0E6FFC8
:1003D6001AD0C7C300F0000E016E00360090013639
:1003E600370E0024026E030E0120036E02C0E9FFE1
:1003F60003C0EAFF040EEE18006E02C0E1FF03C060
:10040600E2FF00C0E6FF04C000F005C001F01200E4
:0A041600D08EA28AA08AF28E120096
:10042000000E0301C81902E1000EC71902E1016ABA
:1004300009D0C7C3E9FFC8C3EAFFEECF00F0016AE5
:0A04400000BE012A01C000F0120006
:0E044A00160E6F6E9F0E6B6E7B0E696E1200AB
:100458000301C7BF02D0809601D08086C7BD02D0F5
:10046800809401D08084C7BB02D0809201D0808262
:10047800C7B902D0809001D080801FB102D0808897
:1004880001D08098808A43DE809AC7B702D08096D0
:1004980001D08086C7B502D0809401D08084C7B3CC
:1004A80002D0809201D08082C7B102D0809001D062
:1004B80080801FB102D0808801D08098808A27DE92
:0E04C800809A1FA102D031DE01D028DE120082
:1004D600700EE16E0F0EE26E0301D551E126D8B023
:1004E600E22AD6C3E6FFD6A504D0D5C3DAF3DB6B82
:1004F60027DED6A305D0D5C3DAF3010EDB6F20DEE7
:020506001200E1
:100508000301D651000A12E0D5C300F0000E016EB7
:10051800003600900136330E0024E96E030E0120E8
:10052800EA6EEECF04F0EECF05F011D0D5C300F09F
:10053800000E016E003600900136370E0024E96E79
:10054800030E0120EA6EEECF04F0EECF05F0020EA6
:100558000424E16E000E0520E26ED7C3E6FFD8C37F
:10056800E6FF010E0424E16E000E0520E26ED9C3F9
:10057800E6FF04C0E9FF05C0EAFFEECF00F004C0C3
:10058800E1FF05C0E2FF400E0014E66E04C0E9FF7B
:1005980005C0EAFFEECF00F004C0E1FF05C0E2FFAE
:1005A800880E0010E66ED651000A1BE0D5C300F095
:1005B800000E016E003600900136330E0024026EE4
:1005C800030E0120036E02C0E9FF03C0EAFF040E18
:1005D800EE18006E02C0E1FF03C0E2FF00C0E6FFB4
:1005E8001AD0D5C300F0000E016E00360090013617
:1005F800370E0024026E030E0120036E02C0E9FFCD
:1006080003C0EAFF040EEE18006E02C0E1FF03C04B
:10061800E2FF00C0E6FF04C000F005C001F01200D0
:1006280020C401F01F0E01160150010A01E08BD011
:1006380004012451000A01E086D02151060A38E15C
:100648002DD003015A51010A12E1B70EDA6F380EA4
:10065800DB6F000EDC6F120EDA27000EDB23DC23C3
:10066800090EDD6F000EDE6F400EDF6FEBDD20D070
:1006780003015A51010A0DE1040EDA6F380EDB6FDF
:10068800000EDC6F710EDD6F000EDE6F400EDF6F47
:10069800D9DD0ED00301DA6BCEDD0AD00401235177
:1006A800210ACFE02351220AE3E02351230AF2E092
:1006B80020C401F0600E0116050E006E005004E023
:1006C8000132019EFF0FFBD70150010A01E03BD028
:1006D80027D039D038D06B0E0301DA6F030EDB6FE9
:1006E800010EDC6F000EDD6F400EDE6FBCDD2BD01F
:1006F8000301DA6BA0DD23C46BF325D003016C0E74
:10070800DA6F030EDB6F010EDC6F000EDD6FDE6B40
:10071800AADD19D00301DA6B8EDD22C46CF313D085
:1007280004012151010AD5E02151090AD3E02151E0
:10073800020AD1E021510A0ADBE02151030ADEE076
:0807480021510B0AE7E0120049
:0A0750006D6A696A0301206B120054
:0E075A0003011F91C3C3C7F37ADE1F81120093
:1007680092DD4C6B4D6B2D6B2E6B6A6A686A69DE85
:100778006D8C6E6A710EC76F0F0EC86FC96B010E54
:10078800CA6F000ECB6F99DD6D9CC36B080EC35DFD
:1007980016E2C3C300F0000E016E00360090013669
:1007A800003600900136000E0024E16E040E012090
:1007B800E26EE66AE66AE66AE66AC32BE7D7160ED1
:1007C800706E68A603D0F70E6816FBD75F6B646B74
:1007D800656B666B6D98080E336F040E346F5A6B39
:0407E800206B120070
:1007EC00200E0301205D03E36DB201D002D0006A3C
:1007FC0033D02DC3C7F32EC3C8F30CDE00522BE14C
:10080C00C6C3C7F3010EC86FC3C3C9F3C4C3CAF3CD
:10081C00C5C3CBF36ADD00C02DF301C02EF32F6BE3
:10082C00306B316B326B2DC3C7F32EC3C8F3F2DDC3
:10083C00005208E02F5130113111321102E0006AE0
:10084C000BD0F1D7010E2D25E96E000E2E21EA6E8C
:0A085C00EECF00F001D0006A120098
:1008660003012051000A0AE16D6A696AEBDDD0DDF9
:0E0876006DB602D06D86FCD7010E206F120009
:0A08840003015B5301E0CEDE120019
:10088E0003015B5314E0010ED56F1E0ED66F1CDEF6
:10089E00010ED56FD66B6DC3D7F36EC3D8F3400E72
:1008AE00D96F2BDE00C04CF301C04DF313D0010EF7
:1008BE00D56F1E0ED66F08DE010ED56FD66B6DC3CB
:1008CE00D7F36EC3D8F3400ED96F17DE00C04CF3CA
:0608DE0001C04DF3120001
:1008E400010E03015B6FBEC36DF3BFC36EF3C0C3E0
:1008F4006FF3C1C370F336DF010E016E0150010ABC
:0609040001E1AFDF12006B
:10090A0010D0800E0301BE6F1AD0C00EBE6F17D072
:10091A00940EBE6F14D0D40EBE6F11D0800EBE6F6F
:10092A000ED00301BE51010AECE0BE51020AEDE00D
:10093A00BE51030AEDE0BE51040AEDE0EFD7BF0550
:10094A00006EBE51002600C0BEF300C0C7F37FDDB3
:10095A001F91C26BC251C025E96E000EC121EA6E19
:10096A00EE520BE0C251C025E96E000EC121EA6EBB
:0E097A00EECFC3F3EDDEC22BEDD71F811200CE
:100988000301A251000A01E10ED0A251FF0A01E1C0
:100998000AD08B92A2C372F3A40ED76E720ED66ED3
:0809A800F294F28AD58E1200D0
:1009B0000B6A0A6A096A00500402F4CF09F0F3CF07
:1009C00008F001500502F4CF0BF0F3CF0AF000500D
:1009D0000502F3500926F4500A22E86A0B2201505E
:1009E0000402F3500926F4500A22E86A0B2208C0D8
:1009F00000F009C001F00AC002F00BC003F01200C1
:040A0000A7DE12005B
:100A0400BEC3C3F3BFC3C4F3C0C3C5F3010E030124
:060A1400C66FEADE1200CD
:100A1A00CFC302F0D0C303F0D2C300F0D3C301F0B6
:100A2A00010E0301D25F000ED35B0050011009E0F2
:100A3A0002C0E1FF03C0E2FFD1C3E6FF024A032A74
:040A4A00EBD71200D4
:100A4E000CD01EDF3CD03BD016DF39D038D037D09B
:100A5E0036D035D0000033D032D0000E0301D0197D
:100A6E0002E1010ECF19EDE0000ED01902E1020EE7
:100A7E00CF19E9E0000ED01902E1030ECF19E4E020
:100A8E00D051000A02E1730ECF19E0E0D051000AF6
:100A9E0002E1750ECF19DBE0D051000A02E1740EAF
:100AAE00CF19D6E0D0513F0A02E1FF0ECF19D1E0A7
:100ABE00D051000A02E1720ECF19CCE0CDD7010E53
:040ACE00006E1200A4
:100AD20090D1160E006E020E016EC9D2140E006E77
:100AE200020E016EC4D2290E006E020E016EBFD23A
:100AF200270E006E020E016EBAD2250E006E020E95
:100B0200016EB5D23B0E006E020E016EB0D2390EEE
:100B1200006E020E016EABD2370E006E020E016E37
:100B2200A6D2410E006E020E016EA1D23F0E006EE1
:100B3200020E016E9CD23D0E006E020E016E97D225
:100B42002F0E006E020E016E92D22D0E006E020E5C
:100B5200016E8DD22B0E006E020E016E88D2350E02
:100B6200006E020E016E83D2330E006E020E016E13
:100B72007ED2310E006E020E016E79D2120E006E1E
:100B8200020E016E74D2DB0E006E010E016E6FD288
:100B9200D90E006E010E016E6AD2D70E006E010EE2
:100BA200016E65D2E10E006E010E016E60D2DF0EA3
:100BB200006E010E016E5BD2DD0E006E010E016E43
:100BC20056D2CF0E006E010E016E51D2CD0E006EC6
:100BD200010E016E4CD2CB0E006E010E016E47D299
:100BE200D50E006E010E016E42D2D30E006E010EC2
:100BF200016E3DD2D10E006E010E016E38D20A0E88
:100C0200006E020E016E33D2080E006E020E016EED
:100C12002ED2060E006E020E016E29D2100E006E4A
:100C2200020E016E24D20E0E006E020E016E1FD253
:100C32000C0E006E020E016E1AD2F10E006E010E43
:100C4200016E15D2ED0E006E010E016E10D2E30E92
:100C5200006E010E016E0BD2020E006E020E016ECC
:100C620006D2F90E006E010E016E01D2F70E006E71
:100C7200010E016EFCD1430E006E020E016EF7D121
:100C8200D50E006E020E016EF2D1EE0E006E020E55
:100C9200016EEDD1EC0E006E020E016EE8D1E00E97
:100CA200006E020E016EE3D1E80E006E020E016EBE
:100CB200DED1EA0E006E020E016ED9D1F00E006E88
:100CC200020E016ED4D1FF0E006E020E016ECFD164
:100CD200010E006E030E016ECAD1F20E006E020EFC
:100CE200016EC5D1FC0E006E020E016EC0D1D70E90
:100CF200006E020E016EBBD1CF0E006E020E016EAF
:100D0200B6D1D20E006E020E016EB1D1DA0E006EB5
:100D1200020E016EACD1E20E006E020E016EA7D180
:100D2200E50E006E020E016EA2D1DD0E006E020E05
:100D3200016E9DD1070E006E030E016E98D1030E57
:100D4200006E030E016E93D10A0E006E030E016E49
:100D52008ED11B0E006E030E016E89D10E0E006E37
:100D6200030E016E84D1C30E006E020E016E7FD19E
:100D7200770E006E020E016E7AD1700E006E020EB8
:100D8200016E75D16B0E006E020E016E70D1880E6F
:100D9200006E020E016E6BD1810E006E020E016EAC
:100DA20066D17D0E006E020E016E61D1500E006E94
:100DB200020E016E5CD14A0E006E020E016E57D118
:100DC200450E006E020E016E52D1660E006E020ECC
:100DD200016E4DD1630E006E020E016E48D15A0EA5
:100DE200006E020E016E43D1900E006E020E016E75
:100DF2003ED103019E51040AD8B46BD69E51050A16
:100E0200D8B46CD69E51060AD8B46DD69E51070A44
:100E1200D8B46ED69E51080AD8B46FD69E51090A2C
:100E2200D8B470D69E510A0AD8B471D69E510B0A14
:100E3200D8B472D69E510C0AD8B473D69E510D0AFC
:100E4200D8B474D69E510E0AD8B475D69E510F0AE4
:100E5200D8B476D69E51100AD8B477D69E51110ACC
:100E6200D8B478D69E51120AD8B479D69E51130AB4
:100E7200D8B47AD69E51140AD8B47BD69E51150A9C
:100E8200D8B47CD69E51160AD8B47DD69E51170A84
:100E9200D8B47ED69E51180AD8B47FD69E51190A6C
:100EA200D8B480D69E511A0AD8B481D69E511B0A54
:100EB200D8B482D69E511C0AD8B483D69E511D0A3C
:100EC200D8B484D69E511E0AD8B485D69E511F0A24
:100ED200D8B486D69E51200AD8B487D69E51210A0C
:100EE200D8B488D69E51220AD8B489D69E51230AF4
:100EF200D8B48AD69E51240AD8B48BD69E51250ADC
:100F0200D8B48CD69E51260AD8B48DD69E51270AC3
:100F1200D8B48ED69E51280AD8B48FD69E51290AAB
:100F2200D8B490D69E512A0AD8B491D69E512B0A93
:100F3200D8B492D69E512C0AD8B493D69E512D0A7B
:100F4200D8B494D69E512E0AD8B495D69E512F0A63
:100F5200D8B496D69E51300AD8B497D69E51310A4B
:100F6200D8B498D69E51330AD8B499D69E51340A31
:100F7200D8B49AD69E51350AD8B49BD69E51360A19
:100F8200D8B49CD69E51370AD8B49DD69E51380A01
:100F9200D8B49ED69E51390AD8B49FD69E513A0AE9
:100FA200D8B4A0D69E513B0AD8B4A1D69E513C0AD1
:100FB200D8B4A2D69E513D0AD8B4A3D69E513E0AB9
:100FC200D8B4A4D69E513F0AD8B4A5D69E51400AA1
:100FD200D8B4A6D69E51410AD8B4A7D69E51420A89
:100FE200D8B4A8D69E51430AD8B4A9D69E51440A71
:100FF200D8B4AAD69E51450AD8B4ABD69E51460A59
:10100200D8B4ACD69E51470AD8B4ADD69E51480A40
:10101200D8B4AED69E51490AD8B4AFD69E514A0A28
:10102200D8B4B0D69E514B0AD8B4B1D69E514C0A10
:10103200D8B4B2D69E514D0AD8B4B3D69E514E0AF8
:10104200D8B4B4D69E514F0AD8B4B5D69E51500AE0
:10105200D8B4B6D69E51510AD8B4B7D69E51520AC8
:10106200D8B4B8D69E51530AD8B4B9D6BDD6120058
:10107200086A080E0C6E003408360450085ED8B0B8
:0E10820002D00826D89000360C2EF5D71200AA
:10109000F0D0320E006E010E016EA9D1340E006E3A
:1010A000010E016EA4D12E0E006E010E016E9FD1B5
:1010B000300E006E010E016E9AD1170E006E010EF9
:1010C000016E95D10B0E006E010E016E90D10D0ECA
:1010D000006E010E016E8BD1070E006E010E016EC7
:1010E00086D1090E006E010E016E81D1130E006EC5
:1010F000010E016E7CD1150E006E010E016E77D1CE
:101100000F0E006E010E016E72D1110E006E010EF7
:10111000016E6DD13F0E006E000E016E68D1410E62
:10112000006E000E016E63D13B0E006E000E016E6C
:101130005ED13D0E006E000E016E59D1470E006E5D
:10114000000E016E54D1490E006E000E016E4FD19B
:10115000430E006E000E016E4AD1450E006E000E69
:10116000016E45D1390E006E000E016E40D12D0E7C
:10117000006E000E016E3BD12F0E006E000E016E50
:1011800036D1290E006E000E016E31D12B0E006E8D
:10119000000E016E2CD1350E006E000E016E27D1AF
:1011A000370E006E000E016E22D1310E006E000E61
:1011B000016E1DD1330E006E000E016E18D14B0E64
:1011C000006E000E016E13D1660E006E000E016EF1
:1011D0000ED1680E006E000E016E09D1620E006E17
:1011E000000E016E04D1640E006E000E016EFFD081
:1011F0006E0E006E000E016EFAD0700E006E000EC4
:10120000016EF5D06A0E006E000E016EF0D06C0E0D
:10121000006E000E016EEBD0600E006E000E016ECF
:10122000E6D0550E006E000E016EE1D0570E006E36
:10123000000E016EDCD04D0E006E000E016ED7D098
:101240004F0E006E000E016ED2D05C0E006E000ECE
:10125000016ECDD05E0E006E000E016EC8D0590E2C
:10126000006E000E016EC3D05B0E006E000E016EAC
:10127000BED003019E51040AD8B40BD79E51050A73
:10128000D8B40CD79E51060AD8B40DD79E51070A80
:10129000D8B40ED79E51080AD8B40FD79E51090A68
:1012A000D8B410D79E510A0AD8B411D79E510B0A50
:1012B000D8B412D79E510C0AD8B413D79E510D0A38
:1012C000D8B414D79E510E0AD8B415D79E510F0A20
:1012D000D8B416D79E51100AD8B417D79E51110A08
:1012E000D8B418D79E51120AD8B419D79E51130AF0
:1012F000D8B41AD79E51140AD8B41BD79E51150AD8
:10130000D8B41CD79E51160AD8B41DD79E51170ABF
:10131000D8B41ED79E51180AD8B41FD79E51190AA7
:10132000D8B420D79E511A0AD8B421D79E511B0A8F
:10133000D8B422D79E511C0AD8B423D79E511D0A77
:10134000D8B424D79E511E0AD8B425D79E511F0A5F
:10135000D8B426D79E51200AD8B427D79E51210A47
:10136000D8B428D79E51220AD8B429D79E51230A2F
:10137000D8B42AD79E51240AD8B42BD79E51250A17
:10138000D8B42CD79E51260AD8B42DD79E51270AFF
:10139000D8B42ED79E512D0AD8B42FD79E512E0ADD
:1013A000D8B430D79E512F0AD8B431D79E51300AC5
:1013B000D8B432D79E51310AD8B433D79E51330AAC
:1013C000D8B434D79E51340AD8B435D79E51350A93
:1013D000D8B436D79E51360AD8B437D79E51370A7B
:1013E000D8B438D79E51380AD8B439D73DD712006F
:1013F000C4EC04F0020EBE6F010EBF6F7D0EC06F15
:10140000010EC16F85EC04F04B0E0501086F096BEE
:101410000A6B0B6B0301A091A0B153D0000EBE6FFD
:10142000050EBF6F080EC06F050EC16F72EC04F0A1
:10143000BD6BA0B132D0320EBD5D2FE28B80020EAB
:101440000B6E860E0C6E990E0D6E0D2EFED70C2EA9
:10145000FCD70B2EFAD78B90020E0B6E860E0C6EFD
:10146000990E0D6E0D2EFED70C2EFCD70B2EFAD733
:10147000080EBE6F050EBF6F040EC06F02EC05F0C4
:101480000050000A000ED8A4010E016E01B002D077
:10149000A09101D0A081BD2BCCD7A0B111D0C4ECBC
:1014A00004F000EC05F0990E0B6E310E0C6EA20EDE
:1014B0000D6E0D2EFED70C2EFCD70B2EFAD700008A
:1014C000ABD7020EBE6F010EBF6F8A0EC06F010E4A
:0814D000C16F85EC04F012006D
:1014D80000EC05F0020EBE6F010EBF6F180EC06F54
:0C14E800020EC16F85EC04F0A091120010
:1014F40008D08B82D59E0DD08B92D59E0AD0D58EE6
:1015040008D00301A251000AF4E0A251FF0AF4E05A
:04151400F6D71200F4
:1015180004012251010A13E120C401F01F0E011633
:101528000150000A0CE103015F8F04012151030AF5
:1015380004E1010E0301556F02D00301556B04014C
:101548002251000AD8A48DD020C401F01F0E011624
:101558000150020AD8A485D024C401F00F0E011648
:101568000150000AD8B47DD003015F8F040124BF65
:1015780016D024C403F00F0E031603C000F0000EAB
:10158800016E003600900136370E0024E96E030E16
:101598000120EA6EEECF04F0EECF05F015D024C49A
:1015A80003F00F0E031603C000F0000E016E0036A4
:1015B80000900136330E0024E96E030E0120EA6E16
:1015C800EECF04F0EECF05F02151030A07E104C085
:1015D800E1FF05C0E2FF840EE66E43D024C400F0AC
:1015E8000F0E0016700E026E0F0E036E00500226CC
:1015F800D8B0032A02C0E9FF03C0EAFFFE0EEE14CA
:10160800006EEECF01F0FF0E011602C0E1FF03C02D
:10161800E2FF00C0E6FF01C0E6FF24AF11D004C01E
:10162800E1FF05C0E2FFE66A040E0418006E00C080
:1016380004F004C0E1FF05C0E2FF400EE66E11D0E1
:1016480004C0E1FF05C0E2FF880EE66E040E041830
:10165800006E00C004F004C0E1FF05C0E2FFC80E40
:04166800E66E120018
:10166C0003015F8F710ECF6F0F0ED06FD16B010E18
:10167C00D26F000ED36F0DEC05F0540ECF6F030E2E
:10168C00D06FD16B010ED26F000ED36F0DEC05F045
:10169C0022C45AF35A51000A03E1100E206F10D0E5
:1016AC00200E206F010ECF6F000ED06F5A0ED16F2F
:1016BC00030ED26F010ED36F000ED46F27EC05F022
:0216CC0012000A
:1016CE000401286B296B4AD003015F8F0401288126
:1016DE0003015551010A02E10401288354D003018C
:1016EE005F8F51D003015F8F040124BF16D024C435
:1016FE0003F00F0E031603C000F0000E016E00364D
:10170E0000900136370E0024E96E030E0120EA6EBA
:10171E00EECF04F0EECF05F015D024C403F00F0E7B
:10172E00031603C000F0000E016E00360090013665
:10173E00330E0024E96E030E0120EA6EEECF04F0A4
:10174E00EECF05F004C0E9FF05C0EAFFEECF01F0D1
:10175E0001A403D00401010E286F15D020C401F09E
:10176E001F0E01160150000AAFE020C401F01F0E3B
:10177E0001160150010AB3E020C401F01F0E01163C
:10178E000150020AAFE003015FAF07D0280E5C6F75
:0C179E00040E5D6F5F81020E606F120090
:1017AA00000E0301615D02E1080E605D10E260C394
:1017BA0003F061C304F04F51000A03E1010E4F6FB9
:1017CA0005D04F51010A02E1020E4F6F04D0080EF4
:1017DA00036E000E046E33C3E1FF34C3E2FFE692E8
:1017EA0033C3E1FF34C3E2FFE69033C3E9FF34C3F6
:1017FA00EAFFEECF00F033C3E1FF34C3E2FF045047
:10180A000010E66E010E3325E16E000E3421E26E01
:10181A0003C0E6FF0350605D006E04506159016E1B
:10182A0000C060F301C061F3280E566F040E576FB3
:10183A005FB12FD0035004102BE05CC3F6FF5DC3E9
:10184A00F7FF5EC3F8FF0900F5CF00F056C3E1FFCA
:10185A0057C3E2FF00C0E6FF564B572B010E5C252B
:10186A00006E000E5D21016E000E5E21026E00C048
:10187A005CF301C05DF302C05EF3010E035C006E0F
:10188A00000E0458016E00C003F001C004F0D2D764
:10189A0024D00350041021E05CC3E9FF5DC3EAFFD2
:1018AA0056C3E1FF57C3E2FFEECFE6FF564B572B75
:1018BA00010E5C25006E000E5D21016E00C05CF316
:1018CA0001C05DF3010E035C006E000E0458016E48
:0C18DA0000C003F001C004F0DCD71200D5
:1018E60004012051800AD8A47BD0C00E03015F6F8B
:1018F6006CD00301E00E006E380E016E000E026E13
:1019060000C05CF301C05DF302C05EF3120E606FAF
:10191600000E616F65D00301030E006E000E016EAE
:1019260022C404F0000E056ED8EC04F0210E00244B
:10193600E96E030E0120EA6EEECF5CF3EECF5DF3A7
:10194600EECF5EF3020E5C25F66E000E5D21F76E9D
:10195600000E5E21F86E0900F5CF00F00900F5CF04
:1019660001F000C060F301C061F33AD0030E040138
:10197600225D25E2030E006E000E016E22C404F005
:10198600000E056ED8EC04F0240E0024E96E030E5A
:101996000120EA6EEECF5CF3EECF5DF3EECF5EF3A1
:1019A6005CC3F6FF5DC3F7FF5EC3F8FF0900F5CF22
:1019B60000F000C060F3000E0301616F02D0030166
:1019C6005F6B0ED003015F6B0BD004012351010A3C
:1019D60090E02351020A9FE02351030AC7E0F2D7A1
:0219E6001200ED
:1019E800B7C304F0B8C305F004C0E9FF05C0EAFFB7
:1019F800EE5203E0044A052AF7D70301BB51BC1194
:101A080021E004C002F005C003F0044A052AB9C366
:101A180000F0BAC301F0B94BBA2B00C0E9FF01C00E
:101A2800EAFF02C0E1FF03C0E2FFEECFE6FF02C01B
:101A3800E9FF03C0EAFFEE5205E0010EBB5F000EAE
:101A4800BC5BDBD7000EBC1902E1000EBB1905E137
:101A580004C0E1FF05C0E2FFE66AB7C300F0B8C3FF
:041A680001F0120077
:101A6C009EC3B7F39FC3B8F3F00E03019F15B96F74
:101A7C0058D169EC05F000C0A5F301C0A6F3030131
:101A8C009FA316D048EC08F000C0A3F301C0A4F348
:101A9C0000C0E9FF01C0EAFFEE5205E0A3C300F06D
:101AAC00A4C301F04ED1A5C300F0A6C301F049D1E7
:101ABC00A5C300F0A6C301F044D114D0AD0E006E46
:101ACC00020E016E3ED1BD0E006E020E016E39D1BA
:101ADC00B80E006E020E016E34D1B70E006E020EFF
:101AEC00016E2FD10301B851100A02E1810EB71912
:101AFC00E5E0B851100A02E1820EB719E4E0B851E2
:101B0C00100A02E1830EB719E3E0E7D755D09A0E1D
:101B1C00006E020E016E15D1960E006E020E016E55
:101B2C0010D1910E006E020E016E0BD1A80E006E3C
:101B3C00020E016E06D1A30E006E020E016E01D1D3
:101B4C009E0E006E020E016EFCD0D30E006E000EC7
:101B5C00016EF7D0D80E006E000E016EF2D0C20EE0
:101B6C00006E000E016EEDD0C80E006E000E016E00
:101B7C00E8D0EF0E006E000E016EE3D0F60E006E94
:101B8C00000E016EDED0E50E006E000E016ED9D097
:101B9C00EA0E006E000E016ED4D0BD0E006E000E6B
:101BAC00016ECFD08B0E006E000E016ECAD0930E5C
:101BBC00006E000E016EC5D0B851200A02E1B50EC0
:101BCC00B719A5E0B851200A02E1B60EB719A4E086
:101BDC00B851200A02E1B70EB719A3E0B851200A98
:101BEC0002E1CD0EB719A2E0B851200A02E1E20ED3
:101BFC00B719A1E0B851200A02E1E90EB719A0E02B
:101C0C00B851200A02E1EA0EB7199FE0B851210A37
:101C1C0002E1830EB7199EE0B851210A02E18A0E47
:101C2C00B7199DE0B851210A02E1920EB7199CE058
:101C3C00B851220A02E1210EB7199BE0B851220AD1
:101C4C0002E1230EB7199AE0B851220A02E1240EE0
:101C5C00B71999E0B851220A02E1250EB71998E09C
:101C6C00B851220A02E1260EB71997E0B851220AA0
:101C7C0002E1270EB71996E09AD732D0720E006E99
:101C8C00000E016E5ED07E0E006E000E016E59D0FD
:101C9C00A70E006E000E016E54D0B40E006E000E36
:101CAC00016E4FD0940E006E000E016E4AD09E0E47
:101CBC00006E000E016E45D0FB0E006E000E016E24
:101CCC0040D01B0E006E010E016E3BD0250E006E37
:101CDC00010E016E36D0190E006E010E016E31D060
:101CEC009E51000ACBE09E51010ACDE09E51020AA2
:101CFC00CFE09E51030AD1E09E51040AD3E09E51DD
:101D0C00050AD5E09E51060AD7E09E51080AD9E093
:101D1C009E51070ADBE0DFD71A0E006E010E016E32
:101D2C0010D0B951000AD8B4A4D6B951100AD8B4FD
:101D3C00C4D6B951200AD8B4E9D6B951F00A9DE0FD
:041D4C00EBD71200BF
:101D5000B7C304F0B8C305F004C002F005C003F037
:101D6000044A052AB9C300F0BAC301F00301B94B14
:101D7000BA2B00C0E9FF01C0EAFF02C0E1FF03C0C7
:101D8000E2FFEECFE6FF02C0E9FF03C0EAFFEE523A
:0E1D900001E0E2D7B7C300F0B8C301F01200C3
:101D9E000301A0A11FD0530E0501086F9EC309F5C4
:101DAE00080E0301BE6F050EBF6F020EC06F02EC70
:101DBE0005F0005201E1F4D70501096B080E03018D
:101DCE00BE6F050EBF6F020EC06F02EC05F0005223
:061DDE0001E1F4D7120040
:101DE4000301A0A123D04B0E0501086F9FC309F581
:101DF4000A6B9EC30BF5080E0301BE6F050EBF6F81
:101E0400040EC06F02EC05F0005201E1F4D70501A5
:101E1400096B0B6B080E0301BE6F050EBF6F040E3A
:0E1E2400C06F02EC05F0005201E1F4D712008D
:101E3200010E03015825E96E000E5921EA6EEECF1C
:101E420000F000C002F0000E665D02E10250655D26
:101E520003E265C302F00AD00250655D006E000E17
:101E62006659016E00C065F301C066F3036A025051
:101E7200035C1CE2280EE96E040EEA6E0350E926AA
:101E8200D8B0EA2AEECF00F062C3E1FF63C3E2FFFB
:101E920000C0E6FF010E6225006E000E6321016E96
:101EA20000C062F301C063F3032AE1D7000E006EA3
:101EB2006651005C02E16551000828E2010E5025DE
:101EC200E16E000E5121E26E080EE66E020E502502
:101ED200E16E000E5121E26E280EE66E040EE66EF1
:101EE20058C3E9FF59C3EAFFEECF00F000BC07D0A8
:101EF20050C3E1FF51C3E2FFC80EE66E06D050C3E5
:101F0200E1FF51C3E2FF880EE66E19D0010E5025A3
:101F1200E16E000E5121E26E080EE66E020E5025B1
:101F2200E16E000E5121E26E200EE66E040EE66EA8
:101F320050C3E1FF51C3E2FF840EE66E649F1200BC
:101F42006D9803015FBF49D064AF28D0020E526F73
:101F5200010E3325E16E000E3421E26EE66A33C3D0
:101F6200E1FF34C3E2FFC80EE66E010E5025E16EBA
:101F7200000E5121E26E080EE66E020E5025E16E51
:101F8200000E5121E26E280EE66E040EE66E50C37C
:101F9200E1FF51C3E2FFC80EE66E1ED0010E5025CE
:101FA200E16E000E5121E26E080EE66E020E502521
:101FB200E16E000E5121E26E200EE66E040EE66E18
:101FC20050C3E1FF51C3E2FF8C0EE66E33C3E1FF63
:101FD20034C3E2FF840EE66E83D064BF81D0040175
:101FE20020AF56D0030161510401275D04E10301D2
:101FF20060510401265D04E226C460F327C461F344
:10200200D5EC0BF0010E526F010E5025E16E000E61
:102012005121E26E080EE66E020E5025E16E000EB0
:102022005121E26E200EE66E040EE66E50C3E1FF11
:1020320051C3E2FF800EE66E4E6B010E5825E16E33
:10204200000E5921E26E080EE66E020E5825E16E70
:10205200000E5921E26E200EE66E040EE66E58C3A3
:10206200E1FF59C3E2FF840EE66E010E4E6F020ECF
:102072003325E16E000E3421E26E280EE66E040E68
:10208200E66E33C3E1FF34C3E2FFC80EE66E28D02A
:102092000301020E526F010E3325E16E000E342150
:1020A200E26EE66A33C3E1FF34C3E2FFC80EE66EB6
:1020B200010E5025E16E000E5121E26E080EE66E11
:1020C200020E5025E16E000E5121E26E280EE66EE0
:1020D200040EE66E50C3E1FF51C3E2FFC80EE66E86
:0220E2001200EA
:1020E40020C401F0600E0116050E006E005004E0DD
:1020F4000132019EFF0FFBD70150000A01E06DD0B1
:1021040049D003015F8F080E206F67D073EC0CF089
:1021140064D036EC0BF061D05A0E03015C6F030EF1
:102124005D6F5F81010E606F5F8F57D067EC0BF0BE
:1021340054D08CEC0AF051D0540E006E030E016E94
:10214400040124510026D8B0012A00C05CF301C068
:102154005DF303015F81010E606F5F8F3ED0030169
:102164005F8F540EE16E030EE26E04012451E126EA
:10217400D8B0E22A22C4E6FF30D0020E0301CF6FAA
:10218400000ED06FD16BD26BD36BD46B27EC05F000
:1021940024D023D004012151050AB3E02151060AB9
:1021A400B5E02151090AB5E02151080AB5E02151F1
:1021B400000ABCE02151010ABCE02151030AB9E044
:1021C40021510A0AB9E021510B0AC9E02151070A39
:0C21D400D4E021510C0ADDE0DCD7120041
:1021E0000301BA6B030EBA5D0AE2BA51B825E16E7B
:1021F000000EB921E26E200EE66EBA2BF3D7BA516B
:10220000B825E16E000EB921E26EE66ABA07BA514E
:10221000B825BB6F000EB921BC6F0A0E046EB7C3A0
:1022200000F039EC08F008C000F0300E0026BBC307
:10223000E1FFBCC3E2FF00C0E6FF0A0E046EB7C3B5
:1022400000F039EC08F000C0B7F30050000A01E1DB
:0822500002D0BA07DCD712002E
:102258000301526B33C3E1FF34C3E2FFE66A040EA5
:102268003319E16E34C3E2FF000EE21AE66A64AF86
:0622780001D0649F12007A
:10227E000301A0A125D0430E0501086F9EC309F5E9
:10228E000F0E03019F1505010A6F080E0301BE6FA5
:10229E00050EBF6F030EC06F02EC05F0005201E198
:1022AE00F4D70501096B0A6B080E0301BE6F050E0C
:1022BE00BF6F030EC06F02EC05F0005201E1F4D7C0
:0222CE001200FC
:1022D00081BC02D0D88001D0D890000ED8B0010EB9
:0422E000006E12007A
:0822E4000301B751A12712000C
:1022EC009FC300F00032009E0032009E0032009E20
:1022FC000032009E0301B75100260F0E0014036E2E
:10230C000F0E9F15026E03C000F0003600900036D1
:10231C00009000360090003600900250001200C071
:04232C009FF3120009
:082330000301B75171271200EF
:1023380081BE02D0D88001D0D890000ED8B0010E4E
:04234800006E120011
:10234C0038D0828C080E0B6E9D0E0C6E050E0D6E29
:10235C000D2EFED70C2EFCD70B2EFAD7000000004A
:10236C00829C41D0828E080E0B6E9D0E0C6E050E5B
:10237C000D6E0D2EFED70C2EFCD70B2EFAD70000AF
:10238C000000829E30D06CEC0AF0F8EC09F02BD0F7
:10239C00A26B7AEC0AF027D0FF0E0301A26F7AEC45
:1023AC000AF021D00301A09D1ED0A08D1CD01BD003
:1023BC001AD003019E51010AC4E09E51020AD2E0D8
:1023CC009E51030AE0E09E51040AE2E09E51050A88
:1023DC00E3E09E51080AE6E09E51070AE6E09E51B2
:0823EC00000AE5E0E5D712004C
:1023F400B7C304F0B8C305F004C0E9FF05C0EAFFA1
:10240400EE5203E0044A052AF7D704C002F005C0DF
:1024140003F0044A052AB9C300F0BAC301F003016A
:10242400B94BBA2B00C0E9FF01C0EAFF02C0E1FFCB
:1024340003C0E2FFEECFE6FF02C0E9FF03C0EAFFFC
:10244400EE5201E0E2D7B7C300F0B8C301F01200C6
:10245400F00E0301B715026E02C000F00032009EB8
:102464000032009E0032009E0032009EF20E0024D4
:10247400F66E380EF76E000EF722000EF86E000EA0
:10248400F8220900F5CF00F0B8C3E1FFB9C3E2FFB9
:1024940000C0E6FFB84BB92B0F0EB715006EF20E55
:1024A4000024F66E380EF76E000EF722000EF86E5A
:1024B400000EF8220900F5CF00F0B8C3E1FFB9C35C
:0824C400E2FF00C0E6FF120078
:0A24CC009484CA94F00EBD161200AD
:0A24D6009494CA840C0EBD1212008B
:1024E00003015251020A02E1A4DC1ED0B5DE4E51B6
:1024F000000A19E1010E5025E16E000E5121E26E35
:10250000080EE66E020E5025E16E000E5121E26EBD
:10251000200EE66E040EE66E50C3E1FF51C3E2FFEB
:0A2520008C0EE66E01D04E6B120027
:10252A0033C3E9FF34C3EAFFEECF00F0000E00BC6C
:10253A00010E0301CE6F040E3319006E00C033F38F
:10254A002051080A0AE122C46EFF6E50000803E215
:10255A00100E206F02D0040E206F5251010A2BE197
:10256A00020E3325E16E000E3421E26E280E006E53
:10257A00040E016E00C0E6FF01C0E6FFD5EC0BF0C9
:10258A004F51020A07E133C3E1FF34C3E2FF840E6D
:10259A00E66E10D0CE51000A07E133C3E1FF34C31F
:1025AA00E2FFC80EE66E06D033C3E1FF34C3E2FF92
:0A25BA00880EE66E01D04BDE120021
:1025C40033C3E9FF34C3EAFFEECF00F000AE05D019
:1025D40033C3E1FF34C3E2FFE66A03014F6B526B7E
:1025E400606B616B5F6B7CDD030E0301CF6F000ECC
:1025F400D06FD16BD26BD36BD46B27EC05F09FDC1F
:022604001200C2
:1026060067DF050E0C6EAB0E0D6E0D2EFED70C2E73
:0A261600FCD70000000057DF12009F
:10262000A69CB5C3A9FFA69EA680A8CF00F0120065
:102630000301A0AD12D073B10FD098C391F38FC333
:1026400092F390C393F39CC394F39BC395F39DC300
:1026500096F399C397F37381996B016A026A800EAE
:102660000218006E800E005C02E1060E015C0AE2B8
:10267000770E0124E16E030E0220E26EE66A014A43
:0C268000022AEDD7986B8F6B906B120054
:10268C00010E0301C76F2CEC02F09FC3B7F37E0E53
:10269C00B86F030EB96FD8DE200E806F816BA0BDB2
:1026AC0002D0D88001D0D89004E2A0B902D0029018
:1026BC0001D0028002A068D0F00E9F15B56F57D0E4
:1026CC00A0A90AD07E0EB76F030EB86F970EB96F24
:1026DC00010EBA6F89DE2CD09FA109D07E0EB76F88
:1026EC00030EB86FA00EB96F010EBA6F7DDE9FA5F9
:1026FC0009D07E0EB76F030EB86FB50EB96F010E11
:10270C00BA6F72DE9FA309D07E0EB76F030EB86F3F
:10271C00BA0EB96F010EBA6F67DE815309E17E0EF6
:10272C00B76F030EB86FA50EB96F010EBA6F5CDEF2
:10273C002BD07E0EB76F030EB86FAE0EB96F010EB5
:10274C00BA6F52DE21D07E0EB76F030EB86F4C0EEF
:10275C00B96F010EBA6F48DE17D07E0EB76F030E3D
:10276C00B86F590EB96F010EBA6F3EDE0DD0B55170
:10277C00000AA6E0B551100ADCE0B551200AE3E0EE
:10278C00B551F00AEAE0F2D7A0A90BD03B0EB76F17
:10279C00030EB86F3C0EB96F010EBA6FA8EC0EF0B9
:1027AC007ED0A0A514D0A1C3B7F33B0EB86F030E17
:1027BC00B96F4ADE200E3D6F3E6B3B0EB76F030EBA
:1027CC00B86F6E0EB96F010EBA6F0EDE68D0A0AB8B
:1027DC0041D071C3B7F33B0EB86F030EB96F34DE43
:1027EC00200E3D6F3E6B3B0EB76F030EB86F790E2C
:1027FC00B96F010EBA6FF8DD25D03B0EB76F030E23
:10280C00B86F670EB96F010EBA6FEEDD22D03B0EBA
:10281C00B76F030EB86F6B0EB96F010EBA6FE4DDB4
:10282C0018D071C3B7F3410EB86F030EB96FD2DC79
:10283C003B0EB76F030EB86F360EB96F010EBA6F41
:10284C00D3DD07D07151000AD8E07151FF0ADFE0E7
:10285C00E8D725D0A0AD04D073A102D0D88001D088
:10286C00D89002E373911BD09EC3B7F33B0EB86FA5
:10287C00030EB96FE9DD200E3D6F3E6B36EC0DF0AB
:10288C0000C0B9F301C0BAF33B0E0301B76F030EDE
:10289C00B86F0D0EBB6F000EBC6FF4EC0CF0010E9C
:1028AC00BE6F010EBF6F7E0EC06F030EC16F85EC45
:1028BC0004F0020EBE6F010EBF6F3B0EC06F030E15
:0828CC00C16F85EC04F012005D
:1028D400100E0301756F270E766F8B80F00E9F1517
:1028E400B56F0BD0F2EC0EF016D0CFEC0EF013D087
:1028F400C4DC11D029DD0FD00ED00301B551000A7C
:10290400F1E0B551100AF1E0B551200AF1E0B551FA
:08291400F00AF0E0F1D7120017
:10291C00F250026EF29E0500FF6A0150FE6E0050EE
:08292C00FD6E02BEF28E1200E6
:10293400000E03019E15026E9F51F00B036EFF0EF5
:102944009E15006E9F510F0B016EB5510026000EAF
:10295400B5BFFF0E0122FF0E00160F0E0116025026
:1029640000120350011200C09EF301C09FF3120035
:10297400A6A202D00000FCD7A69CB5C3A9FFB6C38B
:10298400A8FFA69EA684F2CF00F0F29E550EA76E75
:10299400AA0EA76EA68200BE02D0F29E01D0F28ECD
:0429A400A6941200E3
:1029A80003017751A11904E07751FF0A01E01CD017
:1029B80078517719006E01E117D07A517919006EB4
:1029C80001E112D07C517B19006E01E10DD079C371
:1029D80001F0006A7B510012000E011200C09EF344
:0A29E80001C09FF34FDE72DF120002
:1029F200ACC3B5F39EDF49DE020E9A6FADC300F0A1
:102A0200AEC301F08ADF00522EE00301A0A32AD058
:102A1200800E006E800E74BF7F0E005C02E1745166
:102A2200000820E39A079A51000A1AE1ACC3B5F3F1
:102A320080DF36EC0DF000C0E9FF01C0EAFFEE5086
:102A4200000A0BE10F0E03019E15016E0150000AF0
:102A520004E0ACC3B5F36DDFECD717DE020E9A6F5C
:082A6200A093746BCBD71200A6
:102A6A00A090A190040EBA6ECF6ACE6ADCDDA08077
:022A7A00120048
:102A7C00929A92989290929292949296809A80982E
:102A8C00809680948092809099EC00F099EC00F004
:102A9C0099EC00F080828080808A8BEC00F0809A28
:102AAC0099EC00F0808A8BEC00F0809A99EC00F0A5
:102ABC00808A8BEC00F0809A99EC00F08090808AF0
:102ACC008BEC00F0809A99EC00F0808A8BEC00F093
:102ADC00809A80928086808A8BEC00F0809A99ECA8
:102AEC0000F080968080808A8BEC00F0809A809039
:102AFC00808A8BEC00F0809A99EC00F0808A8BEC49
:102B0C0000F0809A8080808A8BEC00F0809A99EC9F
:102B1C0000F08090808A8BEC00F0809A8086808414
:102B2C0080828080808A8BEC00F0809A99EC00F097
:062B3C0003011F811200DD
:102B42000301902B9051070811E2906B770EE16E12
:102B5200030EE26E8F51E126D8B0E22A7DC3E6FF72
:0E2B62008F2B060E8F5D02E3030E986F12009C
:082B7000BE6ABD98BD9A120077
:102B7800010E0301B56F50DD00C0A2F37AEC0AF034
:022B8800120039
:102B8A00AFC3E1FFB0C3E2FFACC3E6FFADC300F0E1
:102B9A00AEC301F0BEDE75DDB1C300F0B2C301F011
:102BAA00B8DE00521CE00301A0A318D0800E006E0C
:102BBA00800E74BF7F0E005C02E1745100080EE3C0
:102BCA00AFC3E1FFB0C3E2FFACC3E6FFADC300F0A1
:102BDA00AEC301F09EDE55DDA093746BDDD7120003
:102BEA00010E0301B56FA2C3B6F3BFDE7AEC0AF099
:022BFA001200C7
:042BFC00A19A120088
:042C0000A09012008E
:102C0400080E0301AD6FAD5100081BE2FADCACAF56
:102C14000AD00D0E0C6EDA0E0D6E0D2EFED70C2E94
:102C2400FCD700000AD0050E0C6EAB0E0D6E0D2EF7
:102C3400FED70C2EFCD700000000AC37AC91AD07DA
:042C4400E2D71200C1
:102C4800CB50010F006E016A000E0122ACC304F0E4
:102C5800000E056ED8EC04F0060E026E00C004F0FB
:102C680001C005F0025005E005320432059EFF0F51
:102C7800FAD7040E016E04C000F0015004E00036DB
:102C88000090FF0FFBD7300E0014036E04C000F055
:102C980005C001F001320032019E01320032019E6E
:0E2CA80000C0BEFF0F0EBD160350BD1212007D
:102CB6006984EF0E68166D82750E0301CF6F000EE4
:102CC600D06FD16BD26BD36BD46B27EC05F01200AF
:102CD60070A019D058C3E9FF59C3EAFFEECF01F03F
:102CE6000150800A0FE133C3E9FF34C3EAFFEECF98
:102CF60001F00150840A06E158C3E1FF59C3E2FF1F
:0C2D06008C0EE66E7090DF0E6816120056
:102D1200FD0E03015315016E026AFF0E0216000E2C
:102D2200021802E1000E01186DE17E0E5315016ECC
:102D320001C003F00332039E03C000F0000E016ED7
:102D4200003600900136003600900136000E002455
:102D5200026E040E0120036E02C058F303C059F341
:102D620002C050F303C051F3040E5019006E00C0AC
:102D720050F302C0E9FF03C0EAFFEECF00F000C04B
:102D820001F03C0E01160132019E0132019E0150FA
:102D92000D0A35E1020E5825E96E000E5921EA6E40
:102DA200EECF01F0EECF02F00250040A02E1280E4B
:102DB200011822E1020E5825E16E000E5921E26E41
:102DC200200EE66E040EE66ECD6B080ECD5D14E2AB
:102DD200200EE16E040EE26ECD51E126D8B0E22A59
:102DE200280EE96E040EEA6ECD51E926D8B0EA2A21
:102DF200EECFE6FFCD2BE9D7E2EC12F002D070EC79
:102E020012F00ED0FD0E5315016E026AFF0E02166D
:102E1200000E021802E1040E011802E195EC12F014
:022E220012009C
:102E2400740E0301CF6F000ED06FD16BD26BD36BD6
:102E3400D46B27EC05F06D92699468A403D0FB0E63
:062E44006816FBD7120026
:102E4A0047EC01F04C6B4D6B2D6B2E6B6A6A686A0E
:102E5A0025EC02F06D8C6E6A710ECF6F0F0ED06F7B
:102E6A00D16B010ED26F000ED36F0DEC05F06D9C85
:102E7A00CD6B080ECD5D16E2CDC300F0000E016EDB
:102E8A00003600900136003600900136000E00240C
:102E9A00E16E040E0120E26EE66AE66AE66AE66A16
:102EAA00CD2BE7D7160E706E68A603D0F70E6816FC
:102EBA00FBD75F6B646B656B666B6D98080E336F3F
:0A2ECA00040E346F5A6B206B1200E7
:102ED4000301A06B736BA76B060EA75D0BE2770E65
:102EE400E16E030EE26EA751E126D8B0E22AE66A4B
:102EF400A72BF2D79E6B9F6B6F886F94070ED56ECE
:102F0400B10ECD6EB00EB16EF28EF28CA082F19E37
:102F14000F0EC16E070EB46EFF0E926EFF0E936E0F
:102F2400380E946E896A8A6A8B6ACA90CA929C0E19
:102F3400CB6E1CDE800EAC6F85DE9EDD010EC76F8E
:102F44002CEC02F00C0EC76F2CEC02F0010EBE6FDD
:102F5400010EBF6FC00EC06F010EC16F85EC04F08F
:102F6400B56B10EC13F000C0A1F304DE7CDD12009D
:102F74000301A0A905D081BA01D0FDD7A09958D0EA
:102F8400F00E9F15016E0150F00A3DE181BA01D0A7
:102F9400FDD724D0A075A0A501D004D0B56BA1C3E2
:102FA400B6F3E6DC2FD00301A07BA0AB03D0A2C311
:102FB40071F303D071C3A2F316DE24D00301A26B14
:102FC40012DE20D0FF0E0301A26F0DDE1BD0030121
:102FD400A09D18D0A08D16D07BDC14D003019E5187
:102FE400000AD8E09E51060ADEE09E51040AE6E09B
:102FF4009E51050AE7E09E51080AE9E09E51070A3E
:10300400E9E0EAD715D064DC81BA12D00301A0A3A9
:103014000ED0800E006E800E74BF7F0E005C02E145
:103024007451000804E354DC0301A093746BECD7DF
:02303400120088
:103036000301A0A514D0A7C3ACF3E40EAD6F220E16
:10304600AE6FB70EAF6F030EB06FA8C3B1F3A9C3CF
:10305600B2F3AAC3B3F3ABC3B4F394DD39D003011F
:10306600A0AB14D0A7C3ACF3300EAD6F230EAE6F7A
:10307600B70EAF6F030EB06FA8C3B1F3A9C3B2F317
:10308600AAC3B3F3ABC3B4F37DDD22D00301A0A979
:1030960014D0A7C3ACF3EC0EAD6F220EAE6FB70E15
:1030A600AF6F030EB06FA8C3B1F3A9C3B2F3AAC33F
:1030B600B3F3ABC3B4F366DD0BD0A7C3ACF3A8C3BD
:1030C600ADF3A9C3AEF3AAC3AFF3ABC3B0F38EDCC3
:0230D6001200E6
:1030D8000900F5CFE6FF0006FBE10106F9E1120061
:1030E80003019F7381B81ED0A0A31BD0800E006E71
:1030F800800E74BF7F0E005C02E17451000811E37A
:10310800A0B90DD0000E9E15006E9F51F00B016EF8
:1031180000C09EF301C09FF3A08946EC13F0A09372
:0A312800746BE0D746EC13F01200C0
:1031320003012051010A07E16DBA05D0686A69806E
:103142006988020E206F68A405D069A403D0FB0E23
:10315200681667DE6DA202D050DD77D068A018D065
:1031620069A016D071DE040E206F200E0401026FDA
:10317200040E036F080E016F000E0015006E00C0F2
:1031820000F48C0E0011006E00C000F4FE0E6816F2
:1031920068A805D069A803D08DDDEF0E681668AC6B
:1031A20011D069AC0FD0730E0301CF6F000ED06F38
:1031B200D16BD26B010ED36F000ED46F27EC05F0EA
:1031C200BF0E681668AA03D069AA01D083DD68A27F
:1031D20010D069A20ED0FF0E0301CF6F3F0ED06F49
:1031E200D16BD26B010ED36F000ED46F27EC05F0BA
:1031F2006A6A040E0301205D02E2FFDC26D069A6A2
:1032020023D0CC6B040ECC5D1FE268A619D06CCF24
:1032120053F3F70E6816780E5315016E0150000A2B
:1032220002E176DD0CD0720ECF6F000ED06F530E1E
:10323200D16F030ED26FD36BD46B27EC05F001D0A4
:0C32420003D00301CC2BDED7D8DC120037
:10324E008B80D7DCA1C377F30301A11D006E00C0F4
:10325E0078F39FC379F39F1D006E00C07AF39EC36F
:10326E007BF39E1D006E00C07CF36BEC12F0080E1B
:10327E000C6EC90E0D6E0D2EFED70C2EFCD7000057
:10328E00000066EC12F0050E0C6EAB0E0D6E0D2EE0
:10329E00FED70C2EFCD700000000A76B060EA75D14
:1032AE000DE2770EE96E030EEA6EA751E926D8B04D
:1032BE00EA2AEECFACF39FDCA72BF0D703EC13F08A
:1032CE00040E0B6E0C0E0C6E330E0D6E0D2EFED705
:1032DE000C2EFCD70B2EFAD70000000035EC15F0A3
:0432EE008B901200AF
:1032F2007AD003019C51020802E19B51A308010EFE
:10330200D8B0000E016E030E9C5D02E1390E9B5D8A
:10331200010ED8B0000E006E00500116006A9DB179
:10332200002A0150001603E0010E986F02D018EC3B
:1033320013F067D09DB102D0028001D002909C515F
:10334200010802E19B517708010ED8B0000E016E10
:10335200020E9C5D02E10D0E9B5D010ED8B0000EC7
:10336200006E00500116006A02B0002A01500016D9
:1033720003E0020E986F02D018EC13F042D09DA128
:1033820009D09C51020802E19B510D0802E218EC9F
:1033920013F022D09C51050802E19B51200803E260
:1033A20018EC13F019D09C51040802E19B518A08D1
:1033B20006E27D377D917D81A1EC15F00DD09C5107
:1033C200010802E19B51770805E27D377D91A1EC6E
:1033D20015F002D018EC13F014D011DCD4EC14F078
:1033E20035EC15F00ED003019851000A82E0985195
:1033F200010AA0E09851020AC2E09851030AEDE0E6
:04340200F1D71200EC
:1034060089EC1CF064DD0301A0AF02D06FDFA09F42
:103416008BA00BD0010E755F000E765B000E761941
:1034260002E1000E7519D8B48B90F70E8114006E68
:10343600F70E001A005248E0C4EC04F0C30E0C6EFE
:10344600CD0E0D6E0D2EFED70C2EFCD7030E746F0F
:10345600B26AB36AB18081B004D0F6DE81B001D021
:10346600FDD781B204D09F7181B201D0FDD781B45E
:1034760004D09F7581B401D0FDD781B801D031DE6B
:1034860081BA01D074DD81BC0CD0010E0301A76F97
:10349600D00EA86F220EA96F000EAA6F000EAB6F9A
:1034A600C7DD81BE0CD0FF0E0301A76F380EA86FD3
:1034B600230EA96F000EAA6F000EAB6FB9DDB19097
:1034C6000301A09346EC13F073A102D046EC13F06F
:1034D600A0B706D084B602D0D89007D0D88005D041
:1034E60084B602D0D88001D0D8900CE384A603D04D
:1034F600F8EC09F002D06CEC0AF084B602D0A09782
:0835060001D0A08780D7FFD798
:1039120010EE29F0F60E006E030E016E0E0EF66E1C
:0E392200350EF76E000EF86E6CEC18F0120009
:02350E00590062
:023510005A005F
:02351200570060
:0235140058005D
:02351600230090
:0235180024008D
:02351A0021008E
:02351C0040006D
:02351E00560055
:02352000500059
:02352200510056
:023524004E0057
:023526004F0054
:0235280054004D
:02352A0055004A
:02352C0052004B
:02352E00530048
:02353000250074
:02353200220075
:0635340054696C6465009F
:02353A007C0013
:02353C003A0053
:02353E003F004C
:01354000008A
:023541003C004C
:023543003E0048
:023545007D0007
:023547002A0058
:02354900280058
:02354B005E0020
:02354D00260056
:02354F002B004F
:023551007B00FD
:0235530029004D
:023555005F0015
:0C35570053657420416464726573730056
:0D356300506F7765722053776974636800BC
:08357000526566726573680084
:013578000052
:0A3579004C69676874204F66660015
:093583004C69676874204F6E006A
:0D358C00526573657420537769746368009D
:09359900496E697420555342008B
:0535A20053746F70007E
:0635A700456D61696C0036
:0B35AD0043616C63756C61746F720009
:0535B800566F6C2D00B0
:0D35BD004D6564696120506C617965720094
:0535CA0050726576005F
:0535CF004E6578740058
:0735D400536561726368009A
:0535DB00486F6D650062
:0C35E0004C696768742044656C617900D8
:0235EC00480095
:0235EE00490092
:0235F000460093
:0235F200470090
:0235F4004C0089
:0235F6004D0086
:0235F8004A0087
:0235FA004B0084
:0235FC00450088
:0135FE0000CC
:0135FF0000CB
:0A3600004465627567204F6666009E
:09360A004465627567204F6E00F3
:02361300430072
:0236150044006F
:02361700410070
:0236190042006D
:06361B00207365637300DB
:103621005E5E2053656C6563742055736167650048
:0D363100436F6E73756D6572204465760001
:0E363E0049524B212046756E6374696F6E0011
:04364C004F6666005F
:033650004F6E00BA
:0B3653003C2D2041646472657373001D
:04365E003C2D2000DF
:0D366200456E61626C696E67205553420031
:0D366F0055534220526561647920202000EF
:09367C004B6579626F6172640014
:0536850043544C20003D
:09368A004B6579626F6172640006
:0736930053797374656D00AB
:05369A00414C5420002A
:06369F00534849465400A7
:0B36A50049524B212076322E303700B6
:0236B0003100E7
:0236B2007A009C
:0236B40079009B
:0236B6003400DE
:0236B8003300DD
:0236BA003200DC
:0236BC00750097
:0236BE00740096
:0236C000730095
:0236C20078008E
:0236C40077008D
:0236C60076008C
:0A36C8004261636B7370616365007B
:0436D20045736300D9
:0636D600456E74657200F0
:0236DC002D00BF
:0936DE00537061636562617200C2
:0436E70054616200C8
:0236EB003700A6
:0236ED003600A5
:0236EF003500A4
:0236F1003000A7
:0236F30039009C
:0236F50038009B
:0236F70072005F
:0236F90062006D
:0236FB0061006C
:0D36FD005553422044697361626C6564009E
:02370A00650058
:02370C00640057
:02370E00630056
:023710006E0049
:023712006D0048
:023714006C0047
:02371600710040
:0237180070003F
:02371A006F003E
:02371C00680043
:02371E00670042
:02372000660041
:023722006B003A
:023724006A0039
:02372600690038
:023728003D0062
:05372A004C656674000F
:06372F0052696768740096
:0A3735005061676520446F776E0055
:09373F004E756D204C6F636B00A8
:03374800557000B9
:05374B00446F776E00E1
:05375000486F6D6500EB
:07375500496E7365727400F8
:06375C0050617573650069
:04376200456E64004C
:0737660044656C6574650009
:08376D005061676520557000F2
:013775000053
:0537760053746F7000A8
:04377B007C3C3C0056
:04377F003E3E7C004E
:05378300566F6C2B00E5
:053788004D75746500A1
:05378D003E2F7C7C00D2
:0A379200506F776572206F666600C5
:01379C00002C
:05379D0057616B65009F
:0637A200536C6565700028
:0C37A8005363726F6C6C204C6F636B00FD
:0337B40046330099
:0337B70046340095
:0237BA005B00B2
:0337BC0046320092
:0337BF004635008C
:0337C20046380086
:0237C5003B00C7
:0337C70046360083
:0337CA004637007F
:0237CD002700D3
:0237CF00600098
:0237D100A40052
:0237D3005D0097
:0237D5002C00C6
:0A37D70043617073204C6F636B00B8
:0337E1004631006E
:0237E4002E00B5
:0237E6002F00B2
:0437E8004631300036
:0337EC004639005B
:0437EF00463131002E
:0D37F3005072696E742053637265656E003C
:04380000463132001B
:1038040005010906A101854B050719E029E7150003
:1038140025017501950881027508950181039501BB
:1038240026FF0019002AFF00810075019503050891
:103834001901290325019102750595019103C0051C
:10384400010980A101855319002AFF00150026FFF4
:1038540000750895018100C0050C0901A10185438B
:1038640019002A3C021500263C02751095018100BE
:01387400C093
:103875004003490052004B00210020005200650022
:103885006D006F0074006500200043006F006E003E
:10389500740072006F006C006C006500640020000D
:1038A5004B006500790062006F00610072006400E2
:0238B500000011
:1038B7000902290001010180320904000002030006
:1038C7000002092101010001227100070581030897
:0938D700000A0705010308000CBA
:1038E000120110010000000849524B21030001029F
:0238F0000001D5
:1038F2003031323334353637383941424344454624
:0139020000C4
:0A3903000A03490052004B002100A6
:04390D0004030904A2
:020000040030CA
:0E000000310E2E1EFF0081FF0FC00FE00F40DB
:00000001FF
