:0400000097EF19F06D
:1000080000C01EF001C01DF002C01CF003C01BF0B0
:1000180004C01AF005C019F008C018F009C017F09C
:100028000AC016F00BC015F0E1CF27F0E2CF28F098
:10003800E9CF25F0EACF26F0F3CF23F0F4CF24F070
:10004800F5CF22F0F8CF1FF0F7CF20F0F6CF21F050
:100058002DEC18F0A1A00CD0BCCF80F3BBCF7FF360
:10006800BACF7EF3BA70CF6ACE6AA1900301848FAB
:10007800A1A207D0030184836005006E00C060F36D
:10008800A192F2A416D003015E05006E00C05EF3D3
:10009800000E5EBFFF0E006E000E001802E1000E9B
:1000A8005E1902E18B82D59EA40ED76E720ED66EB3
:1000B800F29422C0F5FF1FC0F8FF20C0F7FF21C04F
:1000C800F6FF23C0F3FF24C0F4FF1EC000F01DC0DC
:1000D80001F01CC002F01BC003F01AC004F019C0E4
:1000E80005F018C008F017C009F016C00AF015C0CE
:1000F8000BF025C0E9FF26C0EAFF27C0E1FF28C0B2
:04010800E2FF110001
:0E010C000000000000000000000000001200D3
:0E011A00630E0D6E0D2EFED7000000001200C9
:100128002B0E0C6EDA0E0D6E0D2EFED70C2EFCD794
:0401380000001200B1
:10013C00000E056E040E066EBEC303F0000E046EB8
:10014C00033604360390033604360390BFC300F025
:10015C00000E016E0036013600900050032601504F
:10016C00042203C001F004C002F0013601900236F3
:10017C0001360190023601C003F002C004F00432D3
:10018C000332049E04BC048E04320332049E04BC6D
:10019C00048E03C000F004C001F00036009001365C
:1001AC00003600900136055000260650012200C092
:1001BC0005F001C006F000C0E1FF01C0E2FFE69EC1
:1001CC000301BF51000A12E1BEC300F0000E016E24
:1001DC00003600900136210E0024E16E030E012042
:1001EC00E26E05C0E6FF06C0E6FF11D0BEC300F00C
:1001FC00000E016E0036009001360D0E0024E16EEB
:10020C00030E0120E26E05C0E6FF06C0E6FF05C046
:10021C00E1FF06C0E2FFE69C040E0524E16E000E31
:08022C000620E26EE68C1200D0
:0E023400800E0301BE11006E00C04CF31200DC
:10024200BEC349F3BFC34AF3C0C34BF3C1C34DF3AB
:10025200C2C34EF3800E0301C311006E00C04CF303
:02026200120088
:10026400BEC349F3BFC34AF3C0C34DF3C1C34EF386
:10027400800E0301C211006E008000C04CF3120016
:10028400C20E0301276F370E286F000E296F180E58
:10029400116F380E126F000E136F0E0E146F380E9E
:1002A400156F000E166F800E176F370E186F000E45
:0402B400196F1200AC
:1002B800ABC302F0ACC303F0AEC300F0AFC301F0B0
:1002C800010E0301AE5F000EAF5B0050011009E0A4
:1002D80002C0E1FF03C0E2FFADC3E6FF024A032A02
:0402E800EBD712003E
:1002EC000301AC51000A12E0ABC300F0000E016E2A
:1002FC000036009001360D0E0024E96E030E01202D
:10030C00EA6EEECF04F0EECF05F011D0ABC300F0E7
:10031C00000E016E003600900136210E0024E96EAD
:10032C00030E0120EA6EEECF04F0EECF05F0020EC4
:10033C000424E16E000E0520E26EADC3E6FFAEC3F1
:10034C00E6FF010E0424E16E000E0520E26EAFC341
:10035C00E6FF04C0E9FF05C0EAFFEECF00F004C0E1
:10036C00E1FF05C0E2FF400E0014E66E04C0E9FF99
:10037C0005C0EAFFEECF00F004C0E1FF05C0E2FFCC
:10038C00880E0010E66EAC51000A1BE0ABC300F007
:10039C00000E016E0036009001360D0E0024026E28
:1003AC00030E0120036E02C0E9FF03C0EAFF040E36
:1003BC00EE18006E02C0E1FF03C0E2FF00C0E6FFD2
:1003CC001AD0ABC300F0000E016E0036009001365F
:1003DC00210E0024026E030E0120036E02C0E9FF01
:1003EC0003C0EAFF040EEE18006E02C0E1FF03C06A
:1003FC00E2FF00C0E6FF04C000F005C001F01200EF
:0A040C00D08EA28AA08AF28E1200A0
:10041600000E0301AC1902E1000EAB1902E1016AFC
:1004260009D0ABC3E9FFACC3EAFFEECF00F0016A27
:0A04360000BE012A01C000F0120010
:0E044000160E6F6E9F0E6B6E7B0E696E1200B5
:10044E000301ABBF02D0809601D08086ABBD02D037
:10045E00809401D08084ABBB02D0809201D0808288
:10046E00ABB902D0809001D080801AB102D08088C2
:10047E0001D08098808A43DE809AABB702D08096F6
:10048E0001D08086ABB502D0809401D08084ABB30E
:10049E0002D0809201D08082ABB102D0809001D088
:1004AE0080801AB102D0808801D08098808A27DEA1
:0E04BE00809A1AA102D031DE01D028DE120091
:1004CC00700EE16E0F0EE26E0301B951E126D8B049
:1004DC00E22ABAC3E6FFBAA504D0B9C3BEF3BF6B18
:1004EC0027DEBAA305D0B9C3BEF3010EBF6F20DE61
:0204FC001200EC
:1004FE000301BA51000A12E0B9C300F0000E016EFA
:10050E000036009001360D0E0024E96E030E012018
:10051E00EA6EEECF04F0EECF05F011D0B9C300F0C5
:10052E00000E016E003600900136210E0024E96E99
:10053E00030E0120EA6EEECF04F0EECF05F0020EB0
:10054E000424E16E000E0520E26EBBC3E6FFBCC3C1
:10055E00E6FF010E0424E16E000E0520E26EBDC31F
:10056E00E6FF04C0E9FF05C0EAFFEECF00F004C0CD
:10057E00E1FF05C0E2FF400E0014E66E04C0E9FF85
:10058E0005C0EAFFEECF00F004C0E1FF05C0E2FFB8
:10059E00880E0010E66EBA51000A1BE0B9C300F0D7
:1005AE00000E016E0036009001360D0E0024026E14
:1005BE00030E0120036E02C0E9FF03C0EAFF040E22
:1005CE00EE18006E02C0E1FF03C0E2FF00C0E6FFBE
:1005DE001AD0B9C300F0000E016E0036009001363D
:1005EE00210E0024026E030E0120036E02C0E9FFED
:1005FE0003C0EAFF040EEE18006E02C0E1FF03C056
:10060E00E2FF00C0E6FF04C000F005C001F01200DA
:10061E0020C401F01F0E01160150010A01E08BD01B
:10062E0004012451000A01E086D02151060A38E166
:10063E002DD003014751010A12E1C20EBE6F370ED3
:10064E00BF6F000EC06F120EBE27000EBF23C02359
:10065E00090EC16F000EC26F400EC36FEBDD20D0CE
:10066E0003014751010A0DE10F0EBE6F370EBF6F2A
:10067E00000EC06F710EC16F000EC26F400EC36FC1
:10068E00D9DD0ED00301BE6BCEDD0AD0040123519D
:10069E00210ACFE02351220AE3E02351230AF2E09C
:1006AE0020C401F0600E0116050E006E005004E02D
:1006BE000132019EFF0FFBD70150010A01E03BD032
:1006CE0027D039D038D0580E0301BE6F030EBF6F3E
:1006DE00010EC06F000EC16F400EC26FBCDD2BD07D
:1006EE000301BE6BA0DD23C458F325D00301590EC0
:1006FE00BE6F030EBF6F010EC06F000EC16FC26BD7
:10070E00AADD19D00301BE6B8EDD22C459F313D0BE
:10071E0004012151010AD5E02151090AD3E02151EA
:10072E00020AD1E021510A0ADBE02151030ADEE080
:08073E0021510B0AE7E0120053
:0A0746006D6A696A03010C6B120072
:0E07500003011A91A7C3ABF37ADE1A811200DF
:10075E0092DD1F6B206B256B266B6A6A686A69DEF9
:10076E006D8C6E6A710EAB6F0F0EAC6FAD6B010EB2
:10077E00AE6F000EAF6F99DD6D9CA76B080EA75D77
:10078E0016E2A7C300F0000E016E0036009001368F
:10079E00003600900136000E0024E16E040E01209A
:1007AE00E26EE66AE66AE66AE66AA72BE7D7160EF7
:1007BE00706E68A603D0F70E6816FBD74C6B516BA4
:1007CE00526B536B6D98080E0D6F040E0E6F476BC8
:0407DE000C6B12008E
:1007E200200E03010C5D03E36DB201D002D0006A5A
:1007F20033D025C3ABF326C3ACF30CDE00522BE19E
:10080200AAC3ABF3010EAC6FA7C3ADF3A8C3AEF39B
:10081200A9C3AFF36ADD00C025F301C026F31B6B49
:100822001C6B1D6B1E6B25C3ABF326C3ACF3F2DD51
:10083200005208E01B511C111D111E1102E0006A3A
:100842000BD0F1D7010E2525E96E000E2621EA6EA6
:0A085200EECF00F001D0006A1200A2
:10085C0003010C51000A0AE16D6A696AEBDDD0DD17
:0E086C006DB602D06D86FCD7010E0C6F120027
:0A087A000301485301E0CEDE120036
:100884000301485314E0010EB96F1E0EBA6F1CDE4B
:10089400010EB96FBA6B5AC3BBF35BC3BCF3400E12
:1008A400BD6F2BDE00C01FF301C020F313D0010E77
:1008B400B96F1E0EBA6F08DE010EB96FBA6B5AC358
:1008C400BBF35BC3BCF3400EBD6F17DE00C01FF368
:0608D40001C020F3120038
:1008DA00010E0301486FA2C35AF3A3C35BF3A4C377
:1008EA005CF3A5C35DF336DF010E016E0150010A08
:0608FA0001E1AFDF120076
:1009000010D0800E0301A26F1AD0C00EA26F17D0B4
:10091000940EA26F14D0D40EA26F11D0800EA26FCD
:100920000ED00301A251010AECE0A251020AEDE04F
:10093000A251030AEDE0A251040AEDE0EFD7A305AE
:10094000006EA251002600C0A2F300C0ABF37FDD11
:100950001A91A66BA651A425E96E000EA521EA6E98
:10096000EE520BE0A651A425E96E000EA521EA6E19
:0E097000EECFA7F3EDDEA62BEDD71A81120015
:10097E0003018651000A01E10ED08651FF0A01E102
:10098E000AD08B9286C35EF3A40ED76E720ED66E0D
:08099E00F294F28AD58E1200DA
:1009A6000B6A0A6A096A00500402F4CF09F0F3CF11
:1009B60008F001500502F4CF0BF0F3CF0AF0005017
:1009C6000502F3500926F4500A22E86A0B22015068
:1009D6000402F3500926F4500A22E86A0B2208C0E2
:1009E60000F009C001F00AC002F00BC003F01200CB
:0409F600A7DE120066
:1009FA00A2C3A7F3A3C3A8F3A4C3A9F3010E0301D7
:060A0A00AA6FEADE1200F3
:100A1000B3C302F0B4C303F0B6C300F0B7C301F030
:100A2000010E0301B65F000EB75B0050011009E034
:100A300002C0E1FF03C0E2FFB5C3E6FF024A032A9A
:040A4000EBD71200DE
:100A44000CD01EDF3CD03BD016DF39D038D037D0A5
:100A540036D035D0000033D032D0000E0301B419A3
:100A640002E1010EB319EDE0000EB41902E1020E29
:100A7400B319E9E0000EB41902E1030EB319E4E07E
:100A8400B451000A02E1730EB319E0E0B451000A54
:100A940002E1750EB319DBE0B451000A02E1740EF1
:100AA400B319D6E0B4513F0A02E1FF0EB319D1E005
:100AB400B451000A02E1720EB319CCE0CDD7010E95
:040AC400006E1200AE
:100AC80090D1100E006E020E016EC9D20E0E006E8D
:100AD800020E016EC4D2230E006E020E016EBFD24A
:100AE800210E006E020E016EBAD21F0E006E020EAB
:100AF800016EB5D2350E006E020E016EB0D2330E05
:100B0800006E020E016EABD2310E006E020E016E47
:100B1800A6D23B0E006E020E016EA1D2390E006EF7
:100B2800020E016E9CD2370E006E020E016E97D235
:100B3800290E006E020E016E92D2270E006E020E72
:100B4800016E8DD2250E006E020E016E88D22F0E18
:100B5800006E020E016E83D22D0E006E020E016E23
:100B68007ED22B0E006E020E016E79D2D70E006E69
:100B7800010E016E74D2D50E006E010E016E6FD299
:100B8800D30E006E010E016E6AD2DD0E006E010EEC
:100B9800016E65D2DB0E006E010E016E60D2D90EB9
:100BA800006E010E016E5BD2CB0E006E010E016E5F
:100BB80056D2C90E006E010E016E51D2C70E006EDC
:100BC800010E016E4CD2D10E006E010E016E47D29D
:100BD800CF0E006E010E016E42D2CD0E006E010ED8
:100BE800016E3DD2060E006E020E016E38D2040E62
:100BF800006E020E016E33D2020E006E020E016EFE
:100C08002ED20C0E006E020E016E29D20A0E006E54
:100C1800020E016E24D2080E006E020E016E1FD263
:100C2800E90E006E010E016E1AD2E30E006E010E7F
:100C3800016E15D2DF0E006E010E016E10D2F80E95
:100C4800006E010E016E0BD2F40E006E010E016EE5
:100C580006D2EB0E006E010E016E01D2CB0E006EB5
:100C6800020E016EFCD1DD0E006E020E016EF7D190
:100C7800DB0E006E020E016EF2D1D90E006E020E6E
:100C8800016EEDD1E30E006E020E016EE8D1E10EA9
:100C9800006E020E016EE3D1DF0E006E020E016ED1
:100CA800DED1C90E006E020E016ED9D1C70E006EDC
:100CB800020E016ED4D1C50E006E020E016ECFD1A8
:100CC800D70E006E020E016ECAD1CD0E006E020E56
:100CD800016EC5D1E50E006E020E016EC0D1030E85
:100CE800006E030E016EBBD1000E006E030E016E86
:100CF800B6D1FD0E006E020E016EB1D1060E006E69
:100D0800030E016EACD1090E006E030E016EA7D161
:100D1800FA0E006E020E016EA2D1EB0E006E020EEC
:100D2800016E9DD1E80E006E020E016E98D1EE0E96
:100D3800006E020E016E93D1F60E006E020E016E69
:100D48008ED1F20E006E020E016E89D15E0E006E1B
:100D5800020E016E84D17E0E006E020E016E7FD1EE
:100D6800780E006E020E016E7AD1420E006E020EEF
:100D7800016E75D13D0E006E020E016E70D1510EDE
:100D8800006E020E016E6BD14A0E006E020E016EED
:100D980066D1B10E006E020E016E61D1A70E006E13
:100DA800020E016E5CD1B50E006E020E016E57D1B7
:100DB800990E006E020E016E52D1940E006E020E54
:100DC800016E4DD19E0E006E020E016E48D18A0E44
:100DD800006E020E016E43D1930E006E020E016E7C
:100DE8003ED103018251040AD8B46BD68251050A58
:100DF800D8B46CD68251060AD8B46DD68251070A87
:100E0800D8B46ED68251080AD8B46FD68251090A6E
:100E1800D8B470D682510A0AD8B471D682510B0A56
:100E2800D8B472D682510C0AD8B473D682510D0A3E
:100E3800D8B474D682510E0AD8B475D682510F0A26
:100E4800D8B476D68251100AD8B477D68251110A0E
:100E5800D8B478D68251120AD8B479D68251130AF6
:100E6800D8B47AD68251140AD8B47BD68251150ADE
:100E7800D8B47CD68251160AD8B47DD68251170AC6
:100E8800D8B47ED68251180AD8B47FD68251190AAE
:100E9800D8B480D682511A0AD8B481D682511B0A96
:100EA800D8B482D682511C0AD8B483D682511D0A7E
:100EB800D8B484D682511E0AD8B485D682511F0A66
:100EC800D8B486D68251200AD8B487D68251210A4E
:100ED800D8B488D68251220AD8B489D68251230A36
:100EE800D8B48AD68251240AD8B48BD68251250A1E
:100EF800D8B48CD68251260AD8B48DD68251270A06
:100F0800D8B48ED68251280AD8B48FD68251290AED
:100F1800D8B490D682512A0AD8B491D682512B0AD5
:100F2800D8B492D682512C0AD8B493D682512D0ABD
:100F3800D8B494D682512E0AD8B495D682512F0AA5
:100F4800D8B496D68251300AD8B497D68251310A8D
:100F5800D8B498D68251330AD8B499D68251340A73
:100F6800D8B49AD68251350AD8B49BD68251360A5B
:100F7800D8B49CD68251370AD8B49DD68251380A43
:100F8800D8B49ED68251390AD8B49FD682513A0A2B
:100F9800D8B4A0D682513B0AD8B4A1D682513C0A13
:100FA800D8B4A2D682513D0AD8B4A3D682513E0AFB
:100FB800D8B4A4D682513F0AD8B4A5D68251400AE3
:100FC800D8B4A6D68251410AD8B4A7D68251420ACB
:100FD800D8B4A8D68251430AD8B4A9D68251440AB3
:100FE800D8B4AAD68251450AD8B4ABD68251460A9B
:100FF800D8B4ACD68251470AD8B4ADD68251480A83
:10100800D8B4AED68251490AD8B4AFD682514A0A6A
:10101800D8B4B0D682514B0AD8B4B1D682514C0A52
:10102800D8B4B2D682514D0AD8B4B3D682514E0A3A
:10103800D8B4B4D682514F0AD8B4B5D68251500A22
:10104800D8B4B6D68251510AD8B4B7D68251520A0A
:10105800D8B4B8D68251530AD8B4B9D6BDD612007E
:10106800086A080E0C6E003408360450085ED8B0C2
:0E10780002D00826D89000360C2EF5D71200B4
:10108600F0D0280E006E010E016EA9D1230E006E5F
:10109600010E016EA4D1250E006E010E016E9FD1C8
:1010A600010E006E010E016E9AD1F50E006E000E55
:1010B600016E95D1F70E006E000E016E90D1F10E05
:1010C600006E000E016E8BD1F30E006E000E016EE7
:1010D60086D1FD0E006E000E016E81D1FF0E006EF0
:1010E600000E016E7CD1F90E006E000E016E77D1F6
:1010F600FB0E006E000E016E72D13F0E006E000EEA
:10110600016E6DD1410E006E000E016E68D13B0E70
:10111600006E000E016E63D13D0E006E000E016E74
:101126005ED1470E006E000E016E59D1490E006E5B
:10113600000E016E54D1430E006E000E016E4FD1AB
:10114600450E006E000E016E4AD1390E006E000E7D
:10115600016E45D12D0E006E000E016E40D12F0E90
:10116600006E000E016E3BD1290E006E000E016E60
:1011760036D12B0E006E000E016E31D1350E006E8B
:10118600000E016E2CD1370E006E000E016E27D1B7
:10119600310E006E000E016E22D1330E006E000E6F
:1011A600016E1DD1650E006E000E016E18D1670E20
:1011B600006E000E016E13D1610E006E000E016E00
:1011C6000ED1630E006E000E016E09D16D0E006E1B
:1011D600000E016E04D16F0E006E000E016EFFD080
:1011E600690E006E000E016EFAD06B0E006E000ED8
:1011F600016EF5D05F0E006E000E016EF0D04F0E40
:10120600006E000E016EEBD0510E006E000E016EE8
:10121600E6D04B0E006E000E016EE1D04D0E006E54
:10122600000E016EDCD0570E006E000E016ED7D098
:10123600590E006E000E016ED2D0530E006E000ED7
:10124600016ECDD0550E006E000E016EC8D02A0E6E
:10125600006E010E016EC3D0730E006E010E016E9C
:10126600BED003018251040AD8B40BD78251050AB5
:10127600D8B40CD78251060AD8B40DD78251070AC2
:10128600D8B40ED78251080AD8B40FD78251090AAA
:10129600D8B410D782510A0AD8B411D782510B0A92
:1012A600D8B412D782510C0AD8B413D782510D0A7A
:1012B600D8B414D782510E0AD8B415D782510F0A62
:1012C600D8B416D78251100AD8B417D78251110A4A
:1012D600D8B418D78251120AD8B419D78251130A32
:1012E600D8B41AD78251140AD8B41BD78251150A1A
:1012F600D8B41CD78251160AD8B41DD78251170A02
:10130600D8B41ED78251180AD8B41FD78251190AE9
:10131600D8B420D782511A0AD8B421D782511B0AD1
:10132600D8B422D782511C0AD8B423D782511D0AB9
:10133600D8B424D782511E0AD8B425D782511F0AA1
:10134600D8B426D78251200AD8B427D78251210A89
:10135600D8B428D78251220AD8B429D78251230A71
:10136600D8B42AD78251240AD8B42BD78251250A59
:10137600D8B42CD78251260AD8B42DD78251270A41
:10138600D8B42ED782512D0AD8B42FD782512E0A1F
:10139600D8B430D782512F0AD8B431D78251300A07
:1013A600D8B432D78251310AD8B433D78251330AEE
:1013B600D8B434D78251340AD8B435D78251350AD5
:1013C600D8B436D78251360AD8B437D78251370ABD
:1013D600D8B438D78251380AD8B439D73DD7120095
:1013E600BFEC04F0020EA26F010EA36F740EA46F81
:1013F600010EA56F80EC04F04B0E0501086F096B1A
:101406000A6B0B6B0301849184B153D0000EA26F5B
:10141600050EA36F080EA46F050EA56F6DEC04F004
:10142600A16B84B132D0320EA15D2FE28B80020E09
:101436000B6E860E0C6E990E0D6E0D2EFED70C2EB3
:10144600FCD70B2EFAD78B90020E0B6E860E0C6E07
:10145600990E0D6E0D2EFED70C2EFCD70B2EFAD73D
:10146600080EA26F050EA36F040EA46FFDEC04F028
:101476000050000A000ED8A4010E016E01B002D081
:10148600849101D08481A12BCCD784B111D0BFEC3B
:1014960004F0FBEC04F0990E0B6E310E0C6EA20EEE
:1014A6000D6E0D2EFED70C2EFCD70B2EFAD7000094
:1014B600ABD7020EA26F010EA36F660EA46F010ECC
:0814C600A56F80EC04F0120098
:1014CE00FBEC04F0020EA26F010EA36F120EA46FBE
:0C14DE00020EA56F80EC04F08491120057
:1014EA0008D08B82D59E0DD08B92D59E0AD0D58EF0
:1014FA0008D003018651000AF4E08651FF0AF4E09D
:04150A00F6D71200FE
:10150E0004012251010A13E120C401F01F0E01163D
:10151E000150000A0CE103014C8F04012151030A12
:10152E0004E1010E0301426F02D00301426B04017C
:10153E002251000AD8A48DD020C401F01F0E01162E
:10154E000150020AD8A485D024C401F00F0E011652
:10155E000150000AD8B47DD003014C8F040124BF82
:10156E0016D024C403F00F0E031603C000F0000EB5
:10157E00016E003600900136210E0024E96E030E36
:10158E000120EA6EEECF04F0EECF05F015D024C4A4
:10159E0003F00F0E031603C000F0000E016E0036AE
:1015AE00009001360D0E0024E96E030E0120EA6E46
:1015BE00EECF04F0EECF05F02151030A07E104C08F
:1015CE00E1FF05C0E2FF840EE66E43D024C400F0B6
:1015DE000F0E0016700E026E0F0E036E00500226D6
:1015EE00D8B0032A02C0E9FF03C0EAFFFE0EEE14D4
:1015FE00006EEECF01F0FF0E011602C0E1FF03C038
:10160E00E2FF00C0E6FF01C0E6FF24AF11D004C028
:10161E00E1FF05C0E2FFE66A040E0418006E00C08A
:10162E0004F004C0E1FF05C0E2FF400EE66E11D0EB
:10163E0004C0E1FF05C0E2FF880EE66E040E04183A
:10164E00006E00C004F004C0E1FF05C0E2FFC80E4A
:04165E00E66E120022
:1016620003014C8F710EB36F0F0EB46FB56B010E89
:10167200B66F000EB76F08EC05F0410EB36F030EA4
:10168200B46FB56B010EB66F000EB76F08EC05F0C4
:1016920022C447F34751000A03E1100E0C6F10D029
:1016A200200E0C6F010EB36F000EB46F470EB56FB4
:1016B200030EB66F010EB76F000EB86F22EC05F085
:0216C200120014
:1016C4000401286B296B4AD003014C8F0401288143
:1016D40003014251010A02E10401288354D00301A9
:1016E4004C8F51D003014C8F040124BF16D024C465
:1016F40003F00F0E031603C000F0000E016E003657
:1017040000900136210E0024E96E030E0120EA6EDA
:10171400EECF04F0EECF05F015D024C403F00F0E85
:10172400031603C000F0000E016E0036009001366F
:101734000D0E0024E96E030E0120EA6EEECF04F0D4
:10174400EECF05F004C0E9FF05C0EAFFEECF01F0DB
:1017540001A403D00401010E286F15D020C401F0A8
:101764001F0E01160150000AAFE020C401F01F0E45
:1017740001160150010AB3E020C401F01F0E011646
:101784000150020AAFE003014CAF07D0280E496FA5
:0C179400040E4A6F4C81020E4D6F1200D3
:1017A000000E03014E5D02E1080E4D5D10E24DC3D7
:1017B00003F04EC304F03C51000A03E1010E3C6FFC
:1017C00005D03C51010A02E1020E3C6F04D0080E24
:1017D000036E000E046E0DC3E1FF0EC3E2FFE6923E
:1017E0000DC3E1FF0EC3E2FFE6900DC3E9FF0EC398
:1017F000EAFFEECF00F00DC3E1FF0EC3E2FF04509D
:101800000010E66E010E0D25E16E000E0E21E26E57
:1018100003C0E6FF03504D5D006E04504E59016E4B
:1018200000C04DF301C04EF3280E436F040E446F09
:101830004CB12FD0035004102BE049C3F6FF4AC32C
:10184000F7FF4BC3F8FF0900F5CF00F043C3E1FFFA
:1018500044C3E2FF00C0E6FF434B442B010E492581
:10186000006E000E4A21016E000E4B21026E00C078
:1018700049F301C04AF302C04BF3010E035C006E52
:10188000000E0458016E00C003F001C004F0D2D76E
:1018900024D00350041021E049C3E9FF4AC3EAFF02
:1018A00043C3E1FF44C3E2FFEECFE6FF434B442BCB
:1018B000010E4925006E000E4A21016E00C049F359
:1018C00001C04AF3010E035C006E000E0458016E65
:0C18D00000C003F001C004F0DCD71200DF
:1018DC0004012051800AD8A47BD0C00E03014C6FA8
:1018EC006CD00301EB0E006E370E016E000E026E13
:1018FC0000C049F301C04AF302C04BF3120E4D6F06
:10190C00000E4E6F65D00301030E006E000E016ECB
:10191C0022C404F0000E056ED3EC04F0270E002454
:10192C00E96E030E0120EA6EEECF49F3EECF4AF3D7
:10193C00EECF4BF3020E4925F66E000E4A21F76EE0
:10194C00000E4B21F86E0900F5CF00F00900F5CF21
:10195C0001F000C04DF301C04EF33AD0030E040168
:10196C00225D25E2030E006E000E016E22C404F00F
:10197C00000E056ED3EC04F0110E0024E96E030E7C
:10198C000120EA6EEECF49F3EECF4AF3EECF4BF3E4
:10199C0049C3F6FF4AC3F7FF4BC3F8FF0900F5CF65
:1019AC0000F000C04DF3000E03014E6F02D0030196
:1019BC004C6B0ED003014C6B0BD004012351010A6C
:1019CC0090E02351020A9FE02351030AC7E0F2D7AB
:0219DC001200F7
:1019DE009BC304F09CC305F004C0E9FF05C0EAFFF9
:1019EE00EE5203E0044A052AF7D703019F51A011D6
:1019FE0021E004C002F005C003F0044A052A9DC38D
:101A0E0000F09EC301F09D4B9E2B00C0E9FF01C06C
:101A1E00EAFF02C0E1FF03C0E2FFEECFE6FF02C025
:101A2E00E9FF03C0EAFFEE5205E0010E9F5F000ED4
:101A3E00A05BDBD7000EA01902E1000E9F1905E195
:101A4E0004C0E1FF05C0E2FFE66A9BC300F09CC341
:041A5E0001F0120081
:101A620082C39BF383C39CF3F00E030183159D6F26
:101A720048D164EC05F000C087F301C088F303018C
:101A820083A316D043EC08F000C089F301C08AF3A7
:101A920000C0E9FF01C0EAFFEE5205E089C300F091
:101AA2008AC301F03ED187C300F088C301F039D167
:101AB20087C300F088C301F034D114D0BB0E006E8E
:101AC200020E016E2ED1A10E006E020E016E29D100
:101AD200590E006E020E016E24D1490E006E020EE6
:101AE200016E1FD103019C51100A02E1810E9B1964
:101AF200E5E09C51100A02E1820E9B19E4E09C5140
:101B0200100A02E1830E9B19E3E0E7D755D06B0E72
:101B1200006E020E016E05D16F0E006E020E016E96
:101B220000D1730E006E020E016EFBD0C20E006E6B
:101B3200010E016EF6D0CA0E006E000E016EF1D0DB
:101B4200CF0E006E000E016EECD0B80E006E000ECD
:101B5200016EE7D0BD0E006E000E016EE2D0E00E07
:101B6200006E000E016EDDD0E60E006E000E016EFC
:101B7200D8D0D40E006E000E016ED3D0DB0E006EF4
:101B8200000E016ECED0B30E006E000E016EC9D0F3
:101B92007A0E006E000E016EC4D07F0E006E000E33
:101BA200016EBFD0710E006E000E016EBAD0790EBA
:101BB200006E000E016EB5D09C51200A02E1B50EF6
:101BC2009B19A5E09C51200A02E1B60E9B19A4E0E4
:101BD2009C51200A02E1B70E9B19A3E09C51200AF6
:101BE20002E1CD0E9B19A2E09C51200A02E1E20E15
:101BF2009B19A1E09C51200A02E1E90E9B19A0E089
:101C02009C51200A02E1EA0E9B199FE09C51210A95
:101C120002E1830E9B199EE09C51210A02E18A0E89
:101C22009B199DE09C51210A02E1920E9B199CE0B6
:101C32009C51220A02E1210E9B199BE09C51220A2F
:101C420002E1230E9B199AE09C51220A02E1240E22
:101C52009B1999E09C51220A02E1250E9B1998E0FA
:101C62009C51220A02E1260E9B1997E09C51220AFE
:101C720002E1270E9B1996E09AD728D09A0E006EA1
:101C8200000E016E4ED0A60E006E000E016E49D0FF
:101C9200840E006E000E016E44D0910E006E000E96
:101CA200016E3FD0100E006E010E016E3AD01A0E78
:101CB200006E010E016E35D0030E006E010E016E34
:101CC20030D00F0E006E010E016E2BD08251000A31
:101CD200D5E08251010AD7E08251020AD9E082514D
:101CE200030ADBE08251040ADDE08251050ADFE0EB
:101CF2008251060AE1E0E5D7270E006E010E016E61
:101D020010D09D51000AD8B4B4D69D51100AD8B44F
:101D1200D4D69D51200AD8B4F9D69D51F00AADE02F
:041D2200EBD71200E9
:101D26009BC304F09CC305F004C002F005C003F099
:101D3600044A052A9DC300F09EC301F003019D4B92
:101D46009E2B00C0E9FF01C0EAFF02C0E1FF03C00D
:101D5600E2FFEECFE6FF02C0E9FF03C0EAFFEE5264
:0E1D660001E0E2D79BC300F09CC301F0120025
:101D7400030184A11FD0530E0501086F82C309F526
:101D8400080E0301A26F050EA36F020EA46FFDECF3
:101D940004F0005201E1F4D70501096B080E0301B8
:101DA400A26F050EA36F020EA46FFDEC04F00052A7
:061DB40001E1F4D712006A
:101DBA00030184A123D04B0E0501086F83C309F5E3
:101DCA000A6B82C30BF5080E0301A26F050EA36FFF
:101DDA00040EA46FFDEC04F0005201E1F4D70501F2
:101DEA00096B0B6B080E0301A26F050EA36F040E9D
:0E1DFA00A46FFDEC04F0005201E1F4D71200DA
:101E0800010E03014525E96E000E4621EA6EEECF6C
:101E180000F000C002F0000E535D02E10250525D76
:101E280003E252C302F00AD00250525D006E000E67
:101E38005359016E00C052F301C053F3036A0250B4
:101E4800035C1CE2280EE96E040EEA6E0350E926D4
:101E5800D8B0EA2AEECF00F04FC3E1FF50C3E2FF4B
:101E680000C0E6FF010E4F25006E000E5021016EE6
:101E780000C04FF301C050F3032AE1D7000E006EF3
:101E88005351005C02E15251000828E2010E3D2541
:101E9800E16E000E3E21E26E080EE66E020E3D2552
:101EA800E16E000E3E21E26E280EE66E040EE66E2E
:101EB80045C3E9FF46C3EAFFEECF00F000BC07D0F8
:101EC8003DC3E1FF3EC3E2FFC80EE66E06D03DC348
:101ED800E1FF3EC3E2FF880EE66E19D0010E3D25F4
:101EE800E16E000E3E21E26E080EE66E020E3D2502
:101EF800E16E000E3E21E26E200EE66E040EE66EE6
:101F08003DC3E1FF3EC3E2FF840EE66E519F12001F
:101F18006D9803014CBF49D051AF28D0020E3F6FD6
:101F2800010E0D25E16E000E0E21E26EE66A0DC36C
:101F3800E1FF0EC3E2FFC80EE66E010E3D25E16E1D
:101F4800000E3E21E26E080EE66E020E3D25E16EA1
:101F5800000E3E21E26E280EE66E040EE66E3DC3CC
:101F6800E1FF3EC3E2FFC80EE66E1ED0010E3D251E
:101F7800E16E000E3E21E26E080EE66E020E3D2571
:101F8800E16E000E3E21E26E200EE66E040EE66E55
:101F98003DC3E1FF3EC3E2FF8C0EE66E0DC3E1FFD9
:101FA8000EC3E2FF840EE66E83D051BF81D00401D8
:101FB80020AF56D003014E510401275D04E103010F
:101FC8004D510401265D04E226C44DF327C44EF3A7
:101FD800D0EC0BF0010E3F6F010E3D25E16E000EB7
:101FE8003E21E26E080EE66E020E3D25E16E000E01
:101FF8003E21E26E200EE66E040EE66E3DC3E1FF62
:102008003EC3E2FF800EE66E3B6B010E4525E16E96
:10201800000E4621E26E080EE66E020E4525E16EC0
:10202800000E4621E26E200EE66E040EE66E45C3F3
:10203800E1FF46C3E2FF840EE66E010E3B6F020E1F
:102048000D25E16E000E0E21E26E280EE66E040EDE
:10205800E66E0DC3E1FF0EC3E2FFC80EE66E28D0A0
:102068000301020E3F6F010E0D25E16E000E0E21D9
:10207800E26EE66A0DC3E1FF0EC3E2FFC80EE66E2C
:10208800010E3D25E16E000E3E21E26E080EE66E61
:10209800020E3D25E16E000E3E21E26E280EE66E30
:1020A800040EE66E3DC3E1FF3EC3E2FFC80EE66ED6
:0220B800120014
:1020BA0020C401F0600E0116050E006E005004E007
:1020CA000132019EFF0FFBD70150000A01E06DD0DB
:1020DA0049D003014C8F080E0C6F67D06EEC0CF0E0
:1020EA0064D031EC0BF061D0470E0301496F030E47
:1020FA004A6F4C81010E4D6F4C8F57D062EC0BF03A
:10210A0054D087EC0AF051D0410E006E030E016ED6
:10211A00040124510026D8B0012A00C049F301C0A5
:10212A004AF303014C81010E4D6F4C8F3ED00301DF
:10213A004C8F410EE16E030EE26E04012451E1263A
:10214A00D8B0E22A22C4E6FF30D0020E0301B36FF0
:10215A00000EB46FB56BB66BB76BB86B22EC05F0BB
:10216A0024D023D004012151050AB3E02151060AE3
:10217A00B5E02151090AB5E02151080AB5E021511B
:10218A00000ABCE02151010ABCE02151030AB9E06E
:10219A0021510A0AB9E021510B0AC9E02151070A63
:0C21AA00D4E021510C0ADDE0DCD712006B
:1021B60003019E6B030E9E5D0AE29E519C25E16E15
:1021C600000E9D21E26E200EE66E9E2BF3D79E51E9
:1021D6009C25E16E000E9D21E26EE66A9E079E51E9
:1021E6009C259F6F000E9D21A06F0A0E046E9BC357
:1021F60000F034EC08F008C000F0300E00269FC353
:10220600E1FFA0C3E2FF00C0E6FF0A0E046E9BC317
:1022160000F034EC08F000C09BF30050000A01E126
:0822260002D09E07DCD7120074
:10222E0003013F6B0DC3E1FF0EC3E2FFE66A040E2E
:10223E000D19E16E0EC3E2FF000EE21AE66A51AF0F
:06224E0001D0519F1200B7
:10225400030184A125D0430E0501086F82C309F54B
:102264000F0E0301831505010A6F080E0301A26F07
:10227400050EA36F030EA46FFDEC04F0005201E100
:10228400F4D70501096B0A6B080E0301A26F050E52
:10229400A36F030EA46FFDEC04F0005201E1F4D728
:0222A400120026
:1022A60081BC02D0D88001D0D890000ED8B0010EE3
:0422B600006E1200A4
:0822BA0003019B51852712006E
:1022C20083C300F00032009E0032009E0032009E66
:1022D2000032009E03019B5100260F0E0014036E74
:1022E2000F0E8315026E03C000F000360090003618
:1022F200009000360090003600900250001200C09C
:0423020083F312004F
:0823060003019B515F27120047
:10230E0081BE02D0D88001D0D890000ED8B0010E78
:04231E00006E12003B
:1023220033D0828C080E0B6E9D0E0C6E050E0D6E58
:102332000D2EFED70C2EFCD70B2EFAD70000000074
:10234200829C36D0828E080E0B6E9D0E0C6E050E90
:102352000D6E0D2EFED70C2EFCD70B2EFAD70000D9
:102362000000829E25D067EC0AF0F3EC09F020D041
:10237200866B75EC0AF01CD0FF0E0301866F75ECBC
:102382000AF016D015D014D003018251010AC9E017
:102392008251020AD7E08251030AE5E08251040A1F
:1023A200E7E08251050AE8E08251000AEBE0EBD750
:0223B200120017
:1023B4009BC304F09CC305F004C0E9FF05C0EAFF19
:1023C400EE5203E0044A052AF7D704C002F005C020
:1023D40003F0044A052A9DC300F09EC301F00301E3
:1023E4009D4B9E2B00C0E9FF01C0EAFF02C0E1FF44
:1023F40003C0E2FFEECFE6FF02C0E9FF03C0EAFF3D
:10240400EE5201E0E2D79BC300F09CC301F012003E
:10241400F00E03019B15026E02C000F00032009E14
:102424000032009E0032009E0032009EFD0E002409
:10243400F66E370EF76E000EF722000EF86E000EE1
:10244400F8220900F5CF00F09CC3E1FF9DC3E2FF31
:1024540000C0E6FF9C4B9D2B0F0E9B15006EFD0EDE
:102464000024F66E370EF76E000EF722000EF86E9B
:10247400000EF8220900F5CF00F09CC3E1FF9DC3D4
:08248400E2FF00C0E6FF1200B8
:0A248C009484CA94F00EBD161200ED
:0A2496009494CA840C0EBD121200CB
:1024A00003013F51020A02E1AFDC1ED0C0DE3B5106
:1024B000000A19E1010E3D25E16E000E3E21E26E9B
:1024C000080EE66E020E3D25E16E000E3E21E26E24
:1024D000200EE66E040EE66E3DC3E1FF3EC3E2FF52
:0A24E0008C0EE66E01D03B6B12007B
:1024EA000DC3E9FF0EC3EAFFEECF00F0000E00BCF9
:1024FA00010E0301B26F040E0D19006E00C00DF338
:10250A000C51080A0AE122C46EFF6E50000803E269
:10251A00100E0C6F02D0040E0C6F3F51010A2BE112
:10252A00020E0D25E16E000E0E21E26E280E006EDF
:10253A00040E016E00C0E6FF01C0E6FFD0EC0BF00E
:10254A003C51020A07E10DC3E1FF0EC3E2FF840E0C
:10255A00E66E10D0B251000A07E10DC3E1FF0EC3C7
:10256A00E2FFC80EE66E06D00DC3E1FF0EC3E2FF1E
:0A257A00880EE66E01D056DE120056
:102584000DC3E9FF0EC3EAFFEECF00F000AE05D0A5
:102594000DC3E1FF0EC3E2FFE66A03013C6B3F6B30
:1025A4004D6B4E6B4C6B87DD030E0301B36F000E56
:1025B400B46FB56BB66BB76BB86B22EC05F0AADCE5
:0225C400120003
:1025C60067DF050E0C6EAB0E0D6E0D2EFED70C2EB4
:0A25D600FCD70000000057DF1200E0
:1025E000A69C99C3A9FFA69EA680A8CF00F01200C2
:0A25F00003017D6B7B6B7C6B120016
:1025FA00010E0301AB6F27EC02F083C39BF3690E54
:10260A009C6F030E9D6F01DF200E6B6F6C6BF00EDB
:10261A008315996F57D084A90AD0690E9B6F030E50
:10262A009C6F8B0E9D6F010E9E6FBFDE2CD083A117
:10263A0009D0690E9B6F030E9C6F810E9D6F010E70
:10264A009E6FB3DE83A509D0690E9B6F030E9C6F44
:10265A00860E9D6F010E9E6FA8DE83A309D0690EB8
:10266A009B6F030E9C6FA80E9D6F010E9E6F9DDEE1
:10267A006C5309E1690E9B6F030E9C6FAE0E9D6F42
:10268A00010E9E6F92DE2BD0690E9B6F030E9C6F1C
:10269A00940E9D6F010E9E6F88DE21D0690E9B6F8E
:1026AA00030E9C6F9B0E9D6F010E9E6F7EDE17D0F0
:1026BA00690E9B6F030E9C6F470E9D6F010E9E6FF6
:1026CA0074DE0DD09951000AA6E09951100ADCE097
:1026DA009951200AE3E09951F00AEAE0F2D7010E93
:1026EA00A26F010EA36F690EA46F030EA56F80EC93
:1026FA0004F084A90BD02A0E9B6F030E9C6F2C0E3C
:10270A009D6F010E9E6F93EC0EF074D084A514D0C9
:10271A0085C39BF32A0E9C6F030E9D6F76DE200EF7
:10272A002C6F2D6B2A0E9B6F030E9C6F3C0E9D6FB8
:10273A00010E9E6F3ADE5ED084AB41D05FC39BF33D
:10274A002A0E9C6F030E9D6F60DE200E2C6F2D6B80
:10275A002A0E9B6F030E9C6F5E0E9D6F010E9E6F7D
:10276A0024DE25D02A0E9B6F030E9C6F620E9D6F8E
:10277A00010E9E6F1ADE22D02A0E9B6F030E9C6FEB
:10278A00550E9D6F010E9E6F10DE18D05FC39BF32E
:10279A00300E9C6F030E9D6F09DD2A0E9B6F030E90
:1027AA009C6F580E9D6F010E9E6FFFDD07D05F5123
:1027BA00000AD8E05F51FF0ADFE0E8D71BD082C3E6
:1027CA009BF32A0E9C6F030E9D6F1FDE200E2C6F4B
:1027DA002D6B31EC0DF000C09DF301C09EF32A0E63
:1027EA0003019B6F030E9C6F0D0E9F6F000EA06F6F
:1027FA00EFEC0CF0020EA26F010EA36F2A0EA46F6B
:0A280A00030EA56F80EC04F012002D
:10281400100E0301616F270E626F8B80F00E83151B
:10282400996F0BD0DDEC0EF016D0BAEC0EF013D08D
:102834000FDD11D074DD0FD00ED003019951000AC1
:10284400F1E09951100AF1E09951200AF1E099510F
:08285400F00AF0E0F1D71200D8
:10285C00F250026EF29E0500FF6A0150FE6E0050AF
:08286C00FD6E02BEF28E1200A7
:10287400000E03018215026E8351F00B036EFF0EEE
:102884008215006E83510F0B016E99510026000EC4
:1028940099BFFF0E0122FF0E00160F0E0116025003
:1028A40000120350011200C082F301C083F312002E
:1028B400A6A202D00000FCD7A69C99C3A9FF9AC384
:1028C400A8FFA69EA684F2CF00F0F29E550EA76E36
:1028D400AA0EA76EA68200BE02D0F29E01D0F28E8E
:0428E400A6941200A4
:1028E80003016351851904E06351FF0A01E01CD01C
:1028F80064516319006E01E117D066516519006EC5
:1029080001E112D068516719006E01E10DD065C36D
:1029180001F0006A67510012000E011200C082F334
:0A29280001C083F366DE72DF1200C7
:1029320090C399F39EDF60DE020E816F91C300F0B7
:1029420092C301F08ADF00522EE0030184A32AD051
:10295200800E006E800E60BF7F0E005C02E160514F
:10296200000820E381078151000A1AE190C399F31C
:1029720080DF31EC0DF000C0E9FF01C0EAFFEE504C
:10298200000A0BE10F0E03018215016E0150000ACD
:1029920004E090C399F36DDFECD72EDE020E816F57
:0829A2008493606BCBD7120097
:1029AA00A090A190040EBA6ECF6ACE6A1CDEA080F7
:0229BA00120009
:1029BC00929A92989290929292949296809A8098EF
:1029CC00809680948092809094EC00F094EC00F0CF
:1029DC0094EC00F080828080808A86EC00F0809AF3
:1029EC0094EC00F0808A86EC00F0809A94EC00F075
:1029FC00808A86EC00F0809A94EC00F08090808ABB
:102A0C0086EC00F0809A94EC00F0808A86EC00F062
:102A1C00809A80928086808A86EC00F0809A94EC72
:102A2C0000F080968080808A86EC00F0809A8090FE
:102A3C00808A86EC00F0809A94EC00F0808A86EC18
:102A4C0000F0809A8080808A86EC00F0809A94EC6A
:102A5C0000F08090808A86EC00F0809A80868084DA
:102A6C0080828080808A86EC00F0809A94EC00F062
:062A7C0003011A811200A3
:102A820003017C2B7C51070812E27C6B630EE16E22
:102A9200030EE26E7B51E126D8B0E22A7AC3E6FF4A
:102AA2007B2B060E7B5D03E37B6B030E7D6F1200B7
:082AB200BE6ABD98BD9A120036
:102ABA00010E0301996F8FDD00C086F375EC0AF0F1
:022ACA001200F8
:102ACC0093C3E1FF94C3E2FF90C3E6FF91C300F010
:102ADC0092C301F0BDDE8BDD95C300F096C301F00F
:102AEC00B7DE00521CE0030184A318D0800E006EE8
:102AFC00800E60BF7F0E005C02E1605100080EE3A7
:102B0C0093C3E1FF94C3E2FF90C3E6FF91C300F0CF
:102B1C0092C301F09DDE6BDD8493606BDDD71200F8
:102B2C00010E0301996F86C39AF3BEDE75EC0AF0B1
:022B3C00120085
:042B3E00A19A120046
:042B4200A09012004D
:102B4600080E0301916F915100081BE239DD90AF29
:102B56000AD00D0E0C6EDA0E0D6E0D2EFED70C2E53
:102B6600FCD700000AD0050E0C6EAB0E0D6E0D2EB6
:102B7600FED70C2EFCD700000000903790919107ED
:042B8600E2D7120080
:102B8A00CB50010F006E016A000E012290C304F0BF
:102B9A00000E056ED3EC04F0060E026E00C004F0BF
:102BAA0001C005F0025005E005320432059EFF0F10
:102BBA00FAD7040E016E04C000F0015004E000369A
:102BCA000090FF0FFBD7300E0014036E04C000F014
:102BDA0005C001F001320032019E01320032019E2D
:0E2BEA0000C0BEFF0F0EBD160350BD1212003C
:102BF8006984EF0E68166D82750E0301B36F000EBF
:102C0800B46FB56BB66BB76BB86B22EC05F01200FE
:102C180070A019D045C3E9FF46C3EAFFEECF01F023
:102C28000150800A0FE10DC3E9FF0EC3EAFFEECFA2
:102C380001F00150840A06E145C3E1FF46C3E2FF03
:0C2C48008C0EE66E7090DF0E6816120015
:102C5400FD0E03014015016E026AFF0E0216000EFE
:102C6400021802E1000E01186CE17E0E4015016E9F
:102C740001C003F00332039E03C000F0000E016E96
:102C8400003600900136003600900136000E002414
:102C9400026E040E0120036E02C045F303C046F326
:102CA40002C03DF303C03EF3040E3D19006E00C0A4
:102CB4003DF302C0E9FF03C0EAFFEECF00F000C01D
:102CC40001F03C0E01160132019E0132019E0150B9
:102CD4000D0A34E1020E4525E96E000E4621EA6E26
:102CE400EECF01F0EECF02F00250040A02E1280E0A
:102CF400011822E1020E4525E16E000E4621E26E26
:102D0400200EE66E040EE66EB16B080EB15D14E2A1
:102D1400200EE16E040EE26EB151E126D8B0E22A33
:102D2400280EE96E040EEA6EB151E926D8B0EA2AFB
:102D3400EECFE6FFB12BE9D723DC02D050EC12F042
:102D44000ED0FD0E4015016E026AFF0E0216000E33
:102D5400021802E1040E011802E175EC12F01200EF
:102D6400740E0301B36F000EB46FB56BB66BB76B23
:102D7400B86B22EC05F06D92699468A403D0FB0E45
:062D84006816FBD71200E7
:102D8A0042EC01F01F6B206B256B266B6A6A686A3E
:102D9A0020EC02F06D8C6E6A710EB36F0F0EB46F79
:102DAA00B56B010EB66F000EB76F08EC05F06D9C9F
:102DBA00B16B080EB15D16E2B1C300F0000E016EF0
:102DCA00003600900136003600900136000E0024CD
:102DDA00E16E040E0120E26EE66AE66AE66AE66AD7
:102DEA00B12BE7D7160E706E68A603D0F70E6816D9
:102DFA00FBD74C6B516B526B536B6D98080E0D6F72
:0A2E0A00040E0E6F476B0C6B1200F4
:102E14000301846B8B6B060E8B5D0BE2630EE16E1C
:102E2400030EE26E8B51E126D8B0E22AE66A8B2BC0
:102E3400F2D7826B836B6F886F94070ED56EB10ED9
:102E4400CD6EB00EB16EF28EF28CA082F19E0F0E9A
:102E5400C16E070EB46EFF0E926EFF0E936E380EA7
:102E6400946E896A8A6A8B6ACA90CA929C0ECB6EE7
:102E74001EDE400E906F87DE9FDD010EAB6F27ECE8
:102E840002F00C0EAB6F27EC02F0010EA26F010EE4
:102E9400A36FB70EA46F010EA56F80EC04F0996BBD
:0E2EA400F0EC12F000C085F306DE7DDD1200BA
:102EB200030184A905D081BA01D0FDD784994DD0F0
:102EC200F00E8315016E0150F00A32E181BA01D091
:102ED200FDD71FD0847584A501D004D0996B85C31A
:102EE2009AF3E7DC24D00301847B84AB03D086C34E
:102EF2005FF303D05FC386F318DE19D00301866B3C
:102F020014DE15D0FF0E0301866F0FDE10D081DCB8
:102F12000ED003018251000ADDE08251060AE3E08D
:102F22008251040AEBE08251050AECE0F0D715D099
:102F320070DC81BA12D0030184A30ED0800E006E21
:102F4200800E60BF7F0E005C02E16051000804E366
:0C2F520060DC03018493606BECD712007C
:102F5E00030184A514D08BC390F3BA0E916F220E89
:102F6E00926F9B0E936F030E946F8CC395F38DC36C
:102F7E0096F38EC397F38FC398F3A1DD39D0030177
:102F8E0084AB14D08BC390F3060E916F230E926F09
:102F9E009B0E936F030E946F8CC395F38DC396F3B4
:102FAE008EC397F38FC398F38ADD22D0030184A9D1
:102FBE0014D08BC390F3C20E916F220E926F9B0EA4
:102FCE00936F030E946F8CC395F38DC396F38EC3DC
:102FDE0097F38FC398F373DD0BD08BC390F38CC331
:102FEE0091F38DC392F38EC393F38FC394F39ADC54
:022FFE001200BF
:103000000900F5CFE6FF0006FBE10106F9E1120039
:103010000301837381B81ED084A31BD0800E006E81
:10302000800E60BF7F0E005C02E16051000811E37A
:1030300084B90DD0000E8215006E8351F00B016E25
:1030400000C082F301C083F38489FDEC12F0849305
:0A305000606BE0D7FDEC12F01200F7
:10305A0003010C51010A07E16DBA05D0686A69805B
:10306A006988020E0C6F68A405D069A403D0FB0E10
:10307A00681673DE6DA202D05DDD77D068A018D025
:10308A0069A016D07DDE040E0C6F200E0401026FBB
:10309A00040E036F080E016F000E0015006E00C0CB
:1030AA0000F48C0E0011006E00C000F4FE0E6816CB
:1030BA0068A805D069A803D09ADDEF0E681668AC37
:1030CA0011D069AC0FD0730E0301B36F000EB46F49
:1030DA00B56BB66B010EB76F000EB86F22EC05F038
:1030EA00BF0E681668AA03D069AA01D090DD68A24B
:1030FA0010D069A20ED0FF0E0301B36F3F0EB46F5A
:10310A00B56BB66B010EB76F000EB86F22EC05F007
:10311A006A6A040E03010C5D02E20CDD26D069A680
:10312A0023D0B06B040EB05D1FE268A619D06CCF35
:10313A0040F3F70E6816780E4015016E0150000A2A
:10314A0002E183DD0CD0720EB36F000EB46F400E35
:10315A00B56F030EB66FB76BB86B22EC05F001D0F2
:0C316A0003D00301B02BDED7E5DC12001F
:103176008B80E4DC85C363F30301851D006E00C00C
:1031860064F383C365F3831D006E00C066F382C3D8
:1031960067F3821D006E00C068F34BEC12F0080E58
:1031A6000C6EC90E0D6E0D2EFED70C2EFCD7000030
:1031B600000046EC12F0050E0C6EAB0E0D6E0D2ED9
:1031C600FED70C2EFCD7000000008B6B060E8B5D25
:1031D6000DE2630EE96E030EEA6E8B51E926D8B056
:1031E600EA2AEECF90F3ACDC8B2BF0D7E3EC12F0AF
:1031F600040E0B6E0C0E0C6E330E0D6E0D2EFED7DE
:103206000C2EFCD70B2EFAD700000000D5EC14F0DC
:043216008B90120087
:10321A007AD003018051020802E17F51A308010E0E
:10322A00D8B0000E016E030E805D02E1390E7F5D9B
:10323A00010ED8B0000E006E00500116006A7EB171
:10324A00002A0150001603E0010E7D6F02D0F8EC4F
:10325A0012F067D07EB102D0028001D00290805174
:10326A00010802E17F517708010ED8B0000E016E05
:10327A00020E805D02E10D0E7F5D010ED8B0000ED8
:10328A00006E00500116006A02B0002A01500016B2
:10329A0003E0020E7D6F02D0F8EC12F042D07EA15C
:1032AA0009D08051020802E17F510D0802E2F8ECD0
:1032BA0012F022D08051050802E17F51200803E272
:1032CA00F8EC12F019D08051040802E17F518A0803
:1032DA0006E27A377A917A8141EC15F00DD0805165
:1032EA00010802E17F51770805E27A377A9141ECC9
:1032FA0015F002D0F8EC12F014D01EDC74EC14F0C5
:10330A00D5EC14F00ED003017D51000A82E07D5104
:10331A00010AA0E07D51020AC2E07D51030AEDE0F4
:04332A00F1D71200C5
:10332E000EEC1CF070DD84B706D084B602D0D890B7
:10333E0007D0D88005D084B602D0D88001D0D890DE
:10334E000CE384A603D0F3EC09F002D067EC0AF08C
:10335E0084B602D0849701D0848784AF02D056DF22
:10336E00849F8BA00BD0010E615F000E625B000E7E
:10337E00621902E1000E6119D8B48B90F70E811418
:10338E00006EF70E001A005248E0BFEC04F0C30EB8
:10339E000C6ECD0E0D6E0D2EFED70C2EFCD7030E21
:1033AE00606FB26AB36AB18081B004D0DDDE81B0E5
:1033BE0001D0FDD781B204D0837181B201D0FDD787
:1033CE0081B404D0837581B401D0FDD781B801D00A
:1033DE0018DE81BA01D066DD81BC0CD0010E03016E
:1033EE008B6FA60E8C6F220E8D6F000E8E6F000EE1
:1033FE008F6FAEDD81BE0CD0FF0E03018B6F0E0EF4
:10340E008C6F230E8D6F000E8E6F000E8F6FA0DDF2
:0E341E00B19003018493FDEC12F085D7FFD727
:10381C0010EE29F0E30E006E030E016E2C0EF66E08
:0E382C00340EF76E000EF86E00EC18F012006D
:02342C00580046
:02342E00590043
:02343000560044
:02343200570041
:02343400400056
:02343600230071
:023438005A0038
:02343A0021006F
:02343C00550039
:02343E004F003D
:0234400050003A
:023442004D003B
:023444004E0038
:02344600530031
:0234480054002E
:02344A0051002F
:02344C0052002C
:02344E007C0000
:023450003A0040
:023452007B00FD
:023454007D00F9
:023456003C0038
:023458003E0034
:02345A0022004E
:06345C0054696C64650078
:023462002B003D
:023464005E0008
:0234660026003E
:0234680024003E
:02346A0025003B
:02346C00290035
:02346E005F00FD
:023470002A0030
:02347200280030
:08347400526566726573680081
:01347C00004F
:05347D004E65787400AB
:0534820053746F70009F
:0D34870052657365742053776974636800A3
:09349400496E6974205553420091
:0C349D0053657420416464726573730011
:0D34A900506F776572205377697463680077
:0534B600507265760074
:0534BB00566F6C2D00AE
:0D34C0004D6564696120506C617965720092
:0534CD004D757465005F
:0534D200566F6C2B0099
:0734D7005365617263680098
:0534DE00486F6D650060
:0634E300456D61696C00FB
:0B34E90043616C63756C61746F7200CE
:0234F40047008F
:0234F60048008C
:0234F80045008D
:0234FA0046008A
:0234FC004B0083
:0234FE004C0080
:02350000490080
:023502004A007D
:02350400440081
:0C3506004C696768742044656C617900B2
:0135120000B8
:0A3513004C69676874204F6666007B
:09351D004C69676874204F6E00D0
:02352600420061
:0235280043005E
:01352A0000A0
:02352B0041005D
:02352D003F005D
:10352F005E5E2053656C656374205573616765003B
:0B353F003C2D20416464726573730032
:0E354A0049524B212046756E6374696F6E0006
:033558004F6E00B3
:06355B002073656373009C
:043561003C2D2000DD
:043565004F66660047
:0D35690055534220526561647920202000F6
:013576000054
:0D357700456E61626C696E6720555342001D
:0535840043544C20003F
:05358900414C5420003C
:09358E004B6579626F6172640003
:0735970053797374656D00A8
:0D359E00436F6E73756D6572204465760095
:0635AB005348494654009C
:0935B1004B6579626F61726400E0
:0B35BA0049524B212076322E303500A4
:0535C5003E2F7C7C009C
:0235CA007A0085
:0235CC00790084
:0235CE00780083
:0235D0003300C6
:0235D2003200C5
:0235D4003100C4
:0235D60074007F
:0235D80073007E
:0235DA0072007D
:0235DC00770076
:0235DE00760075
:0235E000750074
:0435E20045736300CA
:0635E600456E74657200E1
:0235EC003000AD
:0935EE00537061636562617200B3
:0435F70054616200B9
:0A35FB004261636B73706163650049
:0236050036008D
:0236070035008C
:0236090034008B
:02360B00390084
:02360D00380083
:02360F00370082
:02361100620055
:02361300610054
:0D3615005553422044697361626C65640086
:02362200650041
:02362400640040
:0236260063003F
:023628006E0032
:02362A006D0031
:02362C006C0030
:02362E00710029
:02363000700028
:023632006F0027
:0236340068002C
:0236360067002B
:0236380066002A
:02363A006B0023
:02363C006A0022
:02363E00690021
:05364000486F6D6500FC
:07364500496E736572740009
:01364C00007D
:07364D0044656C6574650023
:0836540050616765205570000C
:05365C0057616B6500E1
:0D3661005072696E742053637265656E00CF
:04366E003E3E7C0060
:043672007C3C3C0060
:0536760053746F7000A9
:06367B005061757365004B
:0C3681005363726F6C6C204C6F636B0025
:09368D004E756D204C6F636B005B
:013696000033
:05369700446F776E0096
:05369C004C656674009E
:0336A10055700061
:0636A400536C6565700027
:0A36AA005061676520446F776E00E1
:0436B400456E6400FB
:0636B8005269676874000E
:0A36BE00506F776572206F6666009A
:0236C8002E00D2
:0236CA002C00D2
:0236CC0060009C
:0236CE002D00CD
:0A36D00043617073204C6F636B00C0
:0236DA002F00BF
:0236DC005D008F
:0236DE005B008F
:0236E0003D00AB
:0236E2002700BF
:0236E4003B00A9
:0236E600A4003E
:0336E80046310068
:0336EB004639005D
:0336EE004638005B
:0436F100463130002E
:0436F5004631320028
:0436F9004631310025
:0336FD004637004D
:033700004634004C
:033703004633004A
:0337060046320048
:0337090046350042
:03370C004636003E
:10370F0005010906A101854B050719E029E71500F9
:10371F0025017501950881027508950181039501B1
:10372F0026FF0019002AFF00810075019503050887
:10373F001901290325019102750595019103C00512
:10374F00010980A101855319002AFF00150026FFEA
:10375F0000750895018100C0050C0901A101854381
:10376F0019002A3C021500263C02751095018100B4
:01377F00C089
:103780004003490052004B00210020005200650018
:103790006D006F0074006500200043006F006E0034
:1037A000740072006F006C006C0065006400200003
:1037B0004B006500790062006F00610072006400D8
:0237C000000007
:1037C20009022900010101803209040000020300FC
:1037D200000209210101000122710007058103088D
:0937E200000A0705010308000CB0
:1037EB00120110010000000849524B210300010295
:0237FB000001CB
:1037FD00303132333435363738394142434445461A
:01380D0000BA
:0A380E000A03490052004B0021009C
:043818000403090498
:020000040030CA
:0E000000310E2E1EFF0081FF0FC00FE00F40DB
:00000001FF
