:04000000CFEF1BF033
:1000080000C01EF001C01DF002C01CF003C01BF0B0
:1000180004C01AF005C019F008C018F009C017F09C
:100028000AC016F00BC015F0E1CF27F0E2CF28F098
:10003800E9CF25F0EACF26F0F3CF23F0F4CF24F070
:10004800F5CF22F0F8CF1FF0F7CF20F0F6CF21F050
:10005800B5EC1AF0A1A00DD0BCCF18F3BBCF17F3A5
:10006800BACF15F3BA70CF6ACE6A0201ED8FA190AC
:1000780023D0A1A209D00201ED8303015805006E27
:1000880000C058F3A19218D0F2A416D00201EE05D0
:10009800006E00C0EEF2000EEEBFFF0E006E000E06
:1000A800001802E1000EEE1902E18B82D59EA40E23
:1000B800D76E720ED66EF29422C0F5FF1FC0F8FFFD
:1000C80020C0F7FF21C0F6FF23C0F3FF24C0F4FFD0
:1000D8001EC000F01DC001F01CC002F01BC003F0E0
:1000E8001AC004F019C005F018C008F017C009F0CC
:1000F80016C00AF015C00BF025C0E9FF26C0EAFFBC
:0A01080027C0E1FF28C0E2FF11004C
:100112002B0E0C6EDA0E0D6E0D2EFED70C2EFCD7AA
:0401220000001200C7
:0E012600630E0D6E0D2EFED7000000001200BD
:0E0134000000000000000000000000001200AB
:10014200000E056E040E066E9DC303F0000E046ED3
:100152000336043603900336043603909EC300F040
:10016200000E016E00360136009000500326015049
:10017200042203C001F004C002F0013601900236ED
:1001820001360190023601C003F002C004F00432CD
:100192000332049E04BC048E04320332049E04BC67
:1001A200048E03C000F004C001F000360090013656
:1001B200003600900136055000260650012200C08C
:1001C20005F001C006F000C0E1FF01C0E2FFE69EBB
:1001D20003019E51000A12E19DC300F0000E016E60
:1001E200003600900136310E0024E16E030E01202C
:1001F200E26E05C0E6FF06C0E6FF11D09DC300F027
:10020200000E016E003600900136FE0E0024E16EF3
:10021200020E0120E26E05C0E6FF06C0E6FF05C041
:10022200E1FF06C0E2FFE69C040E0524E16E000E2B
:080232000620E26EE68C1200CA
:0E023A00800E03019D11006E00C006F312003D
:100248009DC303F39EC304F39FC305F3A0C307F341
:10025800A1C308F3800E0301A211006E00C006F3CB
:02026800120082
:10026A009DC303F39EC304F39FC307F3A0C308F31C
:10027A00800E0301A111006E008000C006F3120077
:10028A00210E0301126F3C0E136F000E146F770ECE
:10029A000201F46F3C0EF56F000EF66F6D0EF76FEC
:1002AA003C0EF86F000EF96FDF0EFA6F3B0EFB6F14
:0602BA00000EFC6F1200B3
:1002C00003018ABF02D0809601D080868ABD02D009
:1002D000809401D080848ABB02D0809201D0808239
:1002E0008AB902D0809001D080800201FDB102D095
:1002F000808801D08098808A1DDF809A03018AB7A8
:1003000002D0809601D080868AB502D0809401D038
:1003100080848AB302D0809201D080828AB102D0D8
:10032000809001D080800201FDB102D0808801D090
:100330008098808AFFDE809AFDA102D0EADE01D09B
:04034000F2DE1200D7
:10034400000E03018B1902E1000E8A1902E1016A11
:1003540009D08AC3E9FF8BC3EAFFEECF00F0016A3C
:0A03640000BE012A01C000F01200E3
:10036E0003018B51000A12E08AC300F0000E016EE9
:10037E00003600900136FE0E0024E96E020E0120BA
:10038E00EA6EEECF04F0EECF05F011D08AC300F086
:10039E00000E016E003600900136310E0024E96E1B
:1003AE00030E0120EA6EEECF04F0EECF05F0020E42
:1003BE000424E16E000E0520E26E8CC3E6FF8DC3B1
:1003CE00E6FF010E0424E16E000E0520E26E8EC3E0
:1003DE00E6FF04C0E9FF05C0EAFFEECF00F004C05F
:1003EE00E1FF05C0E2FF400E0014E66E04C0E9FF17
:1003FE0005C0EAFFEECF00F004C0E1FF05C0E2FF4A
:10040E00880E0010E66E8B51000A1BE08AC300F0C6
:10041E00000E016E003600900136FE0E0024026EB4
:10042E00020E0120036E02C0E9FF03C0EAFF040EB4
:10043E00EE18006E02C0E1FF03C0E2FF00C0E6FF4F
:10044E001AD08AC300F0000E016E003600900136FD
:10045E00310E0024026E030E0120036E02C0E9FF6E
:10046E0003C0EAFF040EEE18006E02C0E1FF03C0E7
:10047E00E2FF00C0E6FF04C000F005C001F012006C
:0A048E00D08EA28AA08AF28E12001E
:0E049800160E6F6E9F0E6B6E7B0E696E12005D
:1004A6008AC302F08BC303F08DC300F08EC301F044
:1004B600010E03018D5F000E8E5B0050011009E0F6
:1004C60002C0E1FF03C0E2FF8CC3E6FF024A032A33
:0404D600EBD712004E
:1004DA0020C401F01F0E01160150010A01E08BD061
:1004EA0004012451000A01E086D02151060A38E1AC
:1004FA002DD003010251010A12E1210E9D6F3C0E1B
:10050A009E6F000E9F6F120E9D27000E9E239F2343
:10051A00090EA06F000EA16F400EA26F90DE20D0D0
:10052A0003010251010A0DE16E0E9D6F3B0E9E6F93
:10053A00000E9F6F710EA06F000EA16F400EA26F8A
:10054A007EDE0ED003019D6B73DE0AD004012351B7
:10055A00210ACFE02351220AE3E02351230AF2E0E1
:10056A0020C401F0600E0116050E006E005004E072
:10057A000132019EFF0FFBD70150010A01E03BD077
:10058A0027D039D038D02B0E03019D6F030E9E6FF2
:10059A00010E9F6F000EA06F400EA16F61DE2BD07F
:1005AA0003019D6B45DE23C42BF325D003012C0EDA
:1005BA009D6F030E9E6F010E9F6F000EA06FA16BC1
:1005CA004FDE19D003019D6B33DE22C42CF313D006
:1005DA0004012151010AD5E02151090AD3E0215130
:1005EA00020AD1E021510A0ADBE02151030ADEE0C6
:0805FA0021510B0AE7E0120099
:1006020003019951000A12E098C300F0000E016E36
:10061200003600900136FE0E0024E96E020E012023
:10062200EA6EEECF04F0EECF05F011D098C300F0E1
:10063200000E016E003600900136310E0024E96E84
:10064200030E0120EA6EEECF04F0EECF05F0020EAB
:100652000424E16E000E0520E26E9AC3E6FF9BC3FE
:10066200E6FF010E0424E16E000E0520E26E9CC33B
:10067200E6FF04C0E9FF05C0EAFFEECF00F004C0C8
:10068200E1FF05C0E2FF400E0014E66E04C0E9FF80
:1006920005C0EAFFEECF00F004C0E1FF05C0E2FFB3
:1006A200880E0010E66E9951000A1BE098C300F014
:1006B200000E016E003600900136FE0E0024026E1E
:1006C200020E0120036E02C0E9FF03C0EAFF040E1E
:1006D200EE18006E02C0E1FF03C0E2FF00C0E6FFB9
:1006E2001AD098C300F0000E016E00360090013659
:1006F200310E0024026E030E0120036E02C0E9FFD8
:1007020003C0EAFF040EEE18006E02C0E1FF03C050
:10071200E2FF00C0E6FF04C000F005C001F01200D5
:10072200700EE16E0F0EE26E03019851E126D8B011
:10073200E22A99C3E6FF99A504D098C39DF39E6B64
:10074200FFDC99A305D098C39DF3010E9E6FF8DCE0
:02075200120093
:10075400F0D0CD0E006E000E016EA9D1BE0E006E5B
:10076400000E016EA4D1B20E006E000E016E9FD178
:10077400B40E006E000E016E9AD1AE0E006E000E25
:10078400016E95D1B00E006E000E016E90D1BA0EBE
:10079400006E000E016E8BD1BC0E006E000E016E59
:1007A40086D1B60E006E000E016E81D1B80E006EB9
:1007B400000E016E7CD13F0E006E000E016E77D1EB
:1007C400410E006E000E016E72D13B0E006E000EE3
:1007D400016E6DD13D0E006E000E016E68D1470EA4
:1007E400006E000E016E63D1490E006E000E016EA4
:1007F4005ED1430E006E000E016E59D1450E006E9F
:10080400000E016E54D1390E006E000E016E4FD1F0
:100814002D0E006E000E016E4AD12F0E006E000EDA
:10082400016E45D1290E006E000E016E40D12B0ED3
:10083400006E000E016E3BD1350E006E000E016E8F
:1008440036D1370E006E000E016E31D1310E006EBE
:10085400000E016E2CD1330E006E000E016E27D1F6
:10086400610E006E000E016E22D1630E006E000E4A
:10087400016E1DD15D0E006E000E016E18D15F0E6B
:10088400006E000E016E13D1690E006E000E016E33
:100894000ED16B0E006E000E016E09D1650E006E56
:1008A400000E016E04D1670E006E000E016EFFD0C3
:1008B4005B0E006E000E016EFAD04F0E006E000E3D
:1008C400016EF5D0510E006E000E016EF0D04B0E8D
:1008D400006E000E016EEBD04D0E006E000E016E28
:1008E400E6D0570E006E000E016EE1D0590E006E78
:1008F400000E016EDCD0530E006E000E016ED7D0D8
:10090400550E006E000E016ED2D0350E006E010E33
:10091400016ECDD0370E006E010E016EC8D0320EBE
:10092400006E010E016EC3D0340E006E010E016E16
:10093400BED003016C51040AD8B40BD76C51050A1C
:10094400D8B40CD76C51060AD8B40DD76C51070A29
:10095400D8B40ED76C51080AD8B40FD76C51090A11
:10096400D8B410D76C510A0AD8B411D76C510B0AF9
:10097400D8B412D76C510C0AD8B413D76C510D0AE1
:10098400D8B414D76C510E0AD8B415D76C510F0AC9
:10099400D8B416D76C51100AD8B417D76C51110AB1
:1009A400D8B418D76C51120AD8B419D76C51130A99
:1009B400D8B41AD76C51140AD8B41BD76C51150A81
:1009C400D8B41CD76C51160AD8B41DD76C51170A69
:1009D400D8B41ED76C51180AD8B41FD76C51190A51
:1009E400D8B420D76C511A0AD8B421D76C511B0A39
:1009F400D8B422D76C511C0AD8B423D76C511D0A21
:100A0400D8B424D76C511E0AD8B425D76C511F0A08
:100A1400D8B426D76C51200AD8B427D76C51210AF0
:100A2400D8B428D76C51220AD8B429D76C51230AD8
:100A3400D8B42AD76C51240AD8B42BD76C51250AC0
:100A4400D8B42CD76C51260AD8B42DD76C51270AA8
:100A5400D8B42ED76C512D0AD8B42FD76C512E0A86
:100A6400D8B430D76C512F0AD8B431D76C51300A6E
:100A7400D8B432D76C51310AD8B433D76C51330A55
:100A8400D8B434D76C51340AD8B435D76C51350A3C
:100A9400D8B436D76C51360AD8B437D76C51370A24
:100AA400D8B438D76C51380AD8B439D73DD71200E6
:100AB400086A080E0C6E003408360450085ED8B07C
:0E0AC40002D00826D89000360C2EF5D712006E
:100AD20045EC01F0F06BF16BF26BF36B6A6A686ADA
:100AE200DADC6D8C6E6A710E03018A6F0F0E8B6FEA
:100AF2008C6B010E8D6F000E8E6FD4DC6D9C866B3D
:100B0200080E865D16E286C300F0000E016E003606
:100B120000900136003600900136000E0024E16E8E
:100B2200040E0120E26EE66AE66AE66AE66A862B4F
:100B3200E7D7160E706E68A603D0F70E6816FBD7BD
:100B4200066B0B6B0C6B0D6B6D98080E0201FE6F42
:0C0B5200040EFF6F0301026B296B120000
:100B5E0090D1940E006E010E016EC9D2620E006E1F
:100B6E00010E016EC4D2600E006E010E016EBFD278
:100B7E005E0E006E010E016EBAD2640E006E010E94
:100B8E00016EB5D26A0E006E010E016EB0D2680E05
:100B9E00006E010E016EABD2660E006E010E016E7E
:100BAE00A6D2AA0E006E010E016EA1D2A80E006E84
:100BBE00010E016E9CD2A60E006E010E016E97D232
:100BCE00AC0E006E010E016E92D2B20E006E010ED0
:100BDE00016E8DD2B00E006E010E016E88D2AE0E79
:100BEE00006E010E016E83D29C0E006E010E016E20
:100BFE007ED29A0E006E010E016E79D2980E006EA4
:100C0E00010E016E74D29E0E006E010E016E6FD239
:100C1E00A40E006E010E016E6AD2A20E006E010EBF
:100C2E00016E65D2A00E006E010E016E60D2C60E70
:100C3E00006E020E016E5BD2C80E006E020E016EC9
:100C4E0056D2C20E006E020E016E51D2C40E006E4E
:100C5E00020E016E4CD2CE0E006E020E016E47D207
:100C6E00D00E006E020E016E42D2CA0E006E020E41
:100C7E00016E3DD2CC0E006E020E016E38D2B00E59
:100C8E00006E020E016E33D2B20E006E020E016EB7
:100C9E002ED2AC0E006E020E016E29D2AE0E006E7A
:100CAE00020E016E24D2BE0E006E020E016E1FD217
:100CBE00C00E006E020E016E1AD2B40E006E020E3F
:100CCE00016E15D2BA0E006E020E016E10D2D20E49
:100CDE00006E020E016E0BD2E70E006E020E016E5A
:100CEE0006D2DE0E006E020E016E01D2DC0E006E1A
:100CFE00020E016EFCD1EB0E006E020E016EF7D1EC
:100D0E00790E006E020E016EF2D1770E006E020E9B
:100D1E00016EEDD17B0E006E020E016EE8D17F0EDC
:100D2E00006E020E016EE3D17D0E006E020E016E9C
:100D3E00DED1750E006E020E016ED9D1670E006EF9
:100D4E00020E016ED4D1650E006E020E016ECFD171
:100D5E00690E006E020E016ECAD16E0E006E020E8C
:100D6E00016EC5D16B0E006E020E016EC0D1810EEA
:100D7E00006E020E016EBBD1A00E006E020E016E51
:100D8E00B6D19D0E006E020E016EB1D1A30E006E95
:100D9E00020E016EACD1A90E006E020E016EA7D12D
:100DAE00A60E006E020E016EA2D19A0E006E020EFB
:100DBE00016E9DD1880E006E020E016E98D1840ECA
:100DCE00006E020E016E93D18B0E006E020E016E3E
:100DDE008ED1960E006E020E016E89D18F0E006EB0
:100DEE00020E016E84D1930E006E000E016E7FD145
:100DFE009A0E006E000E016E7AD18A0E006E000EF3
:100E0E00016E75D18E0E006E000E016E70D1A50EA4
:100E1E00006E000E016E6BD1AA0E006E000E016EFA
:100E2E0066D19C0E006E000E016E61D1A00E006E9A
:100E3E00000E016E5CD1880E006E000E016E57D151
:100E4E00760E006E000E016E52D1780E006E000E00
:100E5E00016E4DD16D0E006E000E016E48D16F0EFB
:100E6E00006E000E016E43D17A0E006E000E016E02
:100E7E003ED103016C51040AD8B46BD66C51050AED
:100E8E00D8B46CD66C51060AD8B46DD66C51070A1C
:100E9E00D8B46ED66C51080AD8B46FD66C51090A04
:100EAE00D8B470D66C510A0AD8B471D66C510B0AEC
:100EBE00D8B472D66C510C0AD8B473D66C510D0AD4
:100ECE00D8B474D66C510E0AD8B475D66C510F0ABC
:100EDE00D8B476D66C51100AD8B477D66C51110AA4
:100EEE00D8B478D66C51120AD8B479D66C51130A8C
:100EFE00D8B47AD66C51140AD8B47BD66C51150A74
:100F0E00D8B47CD66C51160AD8B47DD66C51170A5B
:100F1E00D8B47ED66C51180AD8B47FD66C51190A43
:100F2E00D8B480D66C511A0AD8B481D66C511B0A2B
:100F3E00D8B482D66C511C0AD8B483D66C511D0A13
:100F4E00D8B484D66C511E0AD8B485D66C511F0AFB
:100F5E00D8B486D66C51200AD8B487D66C51210AE3
:100F6E00D8B488D66C51220AD8B489D66C51230ACB
:100F7E00D8B48AD66C51240AD8B48BD66C51250AB3
:100F8E00D8B48CD66C51260AD8B48DD66C51270A9B
:100F9E00D8B48ED66C51280AD8B48FD66C51290A83
:100FAE00D8B490D66C512A0AD8B491D66C512B0A6B
:100FBE00D8B492D66C512C0AD8B493D66C512D0A53
:100FCE00D8B494D66C512E0AD8B495D66C512F0A3B
:100FDE00D8B496D66C51300AD8B497D66C51310A23
:100FEE00D8B498D66C51330AD8B499D66C51340A09
:100FFE00D8B49AD66C51350AD8B49BD66C51360AF1
:10100E00D8B49CD66C51370AD8B49DD66C51380AD8
:10101E00D8B49ED66C51390AD8B49FD66C513A0AC0
:10102E00D8B4A0D66C513B0AD8B4A1D66C513C0AA8
:10103E00D8B4A2D66C513D0AD8B4A3D66C513E0A90
:10104E00D8B4A4D66C513F0AD8B4A5D66C51400A78
:10105E00D8B4A6D66C51410AD8B4A7D66C51420A60
:10106E00D8B4A8D66C51430AD8B4A9D66C51440A48
:10107E00D8B4AAD66C51450AD8B4ABD66C51460A30
:10108E00D8B4ACD66C51470AD8B4ADD66C51480A18
:10109E00D8B4AED66C51490AD8B4AFD66C514A0A00
:1010AE00D8B4B0D66C514B0AD8B4B1D66C514C0AE8
:1010BE00D8B4B2D66C514D0AD8B4B3D66C514E0AD0
:1010CE00D8B4B4D66C514F0AD8B4B5D66C51500AB8
:1010DE00D8B4B6D66C51510AD8B4B7D66C51520AA0
:1010EE00D8B4B8D66C51530AD8B4B9D6BDD61200FE
:0A10FE006D6A696A0301296B120094
:10110800200E0301295D03E36DB201D002D0006A0D
:1011180037D0F2C28AF3F3C28BF3A2EC01F000528B
:101128002EE189C38AF3010E8B6F86C38CF387C3C4
:101138008DF388C38EF3B7EC01F000C0F2F201C062
:10114800F3F22D6B2E6B2F6B306BF2C28AF3F3C266
:101158008BF3A2EC01F0005208E02D512E112F1153
:10116800301102E0006A0CD0F0D7010E0201F2251E
:10117800E96E000EF321EA6EEECF00F001D0006AAE
:02118800120053
:0C118A0003012A5302E06DEC02F0120099
:1011960003012A5316E0010E986F1E0E996F91EC0B
:1011A60003F0010E986F996B25C39AF326C39BF340
:1011B600400E9C6F01EC03F000C0F0F201C0F1F2AA
:1011C60015D0010E986F1E0E996F91EC03F0010E6B
:1011D600986F996B25C39AF326C39BF3400E9C6FB9
:0E11E60001EC03F000C0F0F201C0F1F21200C3
:1011F40003012951000A0CE16D6A696A4CEC02F0A2
:1012040047EC02F06DB602D06D86FCD7010E296F53
:021214001200C6
:101216000201FD9186C38AF360EC01F0FD811200A4
:1012260080C304F081C305F004C002F005C003F0DA
:10123600044A052A82C300F083C301F00301824BEE
:10124600832B00C0E9FF01C0EAFF02C0E1FF03C033
:10125600E2FFEECFE6FF02C0E9FF03C0EAFFEE526F
:0E12660001E0E2D780C300F081C301F0120066
:1012740080C304F081C305F004C0E9FF05C0EAFFA0
:10128400EE5203E0044A052AF7D704C002F005C071
:1012940003F0044A052A82C300F083C301F003016A
:1012A400824B832B00C0E9FF01C0EAFF02C0E1FFCB
:1012B40003C0E2FFEECFE6FF02C0E9FF03C0EAFF8E
:1012C400EE5201E0E2D780C300F081C301F01200C6
:1012D4000301836B030E835D0AE283518125E16E72
:1012E400000E8221E26E200EE66E832BF3D783512B
:1012F4008125E16E000E8221E26EE66A8307835146
:101304008125846F000E8221856F0A0E046E80C3CE
:1013140000F05AEC05F008C000F0300E002684C33B
:10132400E1FF85C3E2FF00C0E6FF0A0E046E80C33E
:1013340000F05AEC05F000C080F30050000A01E10F
:0813440002D08307DCD7120080
:10134C00F00E03018015026E02C000F00032009E08
:10135C000032009E0032009E0032009E5C0E002483
:10136C00F66E3C0EF76E000EF722000EF86E000EB5
:10137C00F8220900F5CF00F081C3E1FF82C3E2FF40
:10138C0000C0E6FF814B822B0F0E8015006E5C0EA9
:10139C000024F66E3C0EF76E000EF722000EF86E6F
:1013AC00000EF8220900F5CF00F081C3E1FF82C3E3
:0813BC00E2FF00C0E6FF120091
:1013C40010D0800E0301806F1AD0C00E806F17D02A
:1013D400940E806F14D0D40E806F11D0800E806F65
:1013E4000ED003018051010AECE08051020AEDE0C5
:1013F4008051030AEDE08051040AEDE0EFD7810546
:10140400006E8051002600C080F300C08AF360ECB7
:1014140001F0FD910301846B84518225E96E000E75
:101424008321EA6EEE520CE084518225E96E000EAF
:101434008321EA6EEECF86F3ECDE0301842BECD736
:061444000201FD8112000F
:10144A0080C386F381C387F382C388F3010E030145
:06145A00896F55DE12004F
:10146000010E03012A6F80C325F381C326F382C3D3
:1014700027F383C328F369EC05F0010E016E0150D8
:08148000010A01E1B7DE1200D0
:1014880080C304F081C305F004C0E9FF05C0EAFF8A
:10149800EE5203E0044A052AF7D703018451851167
:1014A80021E004C002F005C003F0044A052A82C303
:1014B80000F083C301F0824B832B00C0E9FF01C019
:1014C800EAFF02C0E1FF03C0E2FFEECFE6FF02C081
:1014D800E9FF03C0EAFFEE5205E0010E845F000E4B
:1014E800855BDBD7000E851902E1000E841905E142
:1014F80004C0E1FF05C0E2FFE66A80C300F081C3D3
:0415080001F01200DC
:10150C0092C302F093C303F095C300F096C301F0AD
:10151C00010E0301955F000E965B0050011009E06F
:10152C0002C0E1FF03C0E2FF94C3E6FF024A032AB4
:04153C00EBD71200D7
:101540000CD029DE3CD03BD020DE39D038D037D08B
:1015500036D035D0000033D032D0000E03019319BD
:1015600002E1010E9219EDE0000E931902E1020E64
:101570009219E9E0000E931902E1030E9219E4E0DA
:101580009351000A02E1730E9219E0E09351000AB0
:1015900002E1750E9219DBE09351000A02E1740E2C
:1015A0009219D6E093513F0A02E1FF0E9219D1E061
:1015B0009351000A02E1720E9219CCE0CDD7010ED0
:0415C000006E1200A7
:1015C4000201EF51000A01E10ED0EF51FF0A01E1DF
:1015D4000AD08B92EFC2EEF2A40ED76E720ED66EC4
:0815E400F294F28AD58E120088
:0415EC0088DD120084
:1015F0006CC380F36DC381F3F00E03016D15826F30
:1016000058D1AFEC05F000C06AF301C06BF30301E1
:101610006DA316D0AAEC03F000C068F301C069F313
:1016200000C0E9FF01C0EAFFEE5205E068C300F028
:1016300069C301F04ED16AC300F06BC301F049D118
:101640006AC300F06BC301F044D114D0DE0E006E0B
:10165000010E016E3ED1EE0E006E010E016E39D10B
:10166000E90E006E010E016E34D1E80E006E010E1F
:10167000016E2FD103018151100A02E1810E801900
:10168000E5E08151100A02E1820E8019E4E0815107
:10169000100A02E1830E8019E3E0E7D755D0C70EA8
:1016A000006E010E016E15D1C30E006E010E016EAB
:1016B00010D1BE0E006E010E016E0BD1CB0E006E6E
:1016C000010E016E06D1D90E006E010E016E01D120
:1016D000D40E006E010E016EFCD0CF0E006E010E16
:1016E000016EF7D0420E006E020E016EF2D03C0E7B
:1016F000006E020E016EEDD0310E006E020E016E14
:10170000E8D04F0E006E020E016EE3D0600E006E48
:10171000020E016EDED05B0E006E020E016ED9D09D
:10172000560E006E020E016ED4D0FD0E006E010E3C
:10173000016ECFD0F50E006E010E016ECAD0F40E10
:10174000006E010E016EC5D08151200A02E1B50E76
:101750008019A5E08151200A02E1B60E8019A4E0AB
:101760008151200A02E1B70E8019A3E08151200ABD
:1017700002E1CD0E8019A2E08151200A02E1E20EC1
:101780008019A1E08151200A02E1E90E8019A0E050
:101790008151200A02E1EA0E80199FE08151210A5D
:1017A00002E1830E80199EE08151210A02E18A0E36
:1017B00080199DE08151210A02E1920E80199CE07E
:1017C0008151220A02E1210E80199BE08151220AF7
:1017D00002E1230E80199AE08151220A02E1240ECF
:1017E000801999E08151220A02E1250E801998E0C2
:1017F0008151220A02E1260E801997E08151220AC6
:1018000002E1270E801996E09AD732D0020E006EC0
:10181000020E016E5ED0240E006E020E016E59D0D3
:10182000170E006E020E016E54D00E0E006E020EE8
:10183000016E4FD0B40E006E010E016E4AD0820EC2
:10184000006E010E016E45D0760E006E010E016E27
:1018500040D06C0E006E010E016E3BD08B0E006E00
:10186000010E016E36D0970E006E010E016E31D062
:101870006C51000ACBE06C51010ACDE06C51020AB8
:10188000CFE06C51030AD1E06C51040AD3E06C51F3
:10189000050AD5E06C51060AD7E06C51080AD9E078
:1018A0006C51070ADBE0DFD7960E006E010E016E69
:1018B00010D08251000AD8B4A4D68251100AD8B4EC
:1018C000C4D68251200AD8B4E9D68251F00A9DE0EC
:0418D000EBD7120040
:1018D4000B6A0A6A096A00500402F4CF09F0F3CFD4
:1018E40008F001500502F4CF0BF0F3CF0AF00050DA
:1018F4000502F3500926F4500A22E86A0B2201502B
:101904000402F3500926F4500A22E86A0B2208C0A4
:1019140000F009C001F00AC002F00BC003F012008D
:101924000301068F710E926F0F0E936F946B010E6D
:10193400956F000E966FE8DD1F0E926F030E936F86
:10194400946B010E956F000E966FDEDD22C402F3D8
:101954000251000A03E1100E296F0FD0200E296FE7
:10196400010E926F000E936F020E946F030E956F2B
:0C197400010E966F000E976FE1DD12006F
:1019800004012251010A13E120C401F01F0E0116C7
:101990000150000A0CE10301068F04012151030AE2
:1019A00004E1010E0301206F02D00301206B04014A
:1019B0002251000AD8A48DD020C401F01F0E0116B8
:1019C0000150020AD8A485D024C401F00F0E0116DC
:1019D0000150000AD8B47DD00301068F040124BF52
:1019E00016D024C403F00F0E031603C000F0000E3F
:1019F000016E003600900136310E0024E96E030EB0
:101A00000120EA6EEECF04F0EECF05F015D024C42D
:101A100003F00F0E031603C000F0000E016E003637
:101A200000900136FE0E0024E96E020E0120EA6EDF
:101A3000EECF04F0EECF05F02151030A07E104C018
:101A4000E1FF05C0E2FF840EE66E43D024C400F03F
:101A50000F0E0016700E026E0F0E036E005002265F
:101A6000D8B0032A02C0E9FF03C0EAFFFE0EEE145D
:101A7000006EEECF01F0FF0E011602C0E1FF03C0C1
:101A8000E2FF00C0E6FF01C0E6FF24AF11D004C0B2
:101A9000E1FF05C0E2FFE66A040E0418006E00C014
:101AA00004F004C0E1FF05C0E2FF400EE66E11D075
:101AB00004C0E1FF05C0E2FF880EE66E040E0418C4
:101AC000006E00C004F004C0E1FF05C0E2FFC80ED4
:041AD000E66E1200AC
:101AD40004012051800AD8A479D0C00E0301066FF6
:101AE4006AD003014A0E006E3C0E016E000E026EB7
:101AF40000C003F301C004F302C005F3120E076F24
:101B0400000E086F63D00301030E006E000E016E19
:101B140022C404F0000E056EDBDE120E0024E96E12
:101B2400030E0120EA6EEECF03F3EECF04F3EECF03
:101B340005F3020E0325F66E000E0421F76E000E67
:101B44000521F86E0900F5CF00F00900F5CF01F08A
:101B540000C007F301C008F339D0030E0401225D6D
:101B640024E2030E006E000E016E22C404F0000E87
:101B7400056EAEDEF40E0024E96E020E0120EA6E5C
:101B8400EECF03F3EECF04F3EECF05F303C3F6FF7A
:101B940004C3F7FF05C3F8FF0900F5CF00F000C048
:101BA40007F3000E0301086F02D00301066B0ED089
:101BB4000301066B0BD004012351010A92E0235167
:0E1BC400020AA1E02351030AC8E0F2D7120082
:101BD200000E0301085D02E1080E075D10E207C373
:101BE20003F008C304F01A51000A03E1010E1A6F50
:101BF20005D01A51010A02E1020E1A6F04D0080E32
:101C0200036E000E046EFEC2E1FFFFC2E2FFE69227
:101C1200FEC2E1FFFFC2E2FFE690FEC2E9FFFFC2A1
:101C2200EAFFEECF00F0FEC2E1FFFFC2E2FF045086
:101C32000010E66E010E0201FE25E16E000EFF218C
:101C4200E26E03C0E6FF03500301075D006E04501D
:101C52000859016E00C007F301C008F3280E216F76
:101C6200040E226F06B12FD0035004102BE003C3E1
:101C7200F6FF04C3F7FF05C3F8FF0900F5CF00F034
:101C820021C3E1FF22C3E2FF00C0E6FF214B222B6A
:101C9200010E0325006E000E0421016E000E0521C7
:101CA200026E00C003F301C004F302C005F3010E8B
:101CB200035C006E000E0458016E00C003F001C008
:101CC20004F0D2D724D00350041021E003C3E9FF6B
:101CD20004C3EAFF21C3E1FF22C3E2FFEECFE6FF26
:101CE200214B222B010E0325006E000E0421016EF2
:101CF20000C003F301C004F3010E035C006E000E8A
:101D02000458016E00C003F001C004F0DCD71200D9
:101D12000401286B296B4AD00301068F0401288134
:101D220003012051010A02E10401288354D0030176
:101D3200068F51D00301068F040124BF16D024C49C
:101D420003F00F0E031603C000F0000E016E003602
:101D520000900136310E0024E96E030E0120EA6E76
:101D6200EECF04F0EECF05F015D024C403F00F0E31
:101D7200031603C000F0000E016E0036009001361B
:101D8200FE0E0024E96E020E0120EA6EEECF04F090
:101D9200EECF05F004C0E9FF05C0EAFFEECF01F087
:101DA20001A403D00401010E286F15D020C401F054
:101DB2001F0E01160150000AAFE020C401F01F0EF1
:101DC20001160150010AB3E020C401F01F0E0116F2
:101DD2000150020AAFE0030106AF07D0280E036FDD
:0C1DE200040E046F0681020E076F120051
:101DEE00E2EC0AF0020E0301806F010E816F7B0E92
:101DFE00826F000E836FE2EC09F04B0E0501086F47
:101E0E00096B0A6B0B6B0201ED910201EDB15AD019
:101E1E00000E0301806F050E816F080E826F050E96
:101E2E00836F30EC0AF07F6B0201EDB136D0320ECB
:101E3E0003017F5D32E28B80020E0B6E860E0C6EFE
:101E4E00990E0D6E0D2EFED70C2EFCD70B2EFAD73B
:101E5E008B90020E0B6E860E0C6E990E0D6E0D2E65
:101E6E00FED70C2EFCD70B2EFAD7080E806F050E60
:101E7E00816F040E826F25EC0AF00050000A000EEE
:101E8E00D8A4010E016E01B003D00201ED9102D073
:101E9E000201ED8103017F2BC7D70201EDB111D0F5
:101EAE00E2EC0AF0F6EC0AF0990E0B6E310E0C6EA7
:101EBE00A20E0D6E0D2EFED70C2EFCD70B2EFAD7C2
:101ECE000000A3D70301020E806F010E816FC00EBA
:0C1EDE00826F000E836FE2EC09F012002E
:101EEA00F6EC0AF0020E806F010E816FCF0E826F40
:0C1EFA00000E836FE2EC09F0ED91120085
:101F0600010E03018A6F60EC01F06DC380F3460E8B
:101F16000301816F030E826FA6EC09F0200E486F55
:101F2600496BF00E6D157F6F62D00201EDA90CD0E2
:101F3600460E0301806F030E816F390E826F010E0C
:101F4600836F3AEC09F031D003016DA10AD0460E39
:101F5600806F030E816F2D0E826F010E836F3AEC38
:101F660009F06DA50AD0460E806F030E816FF70E3D
:101F7600826F000E836F3AEC09F06DA30AD0460E0D
:101F8600806F030E816FFC0E826F000E836F3AEC3A
:101F960009F049530AE1460E806F030E816FE70E82
:101FA600826F000E836F3AEC09F02ED0460E806FDA
:101FB600030E816FF00E826F000E836F3AEC09F00C
:101FC60023D0460E806F030E816F120E826F010EB4
:101FD600836F3AEC09F018D0460E806F030E816FBE
:101FE6001F0E826F010E836F3AEC09F00DD07F5100
:101FF600000A9BE07F51100AD9E07F51200AE1E0F8
:102006007F51F00AE9E0F2D70201EDA90CD0350EB6
:102016000301806F030E816F020E826F010E836FC4
:1020260013EC09F082D00201EDA517D067C380F347
:10203600350E0301816F030E826FA6EC09F0200EA8
:10204600376F386B350E806F030E816F460E826FC9
:10205600010E836F3AEC09F068D00201EDAB48D06F
:1020660066C380F3350E0301816F030E826FA6EC03
:1020760009F0200E376F386B350E806F030E816FB7
:10208600420E826F010E836F3AEC09F029D0350EAD
:10209600806F030E816F570E826F010E836F3AECCD
:1020A60009F025D0350E806F030E816F5B0E826FAF
:1020B600010E836F3AEC09F01AD066C380F33B0E2B
:1020C600816F030E826F6AEC09F0350E806F030E86
:1020D600816F510E826F010E836F3AEC09F007D0C3
:1020E6006651000AD4E06651FF0ADCE0E6D71DD04F
:1020F60003016CC380F3350E816F030E826FA6EC6D
:1021060009F0200E376F386BF8EC0AF000C082F346
:1021160001C083F3350E0301806F030E816F0D0E30
:10212600846F000E856F44EC0AF0010E806F010E7D
:10213600816F460E826F030E836FE2EC09F0020E8A
:102146000301806F010E816F350E826F030E836F60
:06215600E2EC09F01200AA
:10215C0008D08B82D59E0DD08B92D59E0AD0D58E71
:10216C0008D00201EF51000AF4E0EF51FF0AF4E04D
:04217C00F6D7120080
:1021800003011D6BFEC2E1FFFFC2E2FFE66A040E1F
:102190000201FE19E16EFFC2E2FF000EE21AE66ADA
:0A21A00003010BAF01D00B9F1200EA
:1021AA006DC300F00032009E0032009E0032009E95
:1021BA000032009E03017E5100260F0E0014036EAA
:1021CA000F0E6D15026E03C000F000360090003647
:1021DA00009000360090003600900250001200C0B5
:0421EA006DF312007F
:1021EE0020C401F0600E0116050E006E005004E0D2
:1021FE000132019EFF0FFBD70150000A01E06BD0A8
:10220E0047D00301068F080E296F65D05CDC63D0C2
:10221E0092EC0CF060D0020E0301036F030E046FFC
:10222E000681010E076F068F56D06CDD54D0C0ECC0
:10223E000CF051D01F0E006E030E016E04012451DE
:10224E000026D8B0012A00C003F301C004F3030135
:10225E000681010E076F068F3ED00301068F1F0EFB
:10226E00E16E030EE26E04012451E126D8B0E22A9B
:10227E0022C4E6FF30D0020E0301926F000E936F60
:10228E00946B956B966B976BA0EC0AF024D023D0D1
:10229E0004012151050AB5E02151060AB7E021518A
:1022AE00090AB6E02151080AB6E02151000ABDE044
:1022BE002151010ABCE02151030AB9E021510A0A59
:1022CE00B9E021510B0AC9E02151070AD4E021518E
:0822DE000C0ADDE0DCD7120060
:1022E6006D98030106BF4BD00BAF2AD0020E1D6FAF
:1022F600010E0201FE25E16E000EFF21E26EE66A86
:10230600FEC2E1FFFFC2E2FFC80EE66E010E030148
:102316001B25E16E000E1C21E26E080EE66E020E13
:102326001B25E16E000E1C21E26E280EE66E040EE1
:10233600E66E1BC3E1FF1CC3E2FFC80EE66E1ED0AD
:10234600010E1B25E16E000E1C21E26E080EE66EE4
:10235600020E1B25E16E000E1C21E26E200EE66EBB
:10236600040EE66E1BC3E1FF1CC3E2FF8C0EE66E95
:10237600FEC2E1FFFFC2E2FF840EE66E85D00BBF10
:1023860083D0040120AF56D0030108510401275D14
:1023960004E1030107510401265D04E226C407F3A4
:1023A60027C408F313DC010E1D6F010E1B25E16E19
:1023B600000E1C21E26E080EE66E020E1B25E16E73
:1023C600000E1C21E26E200EE66E040EE66E1BC3A6
:1023D600E1FF1CC3E2FF800EE66E196B010E23259A
:1023E600E16E000E2421E26E080EE66E020E232533
:1023F600E16E000E2421E26E200EE66E040EE66EFD
:1024060023C3E1FF24C3E2FF840EE66E010E196FBB
:10241600020E0201FE25E16E000EFF21E26E280E7D
:10242600E66E040EE66EFEC2E1FFFFC2E2FFC80ED4
:10243600E66E2AD0020E03011D6F010E0201FE2573
:10244600E16E000EFF21E26EE66AFEC2E1FFFFC208
:10245600E2FFC80EE66E010E03011B25E16E000EBB
:102466001C21E26E080EE66E020E1B25E16E000EC2
:102476001C21E26E280EE66E040EE66E1BC3E1FF1B
:0A2486001CC3E2FFC80EE66E120050
:10249000010E03012325E96E000E2421EA6EEECF22
:1024A00000F000C002F0000E0D5D02E102500C5D74
:1024B00003E20CC302F00AD002500C5D006E000E65
:1024C0000D59016E00C00CF301C00DF3036A0250F8
:1024D000035C1CE2280EE96E040EEA6E0350E92646
:1024E000D8B0EA2AEECF00F009C3E1FF0AC3E2FF49
:1024F00000C0E6FF010E0925006E000E0A21016EE4
:1025000000C009F301C00AF3032AE1D7000E006EF0
:102510000D51005C02E10C51000828E2010E1B2560
:10252000E16E000E1C21E26E080EE66E020E1B2507
:10253000E16E000E1C21E26E280EE66E040EE66EC1
:1025400023C3E9FF24C3EAFFEECF00F000BC07D0AD
:102550001BC3E1FF1CC3E2FFC80EE66E06D01BC31F
:10256000E1FF1CC3E2FF880EE66E19D0010E1B25A9
:10257000E16E000E1C21E26E080EE66E020E1B25B7
:10258000E16E000E1C21E26E200EE66E040EE66E79
:102590001BC3E1FF1CC3E2FF840EE66E0B9F12001B
:0825A00003017E5167271200C0
:0A25A8009494CA840C0EBD121200B8
:1025B20081BC02D0D88001D0D890000ED8B0010ED4
:0425C200006E120095
:1025C6000201EDA11FD0530E0501086F6CC309F57A
:1025D600080E0301806F050E816F020E826F25ECD7
:1025E6000AF0005201E1F4D70501096B080E030158
:1025F600806F050E816F020E826F25EC0AF0005285
:0626060001E1F4D712000F
:0A260C009484CA94F00EBD1612006B
:102616000201EDA123D04B0E0501086F6DC309F52C
:102626000A6B6CC30BF5080E0301806F050E816FF4
:10263600040E826F25EC0AF0005201E1F4D7050181
:10264600096B0B6B080E0301806F050E816F040E7C
:0E265600826F25EC0AF0005201E1F4D7120069
:0826640003017E5166271200FC
:10266C0038D0828C080E0B6E9D0E0C6E050E0D6E06
:10267C000D2EFED70C2EFCD70B2EFAD70000000027
:10268C00829C41D0828E080E0B6E9D0E0C6E050E38
:10269C000D6E0D2EFED70C2EFCD70B2EFAD700008C
:1026AC000000829E30D01BDCF7EC0EF02CD0020127
:1026BC00EF6B4EDD28D0FF0E0201EF6F49DD23D00A
:1026CC000201ED9D1ADC1FD00201ED8D1CD01BD038
:1026DC001AD003016C51010AC4E06C51020AD2E019
:1026EC006C51030AE0E06C51040AE1E06C51050AFC
:1026FC00E2E06C51080AE4E06C51070AE5E06C5129
:08270C00000AE5E0E5D7120028
:102714000201EDA125D0430E0501086F6CC309F534
:102724000F0E03016D1505010A6F080E0301806F7A
:10273400050E816F030E826F25EC0AF0005201E151
:10274400F4D70501096B0A6B080E0301806F050EAF
:10275400816F030E826F25EC0AF0005201E1F4D779
:02276400120061
:1027660081BE02D0D88001D0D890000ED8B0010E1C
:04277600006E1200DF
:10277A00FEC2E9FFFFC2EAFFEECF00F000AE05D0CD
:10278A00FEC2E1FFFFC2E2FFE66A03011A6B1D6B9C
:10279A00076B086B066B26DD030E0301926F000EB2
:1027AA00936F946B956B966B976BA0EC0AF096DD22
:0227BA0012000B
:1027BC0003011D51020A02E165DE1ED0DBDC19515A
:1027CC00000A19E1010E1B25E16E000E1C21E26EC0
:1027DC00080EE66E020E1B25E16E000E1C21E26E49
:1027EC00200EE66E040EE66E1BC3E1FF1CC3E2FF77
:0A27FC008C0EE66E01D0196B12007E
:10280600FEC2E9FFFFC2EAFFEECF00F0000E00BCF9
:10281600010E0301916F040E0201FE19006E00C045
:10282600FEF203012951080A0AE122C46EFF6E5026
:10283600000803E2100E296F02D0040E296F1D5105
:10284600010A2CE1020E0201FE25E16E000EFF21B7
:10285600E26E280E006E040E016E00C0E6FF01C097
:10286600E6FFE9EC0DF01A51020A07E1FEC2E1FFAC
:10287600FFC2E2FF840EE66E10D09151000A07E116
:10288600FEC2E1FFFFC2E2FFC80EE66E06D0FEC240
:10289600E1FFFFC2E2FF880EE66E01D06EDC120099
:1028A6000301616B596B5A6B010E6425006E000EB5
:0E28B6006521016E00C064F301C065F31200DD
:1028C400A69C7CC3A9FFA69EA680A8CF00F01200F8
:1028D400F250026EF29E0500FF6A0150FE6E005037
:0828E400FD6E02BEF28E12002F
:1028EC00000E03016C15026E6D51F00B036EFF0EA2
:1028FC006C15006E6D510F0B016E7C510026000E95
:10290C007CBFFF0E0122FF0E00160F0E01160250A7
:10291C0000120350011200C06CF301C06DF31200E1
:10292C00A6A202D00000FCD7A69C7CC3A9FF7DC345
:10293C00A8FFA69EA684F2CF00F0F29E550EA76EBD
:10294C00AA0EA76EA68200BE02D0F29E01D0F28E15
:04295C00A69412002B
:10296000100E0301626F270E636F8B80F00E6D15E2
:102970007C6F09D050DE15D026DE13D0CBDE11D00F
:1029800075DE0FD00ED003017C51000AF3E07C51BC
:10299000100AF2E07C51200AF1E07C51F00AF0E0EC
:0429A000F1D7120059
:1029A40003017C6B060E7C5D1BE25B0EE96E030E7D
:1029B400EA6E7C51E926D8B0EA2AEECF80F37CC3D4
:1029C40000F0000E016E003601360090460E002421
:1029D400816F030E0120826FA6EC09F07C2BE2D7F5
:1029E40065C380F3520E816F030E826FA6EC09F06B
:1029F40064C380F3540E816F030E826FA6EC09F05A
:102A0400566B6CC380F3350E816F030E826FA6EC98
:102A140009F0200E376F61C380F3380E816F030E07
:102A2400826FA6EC09F059C380F33A0E816F030E4E
:102A3400826FA6EC09F0200E3A6F5AC380F33C0E65
:102A4400816F030E826FA6EC09F02E0E3C6F200EF0
:102A54003E6F18C380F33F0E816F030E826FA6ECA6
:102A640009F017C380F3410E816F030E826FA6EC49
:102A740009F0200E436F15A103D0750E446F02D0E8
:102A8400640E446F456B646B656B010E8A6F60EC7A
:102A940001F0010E0301806F010E816F460E826FFB
:102AA400030E836FE2EC09F0020E0301806F010E46
:102AB400816F350E826F030E836FE2EC09F0120012
:102AC40071DD050E0C6EAB0E0D6E0D2EFED70C2EA9
:0A2AD400FCD70000000098DD12009E
:102ADE00480E03018A6F60EC01F00301866B0BEC6C
:102AEE0009F0040E0301866F0BEC09F00A0E0301C8
:102AFE00866F0BEC09F0150E0301866F0BEC09F0D7
:102B0E00040E0301866F0BEC09F0040E0301866FB1
:102B1E000BEC09F00301866B0BEC09F00301866BDD
:102B2E000BEC09F00301866B0BEC09F0040E0301AC
:102B3E00866F0BEC09F0040E0301866F0BEC09F0A7
:102B4E00150E0301866F0BEC09F00A0E0301866F5A
:102B5E000BEC09F0040E0301866F0BEC09F0030178
:102B6E00866B0BEC09F00301866B0BEC09F003018D
:102B7E00866B0BEC09F0040E0301866F0BEC09F06B
:102B8E00020E0301866F0BEC09F01D0E0301866F1A
:102B9E000BEC09F0020E0301866F0BEC09F0040E2C
:102BAE000301866F0BEC09F00301866B0BEC09F049
:102BBE000301866B0BEC09F00301866B0BEC09F03D
:102BCE00040E0301866F0BEC09F0080E0301866FED
:102BDE000BEC09F0170E0301866F0BEC09F0080ED3
:102BEE000301866F0BEC09F0040E0301866F0BECEC
:102BFE0009F00301866B0BEC09F00301866B0BECFD
:102C0E0009F00301866B0BEC09F00301866B0BECEC
:102C1E0009F0090E0301866F0BEC09F0150E030186
:102C2E00866F0BEC09F0120E0301866F0BEC09F0A8
:102C3E000301866B0BEC09F00301866B0BEC09F0BC
:102C4E000301866B0BEC09F01B0E0301866F0BEC78
:102C5E0009F01B0E0301866F0BEC09F01B0E03012E
:102C6E00866F0BEC09F01B0E0301866F0BEC09F05F
:102C7E001B0E0301866F0BEC09F01B0E0301866F12
:102C8E000BEC09F01B0E0301866F0BEC09F0030130
:102C9E00866B0BEC09F00301866B0BEC09F0100E42
:102CAE000301866F0BEC09F0080E0301866F0BEC27
:102CBE0009F0040E0301866F0BEC09F0020E0301FE
:102CCE00866F0BEC09F0010E0301866F0BEC09F019
:102CDE000301866B0BEC09F00301866B0BEC09F01C
:0C2CEE00020E03018A6F60EC01F012007E
:102CFA00FD0E03011E15016E026AFF0E0216000E7A
:102D0A00021802E1000E01186BE17E0E1E15016E1B
:102D1A0001C003F00332039E03C000F0000E016EEF
:102D2A00003600900136003600900136000E00246D
:102D3A00026E040E0120036E02C023F303C024F3C3
:102D4A0002C01BF303C01CF3040E1B19006E00C063
:102D5A001BF302C0E9FF03C0EAFFEECF00F000C098
:102D6A0001F03C0E01160132019E0132019E015012
:102D7A000D0A34E1020E2325E96E000E2421EA6EC3
:102D8A00EECF01F0EECF02F00250040A02E1280E63
:102D9A00011822E1020E2325E16E000E2421E26EC3
:102DAA00200EE66E040EE66E906B080E905D14E23D
:102DBA00200EE16E040EE26E9051E126D8B0E22AAE
:102DCA00280EE96E040EEA6E9051E926D8B0EA2A76
:102DDA00EECFE6FF902BE9D7CBDC01D0EADC0ED0B0
:102DEA000301FD0E1E15016E026AFF0E0216000E89
:0E2DFA00021802E1040E011801E100DD1200D2
:102E0800CB50010F006E016A000E012273C304F05B
:102E1800000E056E6AEC0CF0060E026E00C004F09F
:102E280001C005F0025005E005320432059EFF0F8F
:102E3800FAD7040E016E04C000F0015004E0003619
:102E48000090FF0FFBD7300E0014036E04C000F093
:102E580005C001F001320032019E01320032019EAC
:0E2E680000C0BEFF0F0EBD160350BD121200BB
:082E7600BE6ABD98BD9A12006E
:102E7E0003015B51671904E05B51FF0A01E022D0A8
:102E8E005C515B19006E01E11DD05E515D19006E43
:102E9E0001E118D060515F19006E01E113D05DC3DE
:102EAE0001F0006A5F510012000E011200C06CF3B7
:102EBE0001C06DF30201EDAD02D06DDD02D083ECE9
:062ECE000FF047DD1200C9
:102ED400080E0301746F745100081BE2F1DD73AF37
:102EE4000AD00D0E0C6EDA0E0D6E0D2EFED70C2EC2
:102EF400FCD700000AD0050E0C6EAB0E0D6E0D2E25
:102F0400FED70C2EFCD700000000733773917407B2
:042F1400E2D71200EE
:102F180073C37CF3E7DC83EC0FF0020E0301576FF9
:102F280074C300F075C301F0D1DC005233E0020134
:102F3800EDA32FD0800E006E800E030158BF7F0EC8
:102F4800005C02E15851000824E357075751000A72
:102F58001CE173C37CF3C6DCF8EC0AF000C0E9FF9F
:102F680001C0EAFFEE50000A0BE10F0E03016C15D9
:102F7800016E0150000A04E073C37CF3B3DCECD7A4
:102F880083EC0FF0020E0301576F0201ED9303016A
:062F9800586BC6D71200C1
:102F9E00929A92989290929292949296809A809807
:102FAE00809680948092809089EC00F089EC00F0FD
:102FBE0089EC00F080828080808A9AEC00F0809A02
:102FCE0089EC00F0808A9AEC00F0809A89EC00F08F
:102FDE00808A9AEC00F0809A89EC00F08090808ACA
:102FEE009AEC00F0809A89EC00F0808A9AEC00F05E
:102FFE00809A80928086808A9AEC00F0809A89EC82
:10300E0000F080968080808A9AEC00F0809A809002
:10301E00808A9AEC00F0809A89EC00F0808A9AEC13
:10302E0000F0809A8080808A9AEC00F0809A89EC79
:10303E0000F08090808A9AEC00F0809A80868084DE
:10304E0080828080808A9AEC00F0809A89EC00F071
:06305E000201FD811200D9
:1030640076C3E1FF77C3E2FF73C3E6FF74C300F0E6
:1030740075C301F02DDC83EC0FF078C300F079C345
:1030840001F026DC00521FE00201EDA31BD0800EEC
:10309400006E800E030158BF7F0E005C02E15851A0
:1030A400000810E376C3E1FF77C3E2FF73C3E6FFD2
:1030B40074C300F075C301F00BDC83EC0FF0ED93E7
:0830C4000301586BDAD712007A
:1030CC00010E03017C6FEFC27DF32ADCAEEC10F035
:0230DC001200E0
:0430DE00A0901200AC
:1030E20003015A2B5A51070811E25A6B5B0EE16E2B
:1030F200030EE26E5951E126D8B0E22A16C3E6FF6A
:0E310200592B060E595D02E3030E616F120099
:1031100045EC01F0F06BF16BF26BF36B6A6A686A75
:103120004CEC02F06D8C6E6A710E0301926F0F0E03
:10313000936F946B010E956F000E966F86EC0AF0FC
:103140006D9C906B080E905D16E290C300F0000E2F
:10315000016E003600900136003600900136000EF8
:103160000024E16E040E0120E26EE66AE66AE66A79
:10317000E66A902BE7D7160E706E68A603D0F70E9E
:103180006816FBD7066B0B6B0C6B0D6B6D98080EFE
:103190000201FE6F040EFF6F0301026B296B120028
:1031A000740E0301926F000E936F946B956B966B88
:1031B000976BA0EC0AF06D92699468A403D0FB0EA3
:0631C0006816FBD71200A7
:1031C60070A019D023C3E9FF24C3EAFFEECF01F0B4
:1031D6000150800A0FE1FEC2E9FFFFC2EAFFEECF0F
:1031E60001F00150840A06E123C3E1FF24C3E2FF94
:0C31F6008C0EE66E7090DF0E6816120062
:103202006984EF0E68166D82750E0301926F000ECF
:10321200936F946B956B966B976BA0EC0AF0120010
:10322200010E03017C6F62EC14F000C0EFF2AEEC11
:0432320010F0120086
:10323600A090A190040EBA6ECF6ACE6A53EC14F039
:04324600A080120052
:04324A00A19A120033
:10324E008B8046DF67C35BF30301671D006E00C012
:10325E005CF36DC35DF36D1D006E00C05EF36CC359
:10326E005FF36C1D006E00C060F3D4EC12F0080E1C
:10327E000C6EC90E0D6E0D2EFED70C2EFCD7000057
:10328E00000006EC13F0050E0C6EAB0E0D6E0D2E3F
:10329E00FED70C2EFCD7000000006E6B060E6E5D86
:1032AE000DE25B0EE96E030EEA6E6E51E926D8B0A2
:1032BE00EA2AEECF73F307DE6E2BF0D762EC15F031
:1032CE00040E0B6E0C0E0C6E330E0D6E0D2EFED705
:1032DE000C2EFCD70B2EFAD700000000A5DF8B902A
:0232EE001200CC
:1032F0000201EDA515D06EC373F3A00E0301746F28
:10330000250E756F7E0E766F030E776F6FC378F3A1
:1033100070C379F371C37AF372C37BF3A3DE3BD03E
:103320000201EDAB15D06EC373F3640E0301746F2D
:10333000260E756F7E0E766F030E776F6FC378F370
:1033400070C379F371C37AF372C37BF38BDE23D03E
:103350000201EDA915D06EC373F3AA0E0301746FB9
:10336000210E756F7E0E766F030E776F6FC378F345
:1033700070C379F371C37AF372C37BF373DE0BD03E
:103380006EC373F36FC374F370C375F371C376F3D5
:0833900072C377F3C1DD1200E6
:103398000201ED6B03016E6B060E6E5D0BE25B0EB8
:1033A800E16E030EE26E6E51E126D8B0E22AE66ABB
:1033B8006E2BF2D76C6B6D6B6F886F94070ED56EA2
:1033C800B10ECD6EB00EB16EF28EF28CA082F19E6F
:1033D8000F0EC16E070EB46EFF0E926EFF0E936E47
:1033E800380E946E896A8A6A8B6ACA90CA929C0E51
:1033F800CB6E3DDD800E736F03DDCDDD6FEC15F018
:10340800010E03018A6F60EC01F00C0E03018A6F54
:1034180060EC01F0010E0301806F010E816FDC0E7C
:10342800826F000E836FE2EC09F003017C6B62ECA3
:0C34380014F000C067F3F1DEFADE1200B1
:103444000900F5CFE6FF0006FBE10106F9E11200F1
:103454007AD003011851020802E117510D08010E38
:10346400D8B0000E016E030E185D02E1CF0E175D99
:10347400010ED8B0000E006E00500116006A15B19E
:10348400002A0150001603E0010E616F02D053ECD4
:1034940014F068D015B102D0028001D00290000E61
:1034A400016E1851015C02E11751E108010ED8B018
:1034B400000E016E020E185D02E1A30E175D010EEF
:1034C400D8B0000E006E00500116006A02B0002A47
:1034D4000150001603E0020E616F02D053EC14F0A9
:1034E40041D015A109D01851020802E11751A308CF
:1034F40002E253EC14F022D01851050802E11751EE
:10350400B60803E253EC14F019D01851030802E191
:103514001751F40805E2163716911681E0DD0ED036
:10352400000E006E1851005C02E11751E10804E23C
:1035340016371691D4DD02D053EC14F013D0CDDD40
:103544009CDC77DE0FD003016151000AD8B481D727
:103554006151010A9FE06151020AC3E06151030A0B
:06356400EEE0F0D71200BA
:10356A0003012951010A07E16DBA05D0686A698029
:10357A006988020E296F68A405D069A403D0FB0EDE
:10358A00681609DE6DA202D05BDE79D068A018D079
:10359A0069A016D0B8DD040E296F200E0401026F4F
:1035AA00040E036F080E016F000E0015006E00C0B6
:1035BA0000F48C0E0011006E00C000F4FE0E6816B6
:1035CA0068A805D069A803D017DEEF0E681668ACA4
:1035DA0011D069AC0FD0730E0301926F000E936F76
:1035EA00946B956B010E966F000E976FA0EC0AF024
:1035FA00BF0E681668AA03D069AA01D0DFDD68A2E7
:10360A0010D069A20ED0FF0E0301926F3F0E936F86
:10361A00946B956B010E966F000E976FA0EC0AF0F3
:10362A006A6A040E0301295D02E20ADE28D069A64D
:10363A0025D08F6B040E8F5D21E268A61BD06CCF5C
:10364A001EF3F70E6816780E1E15016E0150000A59
:10365A0003E17DEC16F00DD0720E0301926F000E9D
:10366A00936F1E0E946F030E956F966B976BA0EC7B
:10367A000AF001D003D003018F2BDCD7E1DD120061
:10368A000201EDA905D081BA01D0FDD7ED9956D036
:10369A00F00E03016D15016E0150F00A36E181BA90
:1036AA0001D0FDD723D00201ED75EDA501D006D0DA
:1036BA0003017C6B67C37DF396EC14F025D00201FD
:1036CA00ED7BEDAB03D0EFC266F303D066C3EFF236
:1036DA00F8DC1AD00201EF6BF4DC16D0FF0E0201FF
:1036EA00EF6FEFDC11D0B0EC14F00ED003016C5187
:1036FA00000AD9E06C51060AE2E06C51040AEAE0D9
:10370A006C51050AEBE0EFD719D0B0EC14F081BA8E
:10371A0015D00201EDA311D0800E006E800E0301B8
:10372A0058BF7F0E005C02E15851000806E3B0EC76
:0E373A0014F00201ED930301586BE9D7120061
:1037480003016D7381B824D00201EDA320D0800E4F
:10375800006E800E030158BF7F0E005C02E15851D5
:10376800000815E30201EDB90FD0000E03016C1536
:10377800006E6D51F00B016E00C06CF301C06DF36B
:103788000201ED8983EC0FF0ED930301586BDAD752
:0637980083EC0FF01200AB
:10379E003EEC1EF0FADD0201EDAF03D054DE020165
:1037AE00ED9F8BA00CD0010E0301625F000E635BD8
:1037BE00000E631902E1000E6219D8B48B90F70E59
:1037CE008114006EF70E001A00524BE0E2EC0AF084
:1037DE00C30E0C6ECD0E0D6E0D2EFED70C2EFCD71D
:1037EE00030E0301586FB26AB36AB18081B004D080
:1037FE0027DD81B001D0FDD781B205D003016D71F7
:10380E0081B201D0FDD781B405D003016D7581B4AD
:10381E0001D0FDD781B801D090DF81BA01D02EDF63
:10382E0081BC0CD0010E03016E6FB20E6F6F250EB0
:10383E00706F000E716F000E726F53DD81BE0CD073
:10384E00FF0E03016E6F660E6F6F270E706F000E08
:10385E00716F000E726F45DDB1900201ED9383EC36
:10386E000FF00201EDB706D084B602D0D89007D083
:10387E00D88005D084B602D0D88001D0D8900CE381
:10388E0084A603D0F7EC0EF002D075EC0FF084B6E0
:0C389E0002D0ED9701D0ED877ED7FFD758
:103C7C0010EE29F0C40E006E030E016EAA0EF66E45
:0E3C8C00380EF76E000EF86E22EC1AF01200E1
:0238AA005600C6
:0238AC005700C3
:0238AE005400C4
:0238B0005500C1
:0238B2005A00BA
:0238B4002100F1
:0238B6005800B8
:0238B8005900B5
:0238BA005300B9
:0238BC004D00BD
:0238BE004E00BA
:0238C0004B00BB
:0238C2004C00B8
:0238C4005100B1
:0238C6005200AE
:0238C8004F00AF
:0238CA005000AC
:0238CC007B007F
:0238CE007D007B
:0238D0005F0097
:0238D2002B00C9
:0238D4002200D0
:0238D6000500EB
:0238D8007C0072
:0238DA003A00B2
:0238DC002900C1
:0238DE002400C4
:0238E0002500C1
:0238E2004000A4
:0238E4002300BF
:0238E6002A00B6
:0238E8002800B6
:0238EA005E007E
:0238EC002600B4
:0238EE000100D7
:0738F0004E756D4C636B0087
:0238F7000400CB
:0238F9000200CB
:0138FB0000CC
:0D38FC00456E61626C696E67205553420095
:023909000300B9
:04390B00496E73008E
:05390F00486F6D65002A
:073914005363724C636B006A
:02391B000600A4
:04391D00456E64008F
:053921005067446E0038
:05392600506755700020
:04392B0044656C0083
:02392F00450051
:0239310046004E
:0239330043004F
:0239350044004C
:02393700490045
:023939004A0042
:02393B00470043
:02393D00480040
:02393F00420044
:0D394100555342205265616479202020001A
:02394E00410036
:0D3950005553422044697361626C65640048
:0B395D0049524B212076322E303600FC
:093968004B6579626F6172640025
:0739710053797374656D00CA
:05397800414C54200049
:06397D00534849465400C6
:103983005E5E2053656C65637420557361676500E3
:0D399300436F6E73756D657220446576009C
:0E39A00049524B212046756E6374696F6E00AC
:0539AE0043544C200011
:0239B3003F00D3
:0139B5000011
:0239B6003C00D3
:0239B8003E00CF
:0939BA004B6579626F61726400D3
:0439C3003C2D200077
:0B39C7003C2D204164647265737300A6
:0639D20020736563730021
:0439D8004F666600D0
:0339DC004F6E002B
:0239DF00640082
:0239E100630081
:0239E300620080
:0239E50065007B
:0239E700680076
:0239E900670075
:0239EB00660074
:0A39ED004465627567204F666600AE
:0C39F7004C696768742044656C617900BD
:093A03004C69676874204F6E00E5
:093A0C004465627567204F6E00ED
:023A150061004E
:013A170000AE
:013A180000AD
:023A1900720039
:023A1B00710038
:023A1D00700037
:023A1F00730032
:023A210076002D
:023A230075002C
:023A250074002B
:023A27006B0032
:023A29006A0031
:023A2B00690030
:023A2D006C002B
:023A2F006F0026
:023A31006E0025
:023A33006D0024
:0A3A35004C69676874204F66660054
:053A3F0053746F7000DC
:043A44007C3C3C008A
:043A48003E3E7C0082
:043A4C003E2F060003
:053A5000566F6C2D0013
:053A5500566F6C2B0010
:053A5A004D75746500CC
:0A3A5F00506F776572206F666600F5
:013A6900005C
:053A6A0057616B6500CF
:063A6F00536C6565700058
:013A75000050
:083A7600526566726573680079
:053A7E0053746F70009D
:0C3A830053657420416464726573730025
:093A8F00496E6974205553420090
:0D3A9800526573657420537769746368008C
:0D3AA500506F776572205377697463680075
:0B3AB20043616C63756C61746F7200FF
:063ABD00456D61696C001B
:0D3AC3004D6564696120506C617965720089
:073AD0005365617263680099
:053AD7004E657874004B
:053ADC00507265760048
:053AE100486F6D650057
:023AE6002E00B0
:023AE8002C00B0
:023AEA002F00AB
:033AEC0046310060
:073AEF004361704C636B00A2
:023AF60060006E
:023AF8005D006F
:023AFA005B006F
:023AFC000700C1
:023AFE0027009F
:023B00003B0088
:033B020046320048
:043B05004631300015
:033B09004639003A
:043B0C00463131000D
:073B10005072745363720050
:043B17004631320001
:033B1B0046380029
:033B1E004634002A
:033B210046330028
:033B240046350023
:033B27004637001E
:033B2A004636001C
:023B2D0037005F
:023B2F0038005C
:023B310035005D
:023B330036005A
:063B3500456E746572008C
:043B3B00457363006B
:023B3F0039004B
:023B4100300052
:023B4300790007
:023B45007A0004
:023B4700770005
:023B4900780002
:023B4B00330045
:023B4D00340042
:023B4F00310043
:023B5100320040
:0A3B53004261636B737061636500EB
:023B5D002D0039
:093B5F005370616365626172003C
:043B68005461620042
:023B6C003D001A
:103B6E0005010906A101854B050719E029E7150096
:103B7E00250175019508810275089501810395014E
:103B8E0026FF0019002AFF00810075019503050824
:103B9E001901290325019102750595019103C005AF
:103BAE00010980A101855319002AFF00150026FF87
:103BBE0000750895018100C0050C0901A10185431E
:103BCE0019002A3C021500263C0275109501810051
:013BDE00C026
:103BDF004003490052004B002100200052006500B5
:103BEF006D006F0074006500200043006F006E00D1
:103BFF00740072006F006C006C00650064002000A0
:103C0F004B006500790062006F0061007200640074
:023C1F000000A3
:103C21000902290001010180320904000002030098
:103C31000002092101010001227100070581030829
:093C4100000A0705010308000C4C
:103C4A00120110010000000849524B210300010231
:023C5A00000167
:103C5C0030313233343536373839414243444546B6
:013C6C000057
:0A3C6D000A03490052004B00210039
:043C77000403090435
:020000040030CA
:0E000000310E2E1EFF0081FF0FC00FE00F40DB
:00000001FF
