:04000000E4EF21F018
:1000080000C01FF001C01EF002C01DF003C01CF0AC
:1000180004C01BF005C01AF006C019F008C018F09B
:1000280009C017F00AC016F00BC015F0E1CF28F090
:10003800E2CF29F0E9CF26F0EACF27F0F3CF24F07A
:10004800F4CF25F0F5CF23F0F8CF20F0F7CF21F04B
:10005800F6CF22F0A2EC20F0A1A00DD0BCCF8AF000
:10006800BBCF89F0BACF8BF0BA70CF6ACE6A0001E5
:10007800A88FA19021D0A1A208D00001A88339049B
:10008800006E00C039F0A19217D0F2A415D0360442
:10009800006E00C036F0000E36BEFF0E006E000E79
:1000A800001802E1000E361802E18B82D59EA40EDC
:1000B800D76E720ED66EF29423C0F5FF20C0F8FFFB
:1000C80021C0F7FF22C0F6FF24C0F3FF25C0F4FFCC
:1000D8001FC000F01EC001F01DC002F01CC003F0DC
:1000E8001BC004F01AC005F019C006F018C008F0CB
:1000F80017C009F016C00AF015C00BF026C0E9FFBA
:0E01080027C0EAFF28C0E1FF29C0E2FF110076
:0E011600630E0D6E0D2EFED7000000001200CD
:100124002B0E0C6EDA0E0D6E0D2EFED70C2EFCD798
:0401340000001200B5
:0E0138000000000000000000000000001200A7
:10014600000E056E040E066E01C103F0000E046E6D
:1001560003360436039003360436039002C100F0DA
:10016600000E016E00360136009000500326015045
:10017600042203C001F004C002F0013601900236E9
:1001860001360190023601C003F002C004F00432C9
:100196000332049E04BC048E04320332049E04BC63
:1001A600048E03C000F004C001F000360090013652
:1001B600003600900136055000260650012200C088
:1001C60005F001C006F000C0E1FF01C0E2FFE69EB7
:1001D60001010251000A12E101C100F0000E016E98
:1001E6000036009001363E0E0024E16E000E01201E
:1001F600E26E05C0E6FF06C0E6FF11D001C100F0C1
:10020600000E016E003600900136590E0024E16E94
:10021600000E0120E26E05C0E6FF06C0E6FF05C03F
:10022600E1FF06C0E2FFE69C040E0524E16E000E27
:080236000620E26EE68C1200C6
:10023E0001C148F002C149F003C14AF004C14CF0BB
:10024E0005C14DF0800E01010611006E00C04BF08D
:02025E0012008C
:0E026000800E0001FF11006E00C04BF0120076
:10026E0001C148F002C149F003C14CF004C14DF088
:10027E00800E01010511006E008000C04BF01200CF
:0E028E00160E6F6E9F0E6B6E7B0E696E120069
:10029C000001EE6BEF6BF06B020EEB25F66E000EB1
:1002AC00EC21F76E000EED21F86E0900F5CF05F08C
:1002BC00030EEB25F66E000EEC21F76E000EED2111
:1002CC00F86E0900F5CF00F000C003F0000E046ECC
:1002DC0003C001F0006A05500024066E000E0120D8
:1002EC00076EEBC008F0ECC009F0EDC00AF0010E8F
:1002FC000824F66E000E0920F76E000E0A20F86E28
:10030C000900F5CF01F00150020A1BE1060E08248A
:10031C00F66E000E0920F76E000E0A20F86E09002A
:10032C00F5CF01F00150EE5D0CE2060E0824F66EDE
:10033C00000E0920F76E000E0A20F86E0900F5CFAA
:10034C00EEF0010E0824F66E000E0920F76E000E7A
:10035C000A20F86E0900F5CF01F00150040A1BE1E8
:10036C00080E0824F66E000E0920F76E000E0A2007
:10037C00F86E0900F5CF01F00150EE5D0CE2080EAD
:10038C000824F66E000E0920F76E000E0A20F86E97
:10039C000900F5CFEEF008C0F6FF09C0F7FF0AC060
:1003AC00F8FF0900F5CF00F00050EF25016E000EAC
:1003BC00F021026E01C0EFF002C0F0F00750025CB9
:1003CC0002E10650015C01E30FD008C0F6FF09C042
:1003DC00F7FF0AC0F8FF0900F5CF00F0005008261F
:0E03EC00000E09220A2283D7EEC000F0120094
:1003FA007D0E0001916F450E926F000E936F890E6C
:10040A00946F490E956F000E966F8A0E976F470E7E
:10041A00986F000E996F3B0E9A6F450E9B6F000EF8
:04042A009C6F1200B1
:10042E00000E0001EC1902E1000EEB1902E1016A67
:10043E0009D0EBC0E9FFECC0EAFFEECF00F0016A95
:0A044E0000BE012A01C000F01200F8
:100458000001EC51000A12E0EBC000F0000E016E42
:10046800003600900136590E0024E96E000E012076
:10047800EA6EEECF04F0EECF05F011D0EBC000F03D
:10048800000E016E0036009001363E0E0024E96E23
:10049800000E0120EA6EEECF04F0EECF05F0020E5A
:1004A8000424E16E000E0520E26EEDC0E6FFEEC00A
:1004B800E6FF010E0424E16E000E0520E26EEFC097
:1004C800E6FF04C0E9FF05C0EAFFEECF00F004C074
:1004D800E1FF05C0E2FF400E0014E66E04C0E9FF2C
:1004E80005C0EAFFEECF00F004C0E1FF05C0E2FF5F
:1004F800880E0010E66EEC51000A1BE0EBC000F01D
:10050800000E016E003600900136590E0024026E6E
:10051800000E0120036E02C0E9FF03C0EAFF040ECB
:10052800EE18006E02C0E1FF03C0E2FF00C0E6FF64
:100538001AD0EBC000F0000E016E003600900136B4
:100548003E0E0024026E000E0120036E02C0E9FF79
:1005580003C0EAFF040EEE18006E02C0E1FF03C0FC
:10056800E2FF00C0E6FF04C000F005C001F0120081
:0A057800D08EA28AA08AF28E120033
:100582000001EBBF02D0809601D08086EBBD02D085
:10059200809401D08084EBBB02D0809201D0808213
:1005A200EBB902D0809001D08080A3B102D08088C4
:1005B20001D08098808ABFDD809AEBB702D0809606
:1005C20001D08086EBB502D0809401D08084EBB359
:1005D20002D0809201D08082EBB102D0809001D013
:1005E2008080A3B102D0808801D08098808AA3DD68
:0E05F200809AA3A102D095DD01D08CDD12000D
:10060000EBC002F0ECC003F0EEC000F0EFC001F070
:10061000010E0001EE5F000EEF5B0050011009E0DB
:1006200002C0E1FF03C0E2FFEDC0E6FF024A032A79
:04063000EBD71200F2
:100634000001FB51000A12E0FAC000F0000E016E46
:10064400003600900136590E0024E96E000E012098
:10065400EA6EEECF04F0EECF05F011D0FAC000F050
:10066400000E016E0036009001363E0E0024E96E45
:10067400000E0120EA6EEECF04F0EECF05F0020E7C
:100684000424E16E000E0520E26EFCC0E6FFFDC00E
:10069400E6FF010E0424E16E000E0520E26EFEC0AA
:1006A400E6FF04C0E9FF05C0EAFFEECF00F004C096
:1006B400E1FF05C0E2FF400E0014E66E04C0E9FF4E
:1006C40005C0EAFFEECF00F004C0E1FF05C0E2FF81
:1006D400880E0010E66EFB51000A1BE0FAC000F021
:1006E400000E016E003600900136590E0024026E91
:1006F400000E0120036E02C0E9FF03C0EAFF040EEE
:10070400EE18006E02C0E1FF03C0E2FF00C0E6FF86
:100714001AD0FAC000F0000E016E003600900136C7
:100724003E0E0024026E000E0120036E02C0E9FF9B
:1007340003C0EAFF040EEE18006E02C0E1FF03C01E
:10074400E2FF00C0E6FF04C000F005C001F01200A3
:10075400700EE16E0F0EE26E0001FA51E126D8B080
:10076400E22AFBC0E6FFFBA505D0FAC001F10101B6
:10077400026BE7DC0001FBA306D0FAC001F1010E15
:080784000101026FDEDC12002E
:10078C00A60E006E450E016E000E026E0E0E0024BB
:10079C00F66E000E0120F76E000E0220F86E0900B6
:1007AC00F5CF03F003C004F00F0E0024F66E000E1C
:1007BC000120F76E000E0220F86E0900F5CF01F053
:1007CC000150035C12E2A60E006E450E016E000E87
:1007DC00026E0F0E0024F66E000E0120F76E000E56
:1007EC000220F86E0900F5CF04F0A60E006E450E3F
:1007FC00016E000E026E100E0024F66E000E01202B
:10080C00F76E000E0220F86E0900F5CF01F00150D2
:10081C00045C12E2A60E006E450E016E000E026E16
:10082C00100E0024F66E000E0120F76E000E022052
:0E083C00F86E0900F5CF04F004C000F01200C1
:10084A0020C401F01F0E01160150010A01E08BD0ED
:10085A0004012451000A01E086D02151060A38E138
:10086A002DD04250010A13E17D0E0101016F450EA0
:10087A00026F000E036F120E0127000E02230323DC
:10088A00090E046F000E056F400E066FD3DC20D0F0
:10089A004250010A0EE10101CA0E016F440E026FB5
:1008AA00000E036F710E046F000E056F400E066F87
:1008BA00C1DC0ED00001FF6BCEDC0AD0040123514B
:1008CA00210ACFE02351220AE3E02351230AF2E06E
:1008DA0020C401F0600E0116050E006E005004E0FF
:1008EA000132019EFF0FFBD70150010A01E03BD004
:1008FA0027D039D038D0370E0101016F000E026FB0
:10090A00010E036F000E046F400E056FABDC2BD097
:10091A000001FF6BA0DC23C437F025D0380E01019B
:10092A00016F000E026F010E036F000E046F056B5C
:10093A0099DC19D00001FF6B8EDC22C438F013D089
:10094A0004012151010AD5E02151090AD3E02151BC
:10095A00020AD1E021510A0ADBE02151030ADEE052
:08096A0021510B0AE7E0120025
:100972004450000A0AE16D6A696A88DCFCDD6DB6E2
:0C09820002D06D86FCD7010E446E1200FE
:10098E00FEDE00C0E7F07D0E0001EB6F450EEC6F52
:10099E00000EED6F7CDC00C0E8F0E751005C03E276
:0C09AE00E7C000F002D0E8C000F012002A
:1009BA001FDD5D6A5E6A4E6A4F6A6A6A686A62DC4D
:1009CA006D8C6E6A710EEB6F0F0EEC6FED6B010E94
:1009DA00EE6F000EEF6F0FDE6D9CE76B080EE75DA2
:1009EA0016E2E7C000F0000E016E003600900136F4
:1009FA00003600900136000E0024E16E040E01203C
:100A0A00E26EE66AE66AE66AE66AE72BE7D7160E58
:100A1A00706E68A603D0F70E6816FBD74B6A526A47
:100A2A00536A546A6D98080E596E040E5A6E426AD9
:040A3A00446A1200F8
:100A3E0013D3180E006E4A0E016E000E026EE5EF15
:100A4E0009F0160E006E4A0E016E000E026EE5EFF4
:100A5E0009F0140E006E4A0E016E000E026EE5EFE6
:100A6E0009F05A0E006E4A0E016E000E026EE5EF90
:100A7E0009F0A40E006E4A0E016E000E026EE5EF36
:100A8E0009F0A20E006E4A0E016E000E026EE5EF28
:100A9E0009F0A00E006E4A0E016E000E026EE5EF1A
:100AAE0009F0AA0E006E4A0E016E000E026EE5EF00
:100ABE0009F0A80E006E4A0E016E000E026EE5EFF2
:100ACE0009F0960E006E4A0E016E000E026EE5EFF4
:100ADE0009F0940E006E4A0E016E000E026EE5EFE6
:100AEE0009F0920E006E4A0E016E000E026EE5EFD8
:100AFE0009F0980E006E4A0E016E000E026EE5EFC2
:100B0E0009F09E0E006E4A0E016E000E026EE5EFAB
:100B1E0009F09C0E006E4A0E016E000E026EE5EF9D
:100B2E0009F09A0E006E4A0E016E000E026EE5EF8F
:100B3E0009F0BE0E006E4A0E016E000E026EE5EF5B
:100B4E0009F0B80E006E4A0E016E000E026EE5EF51
:100B5E0009F0BC0E006E4A0E016E000E026EE5EF3D
:100B6E0009F0B00E006E4A0E016E000E026EE5EF39
:100B7E0009F0AE0E006E4A0E016E000E026EE5EF2B
:100B8E0009F0B20E006E4A0E016E000E026EE5EF17
:100B9E0009F0B60E006E4A0E016E000E026EE5EF03
:100BAE0009F0B40E006E4A0E016E000E026EE5EFF5
:100BBE0009F0BA0E006E4A0E016E000E026EFED3E2
:100BCE006E0E006E4A0E016E000E026EF7D36C0EA4
:100BDE00006E4A0E016E000E026EF0D36A0E006EAB
:100BEE004A0E016E000E026EE9D3740E006E4A0EAE
:100BFE00016E000E026EE2D3720E006E4A0E016E90
:100C0E00000E026EDBD3700E006E4A0E016E000EE9
:100C1E00026ED4D3680E006E4A0E016E000E026E86
:100C2E00CDD3600E006E4A0E016E000E026EC6D35C
:100C3E005E0E006E4A0E016E000E026EBFD35C0E8B
:100C4E00006E4A0E016E000E026EB8D3660E006E76
:100C5E004A0E016E000E026EB1D3250E006E490EC5
:100C6E00016E000E026EAAD3C10E006E490E016E09
:100C7E00000E026EA3D3580E006E470E016E000ECC
:100C8E00026E9CD3C50E006E490E016E000E026EF2
:100C9E0095D3450E006E480E016E000E026E8ED379
:100CAE00640E006E4A0E016E000E026E87D3620E47
:100CBE00006E4A0E016E000E026E80D3760E006E2E
:100CCE004A0E016E000E026E79D38A0E006E4A0E27
:100CDE00016E000E026E72D3880E006E4A0E016E09
:100CEE00000E026E6BD3860E006E4A0E016E000E63
:100CFE00026E64D3900E006E4A0E016E000E026EEE
:100D0E005DD38E0E006E4A0E016E000E026E56D32D
:100D1E008C0E006E4A0E016E000E026E4FD3840EC4
:100D2E00006E4A0E016E000E026E48D37C0E006EEF
:100D3E004A0E016E000E026E41D3940E006E470EE7
:100D4E00016E000E026E3AD3E00E006E490E016E79
:100D5E00000E026E33D3D10E006E490E016E000EE0
:100D6E00026E2CD3EF0E006E490E016E000E026E57
:100D7E0025D3F20E006E490E016E000E026E1ED3CA
:100D8E00E60E006E490E016E000E026E17D3E30ED4
:100D9E00006E490E016E000E026E10D3E90E006E4B
:100DAE00490E016E000E026E09D3EC0E006E490E56
:100DBE00016E000E026E02D3F50E006E490E016E2C
:100DCE00000E026EFBD2CD0E006E490E016E000EAD
:100DDE00026EF4D2C90E006E490E016E000E026E46
:100DEE00EDD2690E006E490E016E000E026EE6D255
:100DFE00810E006E460E016E000E026EDFD2D80E10
:100E0E00006E460E016E000E026ED8D27E0E006E81
:100E1E004A0E016E000E026ED1D2E90E006E480E21
:100E2E00016E000E026ECAD24B0E006E490E016E9E
:100E3E00000E026EC3D2CC0E006E480E016E000E76
:100E4E00026EBCD2F70E006E480E016E000E026EE0
:100E5E00B5D26D0E006E490E016E000E026EAED250
:100E6E00620E006E470E016E000E026EA7D2800E4D
:100E7E00006E4A0E016E000E026EA0D2820E006E41
:100E8E004A0E016E000E026E99D2780E006E4A0E58
:100E9E00016E000E026E92D27A0E006E4A0E016E36
:100EAE00000E026E8BD20F0E006E480E016E000EFB
:100EBE00026E84D23C0E006E480E016E000E026E63
:100ECE007DD22A0E006E480E016E000E026E76D294
:100EDE00060E006E480E016E000E026E6FD2D00E20
:100EEE00006E470E016E000E026E68D24D0E006E41
:100EFE00460E016E000E026E61D2E20E006E470EBD
:100F0E00016E000E026E5AD2FD0E006E470E016E7D
:100F1E00000E026E53D2F40E006E470E016E000EDE
:100F2E00026E4CD2EB0E006E470E016E000E026E7C
:100F3E0045D2690E006E480E016E000E026E3ED254
:100F4E00840E006E480E016E000E026E37D24E0EEB
:100F5E00006E480E016E000E026E30D2600E006EF4
:100F6E00480E016E000E026E29D2BA0E006E480EA9
:100F7E00016E000E026E22D2960E006E480E016EAB
:100F8E00000E026E1BD2A80E006E480E016E000EF1
:100F9E00026E14D29F0E006E480E016E000E026E8F
:100FAE000DD2A50E006E490E016E000E026E06D217
:100FBE00A90E006E490E016E000E026EFFD1A10E3B
:100FCE00006E490E016E000E026EF8D1990E006E83
:100FDE00490E016E000E026EF1D19D0E006E490E8D
:100FEE00016E000E026EEAD1B90E006E490E016E50
:100FFE00000E026EE3D1BD0E006E490E016E000EA4
:10100E00026EDCD1B50E006E490E016E000E026E40
:10101E00D5D1AD0E006E490E016E000E026ECED110
:10102E00B10E006E490E016E000E026EC7D17D0E1E
:10103E00006E490E016E000E026EC0D1810E006E62
:10104E00490E016E000E026EB9D1C50E006E4A0E2B
:10105E00016E000E026EB2D10001A651040AD8B480
:10106E00E8D4A651050AD8B4ECD4A651060AD8B4D1
:10107E00F0D4A651070AD8B4F4D4A651080AD8B4AD
:10108E00F8D4A651090AD8B4FCD4A6510A0AD8B489
:10109E0000D5A6510B0AD8B404D5A6510C0AD8B463
:1010AE0008D5A6510D0AD8B40CD5A6510E0AD8B43F
:1010BE0010D5A6510F0AD8B414D5A651100AD8B41B
:1010CE0018D5A651110AD8B41CD5A651120AD8B4F7
:1010DE0020D5A651130AD8B424D5A651140AD8B4D3
:1010EE0028D5A651150AD8B42CD5A651160AD8B4AF
:1010FE0030D5A651170AD8B434D5A651180AD8B48B
:10110E0038D5A651190AD8B43CD5A6511A0AD8B466
:10111E0040D5A6511B0AD8B444D5A6511C0AD8B442
:10112E0048D5A6511D0AD8B44BD5A6511E0AD8B41F
:10113E004ED5A6511F0AD8B451D5A651200AD8B4FF
:10114E0054D5A651210AD8B457D5A651220AD8B4DF
:10115E005AD5A651230AD8B45DD5A651240AD8B4BF
:10116E0060D5A651250AD8B463D5A651260AD8B49F
:10117E0066D5A651270AD8B469D5A651280AD8B47F
:10118E006CD5A651290AD8B46FD5A6512A0AD8B45F
:10119E0072D5A6512B0AD8B475D5A6512C0AD8B43F
:1011AE0078D5A6512D0AD8B47BD5A6512E0AD8B41F
:1011BE007ED5A6512F0AD8B481D5A651300AD8B4FF
:1011CE0084D5A651310AD8B487D5A651330AD8B4DE
:1011DE008AD5A651340AD8B48DD5A651350AD8B4BD
:1011EE0090D5A651360AD8B493D5A651370AD8B49D
:1011FE0096D5A651380AD8B499D5A651390AD8B47D
:10120E009CD5A6513A0AD8B49FD5A6513B0AD8B45C
:10121E00A2D5A6513C0AD8B4A5D5A6513D0AD8B43C
:10122E00A8D5A6513E0AD8B4ABD5A6513F0AD8B41C
:10123E00AED5A651400AD8B4B1D5A651410AD8B4FC
:10124E00B4D5A651420AD8B4B7D5A651430AD8B4DC
:10125E00BAD5A651440AD8B4BDD5A651450AD8B4BC
:10126E00C0D5A651460AD8B4C3D5A651470AD8B49C
:10127E00C6D5A651480AD8B4C9D5A651490AD8B47C
:10128E00CCD5A6514A0AD8B4CFD5A6514B0AD8B45C
:10129E00D2D5A6514C0AD8B4D5D5A6514D0AD8B43C
:1012AE00D8D5A6514E0AD8B4DBD5A6514F0AD8B41C
:1012BE00DED5A651500AD8B4E1D5A651510AD8B4FC
:1012CE00E4D5A651520AD8B4E7D5A651530AD8B4DC
:1012DE00EAD5A651540AD8B4EDD5A651550AD8B4BC
:1012EE00F0D5A651560AD8B4F3D5A651570AD8B49C
:1012FE00F6D5A651580AD8B4F9D5A651590AD8B47C
:10130E00FCD5A6515A0AD8B4FFD5A6515B0AD8B45B
:10131E0002D6A6515C0AD8B405D6A6515D0AD8B439
:10132E0008D6A6515E0AD8B40BD6A6515F0AD8B419
:10133E000ED6A651600AD8B411D6A651610AD8B4F9
:10134E0014D6A651620AD8B417D6A651630AD8B4D9
:10135E001AD6A651670AD8B41DD6A651680AD8B4B3
:10136E0020D6A651690AD8B423D6A6516A0AD8B493
:10137E0026D6A6516B0AD8B429D6A6516C0AD8B473
:10138E002CD6A6516D0AD8B42FD6A6516E0AD8B453
:10139E0032D6A6516F0AD8B435D6A651700AD8B433
:1013AE0038D6A651710AD8B43BD6A651720AD8B413
:0E13BE003ED6A651730AD8B441D647D61200C7
:1013CC00086A080E0C6E003408360450085ED8B05B
:0E13DC0002D00826D89000360C2EF5D712004D
:1013EA0096D1380E006E4A0E016E000E026E75D24C
:1013FA00360E006E4A0E016E000E026E6ED2340E6A
:10140A00006E4A0E016E000E026E67D23E0E006E2C
:10141A004A0E016E000E026E60D23C0E006E4A0E3B
:10142A00016E000E026E59D23A0E006E4A0E016E1D
:10143A00000E026E52D2320E006E4A0E016E000E7D
:10144A00026E4BD22A0E006E4A0E016E000E026E1A
:10145A0044D2280E006E4A0E016E000E026E3DD274
:10146A00260E006E4A0E016E000E026E36D2300E45
:10147A00006E4A0E016E000E026E2FD22E0E006E04
:10148A004A0E016E000E026E28D22C0E006E4A0E13
:10149A00016E000E026E21D2520E006E4A0E016ECD
:1014AA00000E026E1AD2500E006E4A0E016E000E27
:1014BA00026E13D24E0E006E4A0E016E000E026EBE
:1014CA000CD2580E006E4A0E016E000E026E05D244
:1014DA00560E006E4A0E016E000E026EFED1540EBA
:1014EA00006E4A0E016E000E026EF7D14C0E006EAF
:1014FA004A0E016E000E026EF0D1440E006E4A0EC4
:10150A00016E000E026EE9D1420E006E4A0E016EA5
:10151A00000E026EE2D1400E006E4A0E016E000EFF
:10152A00026EDBD14A0E006E4A0E016E000E026E8A
:10153A00D4D1480E006E4A0E016E000E026ECDD155
:10154A00460E006E4A0E016E000E026EC6D1FA0EEB
:10155A00006E490E016E000E026EBFD1040E006EBF
:10156A004A0E016E000E026EB8D1020E006E4A0ECD
:10157A00016E000E026EB1D1000E006E4A0E016EAF
:10158A00000E026EAAD1060E006E4A0E016E000E01
:10159A00026EA3D10C0E006E4A0E016E000E026E90
:1015AA009CD10A0E006E4A0E016E000E026E95D193
:1015BA00080E006E4A0E016E000E026E8ED1060EE5
:1015CA00006E000E016E000E026E87D1F80E006EDC
:1015DA00490E016E000E026E80D1FE0E006E490E9B
:1015EA00016E000E026E79D1FC0E006E490E016E7C
:1015FA00000E026E72D11E0E006E4A0E016E000EB1
:10160A00026E6BD11C0E006E4A0E016E000E026E47
:10161A0064D11A0E006E4A0E016E000E026E5DD182
:10162A00240E006E4A0E016E000E026E56D1220E74
:10163A00006E4A0E016E000E026E4FD1200E006E31
:10164A004A0E016E000E026E48D1120E006E4A0E4C
:10165A00016E000E026E41D1100E006E4A0E016E2E
:10166A00000E026E3AD10E0E006E4A0E016E000E88
:10167A00026E33D14D0E006E470E016E000E026EE1
:10168A002CD1080E006E470E016E000E026E25D197
:10169A00140E006E470E016E000E026E1ED1F00E81
:1016AA00006E460E016E000E026E17D1400E006EDD
:1016BA00460E016E000E026E10D1CC0E006E460E62
:1016CA00016E000E026E09D1A80E006E470E016E61
:1016DA00000E026E02D1E40E006E460E016E000E7E
:1016EA00026EFBD0FB0E006E450E016E000E026EFE
:1016FA00F4D0250E006E460E016E000E026EEDD07D
:10170A00C20E006E4A0E016E000E026EE6D0000195
:10171A00A651040AD8B465D6A651050AD8B468D623
:10172A00A651060AD8B46BD6A651070AD8B46ED603
:10173A00A651080AD8B471D6A651090AD8B474D6E3
:10174A00A6510A0AD8B477D6A6510B0AD8B47AD6C3
:10175A00A6510C0AD8B47DD6A6510D0AD8B480D6A3
:10176A00A6510E0AD8B483D6A6510F0AD8B486D683
:10177A00A651100AD8B489D6A651110AD8B48CD663
:10178A00A651120AD8B48FD6A651130AD8B492D643
:10179A00A651140AD8B495D6A651150AD8B498D623
:1017AA00A651160AD8B49BD6A651170AD8B49ED603
:1017BA00A651180AD8B4A1D6A651190AD8B4A4D6E3
:1017CA00A6511A0AD8B4A7D6A6511B0AD8B4AAD6C3
:1017DA00A6511C0AD8B4ADD6A6511D0AD8B4B0D6A3
:1017EA00A6511E0AD8B4B3D6A6511F0AD8B4B6D683
:1017FA00A651200AD8B4B9D6A651210AD8B4BCD663
:10180A00A651220AD8B4BFD6A651230AD8B4C2D642
:10181A00A651240AD8B4C5D6A651250AD8B4C8D622
:10182A00A651260AD8B4CBD6A651270AD8B4CED602
:10183A00A6512D0AD8B4D1D6A6512E0AD8B4D4D6D8
:10184A00A6512F0AD8B4D7D6A651300AD8B4DAD6B8
:10185A00A651310AD8B4DDD6A651330AD8B4E0D697
:10186A00A651340AD8B4E3D6A651350AD8B4E6D676
:10187A00A651360AD8B4E9D6A651370AD8B4ECD656
:10188A00A651380AD8B4EFD6A651590AD8B4F2D616
:10189A00A6515A0AD8B4F5D6A6515B0AD8B4F8D6D6
:1018AA00A6515C0AD8B4FBD6A6515E0AD8B4FED6B5
:1018BA00A6515F0AD8B401D7A651600AD8B404D792
:1018CA00A651610AD8B407D7A651620AD8B40AD772
:0C18DA00A651630AD8B40DD713D7120032
:0818E6006D6A696A446A120090
:0A18EE00315202E025EC04F0120074
:1018F800315218E0010E0001FA6F1E0EFB6FAAECC0
:1019080003F0010E0001FA6FFB6B32C0FCF033C02C
:10191800FDF0400EFE6F1AEC03F000C05DF001C050
:101928005EF017D00001010EFA6F1E0EFB6FAAECD5
:1019380003F0010E0001FA6FFB6B32C0FCF033C0FC
:10194800FDF0400EFE6F1AEC03F000C05DF001C020
:041958005EF012002B
:10195C00200E445C03E36DB201D002D0006A36D095
:10196C004EC0EBF04FC0ECF017EC02F000522DE142
:10197C00EAC0EBF0010EEC6FE7C0EDF0E8C0EEF062
:10198C00E9C0EFF02CEC02F000C04EF001C04FF0BB
:10199C003A6A3B6A3C6A3D6A4EC0EBF04FC0ECF0D1
:1019AC0017EC02F0005208E03A503B103C103D108E
:1019BC0002E0006A0BD0F0D7010E4E24E96E000E47
:0E19CC004F20EA6EEECF00F001D0006A12004C
:1019DA000001A391E7C0EBF0C1EC02F0A381120071
:1019EA00E1C004F0E2C005F004C0E9FF05C0EAFF67
:1019FA00EE5203E0044A052AF7D704C002F005C0F4
:101A0A0003F0044A052AE3C000F0E4C001F0000133
:101A1A00E34BE42B00C0E9FF01C0EAFF02C0E1FF8B
:101A2A0003C0E2FFEECFE6FF02C0E9FF03C0EAFF10
:101A3A00EE5201E0E2D7E1C000F0E2C001F012008C
:101A4A00F00E0001E115026E02C000F00032009EA5
:101A5A000032009E0032009E0032009EC90E002411
:101A6A00F66E450EF76E000EF722000EF86E000EA7
:101A7A00F8220900F5CF00F0E2C0E1FFE3C0E2FF7F
:101A8A0000C0E6FFE24BE32B0F0EE115006EC90E14
:101A9A000024F66E450EF76E000EF722000EF86E61
:101AAA00000EF8220900F5CF00F0E2C0E1FFE3C022
:081ABA00E2FF00C0E6FF12008C
:101AC200E1C004F0E2C005F004C002F005C003F07A
:101AD200044A052AE3C000F0E4C001F00001E34B30
:101AE200E42B00C0E9FF01C0EAFF02C0E1FF03C02E
:101AF200E2FFEECFE6FF02C0E9FF03C0EAFFEE52CB
:0E1B020001E0E2D7E1C000F0E2C001F0120005
:101B1000E1C0E7F0E2C0E8F0E3C0E9F0010E000147
:061B2000EA6F1CDF120059
:101B26000B6A0A6A096A00500402F4CF09F0F3CF7F
:101B360008F001500502F4CF0BF0F3CF0AF0005085
:101B46000502F3500926F4500A22E86A0B220150D6
:101B56000402F3500926F4500A22E86A0B2208C050
:101B660000F009C001F00AC002F00BC003F0120039
:101B76000001A951000A01E10ED0A951FF0A01E1B5
:101B86000AD08B92A9C036F0A40ED76E720ED66E0E
:081B9600F294F28AD58E1200D0
:101B9E00C7EC04F000C047F0010E316EE1C032F028
:101BAE00E2C033F0E3C034F0E4C035F0DDEC04F015
:101BBE00010E016E0150010A02E1B9EC04F01200AF
:101BCE000001E46B030EE45D0AE2E451E225E16EEE
:101BDE00000EE321E26E200EE66EE42BF3D7E45105
:101BEE00E225E16E000EE321E26EE66AE407E451BF
:101BFE00E225E56F000EE321E66F0A0E046EE1C0EA
:101C0E0000F0E6EC09F008C000F0300E0026E5C04A
:101C1E00E1FFE6C0E2FF00C0E6FF0A0E046EE1C07F
:101C2E0000F0E6EC09F000C0E1F00050000A01E11E
:081C3E0002D0E407DCD712001C
:101C460010D0800E0001E16F1AD0C00EE16F17D0E0
:101C5600940EE16F14D0D40EE16F11D0800EE16FB7
:101C66000ED00001E151010AECE0E151020AEDE07B
:101C7600E151030AEDE0E151040AEDE0EFD7E20598
:101C8600006EE151002600C0E1F000C0EBF0C1ECAF
:101C960002F0A391E56BE551E325E96E000EE42120
:101CA600EA6EEE520BE0E551E325E96E000EE42103
:101CB600EA6EEECFE7F08EDEE52BEDD7A3811200BC
:101CC600F4C002F0F5C003F0F7C000F0F8C001F070
:101CD600010E0001F75F000EF85B0050011009E0ED
:101CE60002C0E1FF03C0E2FFF6C0E6FF024A032A94
:041CF600EBD7120016
:101CFA000CD0FDDD3CD03BD0F5DD39D038D037D023
:101D0A0036D035D0000033D032D0000E0001F5199C
:101D1A0002E1010EF419EDE0000EF51902E1020EDE
:101D2A00F419E9E0000EF51902E1030EF419E4E0F2
:101D3A00F551000A02E1730EF419E0E0F551000AC8
:101D4A0002E1750EF419DBE0F551000A02E1740EA6
:101D5A00F419D6E0F5513F0A02E1FF0EF419D1E079
:101D6A00F551000A02E1720EF419CCE0CDD7010E4A
:041D7A00006E1200E5
:101D7E00E1C004F0E2C005F004C0E9FF05C0EAFFCF
:101D8E00EE5203E0044A052AF7D70001E551E611A9
:101D9E0021E004C002F005C003F0044A052AE3C0A6
:101DAE0000F0E4C001F0E34BE42B00C0E9FF01C0FA
:101DBE00EAFF02C0E1FF03C0E2FFEECFE6FF02C082
:101DCE00E9FF03C0EAFFEE5205E0010EE55F000EEB
:101DDE00E65BDBD7000EE61902E1000EE51905E120
:101DEE0004C0E1FF05C0E2FFE66AE1C000F0E2C018
:041DFE0001F01200DE
:041E020071DD12007C
:101E0600A6C0E1F0A7C0E2F0F00E0001A715E36F4F
:101E1600DDD21FEC05F000C083F001C084F002C0E3
:101E260085F00001A7A321D0F5EC09F000C086F0EB
:101E360001C087F002C088F000C0F6FF01C0F7FFBE
:101E460002C0F8FF0900F5CF00F0005207E086C097
:101E560000F087C001F088C002F0C8D283C000F04D
:101E660084C001F085C002F0C1D283C000F084C0F6
:101E760001F085C002F0BAD21CD06C0E006E470E7F
:101E8600016E000E026EB2D22B0E006E490E016E6E
:101E9600000E026EABD2500E006E490E016E000EA1
:101EA600026EA4D2C30E006E4A0E016E000E026EC2
:101EB6009DD20001E251100A02E1810EE119DDE036
:101EC600E251100A02E1820EE119DEE0E251100A47
:101ED60002E1830EE119DFE0E5D70AD1550E006E67
:101EE600490E016E000E026E81D2800E006E470E04
:101EF600016E000E026E7AD2FE0E006E480E016E64
:101F0600000E026E73D2050E006E490E016E000EB3
:101F1600026E6CD20C0E006E490E016E000E026E41
:101F260065D2E20E006E480E016E000E026E5ED2A3
:101F36009E0E006E470E016E000E026E57D2DB0E2D
:101F4600006E480E016E000E026E50D2D40E006E68
:101F5600480E016E000E026E49D2790E006E490ED1
:101F6600016E000E026E42D2710E006E490E016EB7
:101F7600000E026E3BD2AC0E006E4A0E016E000ED3
:101F8600026E34D2A60E006E4A0E016E000E026E6E
:101F96002DD2750E006E490E016E000E026E26D20F
:101FA600D40E006E490E016E000E026E1FD2D70EC1
:101FB600006E490E016E000E026E18D2910E006E72
:101FC600490E016E000E026E11D2950E006E490E7C
:101FD600016E000E026E0AD25A0E006E490E016E96
:101FE600000E026E03D21F0E006E490E016E000E29
:101FF600026EFCD18D0E006E490E016E000E026E51
:10200600F5D15F0E006E490E016E000E026EEED126
:10201600640E006E490E016E000E026EE7D13C0E94
:10202600006E490E016E000E026EE0D15A0E006E71
:10203600460E016E000E026ED9D1FC0E006E460EE3
:10204600016E000E026ED2D1130E006E490E016EA5
:10205600000E026ECBD1420E006E470E016E000ED0
:10206600026EC4D17B0E006E480E016E000E026E2B
:10207600BDD1A80E006E460E016E000E026EB6D1E0
:10208600370E006E470E016E000E026EAFD1B10E16
:10209600006E480E016E000E026EA8D1C30E006ED1
:1020A600480E016E000E026EA1D18D0E006E480E16
:1020B600016E000E026E9AD1D90E006E470E016EA9
:1020C600000E026E93D1C00E006E460E016E000E1B
:1020D600026E8CD1170E006E460E016E000E026E59
:1020E60085D1C40E006E4A0E016E000E026E7ED1C0
:1020F600E251200A02E1400EE119D8B4EFD6E251CE
:10210600200A02E1410EE119D8B4EFD6E251200AC5
:1021160002E1420EE119D8B4EFD6E251200A02E1FB
:10212600430EE119D8B4EFD6E251200A02E1440E7B
:10213600E119D8B4EFD6E251200A02E1450EE119C1
:10214600D8B4EFD6E251200A02E1460EE119D8B41E
:10215600EFD6E251200A02E1470EE119D8B4EFD6D4
:10216600E251200A02E1480EE119D8B4EFD6E25155
:10217600200A02E19C0EE119D8B4EFD6E251200AFA
:1021860002E19D0EE119D8B4EFD6E251200A02E130
:10219600B00EE119D8B4EFD6E251200A02E1B10E31
:1021A600E119D8B4EFD6E251200A02E1B20EE119E4
:1021B600D8B4EFD6E251200A02E1B30EE119D8B441
:1021C600EFD6E251200A02E1B40EE119D8B4EFD6F7
:1021D600E251200A02E1B50EE119D8B4EFD6E25178
:1021E600200A02E1B60EE119D8B4EFD6E251200A70
:1021F60002E1B70EE119D8B4EFD6E251200A02E1A6
:10220600B80EE119D8B4EFD6E251200A02E1CD0E9C
:10221600E119D8B4EFD6E251200A02E1E20EE11943
:10222600D8B4EFD6E251200A02E1E90EE119D8B49A
:10223600EFD6E251200A02E1EA0EE119D8B4EFD650
:10224600E251210A02E1830EE119D8B4EFD6E25138
:10225600210A02E1850EE119D8B4EFD6E251210A2E
:1022660002E18A0EE119D8B4EFD6E251210A02E161
:10227600920EE119D8B4EFD6E251210A02E1940E8A
:10228600E119D8B4EFD6E251210A02E1960EE1191E
:10229600D8B4EFD6E251220A02E1210EE119D8B4F0
:1022A600EFD6E251220A02E1230EE119D8B4EFD6A5
:1022B600E251220A02E1240EE119D8B4EFD6E25126
:1022C600220A02E1250EE119D8B4EFD6E251220A1C
:1022D60002E1260EE119D8B4EFD6E251220A02E154
:1022E600270EE119D8B4EFD6E251220A02E12A0EEE
:1022F600E119D8B4EFD6F5D646D0B40E006E460E28
:10230600016E000E026E72D09B0E006E460E016EBE
:10231600000E026E6BD0740E006E460E016E000E3D
:10232600026E64D0210E006E480E016E000E026E23
:102336005DD0C60E006E470E016E000E026E56D0C0
:10234600180E006E480E016E000E026E4FD0200E63
:10235600006E470E016E000E026E48D0BC0E006E77
:10236600470E016E000E026E41D0330E006E480E0F
:10237600016E000E026E3AD0C00E006E4A0E016E5D
:10238600000E026E33D0A651000AB7E0A651010A2C
:10239600BBE0A651020ABFE0A651030AC3E0A6515C
:1023A600040AC7E0A651050ACBE0A651060ACFE00B
:1023B600A651080AD3E0A651070AD7E0DDD7C10E19
:1023C600006E4A0E016E000E026E10D0E351000A36
:1023D600D8B41FD5E351100AD8B44ED5E351200A1C
:0E23E600D8B47BD5E351F00A87E0E9D71200A6
:1023F400AE0E056E000E066E05C003F006C004F0B6
:10240400054A062AE1C000F0E2C001F0E3C002F090
:10241400010E0001E127000EE223E32300C0F6FFD2
:1024240001C0F7FF02C0F8FF0900F5CF00F003C0B8
:10243400E1FF04C0E2FF00C0E6FF03C0E9FF04C0FF
:10244400EAFFEE5201E0D8D7AE0E006E000E016E28
:02245400120074
:102456004B8E710E0001F46F0F0EF56FF66B010EC9
:10246600F76F000EF86F2CDCAA0EF46F000EF56FF6
:10247600F66B010EF76F000EF86F22DC22C442F0F5
:102486004250000A03E1100E446E0FD0200E446E37
:10249600010EF46F000EF56F420EF66F000EF76F29
:0C24A600010EF86F000EF96F25DC12002B
:1024B2000401286B296B47D004014B8E288100014F
:1024C200A151010A02E10401288352D04B8E50D05F
:1024D20004014B8E24BF16D024C403F00F0E031642
:1024E20003C000F0000E016E0036009001363E0E71
:1024F2000024E96E000E0120EA6EEECF04F0EECF6A
:1025020005F015D024C403F00F0E031603C000F02B
:10251200000E016E003600900136590E0024E96E5D
:10252200000E0120EA6EEECF04F0EECF05F004C0FB
:10253200E9FF05C0EAFFEECF01F001A403D00401D8
:10254200010E286F15D020C401F01F0E0116015094
:10255200000AB2E020C401F01F0E01160150010A68
:10256200B5E020C401F01F0E01160150020AB0E0CE
:102572004BAE07D0280E486E040E496E4B80020EF9
:042582004C6E120089
:1025860004012051800AD8A473D0C00E4B6E66D0C9
:10259600A60E006E450E016E000E026E00C048F0DB
:1025A60001C049F002C04AF0120E4C6E000E4D6E8C
:1025B6005FD0030E006E000E016E22C404F0000E02
:1025C600056E93EC0DF0910E0024E96E000E0120CD
:1025D600EA6EEECF48F0EECF49F0EECF4AF0020EAB
:1025E6004824F66E000E4920F76E000E4A20F86E5B
:1025F6000900F5CF00F00900F5CF01F000C04CF05E
:1026060001C04DF035D02251475C24E3030E006E25
:10261600000E016E22C404F0000E056E93EC0DF060
:10262600940E0024E96E000E0120EA6EEECF48F00B
:10263600EECF49F0EECF4AF048C0F6FF49C0F7FFAB
:102646004AC0F8FF0900F5CF00F000C04CF0000EBC
:102656004D6E01D04B6A0CD04B6A0AD02351010A49
:1026660097E02351020AA5E02351030ACCE0F4D7F0
:02267600120050
:10267800000E4D5C02E1080E4C5C11E24CC003F008
:102688004DC004F00001A251000A03E1010EA26F3F
:1026980005D0A251010A02E1020EA26F04D0080E71
:1026A800036E000E046E000159C0E1FF5AC0E2FF3C
:1026B800E69259C0E1FF5AC0E2FFE69059C0E9FF2F
:1026C8005AC0EAFFEECF00F059C0E1FF5AC0E2FF5E
:1026D80004500010E66E010E5924E16E000E5A20D7
:1026E800E26E03C0E6FF03504C5C006E04504D5888
:1026F800016E00C04CF001C04DF0280E9F6F040E13
:10270800A06F4BB02FD0035004102BE048C0F6FF49
:1027180049C0F7FF4AC0F8FF0900F5CF00F09FC095
:10272800E1FFA0C0E2FF00C0E6FF9F4BA02B010E17
:102738004824006E000E4920016E000E4A20026EE9
:1027480000C048F001C049F002C04AF0010E035C25
:10275800006E000E0458016E00C003F001C004F0C2
:10276800D2D724D00350041021E048C0E9FF49C063
:10277800EAFF9FC0E1FFA0C0E2FFEECFE6FF9F4B5C
:10278800A02B010E4824006E000E4920016E00C0E7
:1027980048F001C049F0010E035C006E000E0458B9
:0E27A800016E00C003F001C004F0DCD7120087
:1027B60004012251010A11E120C401F01F0E011685
:1027C6000150000A0AE14B8E2151030A04E1010E71
:1027D6000001A16F02D00001A16B04012251000A81
:1027E600D8A48BD020C401F01F0E01160150020A96
:1027F600D8A483D024C401F00F0E01160150000A9C
:10280600D8B47BD04B8E24BF16D024C403F00F0E51
:10281600031603C000F0000E016E0036009001366C
:102826003E0E0024E96E000E0120EA6EEECF04F0A3
:10283600EECF05F015D024C403F00F0E031603C027
:1028460000F0000E016E003600900136590E00248D
:10285600E96E000E0120EA6EEECF04F0EECF05F031
:102866002151030A07E104C0E1FF05C0E2FF840E1F
:10287600E66E43D024C400F00F0E0016700E026EF2
:102886000F0E036E00500226D8B0032A02C0E9FFDD
:1028960003C0EAFFFE0EEE14006EEECF01F0FF0E4F
:1028A600011602C0E1FF03C0E2FF00C0E6FF01C05F
:1028B600E6FF24AF11D004C0E1FF05C0E2FFE66ADF
:1028C600040E0418006E00C004F004C0E1FF05C049
:1028D600E2FF400EE66E11D004C0E1FF05C0E2FF44
:1028E600880EE66E040E0418006E00C004F004C0E4
:0C28F600E1FF05C0E2FFC80EE66E120014
:10290200BBEC0DF0DA0EE16F450EE26F000EE36FE5
:1029120070DD00C0E3F001C0E4F0020EE16F010ED1
:10292200E26F23EC0EF04B0E0501086F096B0A6B88
:102932000B6B0001A891A8B156D0000EE16F050EF5
:10294200E26F080EE36F050EE46FCFEC0DF00001AD
:10295200DF6BA8B134D0320EDF5D31E28B80020E24
:102962000B6E860E0C6E990E0D6E0D2EFED70C2E72
:10297200FCD70B2EFAD78B90020E0B6E860E0C6EC6
:10298200990E0D6E0D2EFED70C2EFCD70B2EFAD7FC
:10299200080EE16F050EE26F040EE36F88EC0DF096
:1029A2000050000A000ED8A4010E016E01B003D03F
:1029B2000001A89102D00001A881DF2BCAD7A8B1DB
:1029C20011D0BBEC0DF001EC0FF0990E0B6E310E35
:1029D2000C6EA20E0D6E0D2EFED70C2EFCD70B2EFA
:1029E200FAD70000A8D7330EE16F460EE26F000E51
:1029F200E36FFFDC00C0E3F001C0E4F0020EE16F20
:0A2A0200010EE26F23EC0EF012004B
:102A0C0001EC0FF08E0E0001E16F460EE26F000E2E
:102A1C00E36FEADC00C0E3F001C0E4F0020EE16F0A
:0C2A2C00010EE26F23EC0EF0A8911200E6
:102A380008D08B82D59E0DD08B92D59E0AD0D58E8C
:102A480008D00001A951000AF4E0A951FF0AF4E0F6
:042A5800F6D712009B
:102A5C00010E0001EB6FC1EC02F0A7C0E1F0720EA9
:102A6C00E26F000EE36F25EC0DF0200E746F756BAA
:102A7C00F00EA715E06FC8D0A8A912D0570EE16FC1
:102A8C00480EE26F000EE36FAFDC00C0E3F001C054
:102A9C00E4F0720EE16F000EE26FF5EC0CF07CD0FE
:102AAC000F0EA715DF6F71D0720EE16F480EE26F3B
:102ABC00000EE36F99DC00C0E3F001C0E4F0720E8D
:102ACC00E16F000EE26FF5EC0CF066D0760EE16F64
:102ADC00470EE26F000EE36F87DC00C0E3F001C02D
:102AEC00E4F0720EE16F000EE26FF5EC0CF054D0D6
:102AFC00A7A711D0370EE16F490EE26F000EE36FFE
:102B0C0073DC00C0E3F001C0E4F0720EE16F000E64
:102B1C00E26FF5EC0CF0A7A111D0460EE16F490E57
:102B2C00E26F000EE36F60DC00C0E3F001C0E4F084
:102B3C00720EE16F000EE26FF5EC0CF0A7A511D050
:102B4C00410EE16F490EE26F000EE36F4DDC00C0E9
:102B5C00E3F001C0E4F0720EE16F000EE26FF5ECF1
:102B6C000CF0A7A311D0190EE16F490EE26F000E05
:102B7C00E36F3ADC00C0E3F001C0E4F0720EE16FE9
:102B8C00000EE26FF5EC0CF007D0DF51000A8CE080
:102B9C00DF510F0A9BE0ACD745D0F00EE16F480E29
:102BAC00E26F000EE36F20DC00C0E3F001C0E4F044
:102BBC00720EE16F000EE26FF5EC0CF033D0670E85
:102BCC00E16F460EE26F000EE36F0EDC00C0E3F027
:102BDC0001C0E4F0720EE16F000EE26FF5EC0CF048
:102BEC0021D0090EE16F460EE26F000EE36FFAEC96
:102BFC0011F000C0E3F001C0E4F0720EE16F000EC2
:102C0C00E26FF5EC0CF00ED0E051000AD8B434D7DA
:102C1C00E051100AC2E0E051200AD1E0E051F00A84
:102C2C00E0E0F1D7A8A913D0EB0EE16F450EE26FEF
:102C3C00000EE36FFAEC11F000C0E3F001C0E4F019
:102C4C005F0EE16F000EE26F61EC0DF0ACD0A8A549
:102C5C001ED0A5C0E1F05F0EE26F000EE36F25EC15
:102C6C000DF0200E616F626BB20EE16F470EE26FDA
:102C7C00000EE36FFAEC11F000C0E3F001C0E4F0D9
:102C8C005F0EE16F000EE26FF5EC0CF08CD0A8AB90
:102C9C0067D0A4C0E1F05F0EE26F000EE36F25EC8D
:102CAC000DF0200E616F626BDA0EE16F490EE26F70
:102CBC00000EE36FFAEC11F000C0E3F001C0E4F099
:102CCC005F0EE16F000EE26FF5EC0CF041D0850E5B
:102CDC00E16F490EE26F000EE36FFAEC11F000C0E9
:102CEC00E3F001C0E4F05F0EE16F000EE26FF5EC73
:102CFC000CF035D0DD0EE16F490EE26F000EE36F84
:102D0C00FAEC11F000C0E3F001C0E4F05F0EE16FEB
:102D1C00000EE26FF5EC0CF022D0A4C0E1F0640ED2
:102D2C00E26F000EE36FE7EC0DF0310EE16F490E30
:102D3C00E26F000EE36FFAEC11F000C0E3F001C09B
:102D4C00E4F05F0EE16F000EE26FF5EC0CF007D0D3
:102D5C00A451000ABCE0A451FF0ACCE0DED723D07A
:102D6C00A6C0E1F05F0EE26F000EE36F25EC0DF0F4
:102D7C00200E616F626B03EC0FF000C0E1F001C03C
:102D8C00E2F002C0E3F0FAEC11F000C0E3F001C095
:102D9C00E4F05F0EE16F000EE26F0D0EE56F000EBA
:102DAC00E66FBFEC0EF0010EE16F010EE26F720EDA
:102DBC00E36F000EE46F23EC0EF0020EE16F010ED8
:102DCC00E26F5F0EE36F000EE46F23EC0EF0120067
:102DDC0000019D6B59C0E1FF5AC0E2FFE66A040E88
:102DEC005918E16E5AC0E2FF000EE21AE66A52BEB2
:042DFC00529E1200D1
:102E000081BC02D0D88001D0D890000ED8B0010E7D
:042E1000006E12003E
:102E140020C401F0600E0116050E006E005004E09F
:102E24000132019EFF0FFBD70150000A01E067D079
:102E340043D04B8E080E446E62D0C3EC12F05FD0C8
:102E44002BEC12F05CD0420E486E000E496E4B80A3
:102E5400010E4C6E4B8E53D059EC12F050D0A9DCBD
:102E64004ED0AA0E006E000E016E040124510026FD
:102E7400D8B0012A00C048F001C049F04B80010ECF
:102E84004C6E4B8E3CD04B8EAA0EE16E000EE26E61
:102E94002451E126D8B0E22A22C4E6FF30D0020E43
:102EA4000001F46F000EF56FF66BF76BF86BF96BBE
:102EB4007DEC0EF024D023D004012151050AB9E0A1
:102EC4002151060ABAE02151090ABAE02151080A3F
:102ED400BAE02151000AC0E02151010AC0E02151A9
:102EE400030ABDE021510A0ABCE021510B0ACBE0E0
:102EF4002151070AD4E021510C0ADDE0DCD712008D
:102F04006D984BBE4BD052AE29D0020E00019D6F7E
:102F1400010E5924E16E000E5A20E26EE66A59C091
:102F2400E1FF5AC0E2FFC80EE66E010EAC25E16E69
:102F3400000EAD21E26E080EE66E020EAC25E16EC7
:102F4400000EAD21E26E280EE66E040EE66EACC0F5
:102F5400E1FFADC0E2FFC80EE66E1FD00001010E16
:102F6400AC25E16E000EAD21E26E080EE66E020E97
:102F7400AC25E16E000EAD21E26E200EE66E040E6D
:102F8400E66EACC0E1FFADC0E2FF8C0EE66E59C048
:102F9400E1FF5AC0E2FF840EE66E80D052BE7ED0BE
:102FA400040120AF53D04D50275D02E14C50265D03
:102FB40004E226C44CF027C44DF03CEC13F0010E9F
:102FC40000019D6F010EAC25E16E000EAD21E26E95
:102FD400080EE66E020EAC25E16E000EAD21E26E27
:102FE400200EE66E040EE66EACC0E1FFADC0E2FF5B
:102FF400800EE66E9E6B010E8F25E16E000E902111
:10300400E26E080EE66E020E8F25E16E000E902130
:10301400E26E200EE66E040EE66E8FC0E1FF90C0F5
:10302400E2FF840EE66E010E9E6F020E5924E16EDD
:10303400000E5A20E26E280EE66E040EE66E59C0AB
:10304400E1FF5AC0E2FFC80EE66E28D00001020E6E
:103054009D6F010E5924E16E000E5A20E26EE66A5D
:1030640059C0E1FF5AC0E2FFC80EE66E010EAC255E
:10307400E16E000EAD21E26E080EE66E020EAC2586
:10308400E16E000EAD21E26E280EE66E040EE66ED1
:0E309400ACC0E1FFADC0E2FFC80EE66E120058
:1030A200010E00018F25E96E000E9021EA6EEECF2F
:1030B20000F000C002F0000E545C02E10250535CCA
:1030C20003E253C002F00AD00250535C006E000EBD
:1030D2005458016E00C053F001C054F0036A02500C
:1030E200035C1CE2280EE96E040EEA6E0350E92628
:1030F200D8B0EA2AEECF00F050C0E1FF51C0E2FFA3
:1031020000C0E6FF010E5024006E000E5120016E39
:1031120000C050F001C051F0032AE1D7000E006E4A
:103122005450005C02E15350000828E2010EAC2525
:10313200E16E000EAD21E26E080EE66E020EAC25C7
:10314200E16E000EAD21E26E280EE66E040EE66E12
:103152008FC0E9FF90C0EAFFEECF00F000BC07D0BD
:10316200ACC0E1FFADC0E2FFC80EE66E06D0ACC057
:10317200E1FFADC0E2FF880EE66E19D0010EAC256C
:10318200E16E000EAD21E26E080EE66E020EAC2577
:10319200E16E000EAD21E26E200EE66E040EE66ECA
:1031A200ACC0E1FFADC0E2FF840EE66E529E12009B
:1031B2000001A8A11FD0530E0501086FA6C009F592
:1031C200080E0001E16F050EE26F020EE36F88EC5C
:1031D2000DF0005201E1F4D70501096B080E000160
:1031E200E16F050EE26F020EE36F88EC0DF0005204
:0631F20001E1F4D7120018
:0A31F8009484CA94F00EBD16120074
:1032020081BE02D0D88001D0D890000ED8B0010E75
:04321200006E120038
:103216000001A8A123D04B0E0501086FA7C009F530
:103226000A6BA6C00BF5080E0001E16F050EE26FF2
:10323600040EE36F88EC0DF0005201E1F4D70501AE
:10324600096B0B6B080E0001E16F050EE26F040EB1
:0E325600E36F88EC0DF0005201E1F4D7120096
:103264003AD0828C080E0B6E9D0E0C6E050E0D6E00
:103274000D2EFED70C2EFCD70B2EFAD70000000023
:10328400829C43D0828E080E0B6E9D0E0C6E050E32
:103294000D6E0D2EFED70C2EFCD70B2EFAD7000088
:1032A4000000829E32D006EC15F081EC14F02DD093
:1032B400A96B1CEC15F029D0FF0E0001A96F1CECC2
:1032C40015F023D00001A89D2EEC15F01ED0A88D7A
:1032D4001CD01BD01AD00001A651010AC2E0A6518D
:1032E400020AD0E0A651030ADEE0A651040AE0E097
:1032F400A651050AE1E0A651080AE4E0A651070A2E
:0C330400E6E0A651000AE5E0E5D7120063
:083310000001DE51A5271200A7
:10331800A7C000F00032009E0032009E0032009EDE
:103328000032009E0001DE5100260F0E0014036ECD
:103338000F0EA715026E03C000F00036009000368D
:10334800009000360090003600900250001200C035
:04335800A7F01200C8
:10335C000001A8A125D0430E0501086FA6C009F5F0
:10336C000F0E0001A71505010A6F080E0001E16F91
:10337C00050EE26F030EE36F88EC0DF0005201E1D5
:10338C00F4D70501096B0A6B080E0001E16F050EFD
:10339C00E26F030EE36F88EC0DF0005201E1F4D7FD
:0233AC0012000D
:0A33AE009494CA840C0EBD121200A4
:0833B8000001DE51A427120000
:1033C00059C0E9FF5AC0EAFFEECF00F000AE05D0C9
:1033D00059C0E1FF5AC0E2FFE66A0001A26B9D6B93
:1033E0004C6A4D6A4B6A16DD030E0001F46F000E45
:1033F000F56FF66BF76BF86BF96B7DEC0EF082DD19
:023400001200B8
:1034020000019D51020A02E14BDE1ED0E6DC9E5114
:10341200000A19E1010EAC25E16E000EAD21E26E4B
:10342200080EE66E020EAC25E16E000EAD21E26ED4
:10343200200EE66E040EE66EACC0E1FFADC0E2FF08
:0A3442008C0EE66E01D09E6B1200A6
:10344C0059C0E9FF5AC0EAFFEECF00F0000E00BCF5
:10345C00010E0001F36F040E5918006E00C059F0F4
:10346C004450080A0AE122C46EFF6E50000803E2C1
:10347C00100E446E02D0040E446E9D51010A28E1D8
:10348C00020E5924E16E000E5A20E26E280EE66EF2
:10349C00040EE66E3CEC13F00001A251020A07E1A7
:1034AC0059C0E1FF5AC0E2FF840EE66E10D0F35112
:1034BC00000A07E159C0E1FF5AC0E2FFC80EE66EF0
:1034CC0006D059C0E1FF5AC0E2FF880EE66E01D06B
:0434DC007FDC12007F
:1034E00000018D6B8E6B8C6B010E7025006E000ED3
:0E34F0007121016E00C070F001C071F0120079
:1034FE00A69CDCC0A9FFA69EA680A8CF00F0120055
:10350E00F250026EF29E0500FF6A0150FE6E0050F0
:08351E00FD6E02BEF28E1200E8
:10352600A6A202D00000FCD7A69CDCC0A9FFDDC085
:10353600A8FFA69EA684F2CF00F0F29E550EA76EB7
:10354600AA0EA76EA68200BE02D0F29E01D0F28E0F
:04355600A694120025
:10355A00000E0001A615026EA751F00B036EFF0EB6
:10356A00A615006EA7510F0B016EDC510026000E46
:10357A00DCBFFF0E0122FF0E00160F0E01160250CD
:10358A0000120350011200C0A6F001C0A7F01200F9
:10359A00100E456E270E466E8B80F00E0001A715A1
:1035AA00DC6F09D033DE15D0FFDD13D0D2DE11D0A7
:1035BA0054DE0FD00ED00001DC51000AF3E0DC51DA
:1035CA00100AF2E0DC51200AF1E0DC51F00AF0E0E6
:0435DA00F1D7120013
:1035DE00E7DE050E0C6EAB0E0D6E0D2EFED70C2E0D
:0A35EE00FCD70000000001DE12000F
:1035F8000001DC6B060EDC5D1BE22A0EE96E000E94
:10360800EA6EDC51E926D8B0EA2AEECFE1F0DCC058
:1036180000F0000E016E003601360090720E002494
:10362800E26F000E0120E36F25EC0DF0DC2BE2D7F2
:1036380071C0E1F07E0EE26F000EE36F25EC0DF035
:1036480070C0E1F0800EE26F000EE36F25EC0DF024
:10365800826BA6C0E1F05F0EE26F000EE36F25EC0F
:103668000DF0200E616F8DC0E1F0620EE26F000E6A
:10367800E36F25EC0DF08EC0E1F0640EE26F000EF2
:10368800E36F25EC0DF0200E646F8CC0E1F0660E40
:10369800E26F000EE36F25EC0DF02E0E666F200E24
:1036A800686F8AC0E1F0690EE26F000EE36F25ECE7
:1036B8000DF089C0E1F06B0EE26F000EE36F25ECB0
:1036C8000DF0200E6D6F8BA103D0750E6E6F02D0BA
:1036D800640E6E6F6F6B706B716B010EEB6FC1ECEC
:1036E80002F0010EE16F010EE26F720EE36F000E41
:1036F800E46F23EC0EF0020EE16F010EE26F5F0E35
:0C370800E36F000EE46F23EC0EF01200E3
:10371400FD0E0001AB15016E026AFF0E0216000ECB
:10372400021802E1000E01186BE17E0EAB15016E6A
:1037340001C003F00332039E03C000F0000E016ECB
:10374400003600900136003600900136000E002449
:10375400026E040E0120036E02C08FF003C090F0CD
:1037640002C0ACF003C0ADF0040EAC19006E00C092
:10377400ACF002C0E9FF03C0EAFFEECF00F000C0E6
:1037840001F03C0E01160132019E0132019E0150EE
:103794000D0A34E1020E8F25E96E000E9021EA6EC7
:1037A400EECF01F0EECF02F00250040A02E1280E3F
:1037B400011822E1020E8F25E16E000E9021E26EC7
:1037C400200EE66E040EE66EF26B080EF25D14E255
:1037D400200EE16E040EE26EF251E126D8B0E22A28
:1037E400280EE96E040EEA6EF251E926D8B0EA2AF0
:1037F400EECFE6FFF22BE9D7E1DD01D000DE0ED0FB
:103804000001FD0EAB15016E026AFF0E0216000EDA
:0E381400021802E1040E011801E116DE120096
:1038220070A019D08FC0E9FF90C0EAFFEECF01F07F
:103832000150800A0FE159C0E9FF5AC0EAFFEECFFA
:1038420001F00150840A06E18FC0E1FF90C0E2FF5F
:0C3852008C0EE66E7090DF0E68161200FF
:10385E00CB50010F006E016A000E0122D3C004F09E
:10386E00000E056E93EC0DF0060E026E00C004F015
:10387E0001C005F0025005E005320432059EFF0F2F
:10388E00FAD7040E016E04C000F0015004E00036B9
:10389E000090FF0FFBD7300E0014036E04C000F033
:1038AE0005C001F001320032019E01320032019E4C
:0E38BE0000C0BEFF0F0EBD160350BD1212005B
:0838CC00BE6ABD98BD9A12000E
:1038D400010E0001DC6FA9C0DDF023DE1CEC15F045
:0238E4001200D0
:1038E600D6C0E1FFD7C0E2FFD3C0E6FFD4C000F0E8
:1038F600D5C001F009DE2EEC15F0D8C000F0D9C015
:1039060001F002DE00521DE00001A8A319D0800ECE
:10391600006E800E39BE7F0E005C02E13950000851
:103926000FE3D6C0E1FFD7C0E2FFD3C0E6FFD4C0A5
:1039360000F0D5C001F0E8DD2EEC15F0A893396A49
:04394600DCD71200B8
:10394A00D3C0DCF005DE2EEC15F0020E306ED4C0CA
:10395A0000F0D5C001F0D6DD005235E00001A8A381
:10396A0031D0800E006E800E39BE7F0E005C02E1FF
:10397A003950000827E330063050000A20E1D3C04E
:10398A00DCF0E6DD03EC0FF000C0F6FF01C0F7FF44
:10399A0002C0F8FF0900F5CF01F00150000A0BE15F
:1039AA000F0E0001A615016E0150000A04E0D3C0F3
:1039BA00DCF0CEDDE7D72EEC15F0020E306E0001FA
:0839CA00A893396AC4D712006A
:1039D200010E0001DC6F92DD00C0A9F01CEC15F0B5
:0239E2001200D1
:0439E400A09012009D
:1039E800080E0001D46FD45100081BE2F4DDD3AFF8
:1039F8000AD00D0E0C6EDA0E0D6E0D2EFED70C2EA3
:103A0800FCD700000AD0050E0C6EAB0E0D6E0D2E05
:103A1800FED70C2EFCD700000000D337D391D40773
:043A2800E2D71200CF
:103A2C002A500001A51904E02A50FF0A01E021D018
:103A3C002B502A18006E01E11CD02D502C18006E52
:103A4C0001E117D02F502E18006E01E112D02CC0BE
:103A5C0001F0006A2E500012000E011200C0A6F0F8
:103A6C0001C0A7F0A8AD02D0C1DD02D02EEC15F03C
:043A7C008EDD1200C9
:103A8000480E0001EB6FC1EC02F0E76BEDEC0CF0BF
:103A9000040EE76FEDEC0CF00A0EE76FEDEC0CF0A6
:103AA000150EE76FEDEC0CF0040EE76FEDEC0CF08B
:103AB000040EE76FEDEC0CF0E76BEDEC0CF0E76B50
:103AC000EDEC0CF0E76BEDEC0CF0040EE76FEDECB9
:103AD0000CF0040EE76FEDEC0CF0150EE76FEDEC5B
:103AE0000CF00A0EE76FEDEC0CF0040EE76FEDEC56
:103AF0000CF0E76BEDEC0CF0E76BEDEC0CF0E76B2A
:103B0000EDEC0CF0040EE76FEDEC0CF0020EE76F3D
:103B1000EDEC0CF01D0EE76FEDEC0CF0020EE76F14
:103B2000EDEC0CF0040EE76FEDEC0CF0E76BEDEC58
:103B30000CF0E76BEDEC0CF0E76BEDEC0CF0040E29
:103B4000E76FEDEC0CF0080EE76FEDEC0CF0170EE4
:103B5000E76FEDEC0CF0080EE76FEDEC0CF0040EE7
:103B6000E76FEDEC0CF0E76BEDEC0CF0E76BEDECD8
:103B70000CF0E76BEDEC0CF0E76BEDEC0CF0090EE4
:103B8000E76FEDEC0CF0150EE76FEDEC0CF0120E9C
:103B9000E76FEDEC0CF0E76BEDEC0CF0E76BEDECA8
:103BA0000CF0E76BEDEC0CF01B0EE76FEDEC0CF09E
:103BB0001B0EE76FEDEC0CF01B0EE76FEDEC0CF05D
:103BC0001B0EE76FEDEC0CF01B0EE76FEDEC0CF04D
:103BD0001B0EE76FEDEC0CF01B0EE76FEDEC0CF03D
:103BE000E76BEDEC0CF0E76BEDEC0CF0100EE76F13
:103BF000EDEC0CF0080EE76FEDEC0CF0040EE76F47
:103C0000EDEC0CF0020EE76FEDEC0CF0010EE76F3F
:103C1000EDEC0CF0E76BEDEC0CF0E76BEDEC0CF081
:0A3C2000020EEB6FC1EC02F012007F
:103C2A00740E0001F46F000EF56FF66BF76BF86B0C
:103C3A00F96B7DEC0EF06D92699468A403D0FB0ECB
:063C4A006816FBD7120012
:043C5000A19A120023
:103C54006984EF0E68166D82750E0001F46F000E14
:103C6400F56FF66BF76BF86BF96B7DEC0EF01200E9
:103C7400FDEC01F05D6A5E6A4E6A4F6A6A6A686AC0
:103C840047EC01F06D8C6E6A710EF46F0F0EF56FD8
:103C9400F66B010EF76F000EF86F63EC0EF06D9C7F
:103CA400F26B080EF25D16E2F2C000F0000E016E37
:103CB400003600900136003600900136000E0024D4
:103CC400E16E040E0120E26EE66AE66AE66AE66ADE
:103CD400F22BE7D7160E706E68A603D0F70E68169F
:103CE400FBD74B6A526A536A546A6D98080E596E30
:0A3CF400040E5A6E426A446A120080
:103CFE00A090A190040EBA6ECF6ACE6A70EC1AF044
:043D0E00A08012007F
:103D120000018C2B8C51070811E28C6B2A0EE16E8C
:103D2200000EE26E8E51E126D8B0E22A43C0E6FFD1
:0E3D32008E2B060E8E5D02E3030E8D6F1200C7
:103D4000929A92989290929292949296809A809857
:103D5000809680948092809092EC00F092EC00F03B
:103D600092EC00F080828080808A9CEC00F0809A47
:103D700092EC00F0808A9CEC00F0809A92EC00F0CB
:103D8000808A9CEC00F0809A92EC00F08090808A0F
:103D90009CEC00F0809A92EC00F0808A9CEC00F0A1
:103DA000809A80928086808A9CEC00F0809A92ECC7
:103DB00000F080968080808A9CEC00F0809A809051
:103DC000808A9CEC00F0809A92EC00F0808A9CEC57
:103DD00000F0809A8080808A9CEC00F0809A92ECBF
:103DE00000F08090808A9CEC00F0809A808680842D
:103DF00080828080808A9CEC00F0809A92EC00F0B7
:063E00000001A381120085
:103E06000900F5CFE6FF0006FBE10106F9E1120025
:103E16000001A86BCE6B060ECE5D0BE22A0EE16E9C
:103E2600000EE26ECE51E126D8B0E22AE66ACE2B2B
:103E3600F2D7A66BA76B6F886F84070ED56EB10E8F
:103E4600CD6EB00EB16EF28EF28CF19E0F0EC16E7B
:103E5600070EB46EFF0E926EFF0E936E380E946EC2
:103E6600896A8A6A8B6ACA90CA929C0ECB6E2BDDCF
:103E7600800ED36FF1DC61DF00DE010EEB6FC1EC6B
:103E860002F00C0EEB6FC1EC02F02C0EE16F470E48
:103E9600E26F000EE36FFAEC11F000C0E3F001C030
:103EA600E4F0010EE16F010EE26F23EC0EF0F70E67
:103EB6008114006EF70E001A00521AE0B80EE16F78
:103EC600450EE26F000EE36FFAEC11F000C0E3F06E
:103ED60001C0E4F0020EE16F010EE26F23EC0EF07A
:103EE600F70E8114006EF70E001A005201E0F8D7A3
:103EF600A082DC6B7FEC1AF000C0A5F067DDFCDE6B
:023F06001200A7
:103F08008B806CDDA5C02AF00001A51D006E00C0E5
:103F18002BF0A7C02CF0A71D006E00C02DF0A6C086
:103F28002EF0A61D006E00C02FF0D7EC19F0080E79
:103F38000C6EC90E0D6E0D2EFED70C2EFCD7000090
:103F48000000FCEC18F0050E0C6EAB0E0D6E0D2E7D
:103F5800FED70C2EFCD700000000CE6B060ECE5DFF
:103F68000DE22A0EE96E000EEA6ECE51E926D8B0AF
:103F7800EA2AEECFD3F034DDCE2BF0D7EFEC1AF0EF
:103F8800040E0B6E0C0E0C6E330E0D6E0D2EFED73E
:103F98000C2EFCD70B2EFAD700000000ACDE8B905D
:023FA800120005
:103FAA000001A77181B216D0A8A313D0800E006EAB
:103FBA00800E39BE7F0E005C02E13950000809E329
:103FCA00A771A7772EEC15F081B201D0FDD7A8937F
:0A3FDA00396AE8D72EEC15F012004A
:103FE4000001A77381B81ED0A8A31BD0800E006E59
:103FF400800E39BE7F0E005C02E13950000811E3E7
:10400400A8B90DD0000EA615006EA751F00B016ED5
:1040140000C0A6F001C0A7F0A8892EEC15F0A89363
:0A402400396AE0D72EEC15F0120007
:10402E007AD000018A51020802E189510D08010E71
:10403E00D8B0000E016E030E8A5D02E1CF0E895DCF
:10404E00010ED8B0000E006E00500116006A8BB142
:10405E00002A0150001603E0010E8D6F02D070ECA5
:10406E001AF068D08BB102D0028001D00290000EFF
:10407E00016E8A51015C02E18951E108010ED8B04E
:10408E00000E016E020E8A5D02E1A30E895D010E25
:10409E00D8B0000E006E00500116006A02B0002A61
:1040AE000150001603E0020E8D6F02D070EC1AF074
:1040BE0041D08BA109D08A51020802E18951A3088F
:1040CE0002E270EC1AF022D08A51050802E1895101
:1040DE00B60803E270EC1AF019D08A51030802E117
:1040EE008951F40805E24336439043800BDE0ED02F
:1040FE00000E006E8A51005C02E18951E10804E273
:10410E0043364390FFDD02D070EC1AF013D063DC1F
:10411E0086DCEEDD0FD000018D51000AD8B481D7B8
:10412E008D51010A9FE08D51020AC3E08D51030AA1
:06413E00EEE0F0D71200D4
:104144004450010A07E16DBA05D0686A698069883C
:10415400020E446E68A405D069A403D0FB0E681651
:1041640062DD6DA202D072DD7AD068A018D069A099
:1041740016D07EDD040E446E200E0401026F040E80
:10418400036F080E016F000E0015006E00C000F4EE
:104194008C0E0011006E00C000F4FE0E681668A8B4
:1041A40005D069A803D054DDEF0E681668AC11D0B1
:1041B40069AC0FD0730E0001F46F000EF56FF66B4F
:1041C400F76B010EF86F000EF96F7DEC0EF0BF0E69
:1041D400681668AA04D069AA02D011EC1CF068A27F
:1041E40010D069A20ED0FF0E0001F46F3F0EF56FE0
:1041F400F66BF76B010EF86F000EF96F7DEC0EF0A5
:104204006A6A040E445C02E221DD29D069A626D044
:104214000001F16B040EF15D21E268A61BD06CCFA6
:10422400ABF0F70E6816780EAB15016E0150000A5C
:1042340003E18AEC1BF00DD0720E0001F46F000E46
:10424400F56FAB0EF66F000EF76FF86BF96B7DEC44
:104254000EF001D003D00001F12BDCD7F7DC120003
:104264000001A8A905D081BA01D0FDD7A89954D0DE
:10427400F00EA715016E0150F00A37E181BA01D0A2
:10428400FDD724D0A875A8A501D005D0DC6BA5C0A6
:10429400DDF093EC1AF028D00001A87BA8AB03D082
:1042A400A9C0A4F004D0A4C0A9F06AEC1CF01CD0EE
:1042B4000001A96B6AEC1CF017D0FF0E0001A96F76
:1042C4006AEC1CF011D0CDEC1AF00ED00001A6510E
:1042D400000AD8E0A651060ADFE0A651040AE8E085
:1042E400A651050AEAE0EFD717D0CDEC1AF081BA4F
:1042F40013D00001A8A30FD0800E006E800E39BE2B
:104304007F0E005C02E13950000805E3CDEC1AF0A1
:0A4314000001A893396AEBD71200EC
:10431E000001A8A515D0CEC0D3F0100ED46F330E69
:10432E00D56FDE0ED66F000ED76FCFC0D8F0D0C0CF
:10433E00D9F0D1C0DAF0D2C0DBF073EC1CF03CD077
:10434E000001A8AB15D0CEC0D3F0B80ED46F330E8B
:10435E00D56FDE0ED66F000ED76FCFC0D8F0D0C09F
:10436E00D9F0D1C0DAF0D2C0DBF073EC1CF024D05F
:10437E000001A8A915D0CEC0D3F0180ED46F330EFD
:10438E00D56FDE0ED66F000ED76FCFC0D8F0D0C06F
:10439E00D9F0D1C0DAF0D2C0DBF073EC1CF00CD047
:1043AE00CEC0D3F0CFC0D4F0D0C0D5F0D1C0D6F0AF
:0A43BE00D2C0D7F0A5EC1CF01200ED
:1043C80026DD0001A8AF02D02EDEA89F8BA00BD05F
:1043D800010E455E000E465A000E461802E1000E18
:1043E8004518D8B48B90F70E8114006EF70E001A9A
:1043F80000524BE0BBEC0DF0C30E0C6ECD0E0D6EF3
:104408000D2EFED70C2EFCD7030E396EB26AB36A96
:10441800B180A8B916D0A8B514D0A8BB12D081B065
:1044280004D06EDD81B001D0FDD781B201D0B9DDF5
:1044380081B404D0A77581B401D0FDD781B801D06B
:10444800CDDD81BA01D00ADF81BC0CD0010E00019C
:10445800CE6F000ECF6F2E0ED06F000ED16F000EF4
:10446800D26F59DF81BE0CD0FF0E0001CE6F020E55
:10447800CF6F320ED06F000ED16F000ED26F4BDFB0
:10448800B1900001A8932EEC15F0A8B706D084B619
:1044980002D0D89007D0D88005D084B602D0D88072
:1044A80001D0D8900CE384A603D081EC14F002D09C
:1044B80006EC15F084B602D0A89701D0A88781D75A
:0244C800FFD71C
:020006002800D0
:1044CA0005010906A101854B050719E029E7150031
:1044DA0025017501950881027508950181039501E9
:1044EA0026FF0019002AFF008100750195030508BF
:1044FA001901290325019102750595019103C0054A
:10450A00010980A101855319002AFF00150026FF21
:10451A0000750895018100C0050C0901A1018543B8
:10452A0019002A3C021500263C02751095018100EB
:01453A00C0C0
:10453B003603520065006D006F00740065002000AB
:10454B0043006F006E00740072006F006C006C0013
:10455B006500640020004B006500790062006F006D
:10456B006100720064000000000000000000000009
:02457B0000003E
:10457D000902290001010180320904000002030033
:10458D0000020921010100012271000705810308C4
:09459D00000A0705010308000CE7
:1045A600120110010000000849524B2103000102CC
:0245B600000102
:1045B80052656C6561736520627574746F6E7321E2
:0145C80000F2
:1045C9003031323334353637383941424344454640
:0145D90000E1
:1045DA00456E61626C696E67205553422020202027
:0145EA0000D0
:1045EB0001012053656C6563742055736167650029
:0E45FB004B657970616420496E7365727400BF
:0E46090049524B212046756E6374696F6E0036
:0E46170057656220426F6F6B6D61726B7300AE
:0E4625004B65797061642044656C65746500B6
:0D463300555342205265616479202020001B
:0D4640004B657970616420526967687400F1
:0D464D004B657970616420456E74657200E4
:0D465A004D6564696120506C6179657200E6
:0D466700436F6E73756D65722044657600BB
:0D46740052657365742053776974636800A4
:0D4681005072696E742053637265656E009F
:0D468E005553422044697361626C656400FD
:0D469B00506F776572205377697463680073
:0C46A8005765622042726F7773657200E4
:0C46B400536574204164647265737300E8
:0C46C000576562205265667265736800E1
:0C46CC004B657970616420486F6D6500DB
:0C46D8005363726F6C6C204C6F636B00BE
:0C46E4004B6579706164205067557000D0
:0C46F0004B6579706164204C65667400B5
:0C46FC005465787420456469746F720086
:0C4708004B657970616420446F776E008F
:0C4714004B6579706164205067446E00B2
:0C4720004C696768742044656C61790086
:0B472C0049524B212076322E31310023
:0B4737005765622053656172636800E3
:0B47420043616C63756C61746F720062
:0B474D004B657970616420456E6400CC
:0A4758004261636B737061636500DA
:0A4762005061676520446F776E0018
:0A476C00506F776572206F666600DB
:0A477600475549202B20414C4C0010
:0A4780004D656E75205069636B00F3
:0A478A000A03490052004B00210011
:0A47940043617073204C6F636B00EB
:0A479E004D656E75204578697400C2
:0A47A8004B657970616420557000C4
:0A47B2000420416464726573730013
:0A47BC004465627567204F666600D1
:0A47C6004C69676874204F666600B6
:0947D0004B6579706164202B0037
:0947D9005765622053746F7000F3
:0947E2004B65797061642031001F
:0947EB004B657970616420340013
:0947F4004B65797061642033000B
:0947FD004B657970616420320003
:094806004B6579706164202D00FE
:09480F004E756D204C6F636B00C7
:094818004C69676874204F6E00C2
:09482100496E69742055534200F0
:09482A004B6579706164202A00DD
:094833004465627567204F6E00B8
:09483C004B6579706164202F00C6
:0948450053706163656261720049
:09484E004B6579706164203700AC
:094857004B6579626F6172640027
:094860004B657970616420380099
:094869004B657970616420350093
:094872004B6579626F617264000C
:09487B00436F6D707574657200E5
:094884004B657970616420360077
:09488D00576562204E6578740045
:094896004B65797061642030006B
:09489F004B6579706164203D0055
:0948A8004B6579706164202E005B
:0948B10057656220486F6D650037
:0948BA004B65797061642039003E
:0948C30057656220507265760011
:0848CC00506167652055700082
:0748D4004D656E75202D00FB
:0748DB004D656E75202B00F6
:0748E2004D656E7520030017
:0748E900496E736572740053
:0748F00053797374656D003C
:0748F70044656C6574650067
:0748FE004D656E75200100FD
:074905004D656E75200200F4
:07490C004D656E75200400EB
:06491300456D61696C00B6
:064919005348494654001A
:06491F00456A65637400A7
:06492500456E746572008E
:06492B00536C656570008D
:06493100207365637300B2
:05493700475549200076
:05493C00566F6C2D0018
:05494100414C54200070
:0549460043544C200069
:05494B00486F6D6500DE
:0549500057616B6500DA
:054955004D656E7500C8
:05495A0053746F7000B2
:05495F004D75746500B8
:05496400566F6C2B00F2
:0449690046313200A1
:04496D00456E64002F
:0449710043682D006A
:044975005265630024
:0449790043682B0064
:04497D00463233008B
:044981004632340086
:044985004F66660013
:044989000403090416
:04498D003E2F0600B3
:044991003E3E7C002A
:044995007C3C3C002A
:04499900463136006D
:04499D004631370068
:0449A1004631350066
:0449A5004631330064
:0449A900463134005F
:0449AD00463231005D
:0449B1004632320058
:0449B5004632300056
:0449B900463138004B
:0449BD004631390046
:0449C10045736300D7
:0449C50054616200D7
:0449C9004631310042
:0449CD00463130003F
:0349D1004632006B
:0349D4003E3E0064
:0349D7003C3C0065
:0349DA00042000B6
:0349DD004F6E001A
:0349E0004631005D
:0349E30046360055
:0349E60046350053
:0349E9004637004E
:0349EC004638004A
:0349EF004633004C
:0349F20046340048
:0349F50046390040
:0249F800290094
:0249FA0021009A
:0249FC002B008E
:0249FE005F0058
:024A0000240090
:024A020023008F
:024A0400400070
:024A0600250089
:024A08002A0082
:024A0A00260084
:024A0C005E004A
:024A0E003F0067
:024A10003E0066
:024A12003C0066
:024A140063003D
:024A160062003C
:024A180061003B
:024A1A007C001E
:024A1C007D001B
:024A1E007B001B
:024A200005008F
:024A2200220070
:024A24003A0056
:024A26004A0044
:024A2800490043
:024A2A00480042
:024A2C004D003B
:024A2E004C003A
:024A30004B0039
:024A320047003B
:024A340043003D
:024A360042003C
:024A380041003B
:024A3A00460034
:024A3C00450033
:024A3E00440032
:024A400057001D
:024A420056001C
:024A440055001B
:024A46005A0014
:024A4800590013
:024A4A00580012
:024A4C00540014
:024A4E00500016
:024A50004F0015
:024A52004E0014
:024A540053000D
:024A560052000C
:024A580051000B
:024A5A006400F6
:024A5C0039001F
:024A5E0038001E
:024A600037001D
:024A62003D0015
:024A64002D0023
:024A660030001E
:024A6800360016
:024A6A00320018
:024A6C00310017
:024A6E007A00CC
:024A700035000F
:024A720034000E
:024A740033000D
:024A76005B00E3
:024A780002003A
:024A7A00010039
:024A7C002F0009
:024A7E00060030
:024A8000030031
:024A820004002E
:024A84002E0002
:024A86003B00F3
:024A8800070025
:024A8A005D00CD
:024A8C002C00FC
:024A8E006000C6
:024A90002700FD
:024A92006C00B6
:024A94006B00B5
:024A96006A00B4
:024A98006D00AF
:024A9A007000AA
:024A9C006F00A9
:024A9E006E00A8
:024AA0006700AD
:024AA2006600AC
:024AA4006500AB
:024AA600060008
:024AA8006900A3
:024AAA006800A2
:024AAC003E00CA
:024AAE00750091
:024AB000740090
:024AB20076008C
:024AB400780088
:024AB600770087
:024AB80072008A
:024ABA00790081
:024ABC00730085
:024ABE00710085
:014AC00000F5
:014AC10000F4
:014AC20000F3
:014AC30000F2
:014AC40000F1
:014AC50000F0
:020000040030CA
:0E000000310E2E1EFF0081FF0FC00FE00F40DB
:00000001FF
